:020000040800F2
:1000000028030020BD010008030D00082D0D000885
:100010002F0D0008310D0008330D0008000000000E
:10002000000000000000000000000000350D000886
:10003000CD01000800000000CF01000813050008F2
:10004000D3010008D3010008D3010008A31300085E
:10005000D3010008D3010008D3010008D301000830
:10006000D3010008D3010008D3010008D301000820
:10007000D3010008D3010008B50A0008F70A0008F8
:10008000D3010008D3010008D301000800000000DC
:10009000000000000000000000000000D301000884
:1000A000D3010008D3010008D3010008D3010008E0
:1000B000D3010008D3010008D3010008D3010008D0
:1000C000D3010008D3010008D3010008D3010008C0
:1000D0001B0E00087B070008D3010008D3010008AD
:1000E000D3010008D3010008D3010008000000007C
:1000F0000000000000000000000000000000000000
:1001000000000000000000000000000000000000EF
:1001100000000000000000003B050008D3010008BB
:1001200000F002F800F03AF80AA090E8000C8244CF
:100130008344AAF10107DA4501D100F02FF8AFF2AC
:10014000090EBAE80F0013F0010F18BFFB1A43F0B5
:1001500001031847C8160000E8160000103A24BF33
:1001600078C878C1FAD8520724BF30C830C144BF1C
:1001700004680C607047000000230024002500265E
:10018000103A28BF78C1FBD8520728BF30C148BFFA
:100190000B6070471FB51FBD10B510BD01F007FB08
:1001A0001146FFF7F7FF00F092F901F025FB03B4C9
:1001B000FFF7F2FF03BC01F029FB000008480047ED
:1001C000FEE7FEE7FEE7FEE7FEE7FEE7FEE7FEE707
:1001D000FEE7FEE703480449044A054B7047000068
:1001E00021010008A8010020280300202802002087
:1001F0002802002001B508E04FF0E020006910F46B
:10020000803F02D00098401E009000980028F3D153
:1002100008BD70B505460C4600BF802001F0F2F91C
:100220002046FFF7E7FF802001F0E4F92046FFF7C2
:10023000E1FF681EC0B20500EFD1802001F0E2F9B5
:1002400070BDC149096821F4607141EAC011BE4A1C
:1002500011607047704710B5002000F02CFF042893
:1002600004D14FF4815001F0C5F903E04FF48150FF
:1002700001F0C8F9012000F01EFF042804D14FF45A
:10028000015001F0B7F903E04FF4015001F0BAF961
:1002900044F2020001F0AEF91D2001F0B3F9012093
:1002A000FFF7CFFF10BD10B5022001F0A3F91D200C
:1002B00001F0A8F90020FFF7C4FF10BD10B502201F
:1002C00000F0F9FE042805D1082001F093F902207E
:1002D000FFF7B7FF172001F095F910BD704710B573
:1002E000052000F0D9FA10F0040F03D0632001F0CC
:1002F00081F933E0092000F0CFFA10F0010F03D0AC
:10030000212001F077F902E0212001F07BF909209A
:1003100000F0C2FA10F0020F03D0422001F06AF997
:1003200002E0422001F06EF9092000F0B5FA10F069
:10033000040F03D0042001F05DF902E0042001F075
:1003400061F9092000F0A8FA10F0080F03D0082086
:1003500001F050F902E0082001F054F9052000F006
:100360009BFA10F0090F03D064210320FFF751FF1F
:1003700010BD10B5052000F08FFA10F0040F03D067
:10038000632001F037F933E0092000F085FA10F01E
:10039000010F03D0212001F02DF902E0212001F00E
:1003A00031F9092000F078FA10F0020F03D0422052
:1003B00001F020F902E0422001F024F9092000F0C8
:1003C0006BFA10F0040F03D0042001F013F902E0DF
:1003D000042001F017F9092000F05EFA10F0080F70
:1003E00003D0082001F006F902E0082001F00AF924
:1003F000052000F051FA10F0090F07D01421032056
:10040000FFF707FF4FF47A70FFF7F4FE802001F04A
:10041000F9F810BD10B54FF480604B49091D086014
:1004200005210A20FFF7F5FE4FF080604649091DBF
:1004300008604FF47A70FFF7DDFE0121434801F0B8
:100440005DF910BD10B5042000F026FA113805281A
:1004500016D2DFE800F0030607080900FFF789FF5E
:100460000FE00EE00DE00CE0052000F015FA18B1E9
:10047000802001F0BFF802E0802001F0C3F800E026
:1004800000BF00BF042000F0FFF900F0DCF80121FC
:100490002E4801F033F910BD10B500F0E2F910F06C
:1004A000040F04D00121AFF2630001F027F900F03E
:1004B000D8F910F0100F04D00121AFF2A70001F01D
:1004C0001DF90121AFF22F0001F018F910BD00F065
:1004D00091FB00F0C1FC00F043FD00F03DFC00F09A
:1004E000DBFE4FF400401A49086000030860052055
:1004F000FFF7A7FE01F032F900F028FD62B6AFF277
:10050000670001F0ABF800F029F801E001F087F88E
:10051000FCE710B501F0BEF800F08BF90D4800883B
:10052000401C80B20B490880192805DB0020088098
:1005300000F0B6F901F050F810BD0748008A20F02D
:1005400001000549088270470C0C0140990400081D
:1005500010080140000000200010004010B5FD48C8
:10056000806940F48040FB498861FB480068FB4992
:100570000840F94908600846006840F0B00008608B
:100580000846006840F4806008600846006840F44F
:1005900040300860F248006820F44060F04908608C
:1005A0000846006840F440700860EE48008820F477
:1005B0008050EC490880081D008820F44050091D37
:1005C0000880D020E749091F088042F22400091D55
:1005D000088025200E21002807DA0A07140EE24AB7
:1005E00000F00F031B1FD45403E00A07130EDF4A69
:1005F000135400BF252000F093FA10BD0022DC4BFD
:100600001A80DC4A1170DC4A1060D64A128822F047
:100610000402D44B1A800278D24B083B1A80D14A8C
:10062000128842F04802CF4B1A807047012804D14B
:100630000103C94A0C32116004E04FF08051C64AF0
:100640000C32116070470020CC4908800021CC4852
:100650008078801ECA4A115410468078401E11547A
:1006600000201146087048708870C8700871704783
:1006700070B504460025C348008810F0010F01D072
:10068000002070BDBD480088401CBC490880BC48A3
:10069000807800284FD008460088401EB8490C5486
:1006A00008468078B5490988884264DCB448807877
:1006B000801EC1B2B24800F05AFC0546B0488078AE
:1006C000401EAF49085CB0EB252F31D1E9B2AC48F0
:1006D0008078801EAA4A105C814229D11046C078D9
:1006E000012802D0022814D109E00020A649088080
:1006F000A448008840F00100A24908800DE00020D5
:10070000A14908809F48008840F004009D49088066
:1007100003E0FFF798FF0020B3E700BF90480830E0
:10072000006880F480608E49083108600120A8E7E5
:10073000FFF789FF1FE0722C06D1914800787228DC
:1007400002D08F48047016E0A52C06D18C480078A2
:10075000722802D18A4844700DE054B1884800786C
:10076000722806D186484078A52802D18448847032
:1007700001E0FFF768FF002083E710B579480C38E7
:10078000008810F0200F1BD076480C38008810F03D
:100790000F0F0DD1734908390988C8B2FFF768FFF8
:1007A00070B17048008820F004006E49088007E0AE
:1007B0006C480C3800886B4808380088FFF743FF06
:1007C00068480C38008810F0080F07D065480C38CE
:1007D0000088644808380088FFF735FF61480C3806
:1007E000008810F0400F20D061480088401C80B283
:1007F0005F4908805F49097888420ED159480088CE
:1008000020F00800574908800846008840F004009E
:1008100008800020FFF70AFF07E0574800685449A6
:100820000988405C4F49083908804E480C380088D8
:1008300010BD55480088B0F57A7F0BDC524800881F
:10084000401C514908804F48008820F010004D4955
:10085000088005E04B48008840F0100049490880B6
:10086000704708B50020009072B646480088009096
:1008700062B6BDF8000008BD72B64249098801435E
:10088000404A118062B6704772B63E49098881437A
:100890003C4A118062B6704701463948405C704757
:1008A00010B53A48007810B1012877D172E0722073
:1008B00037490870A52048701A2088700120C87038
:1008C000A02008710A2048710B2088710C20C87183
:1008D000002000F048FE2E490872012000F043FE7F
:1008E0002B49487258208872C872087348730020D8
:1008F00000F0E1FB26498873012000F0DCFB24496D
:10090000C873022000F0D7FB21490874032000F0CF
:10091000D2FB1F494874112088740220C87400F06B
:1009200024FD1B49486108468078801EC1B21848E2
:1009300000F01DFB1649087608468078801EC1B27B
:10094000134800F014FB000A1149487600200F49B3
:10095000087023E000100240040801403FF3F3FF59
:10096000040C01400C38014018ED00E000E400E008
:100970000E000020100000201400002008000020BD
:10098000380000200A0000200C0000201100002088
:100990005C00002000206849087000BF00BF0120F3
:1009A000FFF744FE65488178FFF728FE10BD10B5BB
:1009B00063486449C864002048640846406C20F0DD
:1009C000200048640846406C40F010004864084627
:1009D000406C20F4407048640846406C20F04000B1
:1009E00048640846406C20F4406048640846406C07
:1009F00040F0800048640846406C40F002004864C3
:100A00000E2000F08DF810BD10B54D484D49086618
:100A1000002088650846806D20F020008865084623
:100A2000806D20F0100088650846806D20F44070CD
:100A300088650846806D20F0400088650846806D16
:100A400020F4406088650846806D40F0800088652D
:100A50000846806D40F0020088650F2000F060F8C5
:100A600010BD3848006810F4005F01D001207047C5
:100A70000020FCE74FF48052334B1A60314A526C2D
:100A800022F001022F4B5A641A4610659164526C91
:100A900042F001025A6470472A4A926D22F0010224
:100AA000284B9A651A465066D165926D42F0010254
:100AB0009A65704710B52348006810F4005F15D0A0
:100AC0002048406C20F001001E49486408464068F8
:100AD00040F4005048601A480830008840F0400058
:100AE000174908310880252000F01AF815480068D9
:100AF0001448006810BD1348006810F4003F0AD085
:100B00001048806D20F001000E4988650846406855
:100B100040F4003048600B4800680A48006870479D
:100B200000F01F020121914042094FF0E02303EB46
:100B30008202C2F800117047110000205C00002002
:100B4000043801400000024010080140002100204C
:100B5000794A126842F48032774B1A6000BF764AB5
:100B6000126802F40030491C10B9B1F5A06FF6D13B
:100B7000714A126812F4003F01D0012000E0002009
:100B8000012836D16C4A52686B4B5A601A4652683B
:100B90005A601A4652685A601A46526822F47C1209
:100BA0005A601A46526842F498125A601A461268FD
:100BB00042F080721A6000BF5F4A126812F0007F34
:100BC000FAD05D4A526822F003025B4B5A601A4623
:100BD000526842F002025A6000BF574A526802F05F
:100BE0000C02082AF9D1544A126842F40022524BEE
:100BF0001A60704700B55048006840F001004E4947
:100C00000860084640684D4908404B49486008461E
:100C100000684B490840484908600846006820F4CD
:100C2000802008600846406820F4FE0048604FF4C9
:100C30001F0088600020C862FFF788FF41484249D2
:100C400048604248486000BD00BF3F49C96811F094
:100C5000010FFAD13C49C96811F0200F02D02021C0
:100C6000394AD1603849096941F00201364A1161B7
:100C700011464861096941F04001116100BF3249E4
:100C8000C96811F0200FFAD020212F4AD1601146F7
:100C9000096921F002011161704730B5034600BFB8
:100CA000294CE46814F0010FFAD1274CE46814F0E1
:100CB000200F02D02024244DEC60234C246944F002
:100CC0000104214D2C6100200FE01D5C441C1C5DC3
:100CD00005EB04240C5200BF1B4CE46814F0200FF9
:100CE000FAD02024184DEC60801C9042EDD3164CB5
:100CF000246924F00104144D2C6130BD01460878AC
:100D000070470D48806840F400000B49886000BFC0
:100D10000F48006800F4E0600E490843001D0C49CC
:100D20000860BFF3408F00BF00BFFEE77047704709
:100D30007047704770470000001002400000FFF04D
:100D4000FFFFF6FE2301674500200240AB89EFCD8F
:100D50000CED00E00000FA053B4800683B49084004
:100D6000394908600846006840F4000008600846F9
:100D7000006840F4401008600846006820F04070A9
:100D800008600846006820F0406008600846006877
:100D900040F0006008604FF480402B490C3108603F
:100DA0002948006840F0004027490860084600686C
:100DB00040F0405008602648C06940F48040244913
:100DC000C861002023490880091D08800420091FEC
:100DD00008800846008840F67B3108431D4908809A
:100DE00070471C480830008800F0800070470146BA
:100DF00000BF18480830008810F0800FF9D115485E
:100E00000C30018000BF13480830008810F0800FBC
:100E1000F9D110480C30008870470E48083000881F
:100E20000C480830008800F001000A4908310880A9
:100E30000846008800F0200008800846008800F07E
:100E40004000088070470000040C0140FFFF3F3F56
:100E500000100240003800403648806940F00D0024
:100E6000344988613448406840F000703249486035
:100E70003248006820F0C000304908600846006829
:100E800040F0300008600846006820F440600860C8
:100E90000846006840F4407008602948006820F463
:100EA0004060274908600846006840F440700860C8
:100EB0002248006820F00C002049086008460068BD
:100EC00040F003000860084600681E4908401B49BE
:100ED0000860084600681C4908431849086008462D
:100EE000006820F040400860081D006820F0CC0039
:100EF000091D0860081F006840F04050091F086085
:100F0000081D006840F03300091D08600C48001DF2
:100F1000006820F0C0200A49091D086008460068E2
:100F200040F4405008600846006840F040500860B7
:100F3000704700000010024000000140000C01401A
:100F400000080140FF3F33F30030330345F6BF5044
:100F50004FF0E02148618861072008617047000078
:100F60000D48406940F040000B494861704710B59A
:100F700002460A48806840F00100084CA060002347
:100F800004E01078054C2060581CC3B28B42F8DB9B
:100F90000248006880B210BD0010024000300240DC
:100FA000AE48806940F40170AC498861AC48006883
:100FB000C0F30B00AA490860A848406820F44040EC
:100FC000A64948600846406840F440404860002018
:100FD000A4490860A34928310860A249303108605B
:100FE0004FF460209F49091D0860084600689E492B
:100FF00008439C49091D08600846006840F0080045
:10100000086000BF9748001D006810F0080FF9D174
:101010009448001D006840F004009249091D0860D2
:1010200000BF9048001D006810F0040FF9D18F48F0
:10103000006820F078008D49086070470146C81CA0
:10104000884A303210608748001D006840F48000F4
:10105000844A121D106000BF8248001F006810F013
:10106000020FF9D07F48483000684FF4497250436E
:101070004FF47A72B0FBF2F080B270470146C82993
:1010800004DBB1F57A7F01DA02207047B1F57A7F8F
:1010900005DB40F6C410814201DC0420F5E7C829D5
:1010A00001DA1020F1E740F6C410814201DD08208A
:1010B000EBE70020E9E701466D48405C704710B55A
:1010C0006C480078FFF7BAFF6B49096808446A4921
:1010D00008606A480078401CC0B26849087010284F
:1010E0003BD165480068C0F30F106549614A12782A
:1010F00021F81200002060490860604908705D48CE
:101100000078401CC0B25B490870032825DD002030
:1011100008705B490878FFF7CEFF554908705849B9
:101120008878FFF7C8FF5249487055490879FFF79A
:10113000C2FF4F49887052498879FFF7BCFF4C497C
:10114000C8700846007849780843494989780843B7
:101150004749C97808434649087110BD10B50420B5
:10116000FFF76CFF4749096808444649086046484C
:101170000088401C80B24449088010280CD14148A6
:101180000068C0F30F103E49088100203D49086007
:101190003D490880012010BD0020FCE710B53B4808
:1011A0000088401C394908803948008810B101285E
:1011B00047D123E035480088022803D120202B495D
:1011C000091D086031480088B0F5FA6F15DBFFF79C
:1011D000C5FF00B935E02F4800882E49088128480E
:1011E000008908804FF400102049091D0860002084
:1011F0002649088001202649088022E023480088EB
:10120000022803D140201949091D08601F480088A1
:10121000B0F5FA6F14DBFFF7A1FF00B911E01D482C
:1012200040881C4948811648008948804FF4800056
:101230000E49091D086000201449088014490880DF
:1012400000BF00BF10BD01460D4830F811007047C7
:101250000146104830F811007047000000100240AD
:101260000008014004240140010010000C0C014062
:101270002A0000201D000020180000201C00002073
:1012800078000020200000202400002026000020FC
:1012900028000020820000205348C06940F0C05060
:1012A0005149C8615148006840F480704F49086056
:1012B0004D48006A00F40040B0F5004F3AD04A486B
:1012C000006A40F48030484908620846006A20F409
:1012D000803008620846006A40F4014008624448D1
:1012E000008840F010004249088047F6FF704049EE
:1012F000083108803E48008820F010003C490880F2
:101300003948006A40F001003749086200BF36489A
:10131000006A10F0010FFAD0354800884FF6F771D7
:1013200008403349088000BF3148008800F00800B9
:101330000828F9D12E48008840F010002C49088078
:101340000120091F0880081D008820F01000091DD9
:10135000088003200121814042094FF0E02303EB84
:101360008202C2F8001100BF70472148183000887F
:101370001F491431098840EA014070471C49098817
:1013800041F010011A4A1180010C194A14321180DF
:10139000121D10801649098821F01001144A11808D
:1013A00070471348008810F0010F05D010480088DE
:1013B00020F001000E4908800D48008810F0020F4F
:1013C00005D00B48008820F0020009490880084831
:1013D000008810F0040F05D00548008820F00400B4
:1013E0000349088070470000001002400070004070
:1013F0000428004000207649088148818881C881FE
:10140000704700BF724800890028FBD070480089EF
:101410006F49088000BF6E4840890028FBD06C48A7
:1014200040896B494880704710B50020FFF710FFD6
:1014300067490989491C884207DC0020FFF708FF3B
:1014400063490989491E884231DA0020FFF700FF0D
:1014500004460420FFF7FCFE401C844209DA002009
:10146000FFF7F6FE04460420FFF7F2FE401E84421A
:1014700012DC5748408A401C80B255494882962861
:101480001FDD00204882062008815248006880F055
:1014900004005049086014E04FF480204D49091DB4
:1014A00008600020FFF7D4FE4949088109E04FF4A5
:1014B00080204849091D08600020FFF7C9FE444903
:1014C00008810120FFF7C4FE41494989491C88422F
:1014D00007DC0120FFF7BCFE3D494989491E8842CF
:1014E00031DA0120FFF7B4FE04460520FFF7B0FE15
:1014F000401C844209DC0120FFF7AAFE04460520B7
:10150000FFF7A6FE401E844212DA3148408A401C92
:1015100080B22F49488296281FDD0020488206208D
:1015200048812C48006880F001002A49086014E0D6
:101530004FF480302749091D08600120FFF788FE1D
:101540002349488109E04FF480302249091D086091
:101550000120FFF77DFE1E49488110BD01461C4851
:1015600030F8110070470146194A081D32F8100082
:10157000062800D17047164A081D32F8100064286A
:1015800001DA0520F6E7124A081D32F8100040F68D
:10159000B832904201DD0120ECE70D4A081D32F817
:1015A00010200B4830F811000A30824201DD022081
:1015B000E0E7074A081D32F81020054830F811000E
:1015C0000A38824201DA0420D4E70320D2E700007F
:1015D000920000200C0C014010B54FF400600D4942
:1015E00008600D480088FFF702FC4FF000600949D1
:1015F000086010BD72B6084909880143064A118087
:1016000062B6704772B6044909888143024A118064
:1016100062B670471008014030000020704770B576
:101620000024AFF207055D480568AFF20F00854260
:1016300002D1FFF7F3FF10E0002407E05749601CD8
:1016400051F8200041F82400601CC4B20A2CF5D1E6
:10165000AFF2370051498862A84770BD10B5014606
:101660000020002272B6012206E0431CD8B20B28EB
:1016700002D102B162B610BD484B53F82030AFF230
:101680006304A342F1D1454B43F8201002B162B686
:1016900000BFF0E710B5002441480068401C4049F5
:1016A000086000BF24E03F4850F83400AFF29301D7
:1016B000884200D11AE03B4800EBC4008088012832
:1016C00009D0384800EBC4008088401E354901EB42
:1016D000C401888009E0334951F83400FFF7BEFFA8
:1016E000AFF2C7002F4941F8340000BF601CC4B2FC
:1016F0000B2CD8D110BD2A480068704730B502467F
:101700000020002372B6012300200DE0254C54F880
:101710003040944206D1234C04EBC004A18003B1B5
:1017200062B630BD441CE0B20B28EFD1002011E0BE
:101730001C4C54F83040AFF21B15AC4208D1194C88
:1017400044F8302004EBC004A18003B162B6E8E79E
:10175000441CE0B20B28EBD100BFE2E7002000BF41
:1017600006E0AFF247110D4A42F82010411CC8B202
:101770000B28F6D100200AE0AFF25F11094A42F8C7
:101780003010002102EBC0029180411CC8B20B282E
:10179000F2D1704710B5FFF7D9FB10BDC000002093
:1017A00034000020EC0000207047704770477546F9
:1017B00000F028F8AE4605006946534620F00700C1
:1017C000854618B020B5FEF705FDBDE820404FF076
:1017D00000064FF000074FF000084FF0000B21F01B
:1017E0000701AC46ACE8C009ACE8C009ACE8C009E8
:1017F000ACE8C0098D4670470446AFF30080204630
:10180000FEF7D5FC0048704744010020014918202C
:10181000ABBEFEE726000200704700003C1800083F
:1018200000000020380000005C0100087418000867
:1018300038000020F00200007801000800000000DD
:101840000000000000000000000000000000000098
:101850000000000000000000000000000000000088
:101860000000000000000000000000000000000078
:041870000000000074
:0400000508000121CD
:00000001FF
