:020000040800F2
:10000000180F0020C9010008512400086B240008C3
:10001000852400089F240008B9240008000000007F
:10002000000000000000000000000000D3240008D1
:10003000D901000800000000DB01000837100008AB
:10004000DF010008DF010008DF010008B71E00081B
:10005000DF010008DF010008DF010008DF01000800
:10006000DF010008DF010008DF010008DF010008F0
:10007000DF010008DF010008172A0008552A0008E0
:10008000DF010008DF010008DF010008DF010008D0
:10009000DF010008DF010008DF010008DF010008C0
:1000A000DF010008DF010008DF010008DF010008B0
:1000B000DF010008DF010008DF010008DF010008A0
:1000C000DF010008DF010008DF010008DF01000890
:1000D0005322000853270008DF010008DF01000851
:1000E000DF010008DF010008DF01000800F002F86E
:1000F00000F05AF80AA090E8000C82448344AAF168
:100100000107DA4501D100F04FF8AFF2090EBAE865
:100110000F0013F0010F18BFFB1A43F0010318473B
:10012000B44D0000D44D00000A444FF0000C10F80C
:10013000013B13F0070408BF10F8014B1D1108BF65
:1001400010F8015B641E05D010F8016B641E01F805
:10015000016BF9D113F0080F1EBF10F8014BAD1C55
:100160000C1B09D16D1E58BF01F801CBFAD505E073
:1001700014F8016B01F8016B6D1EF9D59142D6D3CD
:10018000704700000023002400250026103A28BFF5
:1001900078C1FBD8520728BF30C148BF0B607047F9
:1001A0001FB51FBD10B510BD03F081FF1146FFF74D
:1001B000F7FF00F029FF03F09FFF03B4FFF7F2FF02
:1001C00003BC03F0A7FF000008480047FEE7FEE776
:1001D000FEE7FEE7FEE7FEE7FEE7FEE7FEE7FEE7F7
:1001E00003480449044A054B70470000ED0000082D
:1001F00018090020180F0020180B0020180B0020F1
:1002000001B508E04FF0E020006900F4803010B143
:100210000098401E009000980028F3D108BD10B54A
:10022000044601F03DF9204601F016FC0121084684
:1002300001F0F9FA10BDFE480088C0B2704710B551
:1002400004463CB90021312002F0E7FC0020F949C6
:1002500008801BE0F74800886040204050B1202112
:10026000022002F043FC0021312002F0D6FCF148CC
:1002700004800BE0022002F019FC00F0200028B1FD
:100280000121312002F0C9FCEA48048010BD70B59C
:10029000E948008800F0020010B102F0A9FC70BD2E
:1002A00002F060FF022809DC012002F04DFDE34866
:1002B000008820F44070E14908801DE002F052FF00
:1002C000032809D1022002F03FFDDC48008840F4F9
:1002D0008070DA4908800FE002F044FF04280BD157
:1002E000D349098801F0030002F02EFDD3480088AD
:1002F00040F40070D149088002F037FF302802D165
:10030000012002F04FFD02F030FF28B9C8490988EA
:1003100001F0010002F046FD02F027FF402805D160
:10032000C349098801F0030002F03CFD02F01DFF03
:10033000502802DB022002F035FD02F016FF4028B3
:1003400006DBBE48008840F48060BC49088005E0B8
:10035000BA48008820F48060B849088002F00CFF99
:1003600003280CD1B249098801F0030002F048FDCE
:10037000B248008840F40060B049088008E00120DD
:1003800002F03EFDAD48008820F40060AB490880D3
:1003900002F0F2FE012807D1202002F091FF04466E
:1003A000032003F060F8446202F0E6FE022807D161
:1003B0001F2002F085FF0446032003F054F8446236
:1003C00002F0DAFE032807D12D2002F079FF04465F
:1003D000032003F048F8446202F02EFA00F0040013
:1003E00030B99349098801F0010002F07FFC05E073
:1003F0008F49098801F0030002F078FC8F480088DB
:1004000000F4E06020B10121372002F006FC03E097
:100410000021372002F001FC012002F055FE3028B7
:100420000EDA022002F050FE302809DA032002F032
:100430004BFE302804DA042002F046FE302804DBAC
:100440000121382002F0E9FB03E00021382002F00E
:10045000E4FB012002F038FE302806DB77480088F4
:1004600040F010007549088005E07448008820F0CD
:10047000100072490880022002F026FE302806DBB8
:100480006E48008840F020006C49088005E06B4809
:10049000008820F0200069490880032002F014FE43
:1004A000302806DB6548008840F04000634908803A
:1004B00005E06248008820F0400060490880042080
:1004C00002F002FE302806DB5C48008840F0800025
:1004D0005A49088005E05948008820F080005749B3
:1004E0000880012002F0D9FD044603F0F7FB054621
:1004F000022002F0B8FFC561022002F0CEFD0446E2
:1005000003F0ECFB0546022002F0ADFF056203207C
:1005100002F0C3FD044603F0E1FB0546022002F0B1
:10052000A2FF4562042002F0B8FD044603F0D6FBAA
:100530000546022002F097FF8562012002F0EFFDE0
:1005400003280EDC022002F0EAFD032809DC032068
:1005500002F0E5FD032804DC042002F0E0FD03289E
:1005600004DD0121392002F058FB03E0002139208D
:1005700002F053FB012002F0D2FD032806DD2F48D4
:10058000008840F001002D49088005E02B480088D4
:1005900020F0010029490880022002F0C0FD032854
:1005A00006DD2648008840F002002449088005E066
:1005B0002248008820F0020020490880032002F031
:1005C000AEFD032806DD1D48008840F004001B49ED
:1005D000088005E01948008820F0040017490880C9
:1005E000042002F09CFD032806DD1448008840F03A
:1005F00008001249088005E01048008820F0080033
:100600000E490880012002F08AFD044603F07DFBBC
:100610000546012002F027FFC561022002F07FFDA0
:10062000044603F072FB0546012002F01CFF07E0C0
:100630000E00002016000020140000200C000020F6
:100640000562032002F06BFD044603F05EFB0546E5
:10065000012002F008FF4562042002F060FD04461C
:1006600003F053FB0546012002F0FDFE856200F019
:10067000C6FD302806DBFE48008840F48050FC4967
:10068000088005E0FA48008820F48050F849088086
:10069000F7480088FFF7D3FDF648008800F0020015
:1006A00010B11620F449088000F099FD032804D108
:1006B000F2490988C8B202F09FFA02F099FA00BF25
:1006C000EDE570B544F62060ED49888000F0E8FE65
:1006D000EC48006803F002FC02F0CCFE0621022088
:1006E00002F004FAE548038801221146262002F0B0
:1006F000B5FBE248038802220321242002F0AEFB6E
:10070000012003F0A6FB01280ADC022003F0A1FB74
:10071000012805DC002002F0C7FA002002F0D5FA1B
:10072000022002F0BDF900F0200402F0A6F80472E5
:1007300002F0E6FE044603F0FBFA012002F0C4FCDE
:1007400030280BDB012002F0BFFC054603F0C6FA9F
:10075000044604222146132002F0F7FE032002F093
:10076000B3FC30280BDB032002F0AEFC054603F09F
:10077000B5FA044605222146142002F0E6FE0320C5
:1007800002F09EFD044602F0BBFE04600A2002F067
:1007900097FD044602F0B4FE44600B2002F090FD89
:1007A000044602F0ADFE846002F0AAFE044602F0A8
:1007B000A9FE0121AFF2295003F020FC70BD70B5F5
:1007C000AC48008800F0020090B100F069FE0421FE
:1007D000022001F022F9022002F072FD044601F02D
:1007E0003BF900F0E3FDAFF2595003F0B7FB70BDE9
:1007F000022002F055F900F0400040B19D48008809
:1008000040F002009B49088016209B49088000F0B8
:1008100047FE9C48006803F061FB02F02BFE0621B6
:10082000022002F063F99548038801221146262030
:1008300002F014FB9148038802220321242002F0D5
:100840000DFB012003F005FB01280ADC022003F068
:1008500000FB012805DC002002F026FA002002F04F
:1008600034FA022002F01CF9044602F006F8047281
:10087000042002F015F9044601F0FFFF447202F073
:100880003FFE044603F054FA012002F01DFC30281C
:100890000BDB012002F018FC054603F01FFA0446AA
:1008A00004222146132002F050FE032002F00CFC2B
:1008B00030280BDB032002F007FC054603F00EFA9C
:1008C000044605222146142002F03FFE042002F0D7
:1008D000F7FC044602F014FE04600A2002F0F0FC6B
:1008E000044602F00DFE44600B2002F0E9FC0446D1
:1008F00002F006FE846002F003FE044602F002FEEF
:100900000121AFF2756003F079FB00BF6FE770B5AE
:10091000022002F0CBF800F0040000287ED002F0A4
:10092000A7FD008807287AD2DFE800F004FDFCFB71
:10093000FAF9F8005448008838B902F099FD841C8F
:1009400003220021204602F0E1F802F091FD4088E8
:10095000002838D1012200214C4802F00DF94B4803
:100960000088012829DA0120474908804022002117
:10097000474802F0CBF8414B1B88DAB2444B197858
:10098000424B187802F0F6FD022002F089F800F0E0
:10099000020060B100203C49088001203B490880EA
:1009A0001220354908800421022002F09FF801211D
:1009B000AFF2257003F022FB70BD002032490880A1
:1009C00001203249088002F053FD408801283BD1C4
:1009D000012200212D4802F0CFF82C480088012880
:1009E0002CDA01202849088040220021294802F001
:1009F0008DF8224B1B88DAB2264B1978234B1878D6
:100A000002F05EFE022002F04BF800F0020078B126
:100A100000201D49088001201C4901E011E1FBE094
:100A200008801320144908800421022002F05EF897
:100A30000121AFF2A57003F0E1FABDE700201249F1
:100A4000088001201149088002F012FD4088022828
:100A50006AD103220021104802F08EF80E48008867
:100A600003287CDA0120084908800B48008815E03B
:100A70000C00002014000020000000200E000020C8
:100A800098020020080000201C0000201A0000200E
:100A900002000020040000201800002088B903F0A4
:100AA00038FA04461722002102F030F803F031FA38
:100AB0000478FA490988CAB2F9490878214602F04F
:100AC00020FEF7480088012812D103F022FA841C86
:100AD0003B220021204602F019F803F01AFA84782C
:100AE000EE490988CAB2EE490878214602F009FEAB
:100AF000EB48008802281AD103F00BFA041D3B22B0
:100B00000021204602F002F803F003FA0479E349D9
:100B10000988CAB2E2490878214606E07BE079E01C
:100B200077E075E030E02EE02CE002F0EAFD0220F4
:100B300001F0B6FF00F00200C0B10020D9490880E2
:100B40000320D74908801420D749088003F0E1F931
:100B5000044603F0B5F9054601F08FFE00E00BE016
:100B6000C0F80A500421022001F0C0FF0121AFF6B5
:100B7000E10003F043FA1FE70020CA490880032080
:100B8000C749088049E048E002F072FC841C042256
:100B90000021204601F0BAFF02F06AFC40880428D8
:100BA0000AD1022002F05FFC00F13C046322012123
:100BB000204601F0E1FF06E002F0A1FA044602201F
:100BC00002F051FC8487022001F06AFF00F002006D
:100BD000E8B10421022001F089FF02F049FC4088BD
:100BE000032809DC1720B049088002F041FC847812
:100BF00001F043FE84710AE01820AB49088002200E
:100C000002F031FC90F83C4001F037FE847104E0C2
:100C100003E002E001E000E000BF00BFA34800687D
:100C200003F05CF902F024FC847802F021FC0678E1
:100C3000304602F018FC05462246012102F0FEFD76
:100C400035E000209749088003209549088001205D
:100C50009749088002F00CFC00214180002002F03E
:100C600002FC808E93490880002002F0FCFBC08EBD
:100C70009149088002F043FA0446022002F0F3FB97
:100C800084878A48006803F029F902F0F1FB0446E2
:100C90000622002101F03AFF02F0EAFB057828461F
:100CA00002F0E1FB04460022114602F0C7FD0121DB
:100CB000AFF6252003F0A2F900BF7DE67748008853
:100CC0004FF6FF71484075490880704710B500F035
:100CD0006DFB10BD10B579480078032806D100F0EF
:100CE0007EFA032802D0002001F086FF00F077FA98
:100CF0007249087008460078012804D0022807D0FD
:100D000003280FD109E0AFF2456003F027F911E0A5
:100D1000AFF2555003F022F90CE0AFF20D4003F0B2
:100D20001DF907E066A0FFF77AFA01216A4803F08F
:100D300065F900BF00BF10BD10B5002001F05CFFD9
:100D4000032001F0D3FF01F053FF02F0BCFF0121AB
:100D5000614803F053F910BD10B501F06DFD00F0CE
:100D6000040028B10121AFF22F0003F047F90AE097
:100D700001F025F910B900F0E3F920B10121AFF23B
:100D8000AB0003F03BF9AFF2BB0003F0E7F8012141
:100D9000AFF23B0003F032F910BD10B501F067FD72
:100DA00000F10E04204602F0ADF901F060FD00F103
:100DB0000804204602F03CF901F059FD00F11C0442
:100DC000204602F098F901F052FD00F10804204697
:100DD00003F020F801F04BFD00F11204204602F070
:100DE000B5F901F044FD00F11304204602F0C0F90A
:100DF00001F03DFD447902F083FB848601F037FD6C
:100E0000847902F07DFBC48601F031FD807C00F026
:100E10000F04032002F027FB848601F028FD048BD9
:100E2000032002F020FBC48601F021FDC48B0420C6
:100E300002F019FB848601F01AFD048C042002F0F4
:100E400012FBC48601F013FD448C042002F00BFB5E
:100E5000048701F00CFD848C042002F004FB44871D
:100E6000114800881238072872D2DFE800F00437F2
:100E700049515260680001F000FD1221017101F03A
:100E8000FCFC0C490978817102F03AFB0949098898
:100E9000818600200449088088E000000E000020C0
:100EA000180000201C000020000000200800002086
:100EB0001A00002002000020040000201E00002074
:100EC0005461736B5F436F6E74726F6C556E6974AF
:100ED0005F45727200000000590D000801F0CDFC62
:100EE0001321017101F0C9FC77490978C17102F041
:100EF00007FB75490988C18600207449088055E0C0
:100F000001F0BBFC142101710020704908804DE004
:100F10004CE001F0B2FC16210171FFF78CF9044698
:100F200001F0ABFC44710020684908803EE001F00C
:100F3000A4FC1721017100206449088036E001F00B
:100F40009CFC182101710020604908802EE0FFE719
:100F500001F093FC1121017100F051F9044600F0F9
:100F60003EF90443E4B201F088FC447101F07FFCD7
:100F7000447901F082FC847101F079FC847901F0FC
:100F80007CFCC47101F073FC4479002002F06BFA20
:100F9000848601F06CFC8479002002F064FAC48637
:100FA00001F065FC40694A49086000BF00BF01F0DC
:100FB0003EFB012001F053FC01F061FCAFF2672021
:100FC00002F0CCFF10BD10B502F014F94FF4FA6036
:100FD000FFF716F902E00A20FFF712F900F0EFFF21
:100FE00008B9012400E0002400F0AAF808B90120A3
:100FF00000E000200440002CEDD101F0A9FAAFF28E
:10100000A72002F0ABFF10BD01F099F900F080F8C5
:1010100001F078F800F08FFE02F0D2F803F01EF82D
:10102000AFF25D0002F09AFF01F088FA62B601E0CB
:1010300002F075FFFCE710B526480088401C80B21E
:1010400024490880FA2805DB00200880AFF293309D
:1010500002F084FF02F09EFF01F0D7FB1E480088DB
:1010600000F0020060B31D490988C8B201F0C4FD58
:101070001A490988C8B200F053FE0121302001F05E
:10108000CCFD17488088401C80B21549888044F602
:101090002061884204DA01F0CFFB00F0040090B137
:1010A00000200F498880012000F03AFE0A4800889D
:1010B00020F0020008490880002001F09DFD02E0B8
:1010C00000200749888010BD040000200000002097
:1010D0000800002020000020140000200E00002046
:1010E0009802002010B502464FF6FF7008E012F893
:1010F000013BC4B26340054C34F8133083EA20202E
:101100000B1EA1F10104E1B2F1D110BD224600088D
:101110006548806940F01D00634988616348406804
:1011200040F00070614948606148006820F4404028
:101130005F4908600846006840F440500860704706
:101140005C480088401C5B4908805B4800780328A5
:1011500019DA5748806848F2030108405749564A4F
:10116000127821F812005648006800F4C85155481A
:10117000514A127820F812104F480078401C4E490E
:1011800008700020704700204B4908704B480088C9
:101190004A494988084049494988484A9288114043
:1011A000084346490988454A928811400843C0438C
:1011B00045490880434800884249498808404149D8
:1011C0004988404A9288114008433E4909883D4A6F
:1011D0009288114008433D4908800120D2E73A48EF
:1011E000008800F0020008B10220704736480088ED
:1011F00000F0010008B10320F7E70120F5E73348CC
:10120000008800F4807080B93048008800F40060E5
:1012100058B12E48008800F4805030B172B60020DA
:101220002449088062B6102070472848008800F4DE
:10123000807080B12548008800F4006058B92348C8
:10124000008800F4805030B972B600201949088037
:1012500062B62020E8E717480088B0F5FA6F21DB76
:101260001A48008800F4807058B11848008800F4CB
:10127000006030B11548008800F4805008B130207B
:10128000D2E71248008800F4807058B10F480088F7
:1012900000F4006030B90D48008800F4805008B1B7
:1012A0004020C1E70020BFE70010024000000140DD
:1012B0000010014026000020280000202A00002005
:1012C00008080140300000202200002024000020F7
:1012D00001E0411E88B20028FBD1704710B54FF4E1
:1012E0008060F74908601420FFF7F2FF4FF080603C
:1012F000F34908601420FFF7EBFF10BD70B50446FA
:101300000D461DB10420EE49086003E04FF4802033
:10131000EB490860EB48006800F47F402043E9494E
:1013200008601420FFF7D4FFFFF7D8FF70BD012835
:1013300005D14105E44A11611021116116E002282E
:1013400005D1C104E04A1161202111610EE003289A
:1013500005D11021DC4A11612021116106E0042829
:1013600004D18104D84A1161C1041161704770B57C
:101370000646002517E005F1B801C8B20021FFF7C5
:10138000BDFF00240BE004F14001C8B20021FFF7CB
:10139000B5FF01213046FFF7B1FF601CC4B2402CFD
:1013A000F1DB681CC5B2082DE5DB70BD10B500246B
:1013B000C648007810B101286FD136E04FF4001014
:1013C000C149086110200861C1490978B831C8B223
:1013D0000021FFF793FF00214020FFF78FFF00243B
:1013E0000CE0BC490A880988491CBA4B1980BA49E3
:1013F000885C0121FFF782FF601CC4B2402CF0DB47
:10140000B44800884030B3490880B1480078401C97
:10141000C0B2AF490870082806DB00200870AD494B
:1014200008800120A949087037E04FF48010A649D0
:10143000086120200861A6490978B831C8B20021A6
:10144000FFF75CFF00214020FFF758FFA14800880C
:101450004030A049088000240CE09E490A88098891
:10146000491C9C4B19809C49885C0121FFF746FF71
:10147000601CC4B2402CF0DB95480078401CC0B220
:1014800093490870082807DB0020087091490880FC
:101490008E490870012010BD00BF00BF0020FAE790
:1014A000002004E000218C4A1154411C88B2B0F5A0
:1014B000806FF7DB7047002004E0FF21864A11545B
:1014C000411C88B2B0F5806FF7DB7047F0B5044679
:1014D000802C01DC402900DDF0BD0E46CF1701EB6A
:1014E0005777FF1004EBC717BDB2CF1701EB577743
:1014F000FF10A1EBC707BBB2774E705D1AB901268A
:101500009E40B0430CE0012A04D101269E400643D0
:10151000B0B205E0022A03D101269E404640B0B297
:101520006D4F785500BFD7E72DE9F84F04460D46BB
:1015300091469A4600260027B34600200090804638
:10154000802C07DCB9F1800F04DC402D02DCBAF1FD
:10155000400F01DDBDE8F88FAAEB0506A9EB0407F3
:10156000002E04DA76424FF0FF30009001E00120B7
:101570000090002F03DA7F424FF0FF3B01E04FF075
:10158000010B76007F00E9B2E0B20A9AFFF79EFFF6
:10159000B74213DDA6EB67080DE0B8F1000F03DBDF
:1015A00000980544A8EB07085C44B044E9B2E0B2F7
:1015B0000A9AFFF78BFF4C45EFD112E0A7EB6608C4
:1015C0000DE0B8F1000F02DB5C44A8EB06080098C0
:1015D0000544B844E9B2E0B20A9AFFF777FF5545EF
:1015E000EFD100BFB6E72DE9F04705460E4690461D
:1015F0009A4600240027A146802D03DD402E01DD00
:10160000BDE8F0874FFA88F70320A0EB48004FFAB7
:1016100080F951E0F219D1B22A19D0B25246FFF73F
:1016200055FFF21BD1B22A19D0B25246FFF74EFF36
:10163000F219D1B22A1BD0B25246FFF747FFF21B74
:10164000D1B22A1BD0B25246FFF740FF3219D1B2B5
:10165000EA19D0B25246FFF739FF321BD1B2EA196C
:10166000D0B25246FFF732FF3219D1B2EA1BD0B2E4
:101670005246FFF72BFF321BD1B2EA1BD0B25246C3
:10168000FFF724FFB9F1000F09DA2046611C4CB2C4
:10169000062101EB800048444FFA80F90CE0204617
:1016A000611C4CB239467A1E57B2401A0A2101EB2E
:1016B000800048444FFA80F9BC42ABDD00BF9FE791
:1016C000100C01400C080140001001403C000020BB
:1016D000380000203A000020C20200202DE9F84F17
:1016E00007460D4690461E46DDF828A0BAF1640F65
:1016F00001DDBDE8F88F01203346424631460090B7
:101700003846FFF711FF0120334642462946009034
:101710004046FFF709FF012033463A46294600902C
:101720003846FFF701FF01202B464246294600902C
:101730003846FFF7F9FE01206B1EA8F10702691E6B
:101740000090F81DFFF7F0FE0120AB1EA8F1070284
:10175000A91E0090F81DFFF7E7FE701BC01E00FBDE
:101760000AF0642190FBF1F000F0FF0900240BE087
:1017700001200090B01E031BA8F10202011BB81C3F
:10178000FFF7D2FE601CC4B24C45F1DB701BC01EDB
:1017900000F0FF0B5C460BE000200090B01E031B26
:1017A000A8F10202011BB81CFFF7BEFE601EC4B206
:1017B0004C45F1DC00BF9CE718280ADC082908DC4E
:1017C0004A1ED301421E02EB420203EB4202FE4BD1
:1017D0001A807047002004E00021FC4A1154411C8B
:1017E000C8B22028F8DB704730B5014600200EE073
:1017F00001EB81020244F64B9B5CF34A1488128889
:10180000521CF14D2A80F34A1355421CD0B20528D0
:10181000EEDB0023EC4A14881288521CEA4D2A8021
:10182000EC4A135530BD70B505460E46162D01DC49
:10183000082E01DD1625082631462846FFF7BCFF95
:10184000002408E0E148005D18B1E049085DFFF7B9
:10185000CBFF601CC4B2C5F11600A042F2DCFFF75A
:10186000B9FF70BDF0B5044600210022002000231E
:101870004BE004EB84051D44D54E705D00F001057E
:1018800005EB450200F0020505EB450542EA45027D
:1018900000F0040505EB450542EA850200F0080565
:1018A00005EB450542EAC505EAB2001100F0010565
:1018B00005EB450100F0020505EB450541EA450150
:1018C00000F0040505EB450541EA850100F0080537
:1018D00005EB450541EAC505E9B2BE4DBA4E36886D
:1018E000AA552E46B84D2D886D1C7255B64D2D88C3
:1018F00080357155B44D2D8881357155B24D2D8887
:10190000AD1CB14E35805D1CEBB2052BB1DB002662
:10191000AD4D2F882D886D1CDFF8ACC2ACF800509F
:10192000AC4DEE5565462F882D886D1CACF80050E7
:10193000A84DEE55F0BD70B505460E463146284619
:10194000FFF73AFF002408E0A048005D18B19F4966
:10195000085DFFF787FF601CC4B2C5F10C00A04210
:10196000F2DCFFF737FF70BDF0B50446002100221E
:101970000020002343E004EB84051D44944E705D79
:1019800000F0010505EB450200F0020505EB4505F9
:1019900042EA450200F0040505EB450542EA8502EE
:1019A00000F0080505EB450542EAC505EAB200115D
:1019B00000F0010505EB450100F0020505EB4505CA
:1019C00041EA450100F0040505EB450541EA8501C2
:1019D00000F0080505EB450541EAC505E9B27D4D76
:1019E000794E3688AA552E46774D2D88803571550B
:1019F000754D2D886D1C744E35805D1CEBB2052B2A
:101A0000B9DB0026704D2F882D886D1CDFF8B8C11A
:101A1000ACF800506F4DEE55F0BD70B505460E4662
:101A2000162D02DD052E00DD70BD31462846FFF77C
:101A3000C3FE002408E06548005D18B16349085DF5
:101A4000FFF792FF601CC4B2C5F11600A042F2DCA1
:101A5000FFF7C0FE00BFE7E730B504460025FFF7FB
:101A6000B9FE05E014F8010BFFF7BEFE681CC5B215
:101A700020780028F6D1284630BD70B505460021F3
:101A8000B820FFF73BFC00214020FFF737FC002483
:101A900004E0285D4F490855601C84B2B4F5806F9E
:101AA000F7DB70BD3FB504460025E4B10EE00A2027
:101AB000B4FBF0F100FB1140303029466A1CD5B26E
:101AC00001AA50540A20B4FBF0F40095002CEED18A
:101AD00006E0691EC9B20D4601AA505CFFF784FEFC
:101AE000002DF6D107E03020FFF77EFE9DF80000C4
:101AF000401CC0B200909DF8000004B030BD7CB521
:101B000004460D46B4F5803F45DA052D43DA42F22E
:101B1000107094FBF0F0C0B28DF8040042F2107027
:101B200094FBF0F100FB114084B24FF47A7094FB07
:101B3000F0F0C0B28DF803004FF47A7094FBF0F12E
:101B400000FB114084B2642094FBF0F0C0B28DF829
:101B50000200642094FBF0F100FB114084B20A20E3
:101B600094FBF0F0C0B28DF801000A2094FBF0F174
:101B700000FB1140C0B28DF80000002609E0691E8C
:101B8000891B1DF8011001F13000FFF72DFE701CBC
:101B9000C6B2AE42F3DB681CC0B27CBD7CB5044665
:101BA0000D46B4F5803F4EDA052D4CDA42F2107046
:101BB00094FBF0F0C0B28DF8040042F2107094FB78
:101BC000F0F100FB114007E036000020A2020020E7
:101BD00022410008C202002084B24FF47A7094FBC4
:101BE000F0F0C0B28DF803004FF47A7094FBF0F17E
:101BF00000FB114084B2642094FBF0F0C0B28DF879
:101C00000200642094FBF0F100FB114084B20A2032
:101C100094FBF0F0C0B28DF801000A2094FBF0F1C3
:101C200000FB1140C0B28DF80000002609E0691EDB
:101C3000891B1DF8011001F13000FFF713FE701C25
:101C4000C6B2AE42F3DB7CBD5448006800F03330CE
:101C5000524908600846006840F033300860704719
:101C60004E48006800F0CC304C49086008460068D7
:101C700000F0333008600846006840F044300860E7
:101C8000704710B510204649086180034549086037
:101C900002200860FFF7E4FFFFF720FB3F48083011
:101CA0000068C4B24FF480103D49086180103D497E
:101CB000086040100860FFF7C7FF204610BD3A4893
:101CC000806940F01C00384988613548006820F47C
:101CD0004C003349086033481038006840F6CC4166
:101CE0008843304910390860081D006820F44C40D2
:101CF000091D08602A48006840F408102849086057
:101D000028481038006840F222210843254910393C
:101D10000860081D006840F40850091D08607047FD
:101D200020B14FF400611F4A116003E04FF00061E1
:101D30001C4A1160704710B5FFF7C1FF0120194917
:101D4000086000BFFFF79DFF00F010000028F9D1E8
:101D50000320FFF7ECFA0020FFF709FB0021B82071
:101D6000FFF7CCFA00214020FFF7C8FA0021C0207D
:101D7000FFF7C4FA00213F20FFF7C0FA00BFFFF7CA
:101D800080FF00F020000028F9D10420FFF7CFFAEF
:101D90004FF400600349086010BD000000080140D6
:101DA00000100140100C0140001002405648C0696C
:101DB00040F0C0505449C8615448006840F48070F5
:101DC000524908605048006A00F40040B0F5004FE6
:101DD0003BD04D48006A40F480304B4908620846C9
:101DE000006A20F4803008620846006A40F401402E
:101DF00008624748008840F010004549088047F6CF
:101E0000FF704349083108804148008820F01000E5
:101E10003F4908803C48006A40F001003A490862A6
:101E200000BF3948006A00F001000028F9D03848A6
:101E300000884FF6F77108403549088000BF3448E4
:101E4000008800F008000828F9D13148008840F0E7
:101E500010002F4908800120091F0880081D0088F4
:101E600020F01000091D0880032001218140420953
:101E7000920002F1E022C2F8001100BF704724482E
:101E80001830008822491431098840EA014070471F
:101E90001F49098841F010011D4A1180010C1C4A9C
:101EA00014321180121D10801949098821F0100187
:101EB000174A118070471648008800F0010058B199
:101EC0001348008820F0010011490880114800687B
:101ED00080F400600F4908600D48008800F002009F
:101EE00028B10B48008820F0020009490880084802
:101EF000008800F0040028B10548008820F00400A4
:101F00000349088070470000001002400070004044
:101F1000042800400C0C014010B50446204600F097
:101F200043F910BD10B504464FF080507049086069
:101F3000204600F039F94FF480506D49086010BD1B
:101F400010B500244020FFF7EDFF4FF080506849A6
:101F50000860C020FFF7E0FF00BF05E06549085DAD
:101F6000FFF7DAFF601CC4B2082CF7D34FF480509F
:101F70005F4908600320FFF7D5FF8A20FFF7D2FFF3
:101F800010BD70B5054600244FF0805058490860D8
:101F90004220FFF7C1FF002000F0EBF800BF04E093
:101FA00000F02AF92855601CC4B2052CF8DB01208A
:101FB00000F0DFF84FF480504D49086070BD10B557
:101FC00000244D48007803283FDA4B49097801EB9B
:101FD00081014A4A8818FFF7D4FF4748007800EB90
:101FE00080004649085C00F0240018BB4248007895
:101FF00000EB80000844407800F02400D0B93E484F
:10200000007800EB80000844807800F0240088B954
:102010003948007800EB80000844C07800F02400C4
:1020200040B93548007800EB80000844007900F0A2
:10203000240018B100203049087004E02E480078D0
:10204000401C2D490870002010BD00202A4908704E
:10205000002418E02948005D2849491D095D084011
:102060002649491D095D254A0A32125D114008437F
:102070002249095D214A0A32125D11400843204974
:102080000855601CC4B2052CE4DB0120DCE730B548
:10209000024600210023002400BF1CE01848405CD9
:1020A00000F002008001164D6D5C05F0100540EA5D
:1020B00085004D00284103431148405CC007000ED5
:1020C0000F4D6D5C05F0080540EAC5004D00284144
:1020D0000443481CC1B20429E0DB042A01D118469C
:1020E00030BD022A01D12046FAE70020F8E70000BF
:1020F000100C0140C206002046000020CB06002044
:102100003D00002059480068594908405749086077
:102110000846006840F4403008600846006840F413
:10212000000008600846006840F440100860084657
:10213000006840F0806008600846006840F0004099
:1021400008600846006840F0405008604948C0698F
:1021500040F480404749C861002047490880091D74
:102160000880081F008848F2E73108434249088088
:1021700070474149098821F040013F4A11800128F8
:1021800005D11146098841F48041118005E03A49A2
:10219000098821F48041384A11803749098841F083
:1021A0004001354A1180704708B50021009106E0D2
:1021B0000099491C0091B1F5A04F00D908BD2E49E6
:1021C0000831098801F002010029F1D000210091B5
:1021D00029490C31088006E00099491C0091B1F5AD
:1021E000A04F00D9EAE724490831098801F08001AD
:1021F0000029F1D100BFE1E708B50020009007E019
:102200000098401C0090B0F5A04F01D9002008BDF7
:1022100019480830008800F080000028F0D10090B4
:10222000FF2015490C31088007E00098401C009001
:10223000B0F5A04F01D90020E9E70F480830008829
:1022400000F001000028F0D00B480C300088C0B22C
:10225000DDE709480830008807480830008806484C
:10226000083000880448083000887047040C01409A
:10227000FFFF3333001002400038004000210020EF
:102280009A4A126842F48032984B1A6000BF974A0B
:10229000126802F40030491C10B9B1F5A06FF6D1F4
:1022A000924A126802F400320AB1012000E00020D4
:1022B000012843D18E4A126842F010028C4B1A60FA
:1022C0001A46126822F003021A601A46126842F097
:1022D00002021A60854A526842F48062834B5A6057
:1022E0001A46526822F47C125A601A46526842F426
:1022F000E8125A601A46126842F080721A6000BFF3
:102300007A4A126802F00072002AF9D0774A5268BD
:1023100022F00302754B5A601A46526842F00202DC
:102320005A6000BF714A526802F00C02082AF9D1C3
:102330006E4A126842F400226C4B1A60704700B576
:102340006A48006840F00100684908600846406833
:102350006849084065494860084600686649084081
:10236000624908600846006820F48020086008463A
:10237000406820F4FE0048604FF41F008860FFF7BB
:102380007DFF5E485A4948605D48486000BD00BF17
:102390005749C96801F001010029F9D15449C968B8
:1023A00001F0200111B12021514AD1605049096941
:1023B00041F002014E4A116111464861096941F03C
:1023C0004001116100BF4A49C96801F0200100299C
:1023D000F9D02021464AD1601146096921F0020155
:1023E0001161704730B5034600BF414CE46804F00A
:1023F0000104002CF9D13E4CE46804F0200414B12F
:1024000020243B4DEC603A4C246944F00104384DE3
:102410002C61002010E01D5C441C1C5D05EB0424B5
:102420000C5200BF324CE46804F02004002CF9D0B8
:1024300020242F4DEC60801C9042ECD32C4C24695E
:1024400024F001042A4D2C6130BD01460878704704
:1024500010B5FFF725F82BA0FFF7FEFA012108467B
:10246000FFF7E1F9FEF7A2FF10BD10B5FFF718F86E
:1024700025A0FFF7F1FA01210846FFF7D4F9FEF78E
:1024800095FF10BD10B5FFF70BF822A0FFF7E4FA97
:1024900001210846FFF7C7F9FEF788FF10BD10B508
:1024A000FEF7FEFF1EA0FFF7D7FA01210846FFF74F
:1024B000BAF9FEF77BFF10BD10B5FEF7F1FF1BA0C8
:1024C000FFF7CAFA01210846FFF7ADF9FEF76EFFE4
:1024D00010BD10B5FEF7E4FF17A0FFF7BDFA01210C
:1024E0000846FFF7A0F9FEF761FF10BD001002409B
:1024F000002002400000FFF0FFFFF6FE23016745C9
:10250000AB89EFCD4E4D4900486172644661756CF0
:10251000740000004D656D4D616E616765000000DF
:102520004275734661756C7400000000557331612B
:1025300067654661756C74005356430003484FF05D
:10254000E021486188610720086170473F19010058
:1025500010B5FE48006820F44C60FC49086008464D
:10256000006840F0B00008600846006840F48060F1
:102570000860F748406820F04060F5494860084628
:10258000406840F040704860F248806940F4804004
:10259000F0498861F048008820F48050EE490880B6
:1025A000081D008820F44050091D088040F2712069
:1025B000E949091F088042F22400091D08802520EE
:1025C0000E21002807DA0A07140EE44A00F00F0370
:1025D0001B1FD45403E00A07130EE14A135400BF33
:1025E000252000F04CFA10BD0022DE4B1A80DE4A96
:1025F0001170DE4A1060D84A128822F00402D64BCD
:102600001A800278D44B083B1A80D34A128842F0D1
:102610004802D14B1A807047012802D18103CC4A6D
:102620001161022802D14107C94A11617047002097
:10263000CF4908800021CF48C078801ECD4A115470
:102640001046C078401E1154002011460870487092
:102650008870C8700871704710B50446C448008877
:10266000401CC3490880C348C078002829DD0846BB
:102670000088401EBF490C540846C078BC490988F0
:10268000884264DCBB48C078801EC1B2B948FEF7FE
:1026900029FDB849C98C884210D1B64880780128F4
:1026A00002D1FEF77AFB03E0FFF7C1FF002010BD67
:1026B00000BF0020B04908800120F8E7FFF7B7FF0E
:1026C00045E0AC48007872280CD0AA484078A5288C
:1026D00008D0A8488078012804D0722C02D1A548DF
:1026E000047034E0A348007872280CD1A1484078E7
:1026F000A52808D09F488078012804D0A52C02D1B5
:102700009C48447023E09B48007872280CD199487B
:102710004078A52808D197488078012804D0012C5A
:1027200002D19448847012E09248007872280CD14B
:1027300090484078A52808D18E488078012804D197
:10274000002C02DD8B48C47001E0FFF770FF002011
:10275000ADE710B580480C38008800F02000D8B1F3
:102760007D480C38008800F00F0068B97A490839B4
:102770000988C8B2FFF770FF70B17748008820F071
:1027800004007549088007E073480C3800887248D7
:1027900008380088FFF74BFF6F480C38008800F0BE
:1027A000080038B16C480C3800886B48083800883D
:1027B000FFF73DFF68480C38008800F0400000B388
:1027C00068480088401C80B26649088066490978DC
:1027D00088420ED16048008820F008005E490880D9
:1027E0000846008840F0040008800220FFF714FF2C
:1027F00007E05E4800685B490988405C5649083933
:10280000088055480C38008810BD5B480088401C83
:1028100080B259490880B0F57A7F06DC57480088B5
:1028200020F004005549088005E05448008840F035
:10283000040052490880704708B50020009072B625
:102840004E480088009062B6BDF8000008BD72B620
:102850004A4909880143494A118062B6704772B6F5
:10286000464909888143454A118062B6704741480C
:10287000704701463F48405C70474148704710B57B
:1028800072203F490870A5204870022088701020EF
:10289000C8700846C078801EC1B23948FEF722FCD5
:1028A0003749C8810120FFF7B7FE3548C178FFF7E7
:1028B0009BFE10BD00B5FFF7BAFE0120FFF7CFFF6A
:1028C00000BD01462B48405C00F00F00704710B57A
:1028D000214808382B49C864002048640846406CE9
:1028E00020F0200048640846406C40F01000486426
:1028F0000846406C20F4407048640846406C20F064
:10290000400048640846406C20F440604864084633
:10291000406C40F0800048640846406C40F0020083
:1029200048640E2000F0ABF810BD10B50A48083816
:1029300014490866002088650846806D20F0200054
:1029400088650846806D20F010001DE004080140F5
:1029500000100140001002400C38014018ED00E06A
:1029600000E400E04E000020500000205400002051
:1029700048000020600700204C0000204A00002092
:10298000880700200000024088650846806D20F41A
:10299000407088650846806D20F0400088650846D4
:1029A000806D20F4406088650846806D40F08000AE
:1029B00088650846806D40F0020088650F2000F0B1
:1029C0005EF810BD3348006800F4005008B10120E3
:1029D00070470020FCE74FF480422F4B1A612D4ACC
:1029E000526C22F001022B4B5A641A461065916416
:1029F000526C42F001025A647047264A926D22F0EE
:102A00000102244B9A651A465066D165926D42F0D8
:102A100001029A65704710B51E48006800F4005026
:102A200098B11C48406C20F001001A4948640846DF
:102A3000406840F4005048601848008840F040006A
:102A400016490880252000F01AF81248006811483D
:102A5000006810BD0F48006800F4003050B10D4808
:102A6000806D20F001000B4988650846406840F4FD
:102A7000003048600748006806480068704700F06A
:102A80001F02012191404209920002F1E022C2F8A6
:102A90000011704700000240001001400C38014056
:102AA00010B504462046FFF7F2FA10BD70B5044693
:102AB00000252046FFF7EBFA054625B90021A01EA8
:102AC000484A11540DE0A01E4649085CA84207D0B0
:102AD000A01E0D54601E085C6840611E414A50549F
:102AE00000BF00BF601E3F49085C70BD022805D1D1
:102AF0003C4A52788A433B4B5A7006E0042804D182
:102B0000384AD2788A43374BDA70704770B504463A
:102B10000D4616460220FFF7BAFA082802D0102800
:102B200024D111E03048007800F0080058B92E4850
:102B3000007840F008002C4908702088A84202DD87
:102B40002088401E208015E02748007800F0100003
:102B500058B92548007840F01000234908702088B3
:102B6000B04202DA2088401C208003E000201E4989
:102B7000087000BF00BF70BD70B504460D46164614
:102B80000220FFF784FA202802D0402824D111E047
:102B90001648007800F0200058B91448008840F02A
:102BA0002000124908802088A84202DD2088401EAB
:102BB000208015E00D48007800F0400058B90B481F
:102BC000008840F04000094908802088B04202DABD
:102BD0002088401C208003E000200449088000BFBA
:102BE00000BF70BD42000020580000205A000020A5
:102BF00010B5FFF7A5F910BDFE4908704870887040
:102C0000C870087148718871C871704710B5FF208D
:102C1000FFF7F2FFFFF7ECFF10BD30B502460B46A1
:102C20000020082A05DB1446D51702EB5575C5F3BD
:102C3000C700A2EBC004E1B2302A0ED0312A0CD07A
:102C4000322A0AD0332A08D0342A06D0E94C245C30
:102C500003258D40AC43E74D2C54012B07D1E54CA7
:102C6000245C01258D402C43E24D2C541BE0022BAB
:102C700008D1E04C255C02248C402543ECB2DD4DAC
:102C80002C5410E0032B07D1DA4C245C03258D4033
:102C90002C43D84D2C5406E0D64C255C03248C40A4
:102CA000A543D44C255430BD012807D1D149897999
:102CB00021F008010831CF4A917105E0CD498979A9
:102CC00021F00801CB4A91717047012807D1C94909
:102CD000897921F010011031C64A917105E0C5498A
:102CE000897921F01001C34A91717047C1498978EF
:102CF00021F00101BF4A91701146897821F002014B
:102D00009170012806D11146897821F00101491CF2
:102D1000917018E0022807D1B649897821F00201A4
:102D2000891CB44A91700EE003280CD1B14989780E
:102D300021F00101491CAF4A91701146897821F0B8
:102D40000201891C91707047AA49897821F04001DD
:102D5000A84A91701146897821F08001917001286C
:102D600006D11146897821F040014031917018E078
:102D7000022807D19F49897821F0800180319D4A3E
:102D800091700EE003280CD19A49897821F0400116
:102D90004031984A91701146897821F08001803144
:102DA000917070479349897821F01001914A917090
:102DB0001146897821F020019170012806D1114631
:102DC000897821F010011031917018E0022807D1A4
:102DD0008849897821F020012031864A91700EE0DF
:102DE00003280CD18349897821F010011031814AE0
:102DF00091701146897821F020012031917070473F
:102E00007C49897821F004017A4A917011468978C9
:102E100021F008019170012806D11146897821F02E
:102E20000401091D917018E0022807D171498978C1
:102E300021F0080108316F4A91700EE003280CD18F
:102E40006C49897821F00401091D6A4A9170114684
:102E5000897821F008010831917070472DE9F04719
:102E600080460F4614461D464FF00009002604F028
:102E7000010010B14FF01309042604F0020010B154
:102E80004FF01409052604F0040010B14FF01509A5
:102E9000062604F0080010B14FF01609072600F0CE
:102EA0006BF9032808D11F2000F00AFA8246324647
:102EB00051461E2000F049FB384600F005F9302845
:102EC0001FDB204600F0C5FF032807DB05F00300E9
:102ED00040F002014046FFF7A0FEA7E0204600F0C8
:102EE000B8FF012807D105F0030040F0010140467A
:102EF000FFF793FE9AE005F003014046FFF78DFED1
:102F000094E0204600F0A5FF20B900214046FFF7DD
:102F100084FE8BE0204600F09CFF012820D1012197
:102F20004046FFF77AFE1F2000F0CAF9824632467B
:102F30005146484600F009FB701CC1B20B20FEF759
:102F400072FC2D20FEF750FC292000F0B9F98246D2
:102F5000FEF782FDF11E88B20121FEF7D0FD65E08B
:102F6000204600F076FF032860DB1F2000F0A8F960
:102F7000824632465146484600F0E7FA701CC1B21C
:102F80000B20FEF750FC2D20FEF72EFC204600F013
:102F900060FF032805D1282000F092F98246FEF751
:102FA0005BFD204600F055FF042805D12E2000F0DF
:102FB00087F98246FEF750FD204600F04AFF0528BB
:102FC00005D1192000F07CF98246FEF745FD204628
:102FD00000F03FFF062805D11A2000F071F9824663
:102FE000FEF73AFD204600F034FF072809D11B20E8
:102FF00002E00000C206002000F062F98246FEF7FF
:103000002BFD204600F025FF082805D11C2000F0EC
:1030100057F98246FEF720FD0120FFF745FE01200B
:10302000FFF753FE02214046FFF7F7FDBDE8F087AA
:10303000017801F0F001524A1170114609782029F7
:1030400003D0114609784F4A1170417801F0F00120
:103050004D4A117011460978202903D0114609788C
:103060004A4A1170817801F0F001494A1170114605
:103070000978202903D011460978464A1170C17891
:1030800001F0F001444A117011460978202903D05B
:1030900011460978414A117070470146012902D151
:1030A000374800787047022902D137480078F9E79D
:1030B000032902D136480078F4E7042902D13648C2
:1030C0000078EFE72020EDE70146012902D12D48E5
:1030D00000787047022902D12C480078F9E70329CB
:1030E00002D12C480078F4E7042902D12B4800785B
:1030F000EFE72020EDE70188294A11807047284832
:10310000008870470178274A11704178264A11706B
:103110008178264A1170C178254A1170704701469E
:10312000012902D11F4800787047022902D11E48A8
:103130000078F9E7032902D11C480078F4E7042954
:1031400002D11B480078EFE70520EDE7017801F098
:103150000F01184A11700178491C01F0F001164A5C
:103160001170704713480078704713480078704713
:103170000178124A117070471048007870470000BB
:103180005C000020600000205D0000206100002045
:103190005E000020620000205F000020630000202D
:1031A0006400002066000020670000206800002006
:1031B000690000206A0000206B0000206C000020E5
:1031C00010B5F848F8490860F8484860F848886041
:1031D000F848C860F8480861F8484861F8488861CC
:1031E0000020F84908804880FFF789FF0146F04831
:1031F000818710BD10B5FEF753F9F348FEF73DFC8B
:10320000002403E0FEF7D2F8601C84B2102CF9DB36
:1032100010BD08B501203F23002208210090104670
:10322000FEF782F9012008237F2219460090002032
:10323000FEF77AF901203F237F22082100901046F3
:10324000FEF772F901203F230022194600907F20EB
:10325000FEF76AF9DD480088401C80B2DB4908802F
:1032600019280CDB00200880D9480088401CD84968
:103270000880084600881C2801DB00200880D4480C
:103280000078401EC2B2012324213F20FEF7ABF993
:10329000CF480278012324213F20FEF7A4F9012022
:1032A0003F237F22082100900020FEF73DF90120F6
:1032B00008237F223F2100900020FEF735F908BD4A
:1032C0000146012901D1C3487047022901D1C248F2
:1032D000FAE7032901D1C148F6E7042901D1C04822
:1032E000F2E7052901D1BF48EEE7062901D1BE4822
:1032F000EAE7072901D1BD48E6E7082901D1BC4822
:10330000E2E7092901D1BB48DEE70A2901D1BA4821
:10331000DAE70B2901D1B948D6E70C2901D1B84821
:10332000D2E70D2901D1B748CEE70E2901D1B64821
:10333000CAE70F2901D1B548C6E7102901D1B44821
:10334000C2E7112901D1B348BEE7122901D1B24821
:10335000BAE7132901D1B148B6E7142901D1B04821
:10336000B2E7152901D1AF48AEE7162901D1AE4821
:10337000AAE7172901D1AD48A6E7182901D1AC4821
:10338000A2E7192901D1AB489EE71A2901D1AA4821
:103390009AE71B2901D1A94896E71C2901D1A84821
:1033A00092E71D2901D1A7488EE71E2901D1A64821
:1033B0008AE71F2901D1A54886E7202901D1A44821
:1033C00082E7212901D1A3487EE7222901D1A24821
:1033D0007AE7232901D1A14876E7242901D1A04821
:1033E00072E7252901D19F486EE7262901D19E4821
:1033F0006AE7272901D19D4866E7282901D19C4821
:1034000062E7292901D19B485EE72A2901D19A4820
:103410005AE72B2901D1994856E72C2901D1984820
:1034200052E72D2901D197484EE72E2901D1964820
:103430004AE72F2901D1954846E7302901D1944820
:1034400042E7312901D193483EE7322901D1924820
:103450003AE7332901D1914836E7342901D1904820
:1034600032E7002030E701464F4850F8210070470E
:10347000544870470020534908804880704738B549
:10348000044601210846FEF7CEF92046FEF7E4FA8D
:1034900001211120FEF7C7F900F03BFD058802214C
:1034A0002846FEF72CFB00F034FD007900F0010007
:1034B00018B13A20FEF798F902E02020FEF794F9BF
:1034C00000F027FD458802212846FEF718FB012061
:1034D0000A237F22194600900020FEF725F80120DC
:1034E0000B237F22194600900020FEF71DF80120D3
:1034F0000C237F22194600900020FEF715F838BDF6
:103500006848704710B504462068FFF7B8FF0321EC
:103510000120FEF788F96068FEF79EFAA08E02216E
:10352000FEF7EDFA03210D20FEF77DF9A068FEF706
:1035300093FAE08E0221FEF7E2FA04210120FEF761
:1035400072F9E068FEF788FA10BD2DE9F0410646F1
:103550000C461546681CC1B20120FEF764F93046DE
:10356000FFF7AEFE0746FEF777FA2046FEF774FA3D
:10357000BDE8F08170B504460D46164684B90321B6
:103580000820FEF750F9074885862EB10146888E3F
:103590000221FEF7B4FA92E043A0FEF75DFA8EE056
:1035A00084E000007000002018080020B000002017
:1035B000F00000203001002070010020B001002048
:1035C00098070020F001002022480008F4010020A4
:1035D000F6010020264C00083A4C00084E4C00082A
:1035E0005E4C0008694C0008794C00088F4C0008BC
:1035F000A34C0008B84C0008CA4C0008D14C000885
:10360000D94C0008E14C0008E94C0008F14C0008D6
:10361000FF4C0008114D00081B4D00082B4D000801
:10362000324D0008394D0008404D0008474D000854
:103630004E4D00087F4D0008864D00088D4D000856
:10364000944D00089B4D0008A44D0008AF4D0008A4
:10365000B44D0008BA4D0008C04D0008CB4D00081D
:10366000D64D0008DD4D0008E14D0008EA4D000888
:10367000F54D0008FB4D0008FE4D0008074E000800
:10368000164E0008244E00082C4E0008364E000846
:10369000424E00084F4E00085D4E00086B4E000879
:1036A000794E0008D80700202020000003210820C0
:1036B000FEF7B9F8FE49888E0221FEF720FA70BDA8
:1036C00070B504460D4616468CB904210820FEF755
:1036D000AAF8F748C5862EB10146C88E0221FEF72A
:1036E0000EFA0DE0AFF24000FEF7B6F908E0042153
:1036F0000820FEF798F8EE49C88E0221FEF7FFF980
:1037000070BD2DE9F04104460D46164605210A20FC
:10371000FEF789F83A20FEF767F805210D20FEF73D
:1037200082F83A20FEF760F8A4B905210820FEF7D8
:103730007AF800F0EEFB05803EB100F0EAFB078866
:1037400002213846FEF7DBF90FE0AFF2A400FEF7E6
:1037500083F90AE005210820FEF765F800F0D9FB9F
:10376000078802213846FEF7CAF9012C14D1052139
:103770000B20FEF758F800F0CCFB45803EB100F07E
:10378000C8FB478802213846FEF7B9F90FE0AFF2CF
:10379000E800FEF761F90AE005210B20FEF743F887
:1037A00000F0B7FB478802213846FEF7A8F9022C43
:1037B00014D105210E20FEF736F800F0AAFB858013
:1037C0003EB100F0A6FB878802213846FEF797F944
:1037D0000FE0AFF22C10FEF73FF90AE005210E20B2
:1037E000FEF721F800F095FB878802213846FEF7A6
:1037F00086F9032C20D105210820FEF714F800F0EB
:1038000088FB078802213846FEF779F905210B204D
:10381000FEF709F800F07DFB478802213846FEF7E5
:103820006EF905210E20FDF7FEFF00F072FB878880
:1038300002213846FEF763F9BDE8F08170B5044611
:103840000E461546FDF72CFE2068FFF718FE46B120
:10385000EA1CD1B2974A505DFDF7E5FF96A0FEF74E
:10386000FBF80020FFF7FFFDA0427BD103210120E0
:10387000FDF7D9FF6068FEF7EFF80A208D49087060
:10388000002211460320FFF775FE04210120FDF7F9
:10389000CAFFA068FEF7E0F80A20864948700022B7
:1038A00011460320FFF70CFF05210120FDF7BBFFA8
:1038B000E068FEF7D1F810207E498870002211469A
:1038C0000320FFF71EFF06210120FDF7ACFF206952
:1038D000FEF7C2F87749C87002210B20FEF70FF9F6
:1038E0007449C97808447349C8702E20FDF77CFFDD
:1038F00002210A20FEF703F96E49C97808446D4990
:10390000C8702E20FDF770FF042140F2E370FEF72F
:10391000F6F86849C97808446649C870072101204B
:10392000FDF781FF65A0FEF797F862490871A08F47
:103930000421FEF7E4F85F49097908445D490871FC
:1039400008210120FDF76FFF5EA0FEF785F85949B9
:103950004871E08F0421FEF7D2F8564949790844AE
:10396000544948710120FFF77EFDA04227D1032171
:103970000120FDF758FF6068FEF76EF8E069FEF77A
:103980006BF804210120FDF74EFFA068FEF764F8F4
:10399000206AFEF761F805210120FDF744FFE06889
:1039A000FEF75AF8606AFEF757F806210120FDF786
:1039B0003AFF2069FEF750F8A06AFEF74DF80220A2
:1039C000FFF751FDA04264D103210120FDF72BFF39
:1039D0006068FEF741F837490870E069FEF73CF887
:1039E000401C3449097808443249087004210120F8
:1039F000FDF719FFA068FEF72FF82E494870206ADE
:103A0000FEF72AF8401C2B49497808442949487098
:103A100005210120FDF707FFE068FEF71DF82549A5
:103A20008870606AFEF718F8401C224989780844BB
:103A30002049887006210120FDF7F5FE2069FEF778
:103A40000BF81C49C870A06AFEF706F8401C19491B
:103A5000C97808441749C87007210120FDF7E3FE23
:103A60006069FDF7F9FF13490871A08F0321FEF784
:103A700046F81049097908440E490871084600794A
:103A8000801C087107210F20FDF7CDFE0FA0FDF768
:103A9000E3FF0320FFF7E7FCA04245D1032101200B
:103AA000FDF7C1FE6068FDF7D7FF024908700FE01F
:103AB00070000020F80100203C3D00004465627564
:103AC00067312D004465627567322D006D4200003C
:103AD000A08E0221FEF713F8AB4909780844AA49E1
:103AE000087004210120FDF79EFEA068FDF7B4FFD9
:103AF000A5494870E08E0421FEF701F8A2494978F3
:103B00000844A149487005210120FDF78CFEE068BA
:103B1000FDF7A2FF9C498870606AFDF79DFF9A49F6
:103B200089780844984988700420FFF79CFCA042DB
:103B300047D103210120FDF776FE6068FDF78CFF79
:103B400091498870A08E0421FDF7D9FF8E498978AC
:103B500008448D49887004210120FDF764FEA068A7
:103B6000FDF77AFF88498870E08E0421FDF7C7FFD2
:103B70008549897808448449887005210120FDF72A
:103B800052FEE068FDF768FF7F498870208F0421AE
:103B9000FDF7B5FF7C49897808447B498870062188
:103BA0000120FDF740FE2069FDF756FF7649C870F9
:103BB000608F0421FDF7A3FF7349C9780844724957
:103BC000C8700520FFF74FFCA0426BD103210120F4
:103BD000FDF729FE6068FDF73FFF6B498870A08EF6
:103BE0000221FDF78CFF684989780844664988708E
:103BF00004210120FDF717FEA068FDF72DFF6249A3
:103C00008870E08E0221FDF77AFF5F4989780844C9
:103C10005D49887005210120FDF705FEE068FDF78C
:103C20001BFF59498870208F0221FDF768FF564914
:103C3000897808445449887006210120FDF7F3FD76
:103C40002069FDF709FF5049C870608F0221FDF718
:103C500056FF4D49C97808444B49C87007210120D7
:103C6000FDF7E1FD6069FDF7F7FE47490871A08F98
:103C70000221FDF744FF444909790844424908718B
:103C800008210120FDF7CFFDA069FDF7E5FE3E49C3
:103C90004871E08F0221FDF732FF3B494979084422
:103CA000394948710620FFF7DEFBA0420AD1FDF733
:103CB000F7FB01210846FDF7B6FD34A0FDF7CCFE69
:103CC000FFF7A7FA70BD10B5FDF7EAFB3548FDF721
:103CD000C3FE04210320FDF7A6FD10BD01461029F7
:103CE00001D131487047202901D13048FAE7302905
:103CF00001D12F48F6E7402901D12E48F2E750299B
:103D000001D12D48EEE72D48ECE70146022901D10B
:103D10002B487047032901D12A48FAE7042901D129
:103D20002648F6E7052901D12148F2E70020F0E70F
:103D300010B50446FDF763FA102806D0202819D0E4
:103D4000302809D040281CD10DE01F49E160012135
:103D50003520FEF762FF14E01C49E16003213520A5
:103D6000FEF75BFF0DE01A49E16003213520FEF705
:103D700054FF06E01749E16002213520FEF74DFFB0
:103D800000BF00BF10BD0000F80100204D656E753A
:103D90003E50616765373A204C43442054455354A4
:103DA00000000000FF4C0008BA4D0008E14D00087B
:103DB000D64D0008C04D0008CB4D0008DD4D000871
:103DC000B44D0008AF4D00088F4C0008794C000836
:103DD000A34C0008B84C000810B54FF400603049FF
:103DE000086030490878FEF7DFF94FF000602C4991
:103DF000086010BD72B62B4909880143294A118019
:103E000062B6704772B6274909888143254A1180F6
:103E100062B67047017801F00F01234A11704178B2
:103E200001F00F01214A1170817801F00F01204A41
:103E30001170C17801F00F011E4A1170017901F073
:103E40000F011D4A1170417901F00F011B4A1170D9
:103E50007047014601F0010010B113480078704727
:103E600001F0020010B111480078F8E701F00400F9
:103E700010B10F480078F2E701F0080010B10D48CA
:103E80000078ECE701F0100010B10B480078E6E78D
:103E900001F0200010B109480078E0E70C20DEE7CF
:103EA000100801400002002002020020030200204E
:103EB0000402002005020020060200200702002064
:103EC00001460A884FF4616302FB03F04A88C2EBA3
:103ED000021200EB82008A88104470473C21B0FB3C
:103EE000F1F201FB12010C4A91803C21B0FBF1F090
:103EF000B0FBF1F201FB1201074A51803C21B0FBFB
:103F0000F1F01821B0FBF1F201FB1201024A11801D
:103F1000704701487047000008020020704770B5E4
:103F20000024AFF207055D480568AFF20F00854237
:103F300002D1FFF7F3FF10E0002407E05749601CAF
:103F400051F8200041F82400601CC4B20A2CF5D1BD
:103F5000AFF2370051498862A84770BD10B50146DD
:103F60000020002272B6012206E0431CD8B20B28C2
:103F700002D102B162B610BD484B53F82030AFF207
:103F80006304A342F1D1454B43F8201002B162B65D
:103F900000BFF0E710B5002441480068401C4049CC
:103FA000086000BF24E03F4850F83400AFF29301AE
:103FB000884200D11AE03B4800EBC4008088012809
:103FC00009D0384800EBC4008088401E354901EB19
:103FD000C401888009E0334951F83400FFF7BEFF7F
:103FE000AFF2C7002F4941F8340000BF601CC4B2D3
:103FF0000B2CD8D110BD2A480068704730B5024656
:104000000020002372B6012300200DE0254C54F857
:104010003040944206D1234C04EBC004A18003B18C
:1040200062B630BD441CE0B20B28EFD1002011E095
:104030001C4C54F83040AFF21B15AC4208D1194C5F
:1040400044F8302004EBC004A18003B162B6E8E775
:10405000441CE0B20B28EBD100BFE2E7002000BF18
:1040600006E0AFF247110D4A42F82010411CC8B2D9
:104070000B28F6D100200AE0AFF25F11094A42F89E
:104080003010002102EBC0029180411CC8B20B2805
:10409000F2D1704710B5FEF751FA10BD3408002078
:1040A0001002002060080020704770477047754676
:1040B00000F02CF8AE4605006946534620F0070094
:1040C000854618B020B5FCF78BF8BDE820404FF0CE
:1040D00000064FF000074FF000084FF0000B21F0F2
:1040E0000701AC46ACE8C009ACE8C009ACE8C009BF
:1040F000ACE8C0098D46704710B50446AFF30080A8
:104100002046BDE81040FCF758B800000048704752
:10411000B808002001491820ABBEFEE726000200C7
:104120007047000000000000005F0000000700076B
:1041300000147F147F14242A7F2A12231308646238
:1041400036495522500005030000001C22410000A2
:1041500041221C0014083E081408083E08080050BC
:1041600030000008080808080060600000201008FF
:104170000402000000000000005F000000070007CC
:1041800000147F147F14242A7F2A122313086462E8
:1041900036495522500005030000001C2241000052
:1041A00041221C0014083E081408083E080800506C
:1041B00030000008080808080060600000201008AF
:1041C0000402000000000000005F0000000700077C
:1041D00000147F147F14242A7F2A12231308646298
:1041E00036495522500005030000001C2241000002
:1041F00041221C0014083E081408083E080800501C
:10420000300000080808080800606000002010085E
:1042100004023E5149453E00427F400042615149FF
:10422000462141454B311814127F10274545453929
:104230003C4A494930017109050336494949360666
:104240004949291E00363600000056360000000895
:1042500014224114141414140041221408020151B0
:104260000906324979413E7E1111117E7F49494943
:10427000363E414141227F4141221C7F494949410B
:104280007F090909013E4149497A7F0808087F00F2
:10429000417F41002040413F017F081422417F407F
:1042A0004040407F020C027F7F0408107F3E414166
:1042B000413E7F090909063E4151215E7F091929C6
:1042C00046464949493101017F01013F4040403F95
:1042D0001F2040201F3F4038403F631408146307ED
:1042E000087008076151494543007F4141000204BD
:1042F0000810200041417F000402010204404040B8
:104300004040000102040020545454787F48444443
:10431000383844444420384444487F38545454186E
:10432000087E0901020C5252523E7F0804047800B4
:10433000447D40002040443D007F1028440000415F
:104340007F40007C041804787C08040478384444D6
:1043500044387C14141408081414187C7C080404D1
:10436000084854545420043F4440203C4040207CA2
:104370001C2040201C3C4030403C44281028440C69
:104380005050503C4464544C4400083641000000F6
:104390007F000000413608001008081008784641E8
:1043A0004678000000000000005F000000070007E2
:1043B00000147F147F14242A7F2A122313086462B6
:1043C00036495522500005030000001C2241000020
:1043D00041221C0014083E081408083E080800503A
:1043E000300000080808080800606000002010087D
:1043F0000402000000000000005F0000000700074A
:1044000000147F147F14242A7F2A12231308646265
:1044100036495522500005030000001C22410000CF
:1044200041221C0014083E081408083E08080050E9
:10443000300000080808080800606000002010082C
:104440000402000000000000005F000000070007F9
:1044500000147F147F14242A7F2A12231308646215
:1044600036495522500005030000001C224100007F
:1044700041221C0014083E081408083E0808005099
:1044800030000008080808080060600000201008DC
:1044900004023E5149453E00427F4000426151497D
:1044A000462141454B311814127F102745454539A7
:1044B0003C4A4949300171090503364949493606E4
:1044C0004949291E003636000000563600000814FF
:1044D0002241001414141414004122140802015142
:1044E00009067E1111117E7F494949317F494949A9
:1044F000367F01010103702927217F7F4949494106
:1045000077087F087741494949367F1008047F7F43
:104510001009047F7F0814224120413F017F7F0260
:104520000C027F7F0808087F3E4141413E7F010128
:10453000017F7F090909063E4141412201017F01B6
:104540000147281008071E217F211E6314081463E9
:104550003F2020205F070808087F7F407F407F3F83
:10456000203F205F017F4848307F4830007F007F38
:10457000484830414141493E7F083E413E46291965
:10458000097F20545454783C4A4A49317C54542879
:10459000007C0404040CC078447CC0385454541883
:1045A0006C107C106C44445454287C2010087C7C93
:1045B0002112097C7C1028440020443C047C7C08A7
:1045C00010087C7C1010107C38444444387C04046F
:1045D000047C7C14141408384444440004047C040F
:1045E000040C5050503C10287C28104428102844BB
:1045F0003C40407C400C1010107C7C407C407C7C1B
:10460000407C40FC047C5050207C5020007C007C8E
:1046100050502028444454387C10384438085434CE
:10462000147C0000C1C081C1400101C3C0038002ED
:1046300041C201C6C006800741C70005C1C581C48B
:10464000400401CCC00C800D41CD000FC1CF81CE04
:10465000400E000AC1CA81CB400B01C9C0098008C5
:1046600041C801D8C018801941D9001BC1DB81DACB
:10467000401A001EC1DE81DF401F01DDC01D801C0D
:1046800041DC0014C1D481D5401501D7C017801674
:1046900041D601D2C012801341D30011C1D181D0C3
:1046A000401001F0C030803141F10033C1F381F29C
:1046B00040320036C1F681F7403701F5C03580340D
:1046C00041F4003CC1FC81FD403D01FFC03F803E04
:1046D00041FE01FAC03A803B41FB0039C1F981F843
:1046E00040380028C1E881E9402901EBC02B802A2D
:1046F00041EA01EEC02E802F41EF002DC1ED81EC8B
:10470000402C01E4C024802541E50027C1E781E673
:1047100040260022C1E281E3402301E1C021802044
:1047200041E001A0C060806141A10063C1A381A2FA
:1047300040620066C1A681A7406701A5C06580648C
:1047400041A4006CC1AC81AD406D01AFC06F806E03
:1047500041AE01AAC06A806B41AB0069C1A981A8C2
:1047600040680078C1B881B9407901BBC07B807ACC
:1047700041BA01BEC07E807F41BF007DC1BD81BC0A
:10478000407C01B4C074807541B50077C1B781B673
:1047900040760072C1B281B3407301B1C0718070C4
:1047A00041B00050C190819140510193C05380525B
:1047B00041920196C056805741970055C19581940A
:1047C0004054019CC05C805D419D005FC19F819E03
:1047D000405E005AC19A819B405B0199C059805844
:1047E00041980188C04880494189004BC18B818A2A
:1047F000404A004EC18E818F404F018DC04D804C8C
:10480000418C0044C184818540450187C047804672
:1048100041860182C042804341830041C181818041
:1048200040401C1C3E7F0000000000000000000013
:10483000000000000080C0E0F0F8F8FCFCFEFEFE86
:10484000FE000000000000000000FEFEFEFEFEFE76
:10485000FEFEFEFCF8F0E0C00080F0F8FCFEFEFE7C
:10486000FEFEFEFCF8F08000001EFEFEFEFEFC00D8
:104870000000F8FEFEFEFE1E0000FEFEFEFEFEFE36
:10488000FEFEFEFEFEFE0080F0F8FCFEFEFEFEFEDA
:10489000FEFCF8F0800000FEFEFEFEFEFEF80000CA
:1048A00000FEFEFEFE000000000000000000000010
:1048B000C0F0F8FEFFFFFFFFFFFFFFFFFFFFFFFF5E
:1048C000FF000000000000000000FFFFFFFFFFFFEF
:1048D0000101FFFFFFFFFFFF00FFFFFFFFFFFF01E1
:1048E00001FFFFFFFFFFFF0000007FFFFFFFFFF85A
:1048F00000F8FFFFFFFF07000000010101FFFFFFBD
:10490000FFFFFF01010100FFFFFFFFFFFF0101FFAC
:10491000FFFFFFFFFF0000FFFFFFFFFFFFFFF000B3
:1049200000FFFFFFFF0000000000000080F0FCFF20
:10493000FFFFFFFFFFFF7F3F1F0F07030301010181
:1049400001000000000000000000FFFFFFFFFFFF6C
:104950000000FFFFFFFFFFFF00FFFFFFFFFFFF0063
:1049600000FFFFFFFFFFFF000000003FFFFFFFFF12
:10497000FCFFFFFFFF0700000000000000FFFFFF3B
:10498000FFFFFF00000000FFFFFFFFFFFF0000FF31
:10499000FFFFFFFFFF0000FFFFFFFFFFFFFFFFF034
:1049A00000FFFFFFFF0000000000E0FCFFFFFFFF33
:1049B000FFFF7F1F07010000000000000000000053
:1049C00000000000000000000000FFFFFFFFFFFFED
:1049D000FEFEFFFFCF87030100FFFFFFFFFFFF0089
:1049E00000FFFFFFFFFFFF0000000000FFFFFFFFD1
:1049F000FFFFFFFF030000000000000000FFFFFFBB
:104A0000FFFFFF00000000FFFFFFFFFFFF0000FFB0
:104A1000FFFFFFFFFF0000FFFFFFFF3FFFFFFFFF64
:104A2000F0FFFFFFFF000000C0FEFFFFFFFFFFFFE2
:104A30001F0100000000000080E0F0F8FCFEFEFF17
:104A4000FF000000000000000000FFFFFFFFFFFF6D
:104A50000303FFFFFFFFFFFE00FFFFFFFFFFFF005D
:104A600000FFFFFFFFFFFF00000000FEFFFFFFFF52
:104A7000FFFFFFFFFE0000000000000000FFFFFF3F
:104A8000FFFFFF00000000FFFFFFFFFFFF0000FF30
:104A9000FFFFFFFFFF0000FFFFFFFF003FFFFFFFE3
:104AA000FFFFFFFFFF0000F0FFFFFFFFFFFF1F0002
:104AB000000000000080F0FEFFFFFFFFFFFFFFFF90
:104AC000FF000000000000000000FFFFFFFFFFFFED
:104AD0000000FFFFFFFFFFFF00FFFFFFFFFFFF00E2
:104AE00000FFFFFFFFFFFF000000FFFFFFFFFF0FC2
:104AF000FFFFFFFFFFFF00000000000000FFFFFFBF
:104B0000FFFFFF00000000FFFFFFFFFFFF0000FFAF
:104B1000FFFFFFFFFF0000FFFFFFFF00003FFFFF61
:104B2000FFFFFFFFFF00E0FFFFFFFFFFFF0F0000A1
:104B300000000000F0FFFFFFFFFFFFFFFFFFFFFF90
:104B4000FF000000000000000000FFFFFFFFFFFF6C
:104B50000000FFFFFFFFFFFF00FFFFFFFFFFFF80E1
:104B600080FFFFFFFFFFFF0000FFFFFFFFFF0F00C1
:104B700001FFFFFFFFFFFF800000000000FFFFFFBD
:104B8000FFFFFF00000000FFFFFFFFFFFF8080FF2F
:104B9000FFFFFFFFFF0000FFFFFFFF0000007FFFA0
:104BA000FFFFFFFFFF007F7F7F7F7F7F7F00000091
:104BB000000000007F7F7F7F7F7F7F7F7F7F7F7F01
:104BC0007F0000000000000000007F7F7F7F7F7F6C
:104BD00000003F7F7F7F7F7F40010F1F3F7F7F7FF0
:104BE0007F7F7F3F1F0F01007F7F7F7F7F0F000050
:104BF00000017F7F7F7F7F7F40000000007F7F7FFD
:104C00007F7F7F00000000010F1F3F7F7F7F7F7F3E
:104C10007F3F1F0F0100007F7F7F7F000000007F2C
:104C20007F7F7F7F7F00D1C0CCCED2C5D1D2C8D00C
:104C3000CEC2C0CDC8C52E2E2E00D0C5C6C8CC2031
:104C4000D2C5D1D2C8D0CEC2C0CDC8DF2E00C1CB14
:104C5000CECAC8D0CEC2CAC020D3CFD02E00D3CFA8
:104C6000D0C0C2CBC5CDC8C500CDC0D1D2D0CEC971
:104C7000CAC020C1CBCECAC000CCE8EAF0EEF4EE48
:104C8000ED20EEF2F1F3F2F1F2E2F3E5F22100CCE5
:104C9000E8EAF0EEF4EEED20EFEEE4EAEBFEF7E505
:104CA000ED2E00CCE8EAF0EEF4EEED20EDE5E8F1D3
:104CB000EFF0E0E2E5ED2100CCE8EAF0EEF4EEED15
:104CC00020E0EAF2E8E2E5ED2100C0E4F0E5F12DB4
:104CD00000C3F0F3EFEFE02D00C2F0E5ECFF202D74
:104CE00000C4E0F2E020202D00CFE0F0E0EC202D29
:104CF00000D1EEF5F0E0EDE5EDE8E52E2E2E00CD4D
:104D0000E5F220F1E2FFE7E820F120D6CF212121D2
:104D100000CBE8EDE8E820C3F02E00CFEEE6E0F0AF
:104D2000EDFBE520F8EBE5E9F4FB00C7EEEDE03143
:104D30002D00C7EEEDE0322D00C7EEEDE0332D0083
:104D4000C7EEEDE0342D00C7EEEDE0352D00C7EEE7
:104D5000EDE0362D00C0F2F22E312D00C0F2F22E21
:104D6000322D00C0F2F22E332D00C0F2F22E342D7F
:104D700000C0F2F22E352D00C0F2F22E362D00CFFB
:104D8000EEE62E312D00CFEEE62E322D00CFEEE6F0
:104D90002E332D00C3CEE8D7D12D00CFE8F2E0EDC1
:104DA000E8E52D00D1EEF1F22ED3CCC7D72D00C00F
:104DB000CAD22E00CED2CACB2E00CDEEF0ECE0004F
:104DC000C2FBF8E520EDEEF0ECFB00CDE8E6E520D7
:104DD000EDEEF0ECFB00CEE1F0FBE22100CAC721D2
:104DE00000C0EDE0EBE8E72E2E00EDE5E8F1EFF096
:104DF000E0E2EDE000CCC8CAD02E00D0D30055E0F0
:104E0000EAE128C2293D00CEF1EDEEE520EFE8F21F
:104E1000E0EDE8E52D00CFE8F2E0EDE8E520E1EB9C
:104E2000EEEAE000C7E0F9E8F2E02100C0EBE3EED3
:104E3000F0E8F2EC3100CEF2EAEBEEEDE5EDE8E57C
:104E40002D00CEEFEEE2E5F9E0F2E5EBE82E00CE44
:104E5000EFEEE2E5F9E0F2E5EBFC312D00CEEFEE0E
:104E6000E2E5F9E0F2E5EBFC322D00CEEFEEE2E513
:104E7000F9E0F2E5EBFC332D00CFE8F2E0EDE8E5F8
:104E800020EEEFEEE2E5F92E2D0000004974656D8D
:104E900031202D20000000004974656D32202D2046
:104EA000000000004974656D33202D2000000000D3
:104EB0004974656D34202D20000000004974656D33
:104EC00035202D20000000004D656E753E50616755
:104ED00065360000F44E00080000002014020000B7
:104EE00028010008744F000814020020040D00007F
:104EF00084010008211A010201120A13031601425B
:104F000013694C1B08CA041AD1041AD9041AE10403
:104F10005AE9040124131B4D1B087F041A86041A46
:104F20008D041A9404012C1A11301A2B041A5504FA
:104F30001A32041A5C0413364E0B250840481A1620
:104F40002C1A07041AFE300A2DA47C411A423C1A7E
:104F500079041A4F041A5D041A6B04012C1AC83024
:104F60001A8C041A98041AA4041AB0040A2DBC441A
:044F7000012000001C
:04000005080000ED02
:00000001FF
