:020000040800F2
:1000000000100020A9010008811B000889140008C5
:1000100081190008D1050008A13A0008000000007D
:10002000000000000000000000000000C9240008DB
:10003000B901000800000000BB010008492F0008BA
:10004000BF010008BF010008BF01000859220008D5
:10005000BF010008BF010008BF010008BF01000880
:10006000BF010008BF010008BF010008BF01000870
:1000700045090008BF010008BF0100087D0900080C
:10008000BF010008BF010008BF010008BF01000850
:10009000BF010008BF010008BF010008BF01000840
:1000A000BF010008BF010008BF010008BF01000830
:1000B000BF010008BF010008BF010008BF01000820
:1000C000BF010008BF010008BF010008BF01000810
:1000D0009D24000895380008BF0100081539000864
:1000E000BF010008BF010008BF01000800F002F8CE
:1000F00000F04AF80AA090E8000C82448344AAF178
:100100000107DA4501D100F03FF8AFF2090EBAE875
:100110000F0013F0010F18BFFB1A43F0010318473B
:10012000A83C0000C83C00000A4410F8014B14F041
:100130000F0508BF10F8015B240908BF10F8014B38
:100140006D1E05D010F8013B6D1E01F8013BF9D181
:10015000641E03D0641E01F8015BFBD19142E4D31D
:10016000704700000023002400250026103A28BF15
:1001700078C1FBD8520728BF30C148BF0B60704719
:100180001FB51FBD10B510BD00F051F81146FFF7A7
:10019000F7FF03F091FD00F06FF803B4FFF7F2FFF3
:1001A00003BC00F077F8000008480047FEE7FEE7D0
:1001B000FEE7FEE7FEE7FEE7FEE7FEE7FEE7FEE717
:1001C00003480449044A054B70470000ED0000084D
:1001D000000A002000100020000C0020000C00206D
:1001E00040EA0103024630B59B0710D14FF00134BD
:1001F00000E008C208C91D1B9D4315EAC41FF8D0C2
:1002000013F0FF0102F8011B0DD01B0AF8E711F8EB
:10021000013B002B02F8013B05D011F8013B002BFC
:1002200002F8013BF3D130BD704770477047754607
:1002300000F02CF8AE4605006946534620F0070052
:10024000854618B020B5FFF7BBFFBDE820404FF052
:1002500000064FF000074FF000084FF0000B21F0B0
:100260000701AC46ACE8C009ACE8C009ACE8C0097D
:10027000ACE8C0098D46704710B50446AFF3008066
:100280002046BDE81040FFF788BF000000487047D7
:10029000A009002001491820ABBEFEE7260002009D
:1002A00070470000014601F10A000F4A10600E4835
:1002B0002C38006840F480000B4A2C3A106000BFD4
:1002C00009483438006800F002000028F8D00648D9
:1002D0001830006841F67872504342F21072B0FB59
:1002E000F2F080B270470000342401402448806955
:1002F00040F40470224988612248006800F07F4081
:10030000204908601E48406820F440401C4948606D
:100310000846406840F44040486000201A490860A0
:100320001949283108601849303108604FF46020BD
:100330001549091D08600846006814490843124918
:10034000091D08600846006840F00800086000BF0A
:100350000D48001D006800F008000028F8D10A4888
:10036000001D006840F004000749091D086000BF37
:100370000548001D006800F004000028F8D170470F
:100380000010024000100140042401400100100050
:100390004FF400200149086070470000100C014034
:1003A0001A48006820F0C020184908600846006814
:1003B00040F030200860081D006820F0CC00091DC6
:1003C00008600846006840F03300086008200F49C4
:1003D000103108608020086040000860400008601C
:1003E0000A4800680A490840084908600846006849
:1003F0000849084305490860102004491031086085
:10040000202008604020086070470000000C014078
:10041000FFFF33F300003303072840D2DFE800F08A
:10042000040D151E262F37004FF400011D4A1160E0
:10043000490011604900116031E08021194A1160C2
:10044000490411604900116029E04FF40001154A88
:100450001160C91311604904116020E08021114A24
:100460001160490011604904116018E04FF4000167
:100470000C4A116049001160C91311600FE080211E
:10048000084A116049041160C913116007E0802116
:10049000044A1160490011604900116000BF00BFAB
:1004A00070470000100C014016480188C078000910
:1004B00008B900207047B1F52A6F01DD0320F9E784
:1004C00040F63400814204DDB1F52A6F01DC0220E0
:1004D000F0E740F23A70814205DD40F63400814297
:1004E00001DC0420E6E740F2DC50814201DA06201C
:1004F000E0E740F23A70814201DC0520DAE70620AD
:10050000D8E7000078020020014601208840044A14
:100510001288104010B14FF6FF7070470020FCE7C2
:100520002602002028480088401C274908800846E9
:100530000088322190FBF1F201FB120028B9234818
:10054000008880F00100214908801F48008864214C
:1005500090FBF1F201FB120028B91C48008880F0E2
:1005600002001A49088018480088FA2190FBF1F22D
:1005700001FB120028B91548008880F004001349D7
:100580000880114800884FF4FA7190FBF1F201FBEA
:10059000120028B90D48008880F008000B49088037
:1005A000094800884FF47A7190FBF1F201FB1200C8
:1005B00040B90648008880F01000044908800020F7
:1005C0000149088070470000280200202602002010
:1005D0000120014908607047100C01400048704735
:1005E0002C02002000487047F802002000B5FFF7F9
:1005F000F5FF41880A4801600A4800684840084001
:10060000074A506007480068884390601046C068F9
:1006100052685040024AD0600248016000BD0000AC
:10062000F80200204002002000487047E402002049
:1006300000B5FFF7D3FF41880A4801600A48006807
:1006400048400840074A5060074800688843906067
:100650001046C06852685040024AD06002480160AB
:1006600000BD0000E40200203C0200200249C968ED
:100670008143014AD1607047D00200200146024800
:10068000C068084070470000D002002000B5FFF7A6
:10069000A5FF41880B4801600B48006848400840AE
:1006A000084A506008480068884390601046C06857
:1006B00052685040034AD060012010610248016036
:1006C00000BD0000D00200203002002004200149BB
:1006D000086070471008014010B528488078040968
:1006E00027480078012806D0022811D0032821D0FD
:1006F00006283CD132E0042C01D0022C02D1022089
:100700001F490870062C02D106201D49087032E0EE
:100710004FF480201B490860032C05D103201849A1
:100720000870002002F0CAFB062C02D106201449F2
:10073000087020E0042013490860002002F0C6FB86
:1007400041F28831884208DB032C03D001200C4998
:10075000087002E0002002F0B1FB0CE0042009491F
:100760000860062C02D001200549087003E0012032
:100770000349087000BF00BF10BD000078020020D0
:100780008602002010080140004870470C0300203A
:1007900070B52F4D002405E028682E4941F824004B
:1007A000641C2D1D2C488542F6D32A4800682B492D
:1007B00088424CD02AA12748001DFFF711FD2AA12D
:1007C00024480830FFF70CFD0120224908734873C4
:1007D000FF2088733220A1F80F0000204874002405
:1007E00009E001211B48123020F82410032100EBFE
:1007F00084004180641C042CF3D318481549086018
:100800000020C1F8F40301F0B7F90121017001F0F3
:10081000B3F9012141700E4D00240E48D0F8F403C5
:10082000401C0C49C1F8F40302F008FB284602F012
:10083000CDFA07E0074951F82400294602F00AFBE7
:10084000641C2D1D04488542F4D302F0EDFA70BDFE
:1008500000FC01080C030020000002087856341246
:10086000535730310000000048573031000000007D
:100870000448D0F8F803401C0249C1F8F8030846C0
:10088000704700000C03002070B5124C0025124880
:10089000D0F8F803E0B100200F49C1F8F80308468A
:1008A000D0F8F403401CC1F8F40302F0C7FA204664
:1008B00002F08CFA07E0084951F82500214602F0C1
:1008C000C9FA6D1C241D05488442F4D302F0ACFA29
:1008D00070BD000000FC01080C03002000000208AD
:1008E00010B504460D48406940F001000B494861CD
:1008F000201D0B4948620846C06940F01000C861DD
:100900000846C06940F08000C8610846C06940F0F0
:100910000200C8610C2001F034F910BD0010024043
:1009200000000240064AD26922F00102044BDA615B
:100930001A4690621162D26942F00102DA61704790
:10094000000002400B48006800F0200080B1094818
:10095000406840F02000074948600846C06920F020
:100960000100C8610448008840F040000249088046
:1009700070470000000002400C4800400A48006830
:1009800000F4003050B10848806D20F001000649A5
:1009900088650846406840F40030486002480068B6
:1009A000014800687047000000000240004870479E
:1009B0000C07002010B50C48806940F008000A4977
:1009C00088610A48006820F4402008490860084609
:1009D000006840F440300860881404490C31086015
:1009E00002F05EF910BD000000100240040C01404E
:1009F000F8B506460C46174603208DF80000201275
:100A00008DF80100E0B28DF802004FF080500A49E5
:100A100008600321684600F011F8002504E0FF207B
:100A200002F09CF970556D1CBD42F8D34FF4805014
:100A3000014908600120F8BD100C014070B5054661
:100A40000E46002403E0285D02F088F9641CB442DD
:100A5000F9D370BD1CB5002411A0006801900020DE
:100A600000904FF080500F490860012101A8FFF766
:100A7000E5FF00BFFF2002F071F904460098401C1A
:100A80000090B0F5A04F00D903E004F00100002869
:100A9000F0D100BF4FF480500249086000201CBD17
:100AA00005000000100C01402DE9FC5F80460D465A
:100AB00014464FF0000AD146CB4600260020019094
:100AC000009000272846E91705EB91618911A5EBF5
:100AD00081111FFA81FBCBF1400086B22046E1175D
:100AE00004EB9161C1F38F1AE11704EB9161891155
:100AF000A4EB81111FFA81F9BBF1000F33D1BAF1D8
:100B0000000F0BD1009429464046009A00F0C0F82F
:100B10000746012F71D03846BDE8FC9F10E0402009
:100B2000009029464046009A00F0B2F80746012F8F
:100B300001D03846F0E705F1400085B208F14008E1
:100B4000BAF10000AAF101011FFA81FAE7D1CDF84C
:100B5000009029464046009A00F09AF80746012F77
:100B600073D03846D8E7BAF1000F27D1B1451ADD66
:100B7000A9EB060080B20190009629464046009AF3
:100B800000F086F80746012F01D03846C4E7A819BF
:100B900085B2B0440198009029464046009A00F082
:100BA00077F8074606E0009429464046009A00F090
:100BB0006FF80746012F48D03846ADE7A01B84B236
:100BC0002046E11704EB91614FEAA11AE11704EB0B
:100BD00091618911A4EB81111FFA81F900962946D0
:100BE0004046009A00F054F80746012F01D03846DD
:100BF00092E7A81985B2B04411E026E040200090A9
:100C000029464046009A00F043F80746012F01D0DC
:100C1000384681E705F1400085B208F14008BAF195
:100C20000000AAF101011FFA81FAE7D1B9F1000F22
:100C30000BD0CDF8009029464046009A00F028F8E5
:100C40000746012F01D0384666E7012064E700001F
:100C500010B54FF0805005490860042002F07EF87E
:100C60004FF480500149086010BD0000100C014095
:100C700010B54FF0805005490860062002F06EF86C
:100C80004FF480500149086010BD0000100C014075
:100C9000F8B506460C46174602208DF800002012D3
:100CA0008DF80100E0B28DF80200FFF7E1FF4FF090
:100CB00080500F49086003216846FFF7BFFE0025FA
:100CC00009E0FFF773FE011D4068401C0860705D7D
:100CD00002F044F86D1CBD42F3D34FF48050044938
:100CE0000860FFF7B7FEFFF7B3FF0120F8BD000073
:100CF000100C0140004870479409002070B504466C
:100D00002546FFF76BFC064628790A490871687981
:100D10004871A8798871E879C87128680860687A8C
:100D20003070287A7070687A297A40EA01207080E1
:100D300070BD00009409002000487047180700208B
:100D400010B5002400F08EFF807800F00300022828
:100D500001D144F4807400F085FF8078C0F38100F5
:100D6000022801D144F4007400F07CFF8078042153
:100D7000B1EB101F01DC44F4806400F04FFF032846
:100D800001D144F4006401F06DF80078C0F3400034
:100D900008B144F40054FFF7ADFF0079032804D0F4
:100DA000FFF7A8FF0079042801D144F48054002003
:100DB00000F068F84088042801DB44F001040120B9
:100DC00000F060F84088042801DB44F002040220AF
:100DD00000F058F84088042801DB44F004040320A4
:100DE00000F050F84088042801DB44F0080400209B
:100DF00001F080FD032801DB44F01004012001F024
:100E000079FD032801DB44F02004022001F072FD8B
:100E1000032801DB44F04004032001F06BFD0328AC
:100E200001DB44F0800401F01BFC80780121B1EB70
:100E3000101F01D044F4804401F012FCC07801215D
:100E4000B1EB101F01D044F4004401F009FC00791B
:100E50000121B1EB101F01D044F480340748046035
:100E60000748006860402040044948600448006822
:100E7000A04388600248046010BD000018070020ED
:100E8000440200200146C1EBC100024A02EB4000CF
:100E900070470000600700200146C82904DBB1F557
:100EA000487F01DA02207047B1F5487F04DBB1F5D5
:100EB000FA6F01DC0320F6E7C82901DA0520F2E722
:100EC000B1F5FA6F01DD0420EDE70120EBE700004A
:100ED00010B50948007800F0D5F80748007800F010
:100EE0000DF805480078401CC0B20349087004287A
:100EF00001DB0020087010BD760200202DE9F041D2
:100F00000646301DC7B2C6EBC600394901EB4000AA
:100F1000841CC6EBC60001EB400000F10A05C6EBDD
:100F2000C60001EB4000C08818B900202080BDE851
:100F3000F0812088062857D2DFE800F0032E142124
:100F40004A502888032800D120802888022800D110
:100F500020802888042804DB384600F06FF901203F
:100F6000208042E02888032800D120802888042897
:100F700004DB384600F062F90120208035E0288843
:100F8000022800D120802888042804DB384600F09D
:100F900055F90120208028E02888042812DB3846F3
:100FA00000F044F940F6B831884210DB384600F0D2
:100FB00055F92888042800D120802888052806D1E2
:100FC000208004E0384600F049F9002020800CE041
:100FD0002888042801D00120208006E028880528E0
:100FE00001D00120208000E000BF00BF00BF9EE7CD
:100FF0006007002010B50246C1EBC1030E4C34F867
:1010000013301380C1EBC10304EB4303DB88D380AF
:10101000C1EBC10304EB43031B891381C1EBC10383
:1010200004EB43035B895381C1EBC10304EB43032E
:101030009B89938110BD00006007002000201CE008
:10104000C0EBC0010E4A22F811000021C0EBC00223
:101050000B4B03EB42025180C0EBC00203EB420298
:101060009180C0EBC00203EB42025181C0EBC00291
:1010700003EB42029181411CC8B20428E0DB7047B7
:10108000600700202DE9F0410546C5EBC5002C495D
:1010900001EB4000041DC5EBC50001EB4000871DBE
:1010A000C5EBC50001EB400000F10808C5EBC50029
:1010B00001EB400000F10A06208830B1012809D078
:1010C000022817D0032836D12FE03888012800D114
:1010D000208031E03088032804D1284600F0AEF8A3
:1010E00002202080388820B9284600F0B7F8002078
:1010F000208021E03088032811D1284600F096F89E
:10110000B8F8001001EB4102C2EBC111B0EBC10F06
:101110000ADB284600F0A2F80320208004E02846DD
:1011200000F09CF80120208006E03088022801D1E0
:101130000120208000E000BF00BFBDE8F08100007A
:101140006007002010B51F480078FFF7ABF81E4974
:10115000096808441C4908601C480078401CC0B25B
:101160001A49087010282BDB17480068C0F30F10CD
:1011700014490978C1EBC101154A02EB410188818C
:1011800010490978C1EBC10102EB41018889FFF7E1
:1011900083FE0C490978C1EBC1010D4A02EB410104
:1011A000488100200849086008490870054800780F
:1011B000401CC0B203490870042801DB00200870FD
:1011C00010BD000075020020700200207402002093
:1011D00060070020002006E0002100EB8002034BA6
:1011E0009954411CC8B20428F6DB704760090020FE
:1011F00008B502464FF6FF7000900DE012F8010BA3
:10120000BDF80030DBB25840074B33F81000BDF892
:10121000003080EA23200090081EA1F10103D9B21A
:10122000ECD1BDF8000008BD0000002001460248D6
:1012300030F8110070470000840900200549095C5E
:1012400031B90021044A22F810100121014A115439
:1012500070470000B0020020840900200021014AEC
:1012600011547047B002002032480078401CC0B2D0
:10127000304908700A285CDB002008702E4800788E
:1012800003281ADA2D4800682D492B4A127821F8D4
:1012900012002C4800682C49274A127821F81200C5
:1012A0002A4880682A49244A127821F812002248E4
:1012B0000078401C204908703BE000201E4908705F
:1012C0001F4800881E49498808401D4949881C4A12
:1012D0009288114008431A490988194A9288114096
:1012E00008431C4908801848008817494988084065
:1012F00015494988144A92881140084312490988BF
:10130000114A928811400843134908801048008808
:101310000F49498808400E4949880D4A9288114072
:1013200008430B4909880A4A9288114008430B492F
:1013300008807047060200200702002008080140CC
:1013400008020020080C01400E020020001001409D
:1013500014020020000200200202002004020020EB
:101360000146012902D1054800887047022902D1AF
:1013700003480088F9E703480088F6E700020020E8
:1013800002020020040200203748806940F03D003E
:10139000354988613548406840F0007033494860FD
:1013A0003348406820F0C000314948600846406832
:1013B00040F0300048602F48006820F00C002D49B4
:1013C00008600846006840F0030008604815284996
:1013D0000861401027490C3108602748006820F058
:1013E000C000254908600846006840F030000860E9
:1013F0000846006820F4406008600846006840F431
:10140000407008601B48001F006820F040401949E8
:10141000091F08600846006840F040500860164800
:10142000006820F00C00144908600846006840F08D
:10143000030008600E484068104908400C494860A5
:101440000F48006820F440600D4908600848406873
:101450000C490843064948600948006840F4407058
:10146000074908607047000000100240000001407A
:101470000010014004080140000C0140FF33F3FF5D
:10148000001401400033030002200349086080205B
:101490000249086070470000100C0140100801402C
:1014A00070470000002100202F4A126842F4803269
:1014B0002D4B1A6000BF2C4A126802F40030491C00
:1014C00010B9B1F5A06FF6D1274A126802F40032C4
:1014D0000AB1012000E00020012843D1234A12680C
:1014E00042F01002214B1A601A46126822F00302E1
:1014F0001A601A46126842F002021A601A4A5268CA
:1015000042F48062184B5A601A46526822F47C12E8
:101510005A601A46526842F4E8125A601A46126833
:1015200042F080721A6000BF0F4A126802F0007227
:10153000002AF9D00C4A526822F003020A4B5A6082
:101540001A46526842F002025A6000BF064A5268C8
:1015500002F00C02082AF9D1034A126842F4002270
:10156000014B1A607047000000100240002002404A
:1015700010B50021022000F011F80021072000F032
:101580000DF800210A2000F009F80021042000F0E5
:1015900005F80021012000F001F810BD70B50246E9
:1015A0000C460023294D2D78954200D170BD274D62
:1015B0002A700C2A2FD2DFE802F02D06090C0F1238
:1015C00015181B1E21272248042325E02148042347
:1015D00022E0214804231FE0204804231CE0204887
:1015E000042319E01F48042316E01F48052313E0D5
:1015F0001E48042310E01E4804230DE001251D4E63
:10160000F5703046052307E001251B4EF570304686
:10161000052301E0CAE700BF00BF184D2D88174D14
:101620002D1D2D8800210CE000BF144D2D8805F0E4
:101630008005002DF9D0455C104E361D35804D1CBF
:10164000E9B29942F0DB00BFB0E70000540200208D
:101650009C3D0008A03D0008A43D0008A83D0008EE
:10166000AC3D0008B03D0008B43D0008B93D00089D
:10167000BD3D0008480200204D0200200038014016
:1016800030B10749098841F00801054A118005E099
:101690000349098821F00801014A118070470000C0
:1016A00088020020004870476C02002070B5064692
:1016B0000C463546B4F5806F01D94FF480640CB107
:1016C000601E84B22146134800F0EAFD114880886C
:1016D00000F4004080B11048408820B10E48408896
:1016E000401E0D4948800B48808820F4004009497D
:1016F0008880084602F016FA064800682860054807
:101700008088A88003488079A8710248C079E87170
:1017100070BD0000560700206C02002010B5FFF7D6
:1017200049F900F0CFFD10BD70B5FFF705FB446827
:10173000FFF702FB856804F4807018B100210220D5
:1017400000F0E4F805F4807018B10021032000F0E7
:10175000DDF804F4007018B10021042000F0D6F880
:1017600005F4007018B10021052000F0CFF804F452
:10177000806018B10021062000F0C8F805F48060F0
:1017800018B10021072000F0C1F804F0010018B1E1
:101790000021082000F0BAF805F0010018B100217E
:1017A000092000F0B3F804F0020018B100210A206B
:1017B00000F0ACF805F0020018B100210B2000F099
:1017C000A5F804F0040018B100210C2000F09EF8E8
:1017D00005F0040018B100210D2000F097F804F086
:1017E000080018B100210E2000F090F805F0080064
:1017F00018B100210F2000F089F804F0100018B192
:101800000021102000F082F805F0100018B100212E
:10181000112000F07BF804F0200018B10021122004
:1018200000F074F805F0200018B10021132000F03A
:101830006DF804F0400018B10021142000F066F8A3
:1018400005F0400018B10021152000F05FF804F009
:10185000800018B10021162000F058F805F0800033
:1018600018B10021172000F051F804F4804018B19D
:101870000021182000F04AF805F4804018B100213A
:10188000192000F043F804F4004018B100211A2098
:1018900000F03CF805F4004018B100211B2000F0D6
:1018A00035F804F4803018B100211C2000F02EF827
:1018B00005F4803018B100211D2000F027F804F451
:1018C000005018B10021222000F020F805F400504B
:1018D00018B10021232000F019F804F4805018B149
:1018E0000021202000F012F805F4805018B10021EA
:1018F000212000F00BF870BD10B50020024948808F
:1019000002F034F910BD00006C02002070B50446EE
:101910000D4619480088B0F5806F02D100201649A5
:10192000088015480088401C1349088008464088F4
:10193000B0F5806F03D208464088401C48800E48AE
:101940000088B0F5806F02D901200B49088001F0B2
:1019500093FF0A4908600848008840F400408880E6
:1019600008468471C5710821FFF742FC03490881CC
:10197000084602F0D7F870BD6C0200204C0700202A
:1019800080200149086070471008014070B5044686
:10199000254601F071FF2860764800786877754821
:1019A0004078A87773488078E87701F03BF90088A1
:1019B000A5F81100002000F0DDFE00780109E87CA8
:1019C00061F30710E874002000F0D4FE0078E97C91
:1019D00060F30301E974012000F0CCFE00780109F6
:1019E000287D61F307102875012000F0C3FE007800
:1019F000297D60F303012975022000F0BBFE007809
:101A00000109687D61F307106875022000F0B2FEDD
:101A10000078697D60F303016975032000F0AAFE78
:101A200000780109A87D61F30710A875032000F074
:101A3000A1FE0078A97D60F30301A975E87D20F07F
:101A4000F000E875E87D20F00F00E875287E20F0B2
:101A5000F0002876287E20F00F0028760020FFF77F
:101A600011FA8078697E60F3071169760020FFF72C
:101A700009FA0079697E60F3030169760120FFF7B6
:101A800001FA8078A97E60F30711A9760120FFF79B
:101A9000F9F90079A97E60F30301A9760220FFF726
:101AA000F1F98078E97E60F30711E9760220FFF70B
:101AB000E9F90079E97E60F30301E9760320FFF795
:101AC000E1F98078297F60F3071129770320FFF778
:101AD000D9F90079297F60F30301297700F0C2F872
:101AE000807885F8200000F099F885F8210000F052
:101AF000B9F80088A5F80D0041F23420A5F80F00D0
:101B0000FFF7D0FD0088A880FFF7CCFD4088E88073
:101B100000F0A6FD0088288100F0A2FD8078A97A57
:101B200060F30301A97200F09BFD80780109A87A97
:101B300061F30710A87200F093FDC078E97A60F3B2
:101B40000301E97200F08CFDC0780109E87A61F3C5
:101B50000710E87200F084FD0079297B60F303012F
:101B6000297300F07DFD00790109287B61F30710DE
:101B7000287370BDBA02002000487047BA020020E6
:101B8000704700F01F02012191404209920002F1CA
:101B9000E022C2F80011704700F01F0201219140BD
:101BA0004209920002F1E022C2F8001170470000E1
:101BB00010B5002807DA0A07140E054A00F00F03D3
:101BC0001B1FD45403E00A07130E024A135410BD1E
:101BD00018ED00E000E400E010B504460120FFF736
:101BE000BFFB00F0010038B94FF40030094908602C
:101BF00003200949087010BD07480470022C02D167
:101C0000022004490860012C02D1600401490860E7
:101C100000BFF0E7100801402402002001480078CE
:101C200070470000240200200848806940F004004A
:101C3000064988610648006820F0C0000449086031
:101C40000846006840F0300008607047001002400D
:101C50000008014001B500BF0098411E0091002816
:101C6000FAD108BD00487047780200200848806912
:101C700040F00400064988610648006820F440608E
:101C8000044908600846006840F4407008607047E6
:101C9000001002400008014010B50420FEF702FBCE
:101CA0003B49096808443A4908603A480088401CA2
:101CB00080B23849088080281ED135480068C0F3BA
:101CC000CF10354908800846008800EB400101EB41
:101CD000C000401D0A2190FBF1F02F490880FEF75B
:101CE000E3FB2D49897860F307112B4881700020B0
:101CF00027490860274908800120FFF731FB044687
:101D000004F0080048B104F0100030B9224880788F
:101D100020F00C00001D2049887004F0080048B92C
:101D200004F0100030B11C48807820F00C0008301E
:101D3000194988701948006800F0400048B900202F
:101D4000174908801448807820F00300401C12498D
:101D5000887013480088401C80B211490880B0F593
:101D6000C87F08DB002008800B48807820F0030043
:101D7000801C094988700848C07800F0030028B921
:101D80000548807820F003000349887010BD0000EA
:101D90008002002084020020780200200808014010
:101DA0007C02002010B5FEF7A5FF0079022803D1C0
:101DB000FEF73EFC012010BD4FF40070FEF75EFC04
:101DC00008B10220F7E70020FFF75CF880880328BD
:101DD00005D00120FFF756F88088032801D10320A1
:101DE000E9E70320FFF74EF88088032801D104209B
:101DF000E1E7FEF7FBFB0720DDE7000070B50546D5
:101E00000A4C72202070A52060700220A0700F2064
:101E1000E070182020712946601DFFF747FC00F094
:101E2000A5F8E178204600F093F970BDF80700208E
:101E300070B505460A4C72202070A5206070022003
:101E4000A0701520E070192020712946601DFFF751
:101E5000D1F800F08BF8E178204600F079F970BDF8
:101E6000F8070020004870478C02002010B5124887
:101E7000806940F01000104988611048006820F027
:101E800040600E4908600846006840F040700860F5
:101E9000902001F0BDFD01F0B7FD0949016001F09E
:101EA000B3FD0849416001F0AFFD07498160074873
:101EB000FEF716FD10BD00000010024000100140AA
:101EC000AD1F0008991F0008392200080048004093
:101ED00010B50A4C72202070A52060700120A070FF
:101EE0002920E070A0202071601DFFF74FFD00F059
:101EF0003DF8E178204600F02BF910BDF8070020EE
:101F000010B500F043F917480068401C15490860F7
:101F1000142800D210BD0020124908601248006841
:101F200005281CD2DFE800F003090F131700FFF7A4
:101F3000CFFF01200C49086011E000F0EDF802200D
:101F4000094908600BE003200749086007E0042006
:101F50000549086003E000200349086000BF00BF96
:101F600000BFD7E7980200209402002070B500F06F
:101F70005FF9C078801EC4B200F05AF905462146C8
:101F8000FFF736F9064600F053F9065370BD00001E
:101F900000487047980700200348002101704170F5
:101FA0008170C170704700009807002031B5564C11
:101FB00056480068401C55490860E07800285EDDFE
:101FC0009DF8002008460068801F611D0A54E078D3
:101FD0004E490968884251D800204C490860E07891
:101FE000801EC1B22046FFF703F9E178891E615ACD
:101FF000884241D1A078022806D0032825D00428A1
:1020000018D005282CD10AE04148008820F00800AB
:1020100008303F49088000203E49488024E03C4881
:10202000008820F0400040303949088000203949BC
:10203000888019E03648008820F02000203034499C
:10204000088000203349C8800EE03148008820F025
:10205000100010302E49088000202E49088103E02E
:10206000FFF79AFF002038BD00BFFFF795FF002063
:10207000284908800120F6E7FFF78EFF42E020782C
:1020800072280CD06078A52809D0A07838B99DF8BE
:102090000000722803D19DF80000207032E0207803
:1020A00072280CD16078A52809D0A07838B99DF89D
:1020B0000000A52803D19DF80000607022E0207880
:1020C00072280BD16078A52808D1A07830B99DF886
:1020D000000018B19DF80000A07013E0207872286D
:1020E0000BD16078A52808D1A07830B19DF8000008
:1020F00018B19DF80000E07004E00020034908607A
:10210000FFF74AFF0020AEE798070020900200206A
:102110008C0200205808002010B50A4C7220207054
:10212000A52060700520A0700C20E07001202071B7
:10213000601D00F099FAFFF719FFE178204600F0E2
:1021400007F810BDF807002010B500F0A3FA10BD85
:1021500070B504460D460B48007800F0010000B150
:1021600070BD40200849086129462046FEF7DAFB89
:102170000448008820F00100401C0249088000BF8C
:10218000EEE700008C0200200010014010B5264848
:102190000088B0F57A7F0BDC23480088401C224978
:1021A00008802248008820F002002049088006E0CC
:1021B0001E48008820F00200801C1C4908801A4834
:1021C0004088B0F57A7F0BD817484088401C1649E4
:1021D00048801648008820F080001449088006E0F6
:1021E0001248008820F080008030104908800E4896
:1021F0008088B0F57A7F0BD80B488088401C0A494C
:1022000088800A48008820F480700849088009E026
:102210000648008820F4807000F58070034908802B
:10222000FFF792FF10BD0000580800208C0200202C
:1022300000487047F80700204FF480000449086107
:102240000448008820F0010002490880704700001F
:10225000001001408C0200201048008800F00100AE
:1022600028B10E48008820F001000C4908800B4876
:10227000008800F0020028B10848008820F0020021
:10228000064908800548008800F0040028B103488A
:10229000008820F0040001490880704704280040AD
:1022A00070B506460C4604EB84004FF6FF7101EA58
:1022B0004005281D85B20A2229463046FEF798FBC4
:1022C00070BD000010B5042200210248FEF790FB0B
:1022D00010BD00006C02002010B51148806940F06C
:1022E00010000F4988610F48006820F040400D49F8
:1022F00008600846006840F04050086008464068A2
:1023000020F00C0048600846406840F00300486038
:10231000802008614000086100F0C2FC10BD000090
:102320000010024000100140024909888143014A1F
:102330001180704788020020024909880143014A40
:10234000118070478802002010B54FF40000094941
:1023500008610A20FFF77EFC07490988081200F08F
:10236000FDFC0549087800F0F9FC8020014908616E
:1023700010BD0000001001408802002003480088C2
:102380000249091F098840EA014070471C280040A3
:102390003448C06940F0C0503249C86132480068D2
:1023A00040F48070304908602E48006A00F4004014
:1023B000B0F5004F3BD02B48006A40F480302949EB
:1023C00008620846006A20F4803008620846006A05
:1023D00040F4014008622548008840F0100023497D
:1023E000088047F6FF702149083108801F4800889F
:1023F00020F010001D4908801A48006A40F00100D2
:102400001849086200BF1748006A00F00100002860
:10241000F9D0164800884FF6F77108401349088034
:1024200000BF1248008800F008000828F9D10F48C2
:10243000008840F010000D4908800120091F088025
:10244000081D008820F01000091D088003200121CC
:1024500081404209920002F1E022C2F8001100BF5F
:102460007047000000100240007000400428004047
:102470000949098841F01001074A1180010C064AF8
:1024800014321180121D10800349098821F01001B7
:10249000014A118070470000042800400948008864
:1024A0000848008800F001000649088008460088B6
:1024B00000F0200008800846008800F040000880F6
:1024C00070470000083800407047000070B50024D5
:1024D000144D72B614480568280C0004B0F1006F62
:1024E00006D010481049086062B6FEF7D9FF17E021
:1024F0000C48854203D162B6FEF7D2FF10E00024FB
:1025000007E00949601C51F8200041F82400601CD4
:10251000C4B2142CF5DD03480349086562B6A84728
:1025200070BD0000A114000864080020002000BF56
:102530000CE00849084A42F82010084A42F83010D6
:10254000002102EBC0029180411CC8B21428F0DDCA
:1025500070470000A114000864080020B80800209B
:102560000146002072B605E0421CD0B2142801DDFD
:1025700062B67047054A52F82020054B9A42F3D1C3
:10258000024A42F8201062B600BFF2E76408002059
:10259000A114000810B50246002072B600200CE01D
:1025A000124B53F83030934205D1104B03EBC0036C
:1025B000998062B610BD431CD8B21428F0DD00200B
:1025C0000FE00A4B53F83030094CA34207D1074BB8
:1025D00043F8302003EBC003998062B6EAE7431C5E
:1025E000D8B21428EDDD00BFE4E70000B8080020F1
:1025F000A114000810B5002416480068401C1549B5
:10260000086000BF22E0144850F8340013498842A3
:1026100000D119E0104800EBC4008088012809D0DF
:102620000D4800EBC4008088401E0B4901EBC4013B
:10263000888008E0084951F83400FFF791FF074807
:10264000054941F8340000BF601CC4B2142CDADB29
:1026500010BD0000AC020020B8080020A114000842
:1026600000487047BD0200200146094A92788B78E5
:1026700062F303038B70064AD278CB7862F30303CC
:10268000CB70034A12790B7962F303030B71704725
:10269000BD0200204FF6FF7001490880704700001E
:1026A000BD02002000200A4908800846807820F0FA
:1026B000F000103088700846C07820F0F00010302C
:1026C000C8700846007920F0F0001030087170479B
:1026D000BD0200200146044A002002E00B5C1354B6
:1026E000401C0528FAD37047BD020020012806D0FF
:1026F00002280BD0032810D0042826D114E01C4A4D
:10270000927861F303021A4B9A702FE0184AD2783C
:1027100061F30302164BDA7028E0154A127961F36F
:102720000302134B1A7121E0114A927861F30302FC
:102730000F4B9A701A46D27861F30302DA701A4688
:10274000127961F303021A7110E0094A927822F0BB
:102750000F02074B9A701A46D27822F00F02DA70F5
:102760001A46127922F00F021A7100BF00BF70479B
:10277000BD020020014601EB8100024A02EB40004D
:10278000704700002407002030B504462F48058814
:102790002046FFF7EFFF03462C4880780121A14037
:1027A000084020B9187820F0F000187030BD20469D
:1027B000FFF7E0FF407A00F0010028B9187820F018
:1027C000F00010301870F1E7B3F80700022805D1C7
:1027D000187820F0F00020301870E7E7B3F8070011
:1027E000642805D2187820F0F00060301870DDE71A
:1027F000B3F8070040F65A21884205D9187820F02E
:10280000F00030301870D1E7B3F80700B3F80510C6
:102810002944884205DD187820F0F0004030187017
:10282000C4E7B3F80700B3F80510491B884205DA7E
:10283000187820F0F00050301870B7E7187820F0C2
:10284000F0001030187000BFB0E700005802002000
:1028500070B504462046FFF78DFF05462046FFF77A
:1028600093FF287800F00F0020B92146002000F0E7
:10287000F2F904E02146012000F0EDF900BF00BFAD
:1028800070BD000010B507480078FFF7E1FF05486C
:102890000078401CC0B203490870042801D300200E
:1028A000087010BD6B02002010B50520FDF7FAFC82
:1028B0000D49098808440C4908800C480088401CD0
:1028C00080B20A49088010280BD1074800880011FF
:1028D0000749088000200449088004490880012035
:1028E00010BD0020FCE700005C0200205E0200201A
:1028F0005602002010B503461846FFF73BFF04467A
:102900000C48807801219940084018B901200A49F3
:10291000C85410BD20780221B1EB101F02D1064827
:10292000C05CF6E7207800090349C8540846C05C3B
:10293000EFE70000580200206702002070B532481F
:10294000058832480078FFF715FF0446B4F8010007
:10295000B4F807102944884206DCB4F80100B4F842
:102960000710491B88423ADAB4F80100B4F80310A2
:102970002944884206DAB4F80100B4F80310491B70
:10298000884217DC22480088401C80B22049088019
:1029900019282DD30020088002211C48007800F05F
:1029A00051F80220A4F80700607A20F00100401CD2
:1029B00060721DE000211548007800F043F8B4F87B
:1029C0000100A4F80700607A00F0010080B1B4F8BB
:1029D000050068B9B4F80100A4F8050008E000217A
:1029E0000A48007800F02EF8B4F80100A4F80700B7
:1029F00006480078401CC0B204490870042801D37E
:102A00000020087070BD0000580200206002002005
:102A1000620200204FF08050074908618012074988
:102A20000860400204490861401008610020044920
:102A30008870322008807047001001401014014057
:102A40005802002030B1012819D002282CD00328C8
:102A500054D13EE019B94FF480222A4B1A60012963
:102A600002D10422274B1A60022907D1254A121FDE
:102A7000126882F00402234B1B1F1A603FE019B951
:102A80004FF400321F4B1A60012902D102221D4B64
:102A90001A60022907D11B4A121F126882F0020233
:102AA000184B1B1F1A602AE019B94FF48032154BDE
:102AB0001A60012902D10122124B1A60022907D1A2
:102AC000104A121F126882F001020E4B1B1F1A607F
:102AD00015E019B94FF400020B4B1A60012902D11D
:102AE0008022094B1A60022907D1074A121F126877
:102AF00082F08002044B1B1F1A6000E000BF00BF81
:102B000070470000100C01401008014010B5244827
:102B10000088401C2249088008460088022804D109
:102B200001212048007800F043F81D480088B0F5E6
:102B3000FA6F31D3FFF7B8FE00B910BD194800781D
:102B400000EB8000184901EB4000B0F80100154986
:102B5000097801EB8101144A02EB4101A1F803005D
:102B6000124800880F49097801EB810102EB41010D
:102B7000A1F8010000210B48007800F019F80020AE
:102B80000749088007480078401CC0B20549087012
:102B9000042801D300200870FFF7D0FE00BFCCE767
:102BA0006402002066020020240700205602002054
:102BB00030B101280FD0022817D003282BD11FE0F5
:102BC00021B14FF48052154B1A6103E04FF080524F
:102BD000124B1A6120E019B10422114B1A6003E074
:102BE0004FF480220E4B1A6016E021B14FF40062C0
:102BF0000A4B1A6103E04FF00062084B1A610BE0C8
:102C000021B14FF48062054B1A6103E04FF08062FE
:102C1000024B1A6100E000BF00BF70470010014086
:102C200010140140004870475802002010B50446B7
:102C30002046FFF79FFD0346032C04D81878022195
:102C4000B1EB101F01D1002010BDB3F80700A3F8AD
:102C500005000120F8E770B504460D4635B1012D99
:102C600018D0022D0CD0032D16D114E0012C03D165
:102C70001020FFF761FB02E01020FFF755FB0CE08E
:102C8000012C03D12020FFF757FB02E02020FFF7A3
:102C90004BFB02E001E000E000BF00BF70BD0000A0
:102CA0002948007800F0010000B1704726480078FC
:102CB00040F00100244908702448806940F0080071
:102CC000224988612248006822490840204908605A
:102CD0000846006840F4000008600846006840F4B8
:102CE000401008600846006820F040700860084600
:102CF000006820F0406008600846006840F000600E
:102D000008604FF4804012490C3108601048006898
:102D100040F000400E4908600846006840F040500E
:102D200008600A48C06940F480400849C861002032
:102D3000094908800846008840F25731084306498F
:102D4000088000BFB1E700001A0200200010024016
:102D5000040C0140FFFF3F3F0038004008B501462A
:102D6000002000901748007800F0010008B900200A
:102D700008BD07E00098401C0090B0F5A04F01D9B5
:102D80000020F5E71048008800F002000028F1D08C
:102D9000002000900C48001D018007E00098401CB6
:102DA0000090B0F5A04F01D90020E1E70648008867
:102DB00000F080000028F1D10348001D0088C0B257
:102DC000D6E700001A0200200838004000BF15496D
:102DD000C96801F001010029F9D11249C96801F05F
:102DE000200111B120210F4AD1600E49096941F03B
:102DF00002010C4A116111464861096941F0400124
:102E0000116100BF0749C96801F020010029F9D00C
:102E10002021044AD1601146096921F002011161A3
:102E200070470000002002400348006940F0800025
:102E30000149086170470000002002400248034930
:102E400048600348486070472301674500200240FE
:102E5000AB89EFCD00BF184AD26802F00102002A08
:102E6000F9D1154AD26802F0200212B12022124B89
:102E7000DA60114A126942F001020F4B1A610880B0
:102E800000BF0D4AD26802F02002002AF9D02022A9
:102E9000094BDA60020C4A8000BF074AD26802F090
:102EA0002002002AF9D02022034BDA601A46126968
:102EB00022F001021A617047002002400021024AFC
:102EC00022F81010704700007409002001460248E3
:102ED00030F81100704700007409002000200AE05B
:102EE0000021064A22F81010054A22F81010054A5F
:102EF0001154411CC8B20828F2DB70477409002045
:102F000084090020B0020020002013E00B4931F8B2
:102F10001010491C094A22F810100949095C0129BE
:102F200006D1084931F81010491C064A22F8101041
:102F3000411CC8B20828E9DB704700007409002072
:102F4000B00200208409002010B5FFF753FBFFF703
:102F5000DBFFFEF7D5FFFDF7E5FAFEF785F9FEF793
:102F60009BFEFEF7EFF8FFF7D1FDFEF705FE807838
:102F7000012822D10220FDF7C7FA00F00104204603
:102F800000F014FE10480088401C80B20E490880F2
:102F900042F21071884205D2FEF764FF0078C0F358
:102FA000C01078B1002008490880022000F0FEFD22
:102FB000FEF7E2FD0021817004E000200249088054
:102FC00000F02AFE10BD0000B802002003484FF0B8
:102FD000E021486188610720086170473F190100BE
:102FE00010B51148006840F001000F49086008461C
:102FF00040680E4908400C494860084600680C4982
:103000000840094908600846006820F480200860EC
:103010000846406820F4FE0048604FF41F008860B6
:10302000FEF740FA10BD0000001002400000FFF063
:10303000FFFFF6FE012806D10649098841F4004148
:10304000044A118005E00349098821F40041014A3E
:1030500011807047442C01402248806940F60501E8
:103060000843204988612048006820F440401E49F8
:1030700008600846006840F40040086008460068A0
:1030800020F4405008600846006840F40050086092
:103090004820164908808000091D08801C2013491B
:1030A0001831088011480838008840F480500F49D2
:1030B000083908804FF4C040091F08800B482838A1
:1030C000008820F010000949283908800846008847
:1030D00020F0600008800846008840F00100088069
:1030E000704700000010024004080140282C0140F5
:1030F00010B5FEF741FD002181700020FFF73AFB7B
:103100000446007820F00F0020700220FFF732FB09
:103110000446007820F00F00207000210420FFF703
:10312000E5FA4CF6F070FFF7FFF80120FEF754FDCA
:103130000620FDF771F9022000F0C4FCFDF7C6FA85
:1031400010BD10B5FEF718FD8078012800D110BD24
:10315000FEF728FE09287DD2DFE800F07C05395D06
:10316000BBBCBDBFBE000020FFF704FB04460078D7
:1031700020F00F00C01C2070FDF756FA007B00F015
:10318000020048B10220FFF7F5FA0446007820F06B
:103190000F00C01C207007E00220FFF7EBFA044686
:1031A000007820F00F00207000210420FFF79EFA25
:1031B0004FF44040FFF7B8F84FF48070FFF7BCF8C9
:1031C0000020FDF729F90220FEF706FDE2E00020CD
:1031D000FFF7D0FA0446007820F00F00001D2070A1
:1031E0000220FFF7C7FA0446007820F00F00001D08
:1031F00020704FF44040FFF797F84FF48070FFF7CE
:103200009BF8012000F05EFC0520FDF705F9022087
:10321000FEF7E2FCBEE00020FDF734FE80880328C4
:103220000CD10020FFF7A6FA0446007820F00F002A
:10323000401D207001210846FFF758FA0020FDF7D5
:1032400021FE808803280DD00020FFF793FA044662
:10325000007800E09DE020F00F00207000210120A8
:10326000FFF744FA0120FDF70DFE808803280CD1FA
:103270000220FFF77FFA0446007820F00F00801D3F
:10328000207002210846FFF731FA0120FDF7FAFD10
:10329000808803280BD00220FFF76CFA04460078E0
:1032A00020F00F00207000210220FFF71FFA4FF4DA
:1032B0000040FFF739F84FF48240FFF73DF8012056
:1032C00000F000FC0520FDF7A7F80220FEF784FCC3
:1032D00060E05FE05EE05DE05CE000210420FFF77D
:1032E00005FA4FF44140FFF71FF8022000F0EAFB17
:1032F0000320FDF791F80220FEF76EFCFDF772F94E
:10330000007B00F0010048B10020FFF733FA0446CB
:10331000007820F00F00401C207007E00020FFF72D
:1033200029FA0446007820F00F002070FDF75AF9C2
:10333000007B00F0020048B10220FFF71BFA0446B0
:10334000007820F00F00401C207007E00220FFF7FB
:1033500011FA0446007820F00F002070FDF742F9C2
:10336000808800F4806098B1FDF73CF90021C160CD
:103370000020FFF7FFF90446007820F00F002070CE
:103380000220FFF7F7F90446007820F00F002070C4
:1033900000E000BF00BF0220FDF774FD8088032815
:1033A00008D14FF40060FEF7C7FF02210320FFF7AA
:1033B0009DF907E000210320FFF798F94FF4006022
:1033C000FEF7B2FF00BFC2E610B5FDF7B5FC04681A
:1033D000FDF75AFAFDF7B4FCFEF7A6F9FEF7CCFBB1
:1033E000807838B9FDF786FC4079032802D0204662
:1033F00000F0E8FB24B14FF40070FEF79DFF03E0FE
:103400004FF40070FEF790FF04F4E06020B14FF439
:103410008060FEF791FF03E04FF48060FEF784FFC9
:10342000FDF768FC4079032802D1FDF74FF906E06B
:10343000FEF718FCC078000908B1FDF74DF9FDF75B
:1034400059FC4079032804D14CF6F070FEF76CFF6C
:1034500002E0C020FEF770FFFFF714FAFDF738FD19
:10346000FEF772FF00F03AFB0A21AFF2A300FFF76C
:1034700091F810BD10B5FDF709F9FDF73BFC407957
:10348000012802D10F48FFF76BF8FDF733FC4079B4
:10349000022802D10B48FFF763F8FDF72BFC4079B7
:1034A000032802D10848FFF75BF8FDF723FC4079B9
:1034B00010B90648FFF754F80A21AFF24700FFF7AA
:1034C00069F810BD43310008F13000087F3600086C
:1034D0002DE9F041FEF75CFD441DFEF759FD451D49
:1034E000FEF7C0FC0746008820F008003880FEF791
:1034F0004FFD00791138112873D2DFE800F0091070
:103500001D2A323A3F6573ADADADADADAD77A000CC
:10351000FEF73EFD471D3846FDF7F0FB9DE03221EA
:10352000032000F02DFBFEF727FBA1790170FDF7CA
:103530009FF9A179017390E03221032000F020FB74
:10354000FEF71AFBE1794170FDF792F9E1794173D9
:1035500083E03221032000F013FB206800F090F993
:103560007BE03221032000F00BFB206800F088F99B
:1035700073E0FEF701FB012181706EE03221032030
:1035800000F0FEFAFFF74EFB21798170FDF770F92C
:1035900021794174A079FFF749FB206878B1206850
:1035A000B0F5FA7F0BD8FFF73DFB21880180FFF7CC
:1035B00039FB0788FDF75CF9A0F80F7003E0FFF70F
:1035C00031FB3221018048E020684FF6FF718842CC
:1035D00002D1FEF791F903E0218888B2FEF70EFCD4
:1035E0003BE039E02878FEF723FC36E03221032067
:1035F00000F0C6FA2E783046FDF744FC00218180A9
:103600003046FDF73FFCE988C1803046FDF73AFCC3
:10361000298901813046FDF735FCC788FDF728F977
:10362000123000EB860007803046FDF72BFC07893F
:10363000FDF71EF9123000EB860047800DE03221C5
:10364000032000F09DFAFEF70DFB2179C170FDF714
:103650000FF92179817300E000BF00BFBDE8F08160
:1036600010B5FEF7FFFB0446008820F040002080E4
:10367000FEF78EFC441D2046FFF72CF810BD10B558
:103680000020FDF7FFFB4088032805D00120FDF74F
:10369000F9FB408803285AD10020FDF7F3FB40884E
:1036A00003280CD10020FFF765F80446007820F0CD
:1036B0000F00401D207001210846FFF717F8002079
:1036C000FDF7E0FB408802280BD10020FFF752F8FD
:1036D0000446007820F00F00207000210120FFF741
:1036E00005F80120FDF7CEFB408803280CD102200D
:1036F000FFF740F80446007820F00F00401D2070CE
:1037000001210220FEF7F2FF0120FDF7BBFB4088FC
:1037100002280AD1FFF72EF80446007820F00F00A7
:10372000207000210220FEF7E1FF4FF40040FEF779
:10373000FBFD4FF48240FEF7FFFD012000F0C2F9CF
:103740000520FCF769FE0220FEF746FA4AE0032056
:10375000FDF798FB4088032823D10020FFF70AF8E3
:103760000446007820F00F00083020700220FFF798
:1037700001F80446007820F00F00083020704FF464
:103780008240FEF7D1FD4FF40040FEF7D5FD022048
:1037900000F098F90220FCF73FFE0220FEF71CFA29
:1037A00020E00020FEF7E6FF0446007820F00F003E
:1037B00020700220FEF7DEFF0446007820F00F00A4
:1037C000207000210420FEF791FF4FF44140FEF7E6
:1037D000ABFD022000F076F90620FCF71DFE01206B
:1037E000FEF7FAF90220FDF74DFB4088032803D1CC
:1037F0004FF40060FEF7A0FD0220FDF743FB408878
:10380000022802D18002FEF78FFD10BD10B5FEF731
:1038100029FB0078C0F3C00010B11548FEF7A0FEE8
:10382000FEF720FB0078C0F3801010B11148FEF7BE
:1038300097FEFEF717FB0078C0F3C01058B10420C4
:10384000FCF762FEC4B22046FDF71AFFFDF752FAFC
:103850000021417106E00020FCF756FEC4B220466C
:10386000FDF70EFFAFF25B00FEF77AFE10BD000021
:10387000D13400086136000810B5FEF77FFD10BD99
:1038800010B504462046FEF7F3FD10BD10B5FEF757
:103890007FFD10BD10B51D48008800F0200030B13C
:1038A0001A48008800F00F0008B100F0FBF8174834
:1038B000008800F0080008B100F0F4F81348008810
:1038C00000F04000F0B112480088401C80B210495E
:1038D0000880897888420DD10C480C30008820F08F
:1038E00040000A490C3108800846008840F0040076
:1038F000088007E00648406805490988405C03499C
:10390000091D08800148008810BD000000380140F2
:103910001C02002010B51A48008800F0200088B171
:103920001748008800F00F0038B9154A121D128898
:10393000D0B2144A1168884704E000F0BBF811497E
:10394000486880470E48008800F0080020B100F069
:10395000B1F80C49486880470948008800F04000E9
:1039600050B108498868804705480C30008820F02D
:10397000400003490C3108800148008810BD000058
:1039800000480040C402002010B51C48806940F087
:1039900004001A4988611A48006820F44C601849EC
:1039A00008600846006840F0B000086008460068FB
:1039B00040F4806008601148806940F480400F49FD
:1039C00088611048008820F480500E490880081D46
:1039D000008820F44050091D088041F644500949F0
:1039E000091F088042F20C00091D08800F212520C4
:1039F000FEF7DEF82520FEF7CFF810BD00100240DC
:103A0000040801400C38014000487047C4020020FF
:103A100010B504461F48806940F008001D498861C0
:103A20001D48006820F44C401B49086008460068A7
:103A300040F4306008600846006840F48040086048
:103A40001448C06940F480201249C86113480480BA
:103A500012480830008820F440501049083108808E
:103A6000081F008820F48050091F088042F22C00B3
:103A700008800A480C30008840F0800007490C316B
:103A800008800F212720FEF793F82720FEF784F8FF
:103A900010BD000000100240040C01400848004026
:103AA00070470000024800880148001D00887047E8
:103AB00000380140024800880148001D0088704716
:103AC0000048004001490870704700005302002080
:103AD00010B5FFF759FFFDF74BFD10BD10B51048AD
:103AE0000078062819D2DFE800F018030C15161725
:103AF00000210220FDF752FD00210846FDF74EFD92
:103B00000CE000210420FDF749FD00210120FDF714
:103B100045FD03E002E001E000E000BF00BF10BD92
:103B20005302002038B505460F480088ADF8000064
:103B30000D484088ADF80200042200216846FCF7D9
:103B4000B3FFA88820F40040401E84B204EB840038
:103B50004FF6FF7101EA4004201D84B20A2221467B
:103B60002846FCF7A1FF38BD6C02002010B50422E6
:103B700000210248FCF798FF10BD00006C020020F5
:103B80000022074B1A7008B901B97047054A118025
:103B9000054A10700322024B1A7000BFF5E70000BF
:103BA0009C0200209E020020A002002010B50446C6
:103BB000012C02D1FFF73EFA02E00020FFF73AFAAB
:103BC00010BD000010B5044634B900200F4908604C
:103BD0000220FFF7EBFF18E00C480068604020402F
:103BE00048B10A4804604FF40050FCF73FFD012043
:103BF000FFF7DCFF09E04FF40050FCF73FFD20B178
:103C00000220FFF7D3FF0148046010BDA40200208A
:103C100010B5FFF721FA10BD10B52248007803282F
:103C200039D12148008810B1012833D113E0012097
:103C3000FFF7BCFF1D480088401C80B21B4908806C
:103C40001B490988884205DB0020184908800120AB
:103C5000154908801EE00220FFF7A8FF13480088DE
:103C6000401C80B21149088011490988884210DB44
:103C700000200E4908800F480078401EC0B20D4950
:103C8000087018B900200749087002E000200649B2
:103C9000088000BF04E00020044908800249088031
:103CA00010BD00009C020020AA020020A8020020F3
:103CB0009E020020A0020020FCF766FD0446FFF7EC
:103CC0008FF9FDF761FBFCF711FBFFF7DFFDFDF757
:103CD000B5F9FEF79FFEFDF7A7FFFCF761FBFDF7C7
:103CE000C5FFFFF7F5FEFEF7C1F8FCF751FDFFF742
:103CF0008FFFFDF713FDFEF7EFFAFEF7D3FCFCF79D
:103D000047FBFDF739FF217B0170FDF735FF617B34
:103D10004170FEF787FFB4F80F100180FEF782FFB5
:103D2000617C8170FDF79EFFA17BC170002513E0CF
:103D30002846FDF7A7F804F1120101EB8501098877
:103D4000C1802846FDF79EF804F1120101EB8501C0
:103D500049880181681CC5B2042DE9DB00210120DE
:103D6000FDF7D4FDFFF7BAF8FDF734FAFEF7DEFBF6
:103D70000748FEF7F5FB0748FEF7F2FB0648FEF79B
:103D8000EFFBFFF723F962B601E0FEF79FFBFCE7CC
:103D9000C9330008753400080D3800087E020CEFA6
:103DA0007E020DEF7E020EEF7E020AEF7E0201EF31
:103DB0007E0202EF7E030615EF7E0204EF7E02050F
:103DC000EF7E0210EF000000E83D00080000002038
:103DD000C402000028010008FC3F0008C4020020C3
:103DE0003C0D0000640100083120EFC1C081C140DA
:103DF0000101C3C003800241C201C6C00680074161
:103E0000C70005C1C581C4400401CCC00C800D4170
:103E1000CD000FC1CF81CE400E000AC1CA81CB4078
:103E20000B01C9C009800841C801D8C018801941D8
:103E3000D9001BC1DB81DA401A001EC1DE81DF40E0
:103E40001F01DDC01D801C41DC0014C1D481D540A0
:103E50001501D7C017801641D601D2C01280134178
:103E6000D30011C1D181D0401001F0C03080314168
:103E7000F10033C1F381F240320036C1F681F740E0
:103E80003701F5C035803441F4003CC1FC81FD4070
:103E90003D01FFC03F803E41FE01FAC03A803B41F8
:103EA000FB0039C1F981F840380028C1E881E940B8
:103EB0002901EBC02B802A41EA01EEC02E802F4160
:103EC000EF002DC1ED81EC402C01E4C024802541A0
:103ED000E50027C1E781E6402620F022C1E281E328
:103EE000402301E1C021802041E001A0C060806149
:103EF00041A10063C1A381A240620066C1A681A75F
:103F0000406701A5C065806441A4006CC1AC81AD6F
:103F1000406D01AFC06F806E41AE01AAC06A806B78
:103F200041AB0069C1A981A840680078C1B881B9D6
:103F3000407901BBC07B807A41BA01BEC07E807FE0
:103F400041BF007DC1BD81BC407C01B4C07480759F
:103F500041B50077C1B781B640760072C1B281B376
:103F6000407301B1C071807041B00050C190819127
:103F700040510193C053805241920196C0568057E0
:103F800041970055C19581944054019CC05C805D6F
:103F9000419D005FC19F819E405E005AC19A819BF6
:103FA000405B0199C059805841980188C0488049B8
:103FB0004189004BC18B818A404A004EC18E818F5E
:103FC000404F018DC04D804C418C00204944C1843C
:103FD000818540450187C047804641860182C042B5
:103FE000804341830041C181818040400B357E0385
:0C3FF0001100EF7E030F00EF023E010005
:04000005080000ED02
:00000001FF
