:020000040800F2
:10000000300C0020A9010008F91B0008FB1B0008A8
:100010002D1C0008351C00083D1C000800000000D5
:100020000000000000000000000000003F1C00086D
:10003000B901000800000000BB010008D90F00084A
:10004000BF010008BF010008BF01000857180008E1
:10005000BF010008BF010008BF010008BF01000880
:10006000BF010008BF010008BF010008BF01000870
:10007000BF010008BF010008E52100082322000895
:10008000BF010008BF010008BF010008BF01000850
:10009000BF010008BF010008BF010008BF01000840
:1000A000BF010008BF010008BF010008BF01000830
:1000B000BF010008BF010008BF010008BF01000820
:1000C000BF010008BF010008BF010008BF01000810
:1000D0006F190008A31F0008BF0100082D200008A9
:1000E000BF010008BF010008BF01000800F002F8CE
:1000F00000F04AF80AA090E8000C82448344AAF178
:100100000107DA4501D100F03FF8AFF2090EBAE875
:100110000F0013F0010F18BFFB1A43F0010318473B
:10012000E8330000083400000A4410F8014B14F0D2
:100130000F0508BF10F8015B240908BF10F8014B38
:100140006D1E05D010F8013B6D1E01F8013BF9D181
:10015000641E03D0641E01F8015BFBD19142E4D31D
:10016000704700000023002400250026103A28BF15
:1001700078C1FBD8520728BF30C148BF0B60704719
:100180001FB51FBD10B510BD03F02FF81146FFF7C6
:10019000F7FF00F0F1FD03F04DF803B4FFF7F2FFB5
:1001A00003BC03F055F8000008480047FEE7FEE7EF
:1001B000FEE7FEE7FEE7FEE7FEE7FEE7FEE7FEE717
:1001C00003480449044A054B70470000ED0000084D
:1001D00030060020300C00203008002030080020BD
:1001E000FE487047FD48704701B508E04FF0E02039
:1001F000006900F4803010B10098401E0090009813
:100200000028F3D108BD082840D2DFE800F03F0401
:100210000D151E262F374FF40001F14A11604900D9
:1002200011604900116031E08021ED4A11604904FC
:1002300011604900116029E04FF40001E84A1160A3
:10024000C91311604904116020E08021E44A116063
:10025000490011604904116018E04FF40001E04AC0
:10026000116049001160C91311600FE08021DC4A60
:10027000116049041160C913116007E08021D84A58
:100280001160490011604900116000BF00BF704754
:10029000D44800884FF6FF714840D2490880704723
:1002A00010B5D1480078032803D0D048007803283F
:1002B00028D1CD480078032803D10A21012002F07B
:1002C000DCFCC9480078022803D10021012002F09B
:1002D000D4FCC6480078032803D10A21022002F08A
:1002E000CCFCC2480078022802D1002102F0C5FCF3
:1002F0000120BF4908700620FFF785FF022002F0A9
:100300009DF81EE0BB48007803280DD10220B849B3
:1003100008700821032002F0B0FC0320FFF773FFF0
:10032000022002F08BF80CE0012002F087F8072091
:10033000FFF769FF0021032002F09FFC0220AC4977
:100340000870AB48007802F0C0F90121AA4802F019
:100350000DF810BD10B5FF21022002F004F9FF21B5
:10036000042002F000F90020A449088000213F2069
:1003700002F083FC4FF44F4002F06FFC012002F0CA
:100380005DF80720FFF73FFF022002F09EF99C482E
:1003900001F09CFF10BD10B59A48008800F00100E4
:1003A00020B10121944801F0E1FF10BD964800788A
:1003B000202812D10321084602F05FFC4FF4404090
:1003C00002F04BFC4FF4807002F03FFC0120FFF77D
:1003D0001AFF022002F032F8D2E0022002F089F87F
:1003E00000F0020020B98548008800F0020040B308
:1003F0008248008840F002008049088004210320E0
:1004000002F03BFC4FF4404002F027FC4FF48070B8
:1004100002F01BFC0120764908700620FFF7F3FE6E
:10042000022002F00BF8022002F063F800F0040052
:100430000028D1D07148008820F002006F49088060
:100440009EE069480078032803D0684800780328B4
:1004500030D165480078032803D10521012002F03E
:100460000CFC61480078022803D10021012002F031
:1004700004FC5E480078032803D10621022002F024
:10048000FCFB5A480078022802D1002102F0F5FB5B
:100490004FF4014002F0E1FB4FF4804002F0D5FB45
:1004A0000120534908700620FFF7ADFE022001F03D
:1004B000C5FF65E04F480078032815D102204C495C
:1004C00008700821032002F0D8FB4FF4824002F0AC
:1004D000C4FB4FF4004002F0B8FB0320FFF793FE8B
:1004E000022001F0ABFF4BE0042002F018F800F00E
:1004F000030098B34FF4414002F0AFFB02203C49A7
:1005000008700420FFF77FFE022001F097FF04200F
:1005100002F005F800F0010020B10121084602F0C8
:10052000ACFB07E00121042002F01DF800210120AE
:1005300002F0A3FB042001F0F2FF00F0020020B162
:100540000121022002F099FB1AE00221042002F0AE
:100550000AF80021022002F090FB11E0FFE70120E1
:1005600001F06CFF0720FFF74EFE0021032002F090
:1005700084FB4FF4414002F070FB02201C490870DC
:1005800022480078032803D14FF4006002F05DFB9D
:100590001E480078022802D1800202F05EFB144857
:1005A000007802F092F80121134801F0DFFE00BF4D
:1005B000FBE610B51348008820F0010011490880BF
:1005C0001148007820282ED10321084602F055FB5F
:1005D0004FF4404002F041FB1AE00000C803002045
:1005E000100C014014000020080000200900002029
:1005F000130000200B000020270D00081A00002027
:100600005D0A000816000020060000200A000020F5
:100610004FF4807002F019FB0120FFF7F4FD022077
:1006200001F00CFFB0E0F748008800F00200A8B12C
:100630000421032002F021FB4FF4404002F00DFBA7
:100640004FF4807002F001FB0120EF490870062092
:10065000FFF7D9FD022001F0F1FE95E0EB480078AC
:10066000032803D0EA480078032830D1E74800780F
:10067000032803D10521012002F0FFFAE3480078A6
:10068000022803D10021012002F0F7FAE0480078A7
:10069000032803D10621022002F0EFFADC4800789B
:1006A000022802D1002102F0E8FA4FF4014002F0E2
:1006B000D4FA4FF4804002F0C8FA0120D249087001
:1006C0000620FFF7A0FD022001F0B8FE5CE0D14853
:1006D0000078032815D10220CB4908700821032097
:1006E00002F0CBFA4FF4824002F0B7FA4FF4004028
:1006F00002F0ABFA0320FFF786FD022001F09EFE18
:1007000042E0042001F00BFF00F0030058B34FF467
:10071000414002F0A2FA0220BB4908700420FFF712
:1007200072FD022001F08AFE042001F0F8FE00F0C4
:10073000010020B10121084602F09FFA03E00021E8
:10074000012002F09AFA042001F0E9FE00F0020014
:1007500020B10121022002F090FA15E000210220D0
:1007600002F08BFA10E0012001F068FE0720FFF78D
:100770004AFD4FF4414002F070FA0021032002F0DC
:100780007CFA0220A0490870A3480078032803D10E
:100790004FF4006002F059FA9F480078022802D115
:1007A000800202F05AFA9848007801F08EFF012189
:1007B0009A4801F0DBFD10BD10B5994800889949B1
:1007C0000988884258D098480078202806DD944847
:1007D000008840F002009249088005E090480088B7
:1007E00020F002008E49088088480078032806DD42
:1007F0008B48008840F004008949088005E088485B
:10080000008820F004008649088081480078032889
:1008100006DD8348008840F008008149088005E033
:100820007F48008820F008007D4908807A480078D9
:10083000032806DD7A48008840F0100078490880D7
:1008400005E07748008820F010007549088071485D
:100850000078032806DD7248008840F020007049C7
:10086000088005E06E48008820F020006C49088070
:100870006B4800886B4908806C480078012804D0D8
:10088000022807D003280FD109E0AFF2D92001F0E8
:100890001DFD0EE0AFF2015001F018FD09E0AFF2CE
:1008A0004B5001F013FD04E00121614801F05EFDB1
:1008B00000BF00BF10BD10B5082002F0D6F902F04D
:1008C00021FB044602F04EFC4FF4006002F051FAA6
:1008D00002F057FAAFF21F1001F0F8FC10BD10B58E
:1008E000042002F00BFB113808287AD2DFE800F070
:1008F000041F364DA2575E6A052002F0FFFA00F091
:10090000F00049490870052002F0F8FA00F00F00E5
:1009100046490870082002F0F1FA044601F0E3FDB0
:10092000092002F0EBFA044601F0E0FD8BE096218D
:10093000022001F061FA062002F0E0FA044602F01B
:10094000E8FB02F0E9FB0146FFF74AFC0170FFF704
:1009500049FC0446102101F03DF974E09621022083
:1009600001F04AFA072002F0C9FA044602F0D7FB68
:1009700002F0D8FB0146FFF733FC4170FFF732FC71
:100980000446102101F026F95DE09621022001F0D5
:1009900033FA02F0B9FA044600F04AFF53E0204867
:1009A000008840F001001E4908804CE0062002F05B
:1009B000A5FA044602F0A6F818B19621022001F02B
:1009C0001BFA40E09621022001F016FA062002F000
:1009D00095FA38B1062002F091FA044601F0BFFE04
:1009E00003E027E0012001F0BAFE01F0BDFE014660
:1009F000FFF7F6FB8181FFF7F5FB0446102101F0BC
:100A0000E9F820E01A000020130000200800002070
:100A1000090000200B0000200A000020270D00081C
:100A20001600002020000020060000200700002003
:100A30005D0A0008C821052001F0DEF90121FE4809
:100A400001F094FC00BF00BF082002F092F902F010
:100A500098F9AFF29B2001F039FC10BD10B502F0FF
:100A600075F900F0080020B1AFF28D1001F02EFCF6
:100A700016E002F06BF900F4006020B1AFF2C9108B
:100A800001F024FC0CE002F061F900F0040020B158
:100A9000AFF2F37001F01AFC02E0E84801F016FC36
:100AA00010BD10B502F08BF8022806DCE44800887F
:100AB00020F44070E249088014E002F080F8032836
:100AC00006D1DF48008840F48070DD49088009E0E5
:100AD00002F075F8042805D1D948008840F4007068
:100AE000D749088002F06EF8402806DBD448008819
:100AF00040F48060D249088005E0D148008820F4A5
:100B00008060CF49088001F0BAFC032806D1CC48A8
:100B1000008840F40060CA49088005E0C8480088A1
:100B200020F40060C6490880002002F007F8302851
:100B300006DBC348008840F01000C149088005E08A
:100B4000BF48008820F01000BD490880012001F056
:100B5000F5FF302806DBBA48008840F02000B8498D
:100B6000088005E0B648008820F02000B4490880DD
:100B7000022001F0E3FF302806DBB148008840F096
:100B80004000AF49088005E0AD48008820F04000F3
:100B9000AB490880032001F0D1FF302806DBA848CC
:100BA000008840F08000A649088005E0A44800883D
:100BB00020F08000A2490880A2480078032806DDC2
:100BC0009F48008840F001009D49088005E09C484E
:100BD000008820F001009A4908809B48007803288B
:100BE00006DD9748008840F002009549088005E03E
:100BF0009348008820F002009149088093480078CB
:100C0000032806DD8E48008840F004008C490880E7
:100C100005E08B48008820F00400894908808C4852
:100C20000078032806DD8648008840F008008449E3
:100C3000088005E08248008820F00800804908808C
:100C400084480078302806DB7D48008840F48050D6
:100C50007B49088005E07A48008820F48050784974
:100C600008807D480078032810D07B48007802284F
:100C700003D079480078012808D17848008800F02E
:100C8000010018B96E48008801F04CF8002001F00E
:100C900055FF102826D1012001F050FF102821D146
:100CA000022001F04BFF10281CD1032001F046FF69
:100CB000102817D163480078042813DA62480078B6
:100CC00004280FDA6148007804280BDA60480078BD
:100CD000042807DA01F0D3FB032803D05D4800782D
:100CE000302804DB4FF4007001F0AFFF03E04FF455
:100CF000007001F0B2FF01F062FF032803DA01F097
:100D000061FF402804DB4FF4806001F09EFF03E0A8
:100D10004FF4806001F0A1FF01F08AFFAFF2C32021
:100D200001F0D4FA10BD10B500F08EFA00F0010009
:100D3000B0B1002000F0A3FA42490870012000F091
:100D40009EFA41490870022000F099FA3F49087064
:100D5000032000F094FA3E490870012000F087FA61
:100D6000AFF2C12001F0B2FA10BD10B5082001F0B9
:100D70006CFF02F006F810BD00F079FE00F094FB65
:100D800000F092FD00F07EF900F0E0FC00F076FF4C
:100D900001F0DCFC01F040FB01F0E4FE01F069FC35
:100DA00001F09CFF4FF480202D49086080122D49EE
:100DB0000861C00308610720FFF725FA4FF40020FF
:100DC00029490860294800F002FF401C002869D129
:100DD0002648001D00F0FBFE401C002862D10120C7
:100DE00002F097F9012002F09AF9FFF7F9F90121D1
:100DF0000170FFF7F5F901214170FFF7F1F9532177
:100E00008170FFF7EDF95721C170FFF7E9F9302143
:100E10000171FFF7E5F930214171FFF7E1F9312167
:100E20008171FFF7DDF94821C171FFF7D9F9572129
:100E30000172FFF7D5F91BE05D0A0008270D0008D5
:100E40001800002008000020090000200A000020EF
:100E50000B000020060000200700002016000020E4
:100E60001008014000100140100C0140003C000837
:100E700030214172FFF7B4F930218172FFF7B0F9E8
:100E80003121C172FFF7ACF901218181FFF7A8F987
:100E90004AF6CD31C181FFF7A5F90446102100F0D3
:100EA00099FE86E0724800F092FEC4B2204602F03D
:100EB00030F96F4800F08BFEC0F30724204602F0A3
:100EC0002EF96B4800F083FEC1B2FFF789F901707B
:100ED000674800F07CFE00F47F40010AFFF780F9CC
:100EE0004170634800F073FE00F47F00010CFFF7CF
:100EF00077F981705E4800F06AFE010EFFF770F925
:100F0000C1705B48001D00F062FEC1B2FFF768F9D6
:100F100001715748001D00F05AFE00F47F40010A9D
:100F2000FFF75EF941715248001D00F050FE00F4D9
:100F30007F00010CFFF754F981714D48001D00F04E
:100F400046FE010EFFF74CF9C1714948083000F028
:100F50003EFEC1B2FFF744F901724548083000F087
:100F600036FE00F47F40010AFFF73AF9417240482B
:100F7000083000F02CFE00F47F00010CFFF730F980
:100F800081723B48083000F022FE010EFFF728F97D
:100F9000C17237480C3000F01AFE81B2FFF720F919
:100FA000818133480C3000F012FE010CFFF718F974
:100FB000C181FFF715F98489204601F0D0FB01F0CB
:100FC00005FAAFF29D2001F081F900F04DFE62B606
:100FD00001E001F05CF9FCE710B526480088401CF0
:100FE00080B224490880FA2805DB00200880AFF68B
:100FF0005F5001F06BF92048008800F0010010B349
:101000001E48008818B1012000F078FE02E002209E
:1010100000F074FE1A480088401C80B2184908800D
:1010200044F62061884204DA01F090FE00F00400EA
:1010300070B10020124908800F48008820F001009C
:101040000D49088004E000200D49088000F08FFE63
:1010500000F0E2FA01F098FD00F0A6F800F045F982
:1010600001F085FB01F0EFFF01F04CF910BD00002D
:10107000003C00082400002016000020140000207E
:1010800022000020E848806940F40470E649886145
:10109000E648006800F07F40E4490860E2484068A4
:1010A00020F44040E04948600846406840F4404031
:1010B00048600020DE490860DD4928310860DC49CD
:1010C000303108604FF46020D949091D0860084696
:1010D0000068D8490843D649091D086008460068D9
:1010E00040F00800086000BFD148001D006800F013
:1010F00008000028F8D1CE48001D006840F0040028
:10110000CB49091D086000BFC948001D006800F0F8
:1011100004000028F8D14FF48020C74908608002FD
:10112000C2490861401008614010086170470146DB
:1011300001F10A00BE4A30321060BD48001D00684F
:1011400040F48000BA4A121D106000BFB848001F6A
:10115000006800F002000028F8D0B5484830006868
:1011600041F67872504342F21072B0FBF2F080B256
:1011700070470146C82904DBB1F5487F01DA022037
:101180007047B1F5487F04DBB1F5FA6F01DC03204D
:10119000F6E7C82901DA0520F2E7B1F5FA6F01DDBB
:1011A0000420EDE70020EBE700B5A448008800F03C
:1011B000010000B100BDA2480078FFF7B8FFA149C7
:1011C000096808449F4908609F480078401CC0B2E5
:1011D0009D490870102835D19A480068C0F30F1057
:1011E0009A49974A127821F8120000209549086020
:1011F0009549087092480078401CC0B29049087028
:1012000004281FDD0020087090490888FFF7B1FF0F
:101210008F4908708D494888FFF7ABFF8C494870AB
:101220008A498888FFF7A5FF894988708749C88857
:10123000FFF79FFF8649C8708048008840F0010092
:101240007E49088000BFB5E708B50020009072B65F
:101250007A480088009062B6BDF8000008BD72B6FA
:10126000764909880143754A118062B6704772B6A3
:10127000724909888143714A118062B670470146FC
:1012800072B6734A505C62B6704701466F4830F8D8
:10129000110070476D48008900EB400101EBC00070
:1012A0000A2190FBF1F080B2704700B50520FFF7EE
:1012B0003EFF684909680844664908606648008836
:1012C000401C80B26449088010280CD16148006835
:1012D000C0F30F106149088000205E4908605E4934
:1012E0000880012000BD0020FCE700B55C480088B4
:1012F000401C5B4908805B48007830B1012826D04B
:10130000022846D003280FD165E0554800880228FE
:1013100002D1C0024549086151480088B0F5FA6F12
:1013200014DBFFF7C2FF00B976E04F4800884E4952
:1013300008814A48008808804FF080503B49086186
:1013400000204749088001204649087064E044486D
:101350000088022802D104203749086040480088EC
:10136000B0F5FA6F14DBFFF7A0FF00B954E03E4878
:1013700040883D4948813948008848804FF48020A2
:101380002D49086000203649088002203549087040
:1013900042E033480088022802D1800223490861D4
:1013A0002F480088B0F5FA6F14DBFFF77EFF00B915
:1013B00032E02D4880882C49888128480088888020
:1013C0004FF000601949086100202549088003207A
:1013D0002449087020E022480088022802D14002F7
:1013E000124908611E480088B0F5FA6F13DBFFF759
:1013F0005CFF00B910E01C48C0881B49C881174831
:101400000088C8804FF080600849086100201449B6
:1014100008801449087000BF00BF00BD0146124893
:1014200030F8110070470000001002400010014029
:101430000424014001001000101401403400002079
:101440003D000020380000203C000020D803002090
:10145000280000204000002044000020320000202E
:101460004600002048000020E203002008B50246A4
:101470004FF6FF7000900DE012F8010BBDF8003040
:10148000DBB25840074B33F81000BDF8003080EA5B
:1014900023200090081EA1F10103D9B2ECD1BDF8C0
:1014A000000008BD4A0000209648806940F03D00D9
:1014B000944988619448406840F0007092494860BF
:1014C0009248406820F0C000904948600846406853
:1014D00040F0300048608E48006820F00C008C49D5
:1014E00008600846006840F0030008604815874916
:1014F0000861401086490C3108608648006820F079
:10150000C000844908600846006840F03000086068
:101510000846006820F4406008600846006840F40F
:10152000407008607A48001F006820F04040784909
:10153000091F08600846006840F040500860754880
:10154000006820F00C00734908600846006840F00D
:10155000030008606D4840686F4908406B49486067
:101560006E48006820F440606C4908606748406835
:101570006B490843654948606848006840F440701A
:10158000664908606348006820F0C020614908602F
:101590000846006840F030200860081D006820F010
:1015A000CC00091D08600846006840F03300086060
:1015B0000820584910310860802008604000086009
:1015C0004000086053480068564908405149086087
:1015D00008460068544908434E49086010204D49A8
:1015E00010310860202008604020086047480068EB
:1015F00020F04040454908600846406820F00C0053
:1016000048600846006840F040500860084640685E
:1016100040F003004860704744480078401CC0B266
:101620004249087032285EDB00200870404800788C
:1016300003281CDA3648001D00683E493C4A1278EF
:1016400021F812003348083000683B49384A1278C4
:1016500021F812002D4880683849354A127821F85F
:10166000120033480078401C314908703BE00020EC
:101670002F4908702F4800882E49498808402D4975
:1016800049882C4A9288114008432A490988294AE6
:101690009288114008432A49088027480088264933
:1016A0004988084024494988234A928811400843C0
:1016B00021490988204A928811400843214908801D
:1016C0001E4800881D49498808401C4949881B4A12
:1016D00092881140084319490988184A9288114094
:1016E00008431949088070470146012902D114486E
:1016F00000887047022902D112480088F9E7124891
:101700000088F6E700100240000001400010014090
:1017100004080140000C0140FF33F3FF00140140B6
:1017200000330300FFFF33F30000330350020020B7
:101730005102002052020020580200205E020020C8
:101740004A0200204C0200204E0200205348C0698B
:1017500040F0C0505149C8615148006840F4807061
:101760004F4908604D48006A00F40040B0F5004F52
:101770003BD04A48006A40F4803048490862084635
:10178000006A20F4803008620846006A40F4014094
:1017900008624448008840F010004249088047F63B
:1017A000FF704049083108803E48008820F0100052
:1017B0003C4908803948006A40F001003749086216
:1017C00000BF3648006A00F001000028F9D0354813
:1017D00000884FF6F77108403249088000BF314851
:1017E000008800F008000828F9D12E48008840F051
:1017F00010002C4908800120091F0880081D00885E
:1018000020F01000091D08800320012181404209B9
:10181000920002F1E022C2F8001100BF7047214897
:10182000183000881F491431098840EA0140704788
:101830001C49098841F010011A4A1180010C194A0B
:1018400014321180121D10801649098821F01001F0
:10185000144A118070471348008800F0010028B135
:101860001048008820F001000E4908800D480088CB
:1018700000F0020028B10B48008820F0020009495E
:1018800008800848008800F0040028B10548008856
:1018900020F0040003490880704700000010024057
:1018A00000700040042800403C4800683C49084063
:1018B0003A4908600846006840F40000086008469D
:1018C000006840F4401008600846006820F040704E
:1018D00008600846006820F040600860084600681C
:1018E00040F0006008604FF480402C490C310860E3
:1018F0002A48006840F0004028490860084600680F
:1019000040F0405008602748C06940F480402549B5
:10191000C861002024490880091D08800420091F8F
:1019200008800846008840F67B3108431E4908803D
:1019300070471D480830008800F08000704701465D
:1019400000BF19480830008800F080000028F8D156
:1019500015480C30018000BF13480830008800F0A3
:1019600080000028F8D110480C30008870470E48DD
:10197000083000880C480830008800F001000A494F
:10198000083108800846008800F0200008800846DA
:10199000008800F04000088070470000040C0140FF
:1019A000FFFF3F3F001002400038004000210020B0
:1019B000A34A126842F48032A14B1A6000BFA04AC9
:1019C000126802F40030491C10B9B1F5A06FF6D1CD
:1019D0009B4A126802F400320AB1012000E00020A4
:1019E000012843D1974A126842F01002954B1A60C1
:1019F0001A46126822F003021A601A46126842F070
:101A000002021A608E4A526842F480628C4B5A601D
:101A10001A46526822F47C125A601A46526842F4FE
:101A2000E8125A601A46126842F080721A6000BFCB
:101A3000834A126802F00072002AF9D0804A526884
:101A400022F003027E4B5A601A46526842F00202AC
:101A50005A6000BF7A4A526802F00C02082AF9D193
:101A6000774A126842F40022754B1A60704700B53D
:101A70007348006840F001007149086008464068FA
:101A8000714908406E494860084600686F4908403F
:101A90006B4908600846006820F48020086008460A
:101AA000406820F4FE0048604FF41F008860FFF794
:101AB0007DFF00BD6348006940F080006149086116
:101AC000704763485F49486062484860704700BF9C
:101AD0005C48C06800F001000028F9D15948C0688E
:101AE00000F0200010B120205649C8605548006918
:101AF00040F00400534908610846006940F0400086
:101B0000086100BF4F48C06800F020000028F9D0ED
:101B1000704700BF4B49C96801F001010029F9D1A4
:101B20004849C96801F0200111B12021454AD1601E
:101B30004449096941F00201424A11611146486174
:101B4000096941F04001116100BF3E49C96801F0D7
:101B500020010029F9D020213A4AD16011460969B3
:101B600021F002011161704730B5034600BF354CCA
:101B7000E46804F00104002CF9D1324CE46804F06C
:101B8000200414B120242F4DEC602E4C246944F025
:101B900001042C4D2C61002010E01D5C441C1C5DD8
:101BA00005EB04240C5200BF264CE46804F020042A
:101BB000002CF9D02024234DEC60801C9042ECD303
:101BC000204C246924F001041E4D2C6130BD0146D7
:101BD0000868704730B505460C4672B6FFF771FFCE
:101BE0001D48FFF796FF22461B492846FFF7BCFF1A
:101BF000FFF760FF62B630BD70471848006800F01C
:101C0000020010B10420164908601448006800F072
:101C1000804010B10220124908601048006800F0AE
:101C2000004010B180200F490860704780200D49A6
:101C30000860704701200A49086070477047704784
:101C400000100240002002400000FFF0FFFFF6FEFF
:101C500023016745AB89EFCD003C00082CED00E087
:101C6000100C01401008014003484FF0E02148618A
:101C700088610720086170473F1901006C4880693E
:101C800040F6050108436A4988616A48006820F403
:101C90004040684908600846006840F40040086019
:101CA0000846006820F4405008600846006840F488
:101CB000005008604820604908808000091D0880A5
:101CC0001C205D49183108805B480838008840F4C2
:101CD00080505949083908804FF4C040091F0880D6
:101CE00055482838008820F01000534928390880CA
:101CF0000846008820F0600008807047012808D15D
:101D00004D491C31098841F400414B4A1C32118075
:101D100007E049491C31098821F40041464A1C3238
:101D20001180704710B5044634B90220FFF7E6FF72
:101D300000204249088019E0404800886040204067
:101D400048B12021022000F00EFC0120FFF7D6FF51
:101D50003A4804800AE0022000F0E1FB00F0200095
:101D600020B10220FFF7CAFF3448048010BD00B53F
:101D700033480078032839D13248008810B101284F
:101D800033D113E00120FFF7B9FF2F480088401C32
:101D900080B22D4908802D490988884205DB002042
:101DA000294908800120274908801EE00220FFF70A
:101DB000A5FF25480088401C80B22349088023499C
:101DC0000988884210DB00201F49088020480078DD
:101DD000401EC0B21E49087018B90020184908708A
:101DE00002E000201749088000BF04E000201649E7
:101DF00008801449088000BD0022114B1A7008B9F0
:101E000001B97047114A1180114A107003220C4B1E
:101E10001A7000BFF5E700B50220FFF76FFF002042
:101E200007490870094908800949087000BD7047D2
:101E30000010024004080140282C01406A020020E2
:101E4000640200206E0200206C0200206602002066
:101E500068020020FD48806940F00400FB49886169
:101E6000FB48006820F44C60F949086008460068A7
:101E700040F0B00008600846006840F480600860E8
:101E8000F248806940F48040F0498861F148008858
:101E900020F48050EF490880081D008820F440504D
:101EA000091D088041F64450EA49091F088042F2A2
:101EB0000C00091D0880704710B5E448806940F0A7
:101EC0000800E2498861E448006820F44C40E24997
:101ED00008600846006840F4306008600846006802
:101EE00040F480400860D948C06940F48020D74958
:101EF000C861DA48008820F48050D8490880081D5D
:101F0000008820F44050091D08804FF49C70D3498C
:101F1000091F088042F22400091D088027200E2195
:101F2000002807DA0A07140ECD4A00F00F031B1F22
:101F3000D45403E00A07130ECA4A135400BF2720E3
:101F400000F098F910BD0022C74B1A801A46917014
:101F50005060C04A128822F00402BE4B1A800278F8
:101F6000BC4B083B1A80BB4A128842F04802B94B6E
:101F70001A8070470022BD4B1A801A46917050603B
:101F8000B64A128822F00402B44B1A800278B34B8E
:101F9000083B1A80B14A128842F04802AF4B1A80BF
:101FA0007047AC480C38008800F0200058B1A948B0
:101FB0000C38008800F00F0028B1A6480C380088C3
:101FC000A44808380088A3480C38008800F00800AE
:101FD00028B1A0480C3800889E48083800889D48E1
:101FE0000C38008800F04000E0B19F480088401C99
:101FF00080B29D490880897888420BD19548008835
:1020000020F00800934908800846008840F004004A
:10201000088007E09448406893490988405C8D49EE
:10202000083908808B480C380088704710B58B48F9
:102030000C38008800F02000D8B188480C3800889F
:1020400000F00F0068B9854908390988C8B200F066
:10205000AFFE70B18148008820F004007F490880FD
:1020600007E07E480C3800887C480838008800F07B
:1020700088FE7A480C38008800F0080038B17748AC
:102080000C38008875480838008800F07AFE7348DC
:102090000C38008800F04000F8B174480088401CFB
:1020A00080B272490880897888420ED1002000F001
:1020B0002AFE6A48008820F008006849088008461F
:1020C000008840F00400088007E0684840686749DD
:1020D0000988405C61490839088060480C380088EC
:1020E00010BD10B50446201D6149C8640020486435
:1020F0000846406C20F0200048640846406C40F0E0
:10210000100048640846406C20F44070486408465B
:10211000406C20F0400048640846406C20F4406069
:1021200048640846406C40F0800048640846406CB3
:1021300040F0020048640E2000F09CF810BD4C4AAC
:10214000526C22F001024A4B5A641A46106591649F
:10215000526C42F001025A64704710B53D4808388D
:1021600043490866002088650846806D20F02000FD
:1021700088650846806D20F0100088650846806DEF
:1021800020F4407088650846806D20F04000886526
:102190000846806D20F4406088650846806D40F0F8
:1021A000800088650846806D40F0020088650F2039
:1021B00000F060F810BD2E48006800F4005008B12F
:1021C000012070470020FCE7294A926D22F00102AD
:1021D000274B9A651A465066D165926D42F001020E
:1021E0009A65704710B52248006800F4005098B115
:1021F0001F48406C20F001001D49486408464068B3
:1022000040F4005048601548008840F040001349F1
:102210000880272000F02EF8154800681448006850
:1022200010BD1348006800F4003050B11048806DB4
:1022300020F001000E4988650846406840F40030EF
:1022400048600B4800680A48006870470010024068
:10225000040801400C380140040C01400C480040C7
:1022600018ED00E000E400E0780200207002002099
:102270000000024000F01F0201219140420992003B
:1022800002F1E022C2F8001170470000704770B5FB
:102290000024AFF207055D480568AFF20F008542E4
:1022A00002D1FFF7F3FF10E0002407E05749601C5C
:1022B00051F8200041F82400601CC4B2142CF5D160
:1022C000AFF2370051490865A84770BD10B5014607
:1022D0000020002272B6012206E0431CD8B2152865
:1022E00002D102B162B610BD484B53F82030AFF2B4
:1022F0006304A342F1D1454B43F8201002B162B60A
:1023000000BFF0E710B5002441480068401C404978
:10231000086000BF24E03F4850F83400AFF293015A
:10232000884200D11AE03B4800EBC40080880128B5
:1023300009D0384800EBC4008088401E354901EBC5
:10234000C401888009E0334951F83400FFF7BEFF2B
:10235000AFF2C7002F4941F8340000BF601CC4B27F
:10236000152CD8D110BD2A480068704730B50246F8
:102370000020002372B6012300200DE0254C54F804
:102380003040944206D1234C04EBC004A18003B139
:1023900062B630BD441CE0B21528EFD1002011E038
:1023A0001C4C54F83040AFF21B15AC4208D1194C0C
:1023B00044F8302004EBC004A18003B162B6E8E722
:1023C000441CE0B21528EBD100BFE2E7002000BFBB
:1023D00006E0AFF247110D4A42F82010411CC8B286
:1023E0001528F6D100200AE0AFF25F11094A42F841
:1023F0003010002102EBC0029180411CC8B21528A8
:10240000F2D1704710B5FFF72FFC10BDF403002088
:1024100080020020480400201A48806940F004002F
:10242000184988611848006820F0C0001649086003
:102430000846006840F030000860704710B5044658
:102440000120FFF751F900F0010040B94FF40030CE
:102450000D491031086003200C49087010BD0B486D
:102460000470022C03D10220074910310860012CAE
:1024700003D1600404491031086000BFEEE703484F
:1024800000787047001002400008014084020020DC
:1024900001783D4A11704178D17070473A487047D1
:1024A00010B501460022022901D1384802780429DA
:1024B00001D13748027872B1881E364B185C9042C1
:1024C0000DD0881E304B1A54481E185C50404B1ECD
:1024D0002D4CE05403E00023881E2B4C2354481E4F
:1024E000294B185C10BD29490870704728490870AD
:1024F00070470146022902D1244800787047042918
:1025000002D123480078F9E70020F7E701460229C5
:1025100002D12048007870471E488078FBE710B54C
:1025200001460022022901D118480278042901D16C
:102530001748027822B90023881E164C23540DE058
:10254000881E144B185C904207D0881E1A54481EEF
:10255000185C50404B1E0F4CE05400BF00BF481E9B
:102560000C4B185C10BD022805D10A4A52788A43E8
:10257000084B5A7006E0042804D1064AD2788A43F0
:10258000044BDA7070470000890200208F0200209F
:10259000900200208502002070B502460C46002300
:1025A0005A4D2D78954200D170BD584D2A700C2A95
:1025B0002FD2DFE802F02D06090C0F1215181B1E92
:1025C00021275348042325E05248042322E052489F
:1025D00004231FE0514804231CE05148042319E060
:1025E0005048042316E05048052313E04F480423C5
:1025F00010E04F4804230DE001254E4EF5703046A3
:10260000052307E001254C4EF5703046052301E017
:10261000CAE700BF00BF494D2D88484D2D1D2D88AC
:1026200000210CE000BF454D2D8805F08005002DF0
:10263000F9D0455C414E361D35804D1CE9B29942BA
:10264000F0DB00BFB0E700B500210220FFF7A4FFD8
:1026500000210720FFF7A0FF00210A20FFF79CFFC1
:1026600000210420FFF798FF00210120FFF794FFCD
:1026700000BD10B5FFF7EEFBFFF7E5FF10BD3049D9
:102680000A780978491C2E4B19702E49885409780C
:102690004F290DD12B4949784B2909D100211A46E0
:1026A0001170284A117051700121274A117070472A
:1026B0000021244A117051709170D1701171204A1B
:1026C0001170214A117000BFF1E710B50446062CC5
:1026D00019D2DFE804F018030C15161700210220A8
:1026E000FFF75AFF00210846FFF756FF0CE00021D4
:1026F0000420FFF751FF00210120FFF74DFF03E009
:1027000002E001E000E000BF00BF10BD9C0200201D
:10271000DC340008E0340008E4340008E834000841
:10272000EC340008F0340008F4340008F9340008F0
:10273000FD3400089102002096020020003801407C
:102740009D0200209E0200209B0200200020F749ED
:10275000088148818881C88101200882704772B64B
:10276000F249088262B67047F048008A704710B597
:102770000020FEF753FEED490989EC4A128A114404
:10278000884209DC0020FEF749FEE8490989E74A4A
:10279000128A891A884245DA0020FEF73FFE044675
:1027A0000420FEF73BFEE149098A084484420BDA23
:1027B0000020FEF733FE04460420FEF72FFEDB491F
:1027C000098A401A844212DCD848808A401C80B2B0
:1027D000D649888264282FDD002088822020088145
:1027E000D348006880F00400D149086024E04FF429
:1027F0008020CF49091D08600020FEF70FFECB495D
:102800000881CC48008800F0010020B90020FEF7C4
:1028100005FEC6490880C748008840F00100C54948
:10282000088009E04FF48020C149091D086000209C
:10283000FEF7F4FDBD4908810120FEF7EFFDBB491D
:102840004989BA4A128A1144884209DC0120FEF7FC
:10285000E5FDB6494989B54A128A891A884245DA9E
:102860000120FEF7DBFD04460520FEF7D7FDAF494A
:10287000098A084484420BDC0120FEF7CFFD0446A0
:102880000520FEF7CBFDA949098A401A844212DAD5
:10289000A648808A401C80B2A449888264282FDD23
:1028A0000020888220204881A148006880F0020032
:1028B0009F49086024E04FF400309D49091D0860DD
:1028C0000120FEF7ABFD994948819A48008800F045
:1028D000020020B90120FEF7A1FD944948809548E7
:1028E000008840F002009349088009E04FF400306E
:1028F0008F49091D08600120FEF790FD8B49488132
:102900000220FEF78BFD89498989884A128A114481
:10291000884209DC0220FEF781FD84498989834AC7
:10292000128A891A884245DA0220FEF777FD0446AA
:102930000620FEF773FD7D49098A084484420BDABC
:102940000220FEF76BFD04460620FEF767FD77497F
:10295000098A401A844212DC7448808A401C80B282
:102960007249888264282FDD002088822020888197
:102970006F48006880F001006D49086024E04FF462
:1029800080306B49091D08600220FEF747FD67494A
:1029900088816848008800F0040020B90220FEF712
:1029A0003DFD624988806348008840F00400614929
:1029B000088009E04FF480305D49091D086002205D
:1029C000FEF72CFD594988810320FEF727FD574962
:1029D000C989564A128A1144884209DC0320FEF74D
:1029E0001DFD5249C989514A128A891A884245DA1D
:1029F0000320FEF713FD04460720FEF70FFD4B49A9
:102A0000098A084484420BDC0320FEF707FD0446D4
:102A10000720FEF703FD4549098A401A844212DA6D
:102A20004248808A401C80B24049888264282FDD59
:102A3000002088822020C8813F48006880F0800004
:102A40003D49086024E04FF400003B49091D08603F
:102A50000320FEF7E3FC3549C8813648008800F0C2
:102A6000080020B90320FEF7D9FC3049C88031485E
:102A7000008840F008002F49088009E04FF400006A
:102A80002D49091D08600320FEF7C8FC2749C881AD
:102A900010BD0146254830F8110070470146234A11
:102AA000081D32F81000202800D170471F4A081D69
:102AB00032F81000642801DA6020F6E71B4A081D8E
:102AC00032F8100040F65A22904201DD3020ECE747
:102AD000164A081D32F81020144830F811000A3048
:102AE000824201DD4020E0E7104A081D32F8102044
:102AF0000E4830F811000A38824201DA5020D4E73B
:102B00001020D2E700B50346032B04DC1846FFF77C
:102B1000C5FF202801D1002000BD0449181D31F84F
:102B2000100021F813000120F6E70000F004002057
:102B30000C0C0140A60200200C08014000B5034621
:102B40001846FFF7ABFF202802D10548C05C00BD46
:102B50001846FFF7A3FF0249C8540846C05CF6E7D1
:102B6000A80200202E48806940F004002C498861AA
:102B70002C48006820F440602A4908600846006834
:102B800040F440700860704726480830006800F044
:102B9000400028B9002024490880012023490870FA
:102BA00021480088401C80B21F490880B0F5FA7F98
:102BB00004DB0020088003201C49087070471B4874
:102BC0000078704710B5FEF765FBB0F52A6F01DDA0
:102BD000302010BDFEF75EFB40F63401884206DD72
:102BE000FEF758FBB0F52A6F01DC0020F1E7FEF795
:102BF00051FB40F23A71884207DDFEF74BFB40F68D
:102C00003401884201DC4020E3E7FEF743FB40F259
:102C10003A71884201DC5020DBE76020D9E70000F0
:102C20000010024000080140AE020020AC0200206B
:102C300010B580202649086126480088FEF77FFEEF
:102C40004FF400002249086110BD72B6214909887D
:102C50000143204A118062B6704772B61D49098847
:102C600081431C4A118062B6704772B619490988BF
:102C70004140184A118062B6704710B504460B46B1
:102C800004F0010060B12BB15020FFF7DEFF1248C5
:102C9000037005E05020FFF7E0FF00200E490870A8
:102CA00004F0020060B12BB1A020FFF7CEFF0A486C
:102CB000437005E0A020FFF7D0FF002006494870D0
:102CC00010BD014672B64A1E034B985C62B670474F
:102CD00000100140B0020020B202002010B5F948F7
:102CE000806940F01000F7498861F748006820F0DB
:102CF0004060F54908600846006840F04070086090
:102D0000FFF7DAF810BD012803D14021EE4A116126
:102D100003E04FF48001EC4A11617047EB480088F2
:102D2000B0F57A7F0BDCE9480088401CE749088051
:102D3000E748008820F00400E549088005E0E44801
:102D4000008840F00400E2490880704708B5002080
:102D5000009072B6DE480088009062B6BDF80000B0
:102D600008BD72B6DA4909880143D94A118062B6B2
:102D7000704772B6D64909888143D54A118062B638
:102D8000704772B60020D34908800021D248C0782D
:102D9000801ED14A11541046C078401E11540020A4
:102DA0001146087048708870C870087162B6704724
:102DB00070B504460025C7480088401CC5490880F6
:102DC000C548C078002854DD08460088401EC24926
:102DD0000C540846C078BF490988884248DCBE4880
:102DE000C078801EC1B2BC48FEF740FB0546BA4819
:102DF000C078801EB849095CB748C078401EB64A02
:102E0000105C41EA0020A84230D1104680780228A8
:102E100006D0032819D0042810D005281CD106E0BC
:102E2000AB48008840F00800A949088018E0A8488D
:102E3000008840F40060A649088011E0A44800889A
:102E400040F48070A24908800AE0A148008840F060
:102E500020009F49088003E0FFF793FF002070BD2A
:102E600000BF0020994908800120F8E7FFF789FF9B
:102E700042E09948007872280BD097484078A528FE
:102E800007D09548807820B9722C02D192480470FE
:102E900032E09148007872280BD18F484078A528FD
:102EA00007D08D48807820B9A52C02D18A4844707B
:102EB00022E08948007872280BD187484078A528FD
:102EC00007D18548807820B9002C02DD82488470C3
:102ED00012E08148007872280CD17F484078A528FC
:102EE00008D17D488078002804DD002C02DD7A4876
:102EF000C47001E0FFF745FF0020B0E701467648C7
:102F0000405C7047744870477349887AC97A40EAD0
:102F100001207149097B40EA01406F49497B40EA41
:102F2000016070472DE9F047044672202070A5200B
:102F300060700120A0702820E070A02020716748F8
:102F40000078607166480078A07166480078E0718A
:102F50000020FFF7A3FD05460120FFF7B2FE054361
:102F600025720120FFF79AFD05460220FFF7A9FE12
:102F7000054365720220FFF791FD05460420FFF727
:102F8000A0FE0543A5720320FFF788FD0546082033
:102F9000FFF797FE0543E5721020FFF792FE2073BE
:102FA0002020FFF78EFE60730020FEF768F9A07303
:102FB0000120FEF764F9E0730220FEF760F9207447
:102FC0000320FEF75CF96074FFF7FCFD0546FFF790
:102FD000F6FD0543A574FFF752FAE074FEF71FFCF7
:102FE0006061FEF757F920830520FFF752FD814607
:102FF00000F063F907463C4A3C4B00F071F9054686
:1030000000F02EF980B20A2190FBF1F06083FFF707
:10301000ABFBA08300F0C6F80088E08300F0C2F8A4
:103020004088208400F0BEF88088608400F0BAF800
:10303000C088A084E078801EC1B22046FEF716FA50
:10304000E084BDE8F08770B5FFF768FE2848008887
:10305000401C80B226490880142800DA70BD002088
:1030600023490880234801780078401C214A1070C9
:1030700011B1012911D106E01F48FFF753FF1E4D82
:103080002846C47809E000F091F8054600F08EF873
:10309000C47800201749087000BF00BF0120FFF767
:1030A00032FE21462846FEF765FF00BFD6E77221B3
:1030B0000170A52141700721C17004218170312167
:1030C000017170470010024000100140BC02002056
:1030D000BA020020B80200207A050020BE020020BB
:1030E000BF020020C00200207B14AE47E17A1640E8
:1030F000C2020020C102002052050020722101708E
:10310000A52141700721C170032181702121017126
:1031100070471049087070470E48007870470E4994
:10312000087070470C48007870470C490870704769
:103130000A48007870470A49C871704708487047C4
:1031400000B50520FFF7DAFE00BD00B50620FFF749
:10315000D5FE00BDBE020020BF020020C00200203C
:10316000120500208279417962F31F211B4A1180E8
:10317000027AC17962F31F21184A5180827A417A1A
:1031800062F31F21154A9180027BC17A62F31F21ED
:10319000124AD180704700201049088048808880FA
:1031A000C88070470D4870477047704710B572204F
:1031B0000B490870A5204870052088701320C8703E
:1031C000012008710846C078801EC1B20448FEF78D
:1031D0004DF90349A1F81100084610BDC4020020B2
:1031E000BA050020704770477047754600F02CF80C
:1031F000AE4605006946534620F00700854618B0E4
:1032000020B5FCF7DDFFBDE820404FF000064FF091
:1032100000074FF000084FF0000B21F00701AC460B
:10322000ACE8C009ACE8C009ACE8C009ACE8C0092A
:103230008D46704710B50446AFF300802046BDE8C8
:103240001040FCF7AABF000000487047D0050020DE
:1032500001491820ABBEFEE72600020070470000BF
:103260004FEA1153A3F58063D3F11E03A8BFD3F136
:10327000200C08DB4FF0004242EAC12252EA5052D1
:1032800032FA03F0704709420BD4102BC4BF002060
:10329000704703F5787CBCF1FF3F05D04FF0FF305D
:1032A00070474FF00000704770B500F0C3F800BFE2
:1032B0004992248000207047F0E7B0FA80F310FABA
:1032C00003F10AD0C3F11D0303F580634FEA4150B7
:1032D0004FEA035202EBD12170474FF000007047D4
:1032E000DFF848C170B51CEA111E1EBF1CEA131599
:1032F0009EEA0C0F95EA0C0F00F06F8081EA030440
:1033000023EA4C134EEAD47E21EA4C1141F4801199
:1033100043F48013AE44A1FB024CA0FB0365AEF165
:103320007F7E361955EB0C05A1FB034C4CF10003D5
:10333000A0FB021C16EB0C06654153F10003094289
:1033400018BF46F0010613F4007F0BD14FEA03319A
:103350004FEA0530340341EA155140EA16506FF048
:1033600003020AE04FEAC3214FEAC520F40241EA12
:10337000555140EA56506FF0020202EB2E4201EB2B
:10338000025585EACE710AD05FEA440C18BF24F0DA
:10339000004450F1000041F1000120EAD47040F2F5
:1033A000FE7C624500D270BDA84214BF4FF080443D
:1033B0004FF04044002E08BF0024BEF1806FA8BF2C
:1033C000A1F1C041BDE8704080F282804FF0000062
:1033D00001F1C04101F0004170479EEA0C0F0CEA78
:1033E000131518BF95EA0C0F06D04FF0000081EAC4
:1033F000030E0EF0004170BD00F01CF88900013E84
:1034000000F007B800F009B84FEA430C5FEA5C5CD3
:1034100008D081EA030100F05BB84FEA410C5FEA93
:103420005C5CF6D14FF00000014970470000FF07D7
:103430000000F87F0EF1020E2EF0030E5EF8046B12
:10344000364205D4012A43EB030515F5001F12D8B7
:10345000012841EB010C1CF5001F0CD80ED14FEADE
:10346000D17C15F5001F0CEB4C0C0CF1020C08BFC5
:103470004CEBD37C04E04FF0080C01E04FEAD37C26
:103480000CEB4C0526FA05F606F00706B6F1040C1F
:1034900006D20EEB860CBDE870404CF0010C604784
:1034A000DFE80CF0090B02024FF000414FF0000082
:1034B000A1F5002170BD19461046012851EB010409
:1034C00018BFD4F5001484BF002001F0004170BD86
:1034D0000808A0F500114FEA310170477E020CEF99
:1034E0007E020DEF7E020EEF7E020AEF7E0201EFFA
:1034F0007E0202EF7E030615EF7E0204EF7E0205D8
:10350000EF7E0210EF0000002835000800000020C8
:10351000CC020000280100083C370008CC02002043
:103520006409000064010008014D20EFC1C081C1A1
:10353000400101C3C003800241C201C6C00680072A
:1035400041C70005C1C581C4400401CCC00C800D39
:1035500041CD000FC1CF81CE400E000AC1CA81CB40
:10356000400B01C9C009800841C801D8C0188019A2
:1035700041D9001BC1DB81DA401A001EC1DE81DFA8
:10358000401F01DDC01D801C41DC0014C1D481D569
:10359000401501D7C017801641D601D2C012801342
:1035A00041D30011C1D181D0401001F0C030803131
:1035B00041F10033C1F381F240320036C1F681F7A8
:1035C000403701F5C035803441F4003CC1FC81FD39
:1035D000403D01FFC03F803E41FE01FAC03A803BC2
:1035E00041FB0039C1F981F840380028C1E881E980
:1035F000402901EBC02B802A41EA01EEC02E802F2A
:1036000041EF002DC1ED81EC402C01E4C024802568
:1036100041E50027C1E781E6402620F022C1E28192
:10362000E3402301E1C021802041E001A0C060808F
:103630006141A10063C1A381A240620066C1A6816D
:10364000A7406701A5C065806441A4006CC1AC813E
:10365000AD406D01AFC06F806E41AE01AAC06A80FF
:103660006B41AB0069C1A981A840680078C1B881ED
:10367000B9407901BBC07B807A41BA01BEC07E806F
:103680007F41BF007DC1BD81BC407C01B4C074805E
:103690007541B50077C1B781B640760072C1B2817D
:1036A000B3407301B1C071807041B00050C19081CE
:1036B0009140510193C053805241920196C056806F
:1036C0005741970055C19581944054019CC05C803E
:1036D0005D419D005FC19F819E405E005AC19A81FD
:1036E0009B405B0199C059805841980188C048802F
:1036F000494189004BC18B818A404A004EC18E816D
:103700008F404F018DC04D804C418C00204844C1FA
:1037100084818540450187C047804641860182C03B
:1037200042804341830041C181818040400B247E1F
:0C373000031100EF7E030F00EFD3010136
:04000005080000ED02
:00000001FF
