:020000040800F2
:10000000900F0020DD010008CB0D0008C901000899
:100010005D0E0008770E0008910E00080000000039
:10002000000000000000000000000000AB0E00080F
:10003000ED01000800000000EF0100083B4C000843
:10004000F3010008F3010008F30100085309000858
:10005000F3010008F3010008F3010008F3010008B0
:10006000F3010008F3010008F3010008F3010008A0
:10007000F3010008F30100082F110008F301000844
:10008000F3010008F3010008F3010008F301000880
:10009000F3010008F3010008F3010008F301000870
:1000A000F3010008F3010008F3010008F301000860
:1000B000F3010008F3010008F3010008F301000850
:1000C000F3010008F3010008F3010008F301000840
:1000D0008F0C00089F100008F3010008F3010008CE
:1000E000F3010008F3010008F301000800F002F832
:1000F00000F05AF80AA090E8000C82448344AAF168
:100100000107DA4501D100F04FF8AFF2090EBAE865
:100110000F0013F0010F18BFFB1A43F0010318473B
:10012000D85F0000F85F00000A444FF0000C10F8A0
:10013000013B13F0070408BF10F8014B1D1108BF65
:1001400010F8015B641E05D010F8016B641E01F805
:10015000016BF9D113F0080F1EBF10F8014BAD1C55
:100160000C1B09D16D1E58BF01F801CBFAD505E073
:1001700014F8016B01F8016B6D1EF9D59142D6D3CD
:10018000704700000023002400250026103A28BFF5
:1001900078C1FBD8520728BF30C148BF0B607047F9
:1001A0001FB51FBD10B510BD04F039FF1146FFF794
:1001B000F7FF04F029FD04F057FF03B4FFF7F2FF47
:1001C00003BC04F05FFF00001EF0040F0CBFEFF350
:1001D0000880EFF3098000F005BE000008480047E2
:1001E000FEE7FEE7FEE7FEE7FEE7FEE7FEE7FEE7E7
:1001F000FEE7FEE703480449044A054B7047000048
:10020000ED00000890090020900F0020900B0020C6
:10021000900B0020704770B50024AFF2070572B64E
:1002200059480568280C0004B0F1006F07D0AFF200
:100230001B005549086062B6FFF7ECFF18E0AFF20B
:100240002B00854203D162B6FFF7E4FF10E00024E3
:1002500006E04D49601C51F8200041F82400641C60
:10026000142CF6D9AFF253004749086562B6A84787
:1002700070BD0146002072B604E0401C142801D96C
:1002800062B67047404A52F82020AFF277039A4294
:10029000F3D13D4A42F8201062B600BFF1E710B535
:1002A00000243A480068401C3849086000BF23E039
:1002B000374850F83400AFF2A301884200D11AE069
:1002C000334800EBC4008088012809D0304800EB97
:1002D000C4008088401E2E4901EBC401888009E0DB
:1002E0002B4951F83400FFF7C4FFAFF2D70028497B
:1002F00041F8340000BF641C142CD9D310BD23482E
:100300000068704730B502460B4672B6002016E012
:100310001F4C54F83040944205D11D4C04EBC004EE
:10032000A38062B630BD1A4C54F83040AFF21B15B2
:10033000AC4203D111B981B241F40041401C1428F0
:10034000E6D321F40041124C44F8312004EBC104FF
:10035000A38062B600BFE5E7002000BF0CE0AFF26B
:100360004B11094A42F82010094A42F83010002186
:1003700002EBC0029180401C1428F0D9704710B5E0
:1003800000F0E2FD10BD000080020020000000200F
:10039000D402002008B502464FF6FF7000900DE031
:1003A00012F8010BBDF80030DBB25840074B33F8B0
:1003B0001000BDF8003080EA23200090081EA1F153
:1003C0000103D9B2ECD1BDF8000008BD9255000878
:1003D0005848806940F01D00564988615648406879
:1003E00040F00070544948605448006820F4404090
:1003F000524908600846006840F440500860704761
:10040000B0F5C05F05D100214D4A118001214D4A50
:100410001180B0F5807F05D10021494A1180022169
:10042000484A118046490988491C89B2444A1180CA
:1004300021290BDBB0F5C85F02D10321414A1180AD
:10044000B0F5885F02D104213E4A1180704700B5A3
:100450003D480078032819DA3848806848F20301DB
:1004600008403A49384A127821F8120038480068A2
:1004700000F4C8503749344A127821F81200324843
:100480000078401C30490870002000BD00202E4933
:1004900008702E4800882D49498808402B49498812
:1004A0002A4A92881140084328490988274A928895
:1004B00011400843C0432849088026480088254940
:1004C0004988084023494988224A928811400843B4
:1004D000204909881F4A9288114040EA01031846C2
:1004E000FFF78EFF0120D0E71B49098801F00201C8
:1004F00019B10021194A118002201749098801F019
:10050000010119B10021154A1180032013490988FE
:10051000491C89B2114A1180642905DB0E490988FA
:1005200001F0030101B90120704706480088C0B2FC
:100530007047000000100240000001400010014020
:100540001C0000200A0000200C0000200E000020EB
:100550000808014014000020080000201A000020B4
:1005600001B500BFBDF80000401E80B20090002819
:10057000F8D108BDAC48006800F03330AA490860E3
:100580000846006840F0333008607047A6480068AD
:1005900000F0CC30A44908600846006800F0333011
:1005A00008600846006840F04430086070479F4883
:1005B000806940F01C009D4988619D48006820F4D6
:1005C0004C009B4908609B48006840F6CC4188433A
:1005D00098490860081D006820F44C40091D086017
:1005E0009348006840F408109149086091480068F9
:1005F00040F2222108438F490860081D006840F43A
:100600000850091D0860704710B54FF48060894993
:10061000103108601420FFF7A3FF4FF08060854978
:10062000103108601420FFF79BFF10BD10B510209B
:100630007F49086180037F4910310860022008600B
:10064000FFF7A4FFFFF7E0FF774808300068C4B267
:100650004FF48010764908618010764910310860A7
:1006600040100860FFF786FF204610BD70B50446B5
:100670000D4625B104206F491031086004E04FF4A5
:1006800080206C491031086067480C30006800F425
:100690007F40204364490C3108601420FFF760FF5D
:1006A000FFF7B2FF70BD28B14FF40061614A10320C
:1006B000116004E04FF000615E4A10321160704733
:1006C00010B5FFF774FF01205A491031086000BFD0
:1006D000FFF7ACFF00F010000028F9D110205449BA
:1006E0000861202008610021B820FFF7BFFF00212A
:1006F0004020FFF7BBFF0021C020FFF7B7FF00211C
:100700003F20FFF7B3FF00BFFFF790FF00F020008E
:100710000028F9D14FF4006046491031086010BD3F
:100720004548704710B500244448007810B10128AE
:100730006FD136E04FF400103D4908611020086188
:100740003F490978B831C8B20021FFF78FFF002177
:100750004020FFF78BFF00240CE03A490A88098803
:10076000491C384B19803449885C0121FFF77EFF12
:10077000601CC4B2402CF0DB324800884030314964
:1007800008802F480078401CC0B22D490870082806
:1007900006DB002008702B490880012027490870DB
:1007A00037E04FF480102249086120200861244975
:1007B0000978B831C8B20021FFF758FF0021402066
:1007C000FFF754FF1F48008840301E49088000246E
:1007D0000CE01C490A880988491C1A4B19801649E3
:1007E000885C0121FFF742FF601CC4B2402CF0DBA3
:1007F00013480078401CC0B211490870082807DB74
:10080000002008700F4908800C490870012010BDB5
:1008100000BF00BF0020FAE710B500BFFFF782FF5E
:100820000028FBD010BD000000080140001002406D
:1008300000100140000C01407C0300201F0000203C
:100840001E000020200000205348C06940F0C05026
:100850005149C8615148006840F480704F490860B0
:100860004D48006A00F40040B0F5004F3BD04A48C4
:10087000006A40F48030484908620846006A20F463
:10088000803008620846006A40F40140086244482B
:10089000008840F010004249088047F6FF70404948
:1008A000083108803E48008820F010003C4908804C
:1008B0003948006A40F001003749086200BF3648F5
:1008C000006A00F001000028F9D0354800884FF692
:1008D000F77108403249088000BF3148008800F0B5
:1008E00008000828F9D12E48008840F010002C4953
:1008F00008800120091F0880081D008820F01000D2
:10090000091D08800320012181404209920002F163
:10091000E022C2F8001100BF70472148183000885B
:100920001F491431098840EA014070471C49098871
:1009300041F010011A4A1180010C194A1432118039
:10094000121D10801649098821F01001144A1180E7
:1009500070471348008800F0010028B11048008853
:1009600020F001000E4908800D48008800F00200C8
:1009700028B10B48008820F0020009490880084887
:10098000008800F0040028B10548008820F0040029
:1009900003490880704700000010024000700040CA
:1009A0000428004000BF011EA0F1010290B2FAD15C
:1009B000704710B50446204600F014F910BD10B57C
:1009C00004464FF080505A4908600A20FFF7EAFFBA
:1009D0002046FFF7EEFF4FF480505549086010BDE8
:1009E00070B505464020FFF7EAFF4FF080505049B0
:1009F0000860C020FFF7DDFF002404E0285DFFF75A
:100A0000D8FF601CC4B2092CF8D34FF48050484979
:100A100008600320FFF7D3FF8A20FFF7D0FF70BDE7
:100A200070B5054600244FF08050414908604220CF
:100A3000FFF7BFFF002000F0BAF800BF04E000F0AD
:100A4000F9F82855601CC4B2052CF8DB012000F031
:100A5000AEF84FF480503649086070BD10B50024E0
:100A60003449097801EB8101334A8818FFF7D8FF30
:100A70003048007800EB80002F49085C00F024002B
:100A800018BB2C48007800EB80000844407800F048
:100A90002400D0B92748007800EB80000844807813
:100AA00000F0240088B92348007800EB8000084457
:100AB000C07800F0240040B91E48007800EB8000A8
:100AC0000844007900F0240018B10020194908708A
:100AD00004E018480078401C164908701548007852
:100AE000032820D1002013490870002417E0124881
:100AF000005D1149491D095D08400F49491D095D07
:100B00000D4A0A32125D114008430B490A5D0A3151
:100B1000095D0A40104309490855601CC4B2052C00
:100B2000E5DB012010BD0020FCE704487047000011
:100B3000100C0140270000207C070020220000202C
:100B400059480068594908405749086008460068F4
:100B500040F4403008600846006840F40000086037
:100B60000846006840F4401008600846006840F0FD
:100B7000806008600846006840F000400860084651
:100B8000006840F0405008604948C06940F4804027
:100B90004749C861002047490880091D0880081F8F
:100BA000008848F2E73108434249088070474149CC
:100BB000098821F040013F4A1180012805D11146E2
:100BC000098841F48041118005E03A49098821F4FF
:100BD0008041384A11803749098841F04001354A3F
:100BE0001180704708B50021009106E00099491C6A
:100BF0000091B1F5A04F00D908BD2E4908310988F0
:100C000001F002010029F1D00021009129490C31A5
:100C1000088006E00099491C0091B1F5A04F00D969
:100C2000EAE724490831098801F080010029F1D15F
:100C300000BFE1E708B50020009007E00098401CE5
:100C40000090B0F5A04F01D9002008BD1948083028
:100C5000008800F080000028F0D10090FF201549A6
:100C60000C31088007E00098401C0090B0F5A04FC0
:100C700001D90020E9E70F480830008800F00100A2
:100C80000028F0D00B480C300088C0B2DDE70948DE
:100C90000830008807480830008806480830008877
:100CA0000448083000887047040C0140FFFF3333CC
:100CB000001002400038004000210020814A1268E4
:100CC00042F480327F4B1A6000BF7E4A126802F401
:100CD0000030491C10B9B1F5A06FF6D1794A1268FD
:100CE00002F400320AB1012000E00020012843D1C3
:100CF000754A126842F01002734B1A601A46126865
:100D000022F003021A601A46126842F002021A60C8
:100D10006C4A526842F480626A4B5A601A465268C2
:100D200022F47C125A601A46526842F4E8125A6061
:100D30001A46126842F080721A6000BF614A126857
:100D400002F00072002AF9D05E4A526822F00302D3
:100D50005C4B5A601A46526842F002025A6000BF69
:100D6000584A526802F00C02082AF9D1554A126812
:100D700042F40022534B1A60704700B55148006896
:100D800040F001004F490860084640684F4908405C
:100D90004C494860084600684D4908404949086088
:100DA0000846006820F4802008600846406820F467
:100DB000FE0048604FF41F008860FFF77DFF454844
:100DC000414948604448486000BD10B501F084F8CE
:100DD00042A001F04AFB0121084601F0FFF901F0B1
:100DE0006DF810BD2DE9F04104466569A669E76913
:100DF00001F072F80121084601F0F0F938A001F085
:100E000034FB0221012001F0E9F938A001F02DFBAB
:100E1000304601F098FC0321012001F0DFF936A0F3
:100E200001F023FB384601F08EFC0421012001F083
:100E3000D5F934A001F019FB284601F084FC052106
:100E4000012001F0CBF932A001F00FFB334800681C
:100E500001F079FC01F036F8BDE8F08110B501F041
:100E60003BF80121084601F0B9F92DA001F0FDFA87
:100E700001F024F810BD10B501F02EF8012108464C
:100E800001F0ACF929A001F0F0FA01F017F810BD5B
:100E900010B501F021F80121084601F09FF926A0C4
:100EA00001F0E3FA01F00AF810BD10B501F014F8F2
:100EB0000121084601F092F922A001F0D6FA00F0D3
:100EC000FDFF10BD00100240002002400000FFF0B6
:100ED000FFFFF6FE23016745AB89EFCD4E4D49007C
:100EE000486172644661756C7400000050432020B4
:100EF0002020203D00000000505352202020203DA3
:100F0000000000004C5220202020203D0000000066
:100F10005461736B4164723D0000000004000020C6
:100F20004D656D4D616E61676500000042757346E9
:100F300061756C74000000005573616765466175EA
:100F40006C7400005356430003484FF0E0214861A1
:100F500088610720086170473F19010010B50446F9
:100F6000201D8549C8640846406C40F01000486464
:100F70000846406C40F0800048640846406C40F0F1
:100F8000020048640E2000F0EBF810BD70B5044676
:100F90007A48006820F44C60784908600846006888
:100FA00040F0B00008600846006840F480600860C7
:100FB0007348806940F480407149886171480480B9
:100FC000001D008820F480506E49091D0880081D0E
:100FD000008820F44050091D088042F22C00091FAF
:100FE000088068480C30008840F0800065490C316A
:100FF000088025200F21002807DA0A07150E624A0B
:1010000000F00F031B1FD55403E00A07130E5F4ABD
:10101000135400BF252000F0A3F85948406940F060
:1010200001005749486157480838FFF797FF70BDDE
:1010300040B15449091D098841F00401514A121D6B
:10104000118007E04F49091D098821F004014D4A2C
:10105000121D1180704700224D4B1A801A46917064
:101060005060484A121D128822F00402454B1B1D95
:101070001A800278434B1B1F1A80424A121D1288A5
:1010800042F048023F4B1B1D1A8070474148704791
:101090003C48083800883B48001F0088704710B55E
:1010A00038480838008800F0200090B135480838EA
:1010B000008800F00F0038B9324A121F1288D0B2EF
:1010C000344A1168884704E0FFF7E2FF3149486875
:1010D00080472C480838008800F0080020B1FFF74E
:1010E000D7FF2C494868804726480838008800F018
:1010F000400050B12749886880472248001D008879
:1011000020F040001F49091D08801E48083800884B
:1011100010BD194A526C22F00102174B5A641A464C
:1011200010659164526C42F001025A647047124893
:10113000006800F4005090B10F48406840F400503F
:101140000D4948600846406C20F0010048640D4895
:10115000001D008840F040000A49091D08807047C2
:1011600000F01F02012191404209920002F1E022A9
:10117000C2F800117047000000000240040801405E
:10118000001002400838014018ED00E000E400E0E3
:10119000280000208C0700202E480088401C2D4984
:1011A000088008460088322190FBF1F201FB120012
:1011B00028B92948007880F001002749087025489F
:1011C0000088642190FBF1F201FB120028B922484B
:1011D000007880F00200204908701E480088FA213B
:1011E00090FBF1F201FB120028B91B48007880F057
:1011F000040019490870174800884FF4FA7190FBF1
:10120000F1F201FB120028B91348007880F00800C1
:10121000114908700F4800884FF47A7190FBF1F281
:1012200001FB120040B90C48007880F010000A4918
:101230000870002007490880704701460120884057
:10124000054A1278104010B14FF6FF707047002029
:10125000FCE70000320000203000002070B50020C4
:10126000854908704870002428E0FFF75EFC005DA7
:1012700000F002008501FFF758FC005D00F010004F
:1012800045EA8000610008417B49097808437A49B2
:101290000870FFF74AFC005DC007050EFFF745FC2C
:1012A000005D00F0080045EAC00061000841724995
:1012B0004978084370494870601CC4B2042CD4DBE0
:1012C0006D4800786C49497840EA01206A494880B5
:1012D00070BD6A48704710B50024FFF7BFFBD8B156
:1012E000FFF7BCFF644844886448046064480068B1
:1012F000604020406149486061480068A0438860C0
:101300000846C068496848405C49C86001200861D7
:101310005B480460012010BD0020FCE756480078BF
:10132000704755484078704701465448006801228C
:101330008A401040704701465048406801228A4068
:101340001040704701464D48806801228A40104095
:10135000704701464948C06801228A4010407047E2
:101360004649C968012282409143444AD16070478E
:1013700030B503460D4614461888A84200DA1D8091
:101380001888A04200DD1C800B20FFF7CDFFE0B1E4
:101390001888A84200D130BD3A4800880B2806D0F2
:1013A0000B20384908801888401E188033E03648E2
:1013B0000088401C80B23449088032282BDB188812
:1013C000401E18802D20088025E00C20FFF7ACFF80
:1013D000E0B11888A04200D1DDE72A4800880C2837
:1013E00006D00C20274908801888401C188012E07D
:1013F00025480088401C80B22349088032280ADB37
:101400001888401C18802D20088004E000201D4909
:1014100008801D49088000BFBDE730B503460C4673
:1014200015460D20FFF780FF70B11888A04200D14B
:1014300030BD164800880D281CD00D2013490880A7
:101440001888401E188015E00E20FFF76DFF70B160
:101450001888A84200D1EBE70C4800880E2809D074
:101460000E200A4908801888401C188002E00020DD
:101470000649088000BFDBE73900002098070020FC
:1014800040000020460000204400002048000020CA
:1014900010B50024FFF749F8032803D0FFF745F8FB
:1014A000042801D144F4805403F053FD807800F007
:1014B0000300022801D144F4807403F04AFD8078CF
:1014C000C0F38100022801D144F4007403F041FD0F
:1014D00080780421B1EB101F01DC44F4806403F038
:1014E0003DFD032801D144F40064002003F0ECFB2F
:1014F000032801DB44F01004012003F0E5FB03287E
:1015000001DB44F02004022003F0DEFB032801DBB2
:1015100044F04004032003F0D7FB032801DB44F030
:101520008004002003F03DFC042801D344F00104B2
:10153000012003F036FC042801D344F00204022009
:1015400003F02FFC042801D344F00404032003F02B
:1015500028FC042801D344F0080403F059FD8078E6
:101560000221B1EB101F01DC44F4804403F050FD74
:10157000C0780221B1EB101F01DC44F4004403F0F9
:1015800047FD00790221B1EB101F01DC44F48034E7
:1015900009480460094800686040204006494860E6
:1015A00006480068A04388600448046010BD00201D
:1015B0007047014870470000AC0700204C00002035
:1015C00010B5F348FFF70CFA10BD0146F04A0020B1
:1015D00002E01154431CD8B20928FAD3704770B501
:1015E00002460C46EA49082A05DB1546D61702EBE7
:1015F0005676C6F3C700A2EBC005EBB2302A0CD07A
:10160000312A0AD0322A08D0332A06D0342A04D00C
:101610000D5C03269E40B5430D54012C05D10D5C95
:1016200001269E4035430D5414E0022C05D10D5C7B
:1016300002269E4035430D540CE0032C05D10D5C71
:1016400003269E4035430D5404E00D5C03269E4066
:10165000B5430D5470BD012807D1CD49897921F0DA
:1016600008010831CA4A917105E0C949897921F018
:101670000801C74A91717047012807D1C449897987
:1016800021F010011031C24A917105E0C0498979F9
:1016900021F01001BE4A91717047012807D1BC4961
:1016A000897921F00401091DB94A917105E0B84911
:1016B000897921F00401B64A91717047012807D158
:1016C000B349897921F00201891CB14A917105E081
:1016D000AF49897921F00201AD4A91717047AC4957
:1016E000897821F00101AA4A91701146897821F088
:1016F00002019170012806D11146897821F001017B
:10170000491C917018E0022807D1A149897821F07D
:101710000201891C9E4A91700EE003280CD19C495D
:10172000897821F00101491C994A91701146897804
:1017300021F00201891C917070479549897821F048
:101740004001934A91701146897821F0800191708F
:10175000012806D11146897821F04001403191706D
:1017600018E0022807D18A49897821F08001803168
:10177000874A91700EE003280CD18549897821F0C1
:1017800040014031824A91701146897821F08001F0
:1017900080319170704770B50446A07800F0030066
:1017A000012807D1A078C0F38100012802D1FFF7FA
:1017B000C4FF13E0A07800F00300022802D1FFF775
:1017C000BCFF0BE0A078C0F38100022806D1FFF730
:1017D00034FD00F003052846FFF7AFFF70BD6C49EC
:1017E000897821F010016A4A91701146897821F0B8
:1017F00020019170012806D11146897821F010014D
:101800001031917018E0022807D16149897821F0E0
:10181000200120315E4A91700EE003280CD15C4912
:10182000897821F010011031594A91701146897858
:1018300021F0200120319170704770B5044614B931
:101840000020FFF7CCFF032C02D10120FFF7C7FFD8
:10185000022C07D10220FFF7F0FC00F0010528461A
:10186000FFF7BDFF042C07D10220FFF7E6FC00F0D4
:1018700003052846FFF7B3FF052C02DB0220FFF724
:10188000AEFF70BD4249897821F00401404A917051
:101890001146897821F008019170012806D111467E
:1018A000897821F00401091D917018E0022807D100
:1018B0003749897821F008010831354A91700EE0E6
:1018C00003280CD13249897821F00401091D304ADE
:1018D00091701146897821F00801083191707047A4
:1018E00070B50446032C08D10220FFF7A6FC00F0D7
:1018F00003052846FFF7C6FF02E00120FFF7C2FFFD
:1019000070BD2DE9F04781460E4617469846384689
:1019100003F0F0F904464046FFF78FFCC5B23046AD
:1019200003F0D2F9032819DB032C07DB05F00300D1
:1019300040F002014846FFF752FE22E0012C07D199
:1019400005F0030040F001014846FFF748FE18E0AB
:1019500005F003014846FFF742FE12E024B90021DA
:101960004846FFF73CFE0CE0012C04D1012148461B
:10197000FFF735FE05E0032C03DB02214846FFF7A5
:101980002EFE042C02D10120FFF765FEBDE8F08792
:10199000B80700204FF08040CC490861CC4800884F
:1019A00020F00100CA490880704710B5C948C078C6
:1019B000801EC4B22146C748FEF7ECFCC549085357
:1019C00010BD70B504460D46C148007800F0010016
:1019D00000B170BD4FF48040BC49086129462046E3
:1019E000FFF797FBBA48008820F00100401CB84977
:1019F000088000BFEDE70020B74908704870887084
:101A0000C870704731B5B44CB4480078401CB34935
:101A10000870E07800283FD09DF800200846007844
:101A2000801F611D0A54E078AC490978884276DC51
:101A30000020AA490870E078801EC1B22046FEF757
:101A4000A9FCE178214431F8021C884221D1A07818
:101A5000012802D0022810D107E09D48008820F01C
:101A60000400001D9A4908800BE09948008820F086
:101A70000400001D9649088003E0FFF7BCFF00202A
:101A800038BD00BFFFF7B7FF00209549088001204F
:101A9000F6E7FFF7B0FF42E0207872280CD06078BC
:101AA000A52809D0A07838B99DF80000722803D184
:101AB0009DF80000207032E0207872280CD1607808
:101AC000A52809D0A07838B99DF80000A52803D131
:101AD0009DF80000607022E0207872280BD16078B9
:101AE000A52808D1A07830B99DF8000018B19DF85C
:101AF0000000A07013E0207872280BD16078A52830
:101B000008D1A07830B19DF8000018B19DF8000010
:101B1000E07004E0002071490870FFF76CFF0020BE
:101B2000AEE710B56F48806940F010006D498861DC
:101B30006648406820F04060644948600846406854
:101B400040F0407048604FF49070FFF71FFAFFF7C5
:101B50009DFA65490160FFF799FA64494160FFF712
:101B600095FA6349816010BD5D480088B0F57A7FC1
:101B70000BD85B480088401C5949088054480088AD
:101B800020F002005249088006E05148008820F009
:101B90000200801C4E49088070474D4870475548E8
:101BA00070474D4870474B48704710B5494C7220FC
:101BB0002070A52060700220A0701120E070FFF757
:101BC000F4FEE1782046FFF7FCFE10BD70B5FFF78C
:101BD000EAFF441DFFF7E3FF0078123810285CD2BB
:101BE000DFE800F008111A1F24293F485B5B5B5BAC
:101BF0005B5B4D52FFF7D7FF1221017103F046F8EE
:101C00000079A0715AE0FFF7CEFF1321017103F0B4
:101C10003DF88079E07151E0FFF7C5FF14210171B3
:101C20004CE0FFF7C0FF1521017147E0FFF7BBFF54
:101C30001621017142E0FFF7B6FF1721017103F091
:101C4000AEF84078207103F0AAF80078A07103F094
:101C5000A6F84088206003F0A2F8051D0020287037
:101C60002CE0FFF7A0FF1821017103F085F98089AE
:101C7000206023E0FFF797FF192101711EE0FFF7B5
:101C800092FF2021017119E0FFF78DFF21210171E1
:101C900003F05FF98078207110E0FFF784FF1121D5
:101CA0000171FEF742FC2071FEF71EFC6071FFF728
:101CB00038FB2072FFF732FB607200BF00BFFFF7F6
:101CC0006EFF00210170FFF770FF70BD0010014032
:101CD0005000002021080020C107002054000020EF
:101CE0005200002000100240051A0008F7190008F1
:101CF00095190008550000204CF6BB406549088046
:101D00004AF69920488048F67700888046F2556068
:101D1000088144F23340488142F2112088817047A3
:101D20005D49086070475C480068704759487047D3
:101D3000F0B501464AF6C0050D444AF6C006B5FBAB
:101D4000F6F5564E354468080725B0FBF5F605FB59
:101D50001605504EF58047F62C5528448500ED1C9D
:101D60004F4EB5FBF6F5ECB235466543A0EBA5004A
:101D70008500ED1C40F2B556B5FBF6F5EBB23546E5
:101D80005D43A0EBA50000EB8005AD1C9926B5FBDB
:101D9000F6F5EAB202EB021505EBC505AD1C05260A
:101DA00095FBF6F5451B6D1C3A4EB5800A2592FB56
:101DB000F5F6D51C0C2707FB1655364E75800A25FF
:101DC00092FBF5F6642505FB0435A5F596553544DB
:101DD000304E35804FF46165B1FBF5F51826B5FB43
:101DE000F6F706FB17552B4E35813C25B1FBF5F573
:101DF0003C26B5FBF6F706FB1755264E75813C25AC
:101E0000B1FBF5F605FB1615224EB581F0BD70B598
:101E100001464D88C5F10E050C2695FBF6F5EBB293
:101E20000D8805F59655ED1AAAB24D8806FB0355A7
:101E3000ED1EECB28D88681E04EB041505EBC5059C
:101E4000AD1C052695FBF6F5284440F26D1505FB03
:101E5000020000EBA200642592FBF5F5401B4FF455
:101E6000C87592FBF5F52844A0F5FA402D380D4DC4
:101E7000401B0D4D68430D89C5EB4516C6EB052586
:101E800000EB05104D89C5EB051500EB85008D892C
:101E9000284470BD8108002058000020177B4A00AC
:101EA000B13A02008B3D25008051010010B5FEF7CC
:101EB00007FCFEF735FCFE49086010BD10B5FEF7C3
:101EC00031FC10BD10B5FEF7A7FC10BD10B50446DF
:101ED0002046FEF7E8FB10BD002005E00021F44A93
:101EE00012681154411C88B2B0F5806FF6DB704760
:101EF000002005E0FF21EE4A12681154411C88B20F
:101F0000B0F5806FF6DB7047F0B50446802C01DC3D
:101F1000402900DDF0BD0E46CF1701EB5777FF10CB
:101F200004EBC717BDB2CF1701EB5777FF10A1EB3A
:101F3000C707BBB2DE4E3668705D1AB901269E40F7
:101F4000B0430CE0012A04D101269E400643B0B202
:101F500005E0022A03D101269E404640B0B2D44F8C
:101F60003F68785500BFD5E72DE9F84F04460D4688
:101F700091469A4600260027B346002000908046EE
:101F8000802C07DCB9F1800F04DC402D02DCBAF1B3
:101F9000400F01DDBDE8F88FAAEB0506A9EB0407A9
:101FA000002E04DA76424FF0FF30009001E001206D
:101FB0000090002F03DA7F424FF0FF3B01E04FF02B
:101FC000010B76007F00E9B2E0B20A9AFFF79CFFAE
:101FD000B74213DDA6EB67080DE0B8F1000F03DB95
:101FE00000980544A8EB07085C44B044E9B2E0B2AD
:101FF0000A9AFFF789FF4C45EFD112E0A7EB66087C
:102000000DE0B8F1000F02DB5C44A8EB0608009875
:102010000544B844E9B2E0B20A9AFFF775FF5545A6
:10202000EFD100BFB6E72DE9F04705460E469046D2
:102030009A4600240027A146802D03DD402E01DDB5
:10204000BDE8F0874FFA88F70320A0EB48004FFA6D
:1020500080F951E0F219D1B22A19D0B25246FFF7F5
:1020600053FFF21BD1B22A19D0B25246FFF74CFFF0
:10207000F219D1B22A1BD0B25246FFF745FFF21B2C
:10208000D1B22A1BD0B25246FFF73EFF3219D1B26D
:10209000EA19D0B25246FFF737FF321BD1B2EA1924
:1020A000D0B25246FFF730FF3219D1B2EA1BD0B29C
:1020B0005246FFF729FF321BD1B2EA1BD0B252467B
:1020C000FFF722FFB9F1000F09DA2046611C4CB27C
:1020D000062101EB800048444FFA80F90CE02046CD
:1020E000611C4CB239467A1E57B2401A0A2101EBE4
:1020F000800048444FFA80F9BC42ABDD00BF9FE747
:102100002DE9F84F07460D4690461E46DDF828A0FB
:10211000BAF1640F01DDBDE8F88F01203346424675
:10212000314600903846FFF71FFF012033464246F4
:10213000294600904046FFF717FF012033463A46F4
:10214000294600903846FFF70FFF01202B464246F4
:10215000294600903846FFF707FF01206B1EA8F1C3
:102160000702691E0090F81DFFF7FEFE0120AB1E5E
:10217000A8F10702A91E0090F81DFFF7F5FE701BDD
:10218000C01E00FB0AF0642190FBF1F000F0FF0993
:1021900000240BE001200090B01E031BA8F10202F6
:1021A000011BB81CFFF7E0FE601CC4B24C45F1DB1C
:1021B000701BC01E00F0FF0B5C460BE0002000907F
:1021C000B01E031BA8F10202011BB81CFFF7CCFED6
:1021D000601EC4B24C45F1DC00BF9CE718280ADC45
:1021E000082908DC4A1ED301421E02EB420203EB1F
:1021F0004202304B1A807047002004E000212E4A32
:102200001154411CC8B22028F8DB704730B5014694
:1022100000200FE001EB81020244284B9B5C254A21
:1022200014881288521C234D2A80214A12681355A3
:10223000421CD0B20528EDDB00241E4A1388128808
:10224000521C1C4D2A801A4A1268D45430BDF0B575
:10225000044600210022002000235AE004EB8405FC
:102260001D44164E705D00F0010505EB450200F0BF
:10227000020505EB450542EA450200F0040505EBC1
:10228000450542EA850200F0080505EB450542EAEE
:10229000C505EAB2001100F0010505EB450100F0AB
:1022A000020505EB450541EA450100F0040507E09C
:1022B0005C00002060000020900800209250000880
:1022C00005EB450541EA850100F0080505EB4505EC
:1022D00041EAC505E9B2FE4D2D68FE4E3688AA5585
:1022E000FB4D2E68FB4D2D886D1C7255F84D2E68E8
:1022F000F84D2D8880357155F54D2E68F54D2D889A
:1023000081357155F34D2D88AD1CF24E35805D1C25
:10231000EBB2052BA2DB0026EE4D2F882D886D1C1D
:10232000DFF8B0C3ACF80050E94D2D68EE556546B6
:102330002F882D886D1CACF80050E54D2D68EE55AA
:10234000F0BD70B505460E4631462846FFF746FFFC
:10235000002408E0E048005D18B1DF49085DFFF7A0
:1023600076FF601CC4B2C5F10C00A042F2DCFFF79E
:1023700043FF70BDF0B50446002100220020002379
:1023800045E004EB84051D44D44E705D00F001056A
:1023900005EB450200F0020505EB450542EA450262
:1023A00000F0040505EB450542EA850200F008054A
:1023B00005EB450542EAC505EAB2001100F001054A
:1023C00005EB450100F0020505EB450541EA450135
:1023D00000F0040505EB450541EA850100F008051C
:1023E00005EB450541EAC505E9B2B94D2D68B94E81
:1023F0003688AA55B64D2E68B64D2D888035715554
:10240000B44D2D886D1CB34E35805D1CEBB2052B91
:10241000B7DB0026AF4D2F882D886D1CDFF8B4C2C6
:10242000ACF80050AA4D2D68EE55F0BD70B50546CC
:102430000E46162D02DD052E00DD70BD3146284604
:10244000FFF7CCFE002408E0A348005D18B1A249C4
:10245000085DFFF78FFF601CC4B2C5F11600A042F3
:10246000F2DCFFF7C9FE00BFE7E730B50446002500
:10247000FFF7C2FE05E014F8010BFFF7C7FE681C6A
:10248000C5B220780028F6D1284630BD70B5054683
:102490000021B820FEF7EAF800214020FEF7E6F818
:1024A000002405E0285D8A4909680855601C84B24B
:1024B000B4F5806FF6DB70BD3FB504460025E4B18E
:1024C0000EE00A20B4FBF0F100FB11403030294649
:1024D0006A1CD5B201AA50540A20B4FBF0F400954E
:1024E000002CEED106E0691EC9B20D4601AA505C6F
:1024F000FFF78CFE002DF6D107E03020FFF786FEB7
:102500009DF80000401CC0B200909DF8000004B08F
:1025100030BD7CB504460D46B4F5803F45DA052D47
:1025200043DA42F2107094FBF0F0C0B28DF8040070
:1025300042F2107094FBF0F100FB114084B24FF4B2
:102540007A7094FBF0F0C0B28DF803004FF47A700B
:1025500094FBF0F100FB114084B2642094FBF0F096
:10256000C0B28DF80200642094FBF0F100FB114032
:1025700084B20A2094FBF0F0C0B28DF801000A206A
:1025800094FBF0F100FB1140C0B28DF80000002672
:1025900009E0691E891B1DF8011001F13000FFF7E9
:1025A00035FE701CC6B2AE42F3DB681CC0B27CBD07
:1025B000FCB504460E46174642F2107094FBF0F04C
:1025C000C0B28DF8040042F2107094FBF0F100FBF1
:1025D000114084B24FF47A7094FBF0F0C0B28DF8E1
:1025E00003004FF47A7094FBF0F100FB114084B2C9
:1025F000642094FBF0F0C0B28DF80200642094FBDC
:10260000F0F100FB114084B20A2094FBF0F0C0B25C
:102610008DF801000A2094FBF0F100FB1140C0B2DC
:102620008DF80000002511E0C5F103011DF801102F
:1026300001F13000FFF7EAFD002E05DD701EA84213
:1026400002D12C20FFF7E2FD681CC5B2042DEBDBA4
:102650003846FFF70AFF0720FCBD7CB504460D464F
:10266000B4F5803F4FDA052D4DDA42F2107094FB3D
:10267000F0F0C0B28DF8040042F2107094FBF0F15B
:1026800000FB114084B24FF47A7094FBF0F0C0B2BA
:102690008DF803004FF47A7094FBF0F100FB1140C9
:1026A00084B2642094FBF0F0C0B28DF80200642084
:1026B00094FBF0F100FB114084B20A2094FBF0F08F
:1026C000C0B28DF801000A2094FBF0F108E0000090
:1026D0005C0000206000002090080020925000085C
:1026E00000FB1140C0B28DF80000002609E0691E11
:1026F000891B1DF8011001F13000FFF7A8FD701CC7
:10270000C6B2AE42F3DB7CBD70B506460C4615463C
:10271000601CC1B23046FFF761FD2846FFF7A5FEF9
:1027200070BD10B50446092C03DC04F13000FFF73E
:102730006DFD0A2C06DB0F2C04DC04F1570188B276
:10274000FFF764FD10BD30B5044615A0FFF78DFE00
:10275000250F2846FFF7E5FFC4F303652846FFF77A
:10276000E0FFC4F303552846FFF7DBFFC4F303453E
:102770002846FFF7D6FFC4F303352846FFF7D1FFFD
:10278000C4F303252846FFF7CCFFC4F303152846FE
:10279000FFF7C7FF04F00F052846FFF7C2FF30BD63
:1027A0003078000038B5044601210846FFF716FDD1
:1027B0002046FFF75AFE01211120FFF70FFDFFF71A
:1027C000B5FA058902212846FFF7A3FEFFF7AEFA06
:1027D000007B00F0010018B13A20FFF717FD02E07E
:1027E0002020FFF713FDFFF7A1FA458902212846B3
:1027F000FFF78FFE01200A237F2219460090002058
:10280000FFF7B2FB01200B237F2219460090002026
:10281000FFF7AAFB01200C237F221946009000201D
:10282000FFF7A2FB38BD7047014601EB410000EB0A
:102830000112FE4800EB82007047FC48001F704701
:102840000020FA49091F08804880704710B5FFF73B
:1028500043FBF748FFF71AFEFFF734FB10BD08B53E
:1028600001203F230022082100901046FFF77CFB47
:10287000012008237F22194600900020FFF774FBF7
:1028800001203F237F22082100901046FFF76CFBB8
:1028900001203F230022194600907F20FFF764FBB0
:1028A000E4480088401C80B2E2490880052818DB13
:1028B00000200880E0480088401CDF490880DF488D
:1028C0000088401CDD490880084600887F2801DB1D
:1028D00000200880D84800881C2802DB0020D64948
:1028E0000880D5480078401EC2B2012324213F2031
:1028F000FFF799FBD0480278012324213F20FFF7FE
:1029000092FB012023230090CC4802883F210846F7
:10291000FFF72AFB01200090C8480088421E2323AD
:102920003F213E20FFF720FB01200090C348008894
:10293000821E23233F213D20FFF716FB012000903C
:10294000BE480088C0F17F0223233F210846FFF7DD
:102950000BFB01200090B9480088C0F17E022323C0
:102960003F213E20FFF700FB01200090B348008884
:10297000C0F17D0223233F213D20FFF7F5FA01201E
:102980000090AE480088C0F17F02232309213F2038
:10299000FFF7EAFA01200090A8480088C0F17E0203
:1029A000232309213E20FFF7DFFA01200090A348EE
:1029B0000088C0F17D02232309213D20FFF7D4FACE
:1029C0000120232300909D48028809213F20FFF722
:1029D000CBFA0120009099480088421E2323092148
:1029E0003E20FFF7C1FA0120009094480088821E23
:1029F000232309213D20FFF7B7FA08BD10B504468F
:102A0000242C51D2DFE804F0501216141A181E1CA0
:102A1000222026242A282E2C323036343A383E3CC6
:102A2000424046444A48505050504E4C844810BD95
:102A30008448FCE78448FAE78448F8E78448F6E7E6
:102A40008448F4E78448F2E78448F0E78448EEE7F6
:102A50008448ECE78448EAE78448E8E78448E6E706
:102A60008448E4E78448E2E78448E0E78448DEE716
:102A70008448DCE78448DAE78448D8E78448D6E726
:102A80008448D4E78448D2E78448D0E78448CEE736
:102A90008448CCE78448CAE78448C8E78448C6E746
:102AA0008448C4E78448C2E78448FFF7DEFC042179
:102AB0002046FFF72EFD0020B9E72DE9F04104463E
:102AC0000D461646ACB903210820FFF787FB00200E
:102AD000FFF7AAFE858146B10020FFF7A5FE878992
:102AE00002213846FFF715FD0FE075A0FFF7BDFC8A
:102AF0000BE003210820FFF771FB0020FFF794FE95
:102B0000878902213846FFF704FDBDE8F0812DE9F1
:102B1000F04104460D461646ACB904210820FFF7E3
:102B20005DFB0020FFF780FE058346B10020FFF724
:102B30007BFE078B02213846FFF7EBFC0FE060A01D
:102B4000FFF793FC0BE004210820FFF747FB002070
:102B5000FFF76AFE078B02213846FFF7DAFCBDE873
:102B6000F0812DE9F04104460D4616463046FFF748
:102B7000DFF8681CC5B229462046FFF72FFBFFF798
:102B8000D5F8878802213846FFF7C3FC2E20FFF7CF
:102B90003DFBFFF7CBF8478802213846FFF7B9FC29
:102BA0002E20FFF733FBFFF7C1F8078804213846D2
:102BB000FFF7AFFC2F20FFF729FB04F10B00C4B295
:102BC000A11CC8B22946FFF709FB3A20FFF71EFBFC
:102BD000611DC8B22946FFF701FB3A20FFF716FB3B
:102BE00020462946FFF7FAFAFFF7A0F807890221E5
:102BF0003846FFF78EFCE11CC8B22946FFF7EEFA13
:102C0000FFF794F8478902213846FFF782FCA11D9F
:102C1000C8B22946FFF7E2FAFFF788F88789022150
:102C20003846FFF776FCBDE8F08100006800002020
:102C300096570008300200203202002034020020A3
:102C4000955E0008A55E0008B35E0008C15E00083E
:102C5000CF5E0008E05E0008EE5E0008FF5E000840
:102C6000105F0008245F0008355F0008495F000816
:102C70005A5F00086E5F00087C5F00088D5F0008E7
:102C80009D5F0008B05F0008C05F0008D35F0008C8
:102C9000E35F0008F65F000806600008196000089E
:102CA000286000083A600008496000085B6000087E
:102CB0006A6000087C60000890600008885E000878
:102CC000202000002DE9F04105460E4617461C461F
:102CD00005210A20FFF782FA3A20FFF797FA05212B
:102CE0000D20FFF77BFA3A20FFF790FA7DB9052116
:102CF0000820FFF773FA268127B120890221FFF708
:102D000008FC0CE0AFF24800FFF7AFFB07E005213D
:102D10000820FFF763FA20890221FFF7FAFB012D53
:102D20000FD105210B20FFF759FA668127B1608981
:102D30000221FFF7EEFB0CE0AFF27C00FFF795FB02
:102D400007E005210B20FFF749FA60890221FFF710
:102D5000E0FB022D0FD105210E20FFF73FFAA681DF
:102D600027B1A0890221FFF7D4FB0CE0AFF2B0003D
:102D7000FFF77BFB07E005210E20FFF72FFAA08964
:102D80000221FFF7C6FBBDE8F0812DE9F0410546C1
:102D90000E4617461C4606210A20FFF71FFA2E2072
:102DA000FFF734FA06210D20FFF718FA2E20FFF75F
:102DB0002DFA7DB906210820FFF710FAA68027B169
:102DC000A0880221FFF7A5FB0CE0AFF20C10FFF783
:102DD0004CFB07E006210820FFF700FAA08802213B
:102DE000FFF797FB012D0FD106210B20FFF7F6F916
:102DF000668027B160880221FFF78BFB0CE0AFF201
:102E00004010FFF732FB07E006210B20FFF7E6F941
:102E100060880221FFF77DFB022D0ED106210E20D6
:102E2000FFF7DCF9268027B120880421FFF771FB2A
:102E30000BE0FEA0FFF719FB07E006210E20FFF7CD
:102E4000CDF920880421FFF764FBBDE8F08170B55F
:102E500005460E461446E81CC1B21220FFF7BEF923
:102E6000012E0CD10220FEF7E8F920B1E088012103
:102E7000FFF74FFB07E0EFA0FFF7F7FA03E0E0886A
:102E80000121FFF746FBE81CC1B20D20FFF7A6F9B0
:102E90006EB90220FEF7D1F920B120890221FFF797
:102EA00038FB08E0AFF2E810FFF7DFFA03E0208913
:102EB0000221FFF72EFB70BD10B50446012C03D193
:102EC000DD48FFF7D2FA0EE0022C03D1DB48FFF712
:102ED000CCFA08E0032C03D1D948FFF7C6FA02E088
:102EE000D848FFF7C2FA10BD0146012901D1D648E2
:102EF0007047022901D1D548FAE7032901D1D44806
:102F0000F6E70020F4E770B50546284601F049FFD2
:102F10000446284601F05FFF18B9CB48FFF7A5FA31
:102F200020E0012C03D1C748FFF79FFA1AE0022CDA
:102F300003D1C848FFF799FA14E0032C03D1C6481F
:102F4000FFF793FA0EE0042C03D1BD48FFF78DFA8A
:102F500008E0052C03D1B948FFF787FA02E0B8482A
:102F6000FFF783FA70BD2DE9F04104460D46164681
:102F7000FEF7B2FF2068FFF715FC3DB1F01CC1B2AF
:102F80001420FFF72BF9B5A0FFF76FFA0020FFF729
:102F90004BFCA04252D103210120FFF71FF96068CA
:102FA000FFF763FA03210720FFF718F92D20FFF739
:102FB0002DF9002211460320FFF77FFD0421012097
:102FC000FFF70CF92069FFF750FA002211460320A1
:102FD000FFF79DFD05210120FFF700F9E069FFF7EC
:102FE00044FAFEF7A3FE07463B46002211460320A3
:102FF000FFF768FE06210120FFF7F0F8A06AFFF74F
:1030000034FAFEF793FE878802213846FFF781FAEB
:103010002E20FFF7FBF8FEF789FE4788022138468D
:10302000FFF777FA2E20FFF7F1F8FEF77FFE07880B
:1030300004213846FFF76DFABDE8F0810120FFF763
:10304000F3FBA0427ED103210120FFF7C7F884489B
:10305000FFF70BFA04210120FFF7C0F88148FFF7C2
:1030600004FA81A0FFF701FA0020FFF74CFF0421CA
:103070000B20FFF7B3F87DA0FFF7F7F9002001F070
:103080009FFF078902213846FFF743FA78A0FFF730
:10309000ECF9002001F094FFC78801213846FFF7C2
:1030A00038FA05210120FFF799F87248FFF7DDF99A
:1030B0006DA0FFF7DAF90120FFF725FF05210B20AE
:1030C000FFF78CF869A0FFF7D0F9012001F078FF35
:1030D000078902213846FFF71CFA65A0FFF7C5F9FA
:1030E000012001F06DFFC78801213846FFF711FA72
:1030F00006210120FFF772F85F48FFF7B6F95AA0E2
:10310000FFF7B3F90220FFF7FEFE06210B20FFF7C1
:1031100065F856A0FFF7A9F9022001F051FF0789D1
:1031200002213846FFF7F5F951A0FFF79EF902207A
:1031300001F046FFC78801213846FFF7EAF9072169
:10314000012000E025E0FFF749F84C48FFF78DF932
:1031500045A0FFF78AF90320FFF7D5FE07210B20D2
:10316000FFF73CF841A0FFF780F9032001F028FFAA
:10317000078902213846FFF7CCF93DA0FFF775F922
:10318000032001F01DFFC78801213846FFF7C1F970
:1031900052E70220FFF748FBA04234D1032101206F
:1031A000FFF71CF86068FFF760F9A068FFF75DF9AA
:1031B00004210120FFF712F82069FFF756F9606932
:1031C000FFF753F905210120FFF708F8E069FFF741
:1031D0004CF9206AFFF749F906210120FEF7FEFFAE
:1031E000A06AFFF742F9E06AFFF73FF907210120E3
:1031F000FEF7F4FF606BFFF738F9A08F20A20021E3
:10320000FFF7D6F918E70320FFF70EFBA04266D1BF
:1032100003210120FEF7E2FF6068FFF726F9A068AE
:10322000FFF723F9042101202CE0000020202020BA
:103230000000000020000000FB5D0008175E000891
:103240001D5E0008265E0008F55D0008DE5D0008D2
:10325000435E0008D85D0008D25D00083C3D0000D8
:10326000EE5B0008035C00082D0000002D2000002C
:10327000202D2000085C00080D5C0008125C00088E
:103280006D420000FEF7AAFF2069FFF7EEF86069C3
:10329000FFF7EBF805210120FEF7A0FFE069FFF73B
:1032A000E4F801F056FE8078000928B1A08CF9A25C
:1032B0000221FFF77DF902E0F748FFF7D6F8062173
:1032C0000120FEF78BFFA06AFFF7CFF801F046FE62
:1032D0008046FFF709FE0746FFF7C7F8ACE6042073
:1032E000FFF7A2FAA04251D101F092FE00884FF6FA
:1032F000FF71884207D103210120FEF76FFFE748E5
:10330000FFF7B3F841E003210120FEF767FFE4482F
:10331000FFF7ABF801F07CFE0788DEA202213846F9
:10332000FFF746F904210120FEF758FFDD48FFF7BB
:103330009CF82D20FEF76AFF01F06AFE80780709ED
:103340003846FFF7B9FD05210120FEF747FFD648B3
:10335000FFF78BF82D20FEF759FF01F059FEC078DA
:1033600007093846FFF7A8FD06210120FEF736FFC2
:10337000CE48FFF77AF82D20FEF748FF01F048FE0F
:10338000007907093846FFF797FD55E60520FFF756
:103390004BFAA04246D103210120FEF71FFF052072
:1033A000FFF742FA878904213846FFF7B2F8C0A038
:1033B000FFF75BF80520FFF737FA078B0421384643
:1033C000FFF7A7F801F0D8FD408910B1B948FFF721
:1033D0004CF801F0D1FD808800B92DE605210120CF
:1033E000FEF7FCFEB448FFF740F8A08C0421FFF77D
:1033F00090F801F0C1FD07683A4605210120FFF76A
:10340000B0FB07210120FEF7E9FE3021085DFFF740
:10341000F5FA30B13021085DFFF7F0FA0746FFF703
:1034200024F809E60620FFF7FFF9A04206D10121A2
:103430000846FEF7D3FEA1A0FFF717F800BFFBE593
:1034400010B5FEF749FD04210320FEF7C7FE9F4893
:10345000FFF70BF810BD10B504210120FEF7BEFEEA
:10346000FDF763F8012806D002281CD003280AD0F3
:10347000042820D10FE09648FEF7F7FF0121352000
:10348000FEF7ADF817E09348FEF7EFFF0321352074
:10349000FEF7A5F80FE09048FEF7E7FF032135207F
:1034A000FEF79DF807E08D48FEF7DFFF022135208B
:1034B000FEF795F800BF00BF10BD014609B9884866
:1034C0007047012901D18748FAE7022901D18648CE
:1034D000F6E7032901D18548F2E7042901D18448A0
:1034E000EEE7052901D18348EAE78348E8E701468A
:1034F00009B97B487047012901D17A48FAE70229C6
:1035000001D17E48F6E70020F4E710B501F021FD77
:10351000C07800F0030028B90320FFF785F9784947
:1035200081600CE001F015FDC07800F00304204636
:10353000FFF7DDFF03460320FFF776F9836001F014
:1035400008FDC078000928B90320FFF76DF96C4920
:1035500041610BE001F0FDFCC07804092046FFF753
:10356000ACFF03460320FFF75FF9436110BD10B5C0
:1035700001F0EFFC807800F0030028B90320FFF78A
:1035800053F95F4981600CE001F0E3FCC07800F082
:1035900003042046FFF7ABFF03460320FFF744F97F
:1035A000836001F0D6FC8078000928B90320FFF77A
:1035B0003BF9534941610BE001F0CBFCC0780409B1
:1035C0002046FFF77AFF03460320FFF72DF94361FA
:1035D00010BD70B50546284601F05CFB04460CB9E9
:1035E0003F4870BD012C01D13E48FAE7022C01D1C1
:1035F0004448F6E7032C01D14348F2E7042C01D1FB
:103600004248EEE7052C01D13948EAE74048E8E7AF
:1036100010B5044604F0010040B10020FFF7D9FFC7
:1036200003460220FFF700F9836004E00220FFF761
:10363000FBF83349816004F0020040B10120FFF73C
:10364000C8FF03460220FFF7EFF8436104E00220C1
:10365000FFF7EAF82A49416104F0040040B1022072
:10366000FFF7B7FF03460220FFF7DEF8036204E02E
:103670000220FFF7D9F82249016204F0080040B1A6
:103680000320FFF7A6FF03460220FFF7CDF8C36231
:1036900045E03FE042000000205E0008325D000887
:1036A000DD5C0008E85C0008EF5C0008F65C0008E0
:1036B0002F000000155D00080C5D000845455052C4
:1036C0004F4D20496E666F3A00000000205D0008F3
:1036D0005E5D0008485D0008725D0008875D0008B7
:1036E0002C5E0008FB5D0008625E0008685E000852
:1036F0000C5E0008765E0008805E00084B5E0008E5
:10370000375E0008265E0008175E0008015E0008AC
:103710001D5E00080220FFF787F8B849C16210BD9E
:10372000014609B9B6487047012901D1B548FAE701
:10373000022901D1B448F6E70020F4E710B50446A9
:10374000601CC1B20120FEF749FDB048FEF78DFEB6
:10375000AF48FEF78AFE10BD10B50446601CC1B22A
:103760000120FEF73BFDAB48FEF77FFE10BD10B514
:1037700004462046FFF716F810BD10B503210120BE
:10378000FEF72CFDA448FEF770FE04210120FEF791
:1037900025FD9E48FEF769FE9E48FEF766FE9FA047
:1037A000FEF763FE022001F0A5FA03280CD10521E3
:1037B0000120FEF713FD9548FEF757FE9548FEF7EA
:1037C00054FE97A0FEF751FE10BD10B50321012055
:1037D000FEF704FD9348FEF748FE04210120FEF7A2
:1037E000FDFC8A48FEF741FE8A48FEF73EFE8BA0AC
:1037F000FEF73BFE05210120FEF7F0FC8348FEF7B3
:1038000034FE8448FEF731FE85A0FEF72EFE10BD83
:1038100010B503210120FEF7E1FC8348FEF725FEE9
:10382000002001F0D8FA032804D1FFF787FF7F4872
:10383000FEF71BFE012001F0CEFA032805D104207B
:10384000FFF77CFF7A48FEF710FE022001F0C3FA72
:10385000032805D10520FFF771FF7648FEF705FE26
:1038600010BD10B5044603210120FEF7B7FC7248D5
:10387000FEF7FBFD04F0010030B104210120FEF74A
:10388000ADFC6A48FEF7F1FD04F0020030B10521FD
:103890000120FEF7A3FC6648FEF7E7FD04F00400F4
:1038A00030B106210120FEF799FC6248FEF7DDFDEC
:1038B00004F0080030B107210120FEF78FFC5F48BB
:1038C000FEF7D3FD04F0100028B10420FFF744FFF9
:1038D00052A0FEF7CAFD04F0200028B10520FFF732
:1038E0003BFF4FA0FEF7C1FD04F0400028B10620C9
:1038F000FFF732FF52A0FEF7B8FD04F0800028B1B8
:103900000720FFF729FF4FA0FEF7AFFD04F480402A
:1039100030B104210120FEF761FC4B48FEF7A5FD04
:1039200004F4004030B105210120FEF757FC474860
:10393000FEF79BFD04F4803030B106210120FEF734
:103940004DFC4348FEF791FD10BD10B50321012049
:10395000FEF744FC3F48FEF788FD002001F0CAF95D
:1039600001280BD10421FEF739FC2848FEF77DFD24
:103970002848FEF77AFD29A0FEF777FD022001F026
:10398000B9F901280BD10521FEF728FC1F48FEF7E5
:103990006CFD2048FEF769FD21A0FEF766FD10BD15
:1039A00010B503210120FEF719FC2B48FEF75DFD41
:1039B0002D20FEF72BFC01F0CAFA447F022120469D
:1039C000FEF7A7FD03210D20FEF708FC2348FEF7B4
:1039D0004CFD01F0BCFA847F02212046FEF799FDE0
:1039E000FFF739FD10BD10B5FEF776FA042103206C
:1039F000FEF71CFD1A48FEF738FD10BD375E0008C3
:103A00002C5E0008FB5D0008535E0008E35D0008C3
:103A1000CE5D0008215C0008875D000831000000D1
:103A200032000000A4600008B2600008035C0008D7
:103A3000085C00080D5C0008C2600008125C000809
:103A40003300000034000000E85C0008EF5C000870
:103A5000F65C0008D0600008C15B0008C75B000886
:103A6000E1600008002006E0002100EB80022C4B02
:103A70009954411CC8B20428F6DB7047002017E0B7
:103A800000EB8001264A515C012904D1022100EBA0
:103A90008002234B995400EB8001214A515C02299A
:103AA00004D1002100EB80021D4B9954411CC8B287
:103AB0000428E5DB704710B500EB8002184B9A5CD8
:103AC00052B9012200EB8003154CE25400EB800256
:103AD00023461A44C2F8011010BD00EB8001104AC1
:103AE000515C21B9012100EB80020D4B99547047C4
:103AF000014601EB81000A4A105C30B1002001EB65
:103B00008102074B9854012070470020FCE70146D2
:103B100001EB8100024A1044D0F801007047000018
:103B2000B0080020002013E02A4931F81010491C89
:103B3000284A22F810102849095C012906D1274992
:103B400031F81010491C254A22F81010411CC8B247
:103B50000428E9DB704700200AE000211D4A22F812
:103B600010101E4A22F810101B4A1154411CC8B2F2
:103B70000428F2DB70470146164830F81100704700
:103B80000021144A22F8101070470146134830F8FB
:103B9000110070470021104A115470470E49095C0A
:103BA00031B900210D4A22F8101001210A4A11549E
:103BB00070470949095C012902D10221064A1154C2
:103BC00070470549095C022902D10121024A1154BA
:103BD0007047000036020020460200203E0200200E
:103BE00001B508E04FF0E020006900F4803010B12A
:103BF0000098401E009000980028F3D108BD10B531
:103C0000044634B90020FDF759FD0020FE49086044
:103C100016E0FD4800686040204040B10D20FDF7EF
:103C20009FFB0020FDF74AFDF748046008E00D20E7
:103C3000FDF78FFB20B10120FDF740FDF248046045
:103C400010BD10B5F1480078052870D2DFE800F00B
:103C5000030B71BDBE000B20FDF774FB10B10120FA
:103C6000EA490870B4E00220FDF7E7FA00F0010429
:103C70002046FDF712FD0020FDF76BFB78B1022016
:103C8000FDF7DBFA00F0010421462620FDF7A7FC32
:103C9000DF48007840F00100DD49087009E00021AC
:103CA0002620FDF79CFCDA48007820F00100D84976
:103CB00008700120FDF74DFB78B10220FDF7BDFA39
:103CC00000F0010421462420FDF789FCD04800784B
:103CD00040F00200CE49087009E000212420FDF7E1
:103CE0007EFCCB48007820F00200C94908700B2008
:103CF000FDF721FB10B10220C44908700C20FDF72C
:103D00001AFBA8B10B20FDF72BFB0C20FDF728FBBD
:103D10000020FDF725FB0120FDF722FB0020BD4917
:103D20000870BA490870BA490870012010BD4EE009
:103D30004EE00120FDF7B1FC0120FDF78CFCB448FA
:103D4000007800F0010078B10220FDF776FA00F06B
:103D5000020421462620FDF742FCAE48007840F0E0
:103D60000100AC49087003E000212620FDF737FC74
:103D7000A748007800F0020078B10220FDF75DFA54
:103D800000F0020421462420FDF729FCA148007818
:103D900040F002009F49087003E000212420FDF755
:103DA0001EFC0C20FDF7C7FA70B10020FDF7D8FA11
:103DB0000120FDF7D5FA0020964908709349087054
:103DC000934908700120B1E702E001E000E000BF84
:103DD00000BF0020AAE710B58F480078072848D216
:103DE000DFE800F004333B4344454600FCF79DFB0D
:103DF000022803D101208849087025E00920FDF739
:103E00009AFA18B10220844908701DE0002000F0E1
:103E1000E2FF022804D0012000F0DDFF022803D1D8
:103E200003207D4908700FE0032000F0D4FF032831
:103E300003D104207849087006E00B20FDF77BFAD7
:103E400010B105207449087014E0FCF76EFB0228DD
:103E500002D00020704908700CE00920FDF772FACA
:103E600010B100206C49087004E003E002E001E0BA
:103E700000E000BF00BFAFF2A100FCF7FAF910BDEF
:103E800010B5FDF705FBAFF20700FCF7F2F910BD26
:103E900010B5FEF713F8AFF20700FCF7EAF910BD12
:103EA00010B501F054F8C07F012804D15B490870B7
:103EB000FDF786FB10BD5948007820B10020574916
:103EC0000870FDF782FB01F044F80446FDF763FC3F
:103ED00001F03FF8807804092046FDF7AEFC01F0C0
:103EE0003DF80446FDF7FCFC0220FDF7A6F900F0C2
:103EF00001042046FDF7F3FBFDF75BFB0068484932
:103F0000084020B101213720FDF769FB03E00021C3
:103F10003720FDF764FB002000F0D6FE03280EDA00
:103F2000012000F0D1FE032809DA022000F0CCFEC7
:103F3000032804DA032000F0C7FE032804DB012174
:103F40003820FDF74CFB03E000213820FDF747FB4C
:103F5000002000F026FF04280ED2012000F021FFEF
:103F6000042809D2022000F01CFF042804D20320F8
:103F700000F017FF042804D301213920FDF72FFB9F
:103F800003E000213920FDF72AFBFDF712FB04684E
:103F90002046FFF734FE00F0DAFFC07F012803D18E
:103FA000FDF7FDFD16210170FCF79EFA032806D1EE
:103FB0000220FDF742F9C4B22046FDF706FBFDF7EB
:103FC000FFFA00BF76E72DE9F041FDF7EAFD441D59
:103FD000FDF7E9FD471DFDF7E6FD451DFDF7DDFD9C
:103FE0000646008820F004003080FDF7DAFD0079F5
:103FF000A02853D1FDF7D5FD461D304600F020FF27
:10400000FDF7CFFD461D0DE05002002054020020B8
:10401000550200204C0200204D02002056020020D4
:10402000FFC00100304600F0E7FF94F8210000F0E7
:1040300092FF00F08EFF94F82010C1702068FDF709
:104040006FFE0020FEF7F0FB617F81810020FEF70C
:10405000EBFBA17F01830320FEF7E6FBB4F80D1014
:10406000818400F07BFF0646FEF73EFF804603207A
:10407000FEF7DAFBC0F82C8000F07EFFA1880181FA
:1040800000F07AFFE18841810520FEF7CDFBA18891
:1040900081810520FEF7C8FBE1880183FDF781FDE2
:1040A000007918281AD1FDF77CFD461D304600F036
:1040B00058FF00F061FF86880520FEF7B5FB868477
:1040C00000F05AFF86790520FEF7AEFB068600F069
:1040D00053FFC6790520FEF7A7FB8687FEF7ADFBE9
:1040E0000088012843D1FDF75CFD0079192806D12D
:1040F000FDF757FD461D304600F040FF3AE0FE4810
:10410000007803280CDCFDF74AFD19210170FA48FC
:1041100000782880F8480078401CF749087029E0AA
:10412000FDF73DFD0078202824D1FEF786FB40886E
:10413000461E304600F044FF00882880FEF77DFBD5
:104140004088461E304600F03BFFC088E880FEF7FE
:1041500074FB4088461E304600F032FF00892881FB
:104160000020E54908700A20FDF7FAF802E0002077
:10417000E1490870FDF72AFDBDE8F08110B5002087
:10418000FDF723FA0220FDF758F800F0030420465B
:10419000FDF7A5FA01213720FDF721FAFDF710FA06
:1041A000FFF74EF910BD10B5FDF7F7FC0078C0F32E
:1041B000800018B1AFF2F110FCF75BF8AFF2190014
:1041C000FCF757F810BD2DE9F041FDF7ECFC441D5C
:1041D0000A20FDF7BEF800287ED0FEF72EFB0088EF
:1041E00007287AD2DFE800F004FDFCFBFAF9F800BA
:1041F000C248008838B9FEF720FB851C0322002145
:104200002846FDF7B5F8FEF718FB4088002839D19D
:1042100001220021BA48FDF700F9B94800880128B9
:104220002ADA0120B549088000F030FD051D402242
:1042300000212846FDF79CF80220FCF7FEFFC5B2DE
:1042400000F024FD0679AE4908782A463146FEF78B
:1042500034FC0920FDF76FF860B10A20FDF780F803
:104260000020A64908800120A5490880FDF797FC99
:1042700012210170BDE8F0810020A04908800120D2
:104280009F490880FEF7D9FA408801283BD10122D6
:1042900000219B48FDF7C1F89948008801282CDAD5
:1042A00001209649088000F0F1FC851D4022002184
:1042B0002846FDF75DF80220FCF7BFFFC5B200F00D
:1042C000E5FC86798E4908782A463146FEF71FFCC0
:1042D0000920FDF730F801E0C4E2ADE260B10A2048
:1042E000FDF73EF8002085490880012084490880B8
:1042F000FDF755FC13210170BCE700207F490880C1
:1043000001207F490880FEF798FA4088022869D189
:10431000032200217B48FDF780F87A4800880328B3
:104320007CDA01207549088076480088C8B9FDF715
:10433000FDFC00F10805172200212846FDF718F8BA
:10434000FDF7F4FC07460220FCF777FFC5B2FDF746
:10435000EDFC06896B4908783B462A463146FEF754
:10436000B1FC68480088012819D1FDF7DFFC00F195
:104370000A053B2200212846FCF7FAFFFDF7D6FC90
:1043800007460220FCF759FFC5B2FDF7CFFC46896E
:104390005C4908783B462A463146FEF793FC59486B
:1043A0000088022821D1FDF7C1FC00F10C053B2259
:1043B00000212846FCF7DCFFFDF7B8FC0746022089
:1043C000FCF73BFFC6B2FDF7B1FC85894D49087883
:1043D0003B463246294606E02AE2E2E1DDE18FE192
:1043E00031E1B5E020E0FEF76DFC0920FCF7A3FF0A
:1043F00090B10A20FCF7B4FF002040490880032058
:1044000040490880FDF792FC0546FDF700FD20605D
:10441000FDF7C5FB142101702CE7FFE700203749A9
:104420000880032037490880FEF707FA40880328F0
:1044300061D1032200213448FCF7EFFF32480088A5
:1044400003287EDA01202D4908802F480088C0B952
:10445000FDF76CFC051D1F2201212846FCF788FF93
:10446000FDF764FC07460220FCF7E7FEC5B2FDF746
:104470005DFC8688244908783B462A463146FEF78B
:1044800084FC21480088012818D1FDF74FFC851CC9
:104490000C2201212846FCF76BFFFDF747FC07467D
:1044A0000220FCF7CAFEC5B2FDF740FC468816495B
:1044B00008783B462A463146FEF767FC12480088DA
:1044C000022825D1FDF732FC054640F6020240F2F3
:1044D000B271FCF74DFFFDF729FC07460220FCF7FF
:1044E000ACFEC5B2FDF722FC0688074908783B46BA
:1044F0002A4631460AE02AE0570200205A020020EC
:10450000600200205C0200205E020020FEF73DFCFD
:104510000920FCF710FF90B10A20FCF721FF0020D2
:10452000FE4908800320FE490880FDF7FFFB054691
:10453000FDF76DFC2060FDF732FB1521017099E657
:10454000FFE70020F54908800320F549088074E161
:10455000F248008838B9FEF770F9851C0422012161
:104560002846FCF705FF02220021EE48FCF755FF24
:10457000EC48008802285FDA0120E8490880FEF74D
:104580005CF94088401E86B2FEF757F94088451E08
:10459000284600F015FD0680E248008801281DD15C
:1045A000FEF74BF94088461E304600F009FD851D98
:1045B000022200212846FCF7DBFEFEF73EF9408888
:1045C000471E384600F0FCFC0546FEF736F98678B3
:1045D000D44801782A463046FEF739FCD148008895
:1045E000F0B9FEF72AF94088461E304600F0E8FC94
:1045F00000F10805632200212846FCF7B9FEFEF70A
:104600001CF94088471E384600F0DAFC0546FEF7E4
:1046100014F98678C34801782A463046FEF717FC1D
:104620000920FCF788FE30B10020BC490880FDF766
:10463000B6FA202101701DE60020B849088002204A
:10464000B8490880F9E0FEF7F8F8851C042200213B
:104650002846FCF78DFE00F0A2FB45782846FEF7C1
:10466000D7FF00F09CFB45880220FEF7DDF8858728
:1046700000F095FB051D01202870FEF7DEF840884C
:1046800003281DDC0D20FCF756FE50B100F087FB1F
:10469000451CFEF7D2F8817801208840297808432C
:1046A00028700E20FCF747FE50B100F078FB451C47
:1046B000FEF7C3F88178012088402978814329706A
:1046C000FEF7BBF84088042808D100F068FB851C81
:1046D0004FF4FA7201212846FCF79FFE0920FCF7EF
:1046E0002AFE60B10A20FCF73BFEFEF7A6F88578AB
:1046F00000F055FB0570FDF752FA172101709CE0A0
:10470000FEF79BF8851C012200212846FCF730FEAD
:10471000FEF72DFFFEF791F84088B0B90D20FCF7A9
:104720000AFE38B100F015FC851C807820F00300EB
:10473000401C28700E20FCF7FEFD30B100F009FC93
:10474000851C807820F003002870FEF776F84088FA
:10475000012816D10D20FCF7EEFD38B100F0F9FB71
:10476000851C807820F0F000103028700E20FCF7B7
:10477000E2FD30B100F0EDFB851C807820F0F00008
:1047800028700920FCF7D7FD30B10A20FCF7E8FDBE
:10479000FDF705FA212101704FE00A20FCF7E0FD4A
:1047A0004BE000F0E9FB058900F0E6FB00F10C06A8
:1047B0002A4601213046FCF7DBFD0D20FCF7BBFD4E
:1047C00018B100F0D9FB012181810E20FCF7B3FD67
:1047D00028B100F0D1FB058900F0CEFB85810920CE
:1047E000FCF7A9FD20B100F0C7FB4FF6FF718181F6
:1047F00000F0C2FBC58900F0BFFB8089854216D05E
:1048000000F0BAFB858900F0B7FBC58100F0B4FB6E
:1048100080894FF6FF71884205D100F0ADFB058914
:1048200000F0AAFB8581FDF7BAF91821017004E0B8
:104830000A20FCF795FD00E000BF00BFFDF773FA0A
:104840000546FDF775FAFDF7F8FF8578FDF7F5FFEA
:1048500007783846FDF7E8FF06462A460121FEF7AD
:1048600082FB70E000202D49088003202E4908803B
:104870002B49088001202D49088002202949088001
:10488000FDF7DBFF00214180FEF73FFE00F074FBE7
:10489000058900F071FB85810020FDF7C5FF858942
:1048A00000F0F4F985800020FDF7BEFF058B00F0D5
:1048B000EDF9C580FDF737FA0546FDF739FA00F046
:1048C0006EFA45782846FEF7A3FE00F068FA4588A0
:1048D0000220FDF7A9FF8587FDF761F90078172809
:1048E00004D000F05CFA051D002028700E20FCF7B3
:1048F00022FD18B1FDF7A1FF052101800D20FCF775
:104900001AFD18B1FDF799FF00210180FDF795FF11
:10491000054605220021FCF72BFD09E05A02002084
:104920005E020020620200205C0200206002002083
:10493000FDF783FF06783046FDF776FF0546002237
:104940001146FEF710FB00BF94E470B5FDF72BF99C
:10495000451D00F0FCFAC07F012802D1FFF743F8A3
:1049600070BD0E20FCF7E7FC18B1FDF718F9162111
:104970000170FDF7D8F90446FDF7DAF9FDF760FF9D
:104980000920FCF7EDFC0A20FCF7EAFCFDF7A4FA8D
:10499000BA48FEF7ECFEFBF7C8FD022802D1FEF78D
:1049A000ECFE24E0002000F0A5F9042802D1FEF777
:1049B0000CFF1CE0032000F02CFA10B1FEF728FFDA
:1049C00015E0012000F0C2F910B1FEF7BEFF0EE0C5
:1049D000FCF7EFFD0068AA49084030B1FCF7E9FD9B
:1049E00004682046FEF73DFF01E0FEF7D9FF0223F1
:1049F000002211462620FCF784FF02231A4619469E
:104A00002420FCF77EFF002000F074F9042804D075
:104A1000012000F06FF9042803D10120FCF71BFEF0
:104A200002E00020FCF717FE032000F0F2F918B1B5
:104A30000120FCF721FE02E00020FCF71DFE00BF74
:104A40008EE770B5FDF7AFF8441D00F080FAC07F27
:104A5000012802D1FEF7C7FF70BD0E20FCF76BFCEA
:104A600018B1FDF79CF816210170FDF75CF90546B9
:104A7000FDF75EF9FDF7E4FE0920FCF771FC0A2062
:104A8000FCF76EFCFDF728FA7E48FEF770FEFBF798
:104A90004CFD022802D1FEF770FE24E0002000F059
:104AA00029F9042802D1FEF790FE1CE0032000F053
:104AB000B0F910B1FEF7ACFE15E0FCF77AFD006826
:104AC0006F49084030B1FCF774FD05682846FEF7D1
:104AD000C8FE08E0012000F039F910B1FEF735FFFB
:104AE00001E0FEF75DFF0223002211462620FCF7BD
:104AF00008FF02231A4619462420FCF702FF002073
:104B000000F0F8F801280ADC012000F0F3F8012891
:104B100005DC0020FCF79FFD0020FCF7ADFDFCF755
:104B200000FC00F06000207200BF95E710B5564809
:104B30000078032806D1FBF7D7FC032802D0002019
:104B4000FCF743FDFBF7D0FC4F490870084600789E
:104B5000012803D1AFF21510FBF78BFB4A48007810
:104B6000022803D1AFF21D20FBF783FB46480078F3
:104B7000032803D1AFF6B110FBF77BFBFFF790F9E9
:104B800010BD10B5FDF709F80078C0F3400020B162
:104B9000AFF61720FBF76DFB09E0FCF79CFB10B9A3
:104BA000FBF755FC18B1AFF27B00FBF762FB0A2163
:104BB000AFF23100FBF7A6FB10BD10B5FDF746FEC6
:104BC0004FF4FA60FFF70CF800BFFBF740FC002839
:104BD000FBD0FDF728FEFCF7A4FFFDF78DF8AFF63C
:104BE0004F50FBF746FBAFF61160FBF742FBAFF609
:104BF0006F50FBF73EFBAFF27500FBF73AFBAFF6E9
:104C00005920FBF736FB10BDFCF7B7F8FBF7E0FBCC
:104C1000FBF796FFFDF74AF9FEF79DFFFEF722FF2F
:104C2000FBF79AFBAFF26D00FBF723FBFCF78CF967
:104C300062B601E0FBF7EFFAFCE710B50220FCF7E3
:104C4000FCFAC4B2FBF72BFBFEF76CFFFCF7A4FAEF
:104C5000FCF78AFF00F07BF9C07F01280AD12046CB
:104C6000FCF7B3FC2046FDF731F901213020FCF7B9
:104C7000B6FC02E00120FDF729F910BDA65B000893
:104C8000FFC00100965B00085802002000487047F2
:104C900064020020014619B9CD48C07C0009704764
:104CA000012903D1CA48007D0009F8E7022903D190
:104CB000C748407D0009F2E7032903D1C448807D3D
:104CC0000009ECE70220EAE7014611B9C148007883
:104CD0007047012902D1C0480078F9E7022902D1C2
:104CE000BE480078F4E7032902D1BD480078EFE719
:104CF0000220EDE7014621B9B548C07C00F00F0065
:104D00007047012904D1B248007D00F00F00F7E799
:104D1000022904D1AE48407D00F00F00F0E70329DE
:104D200004D1AB48807D00F00F00E9E7042904D1ED
:104D3000A748C07D00F00F00E2E7052904D1A44890
:104D4000007E00F00F00DBE70C20D9E70146A04809
:104D5000C07C00F00F0088421DD09D48007D00F00F
:104D60000F00884217D09A48407D00F00F0088421B
:104D700011D09748807D00F00F0088420BD09448F6
:104D8000C07D00F00F00884205D09148007E00F001
:104D90000F00884201D1012070470020FCE79148B4
:104DA0007047014619B98A48407E000970470129B9
:104DB00003D18748807E0009F8E7022903D184489F
:104DC000C07E0009F2E7032903D18148007F000972
:104DD000ECE70520EAE7014621B97D48407E00F076
:104DE0000F007047012904D17948807E00F00F0040
:104DF000F7E7022904D17648C07E00F00F00F0E703
:104E0000032904D17248007F00F00F00E9E7052074
:104E1000E7E701466E48407E00F00F0088420BD065
:104E20006B48807E00F00F00884205D06848C07E45
:104E300000F00F00884201D1012070470020FCE7FC
:104E400010B50146624A002002E00B5C1354401C7E
:104E50002228FAD3634B1B7903F0010303B110BD81
:104E60005B4BDB7C0224B4EB131F04D0584BDB7C80
:104E70001B09584C2370564B1B7D0224B4EB131FA7
:104E800004D0534B1B7D1B09534C2370504B5B7D4F
:104E90000224B4EB131F04D04D4B5B7D1B094F4C18
:104EA00023704B4B9B7D0224B4EB131F04D0484B63
:104EB0009B7D1B094A4C2370454BDB7C1B0933B19E
:104EC000484B5B7843F00103464C637005E0454B6B
:104ED0005B7823F00103434C63703D4B1B7D1B0942
:104EE00033B1404B5B7843F002033E4C637005E006
:104EF0003C4B5B7823F002033A4C6370344B5B7D90
:104F00001B0933B1374B5B7843F00403354C6370B6
:104F100005E0344B5B7823F00403324C63702C4B78
:104F20009B7D1B0933B12F4B5B7843F008032D4C5D
:104F3000637005E02B4B5B7823F00803294C63700A
:104F4000234BB3F81130274C638000BF87E720481C
:104F500070472548704725490870704723480078F6
:104F6000704701460A68224B1A608A889A808A79BB
:104F70009A71CA79DA7170471D48704730B5014699
:104F80000A880B88C2EBC2041A4D25F81430CB886E
:104F9000C2EBC20405EB4404E3800B89C2EBC204FC
:104FA00005EB440423814B89C2EBC20405EB4404A6
:104FB00063818B89C2EBC20405EB4404A38130BD3D
:104FC0000146C1EBC1000B4A02EB400070470000F4
:104FD000C40800206C0200206D0200206E02002038
:104FE0006F02002070020020760200207A0200206A
:104FF000E6080020F608002001460A89054B1A80C1
:105000001A468B7A9370CB7AD3700B7B13717047EF
:10501000004870477B020020704770477047754614
:1050200000F02CF8AE4605006946534620F0070014
:10503000854618B020B5FBF7DDF8BDE820404FF0FD
:1050400000064FF000074FF000084FF0000B21F072
:105050000701AC46ACE8C009ACE8C009ACE8C0093F
:10506000ACE8C0098D46704710B50446AFF3008028
:105070002046BDE81040FBF7A0B80000004870478C
:105080003009002001491820ABBEFEE726000200CF
:105090007047000000000000005F000000070007EC
:1050A00000147F147F14242A7F2A122313086462B9
:1050B00036495522500005030000001C2241000023
:1050C00041221C0014083E081408083E080800503D
:1050D0003000000808080808006060000020100880
:1050E0000402000000000000005F0000000700074D
:1050F00000147F147F14242A7F2A12231308646269
:1051000036495522500005030000001C22410000D2
:1051100041221C0014083E081408083E08080050EC
:10512000300000080808080800606000002010082F
:105130000402000000000000005F000000070007FC
:1051400000147F147F14242A7F2A12231308646218
:1051500036495522500005030000001C2241000082
:1051600041221C0014083E081408083E080800509C
:1051700030000008080808080060600000201008DF
:1051800004023E5149453E00427F40004261514980
:10519000462141454B311814127F102745454539AA
:1051A0003C4A4949300171090503364949493606E7
:1051B0004949291E00363600000056360000000816
:1051C0001422411414141414004122140802015131
:1051D0000906324979413E7E1111117E7F494949C4
:1051E000363E414141227F4141221C7F494949418C
:1051F0007F090909013E4149497A7F0808087F0073
:10520000417F41002040413F017F081422417F40FF
:105210004040407F020C027F7F0408107F3E4141E6
:10522000413E7F090909063E4151215E7F09192946
:1052300046464949493101017F01013F4040403F15
:105240001F2040201F3F4038403F6314081463076D
:10525000087008076151494543007F41410002043D
:105260000810200041417F00040201020440404038
:105270004040000102040020545454787F484444C4
:10528000383844444420384444487F3854545418EF
:10529000087E0901020C5252523E7F080404780035
:1052A000447D40002040443D007F102844000041E0
:1052B0007F40007C041804787C0804047838444457
:1052C00044387C14141408081414187C7C08040452
:1052D000084854545420043F4440203C4040207C23
:1052E0001C2040201C3C4030403C44281028440CEA
:1052F0005050503C4464544C440008364100000077
:105300007F00000041360800100808100878464168
:105310004678000000000000005F00000007000762
:1053200000147F147F14242A7F2A12231308646236
:1053300036495522500005030000001C22410000A0
:1053400041221C0014083E081408083E08080050BA
:1053500030000008080808080060600000201008FD
:105360000402000000000000005F000000070007CA
:1053700000147F147F14242A7F2A122313086462E6
:1053800036495522500005030000001C2241000050
:1053900041221C0014083E081408083E080800506A
:1053A00030000008080808080060600000201008AD
:1053B0000402000000000000005F0000000700077A
:1053C00000147F147F14242A7F2A12231308646296
:1053D00036495522500005030000001C2241000000
:1053E00041221C0014083E081408083E080800501A
:1053F000300000080808080800606000002010085D
:1054000004023E5149453E00427F400042615149FD
:10541000462141454B311814127F10274545453927
:105420003C4A494930017109050336494949360664
:105430004949291E0036360000005636000008147F
:1054400022410014141414140041221408020151C2
:1054500009067E1111117E7F494949317F49494929
:10546000367F01010103702927217F7F4949494186
:1054700077087F087741494949367F1008047F7FC4
:105480001009047F7F0814224120413F017F7F02E1
:105490000C027F7F0808087F3E4141413E7F0101A9
:1054A000017F7F090909063E4141412201017F0137
:1054B0000147281008071E217F211E63140814636A
:1054C0003F2020205F070808087F7F407F407F3F04
:1054D000203F205F017F4848307F4830007F007FB9
:1054E000484830414141493E7F083E413E462919E6
:1054F000097F20545454783C4A4A49317C545428FA
:10550000007C0404040CC078447CC0385454541803
:105510006C107C106C44445454287C2010087C7C13
:105520002112097C7C1028440020443C047C7C0827
:1055300010087C7C1010107C38444444387C0404EF
:10554000047C7C14141408384444440004047C048F
:10555000040C5050503C10287C281044281028443B
:105560003C40407C400C1010107C7C407C407C7C9B
:10557000407C40FC047C5050207C5020007C007C0F
:1055800050502028444454387C103844380854344F
:10559000147C0000C1C081C1400101C3C00380026E
:1055A00041C201C6C006800741C70005C1C581C40C
:1055B000400401CCC00C800D41CD000FC1CF81CE85
:1055C000400E000AC1CA81CB400B01C9C009800846
:1055D00041C801D8C018801941D9001BC1DB81DA4C
:1055E000401A001EC1DE81DF401F01DDC01D801C8E
:1055F00041DC0014C1D481D5401501D7C0178016F5
:1056000041D601D2C012801341D30011C1D181D043
:10561000401001F0C030803141F10033C1F381F21C
:1056200040320036C1F681F7403701F5C03580348D
:1056300041F4003CC1FC81FD403D01FFC03F803E84
:1056400041FE01FAC03A803B41FB0039C1F981F8C3
:1056500040380028C1E881E9402901EBC02B802AAD
:1056600041EA01EEC02E802F41EF002DC1ED81EC0B
:10567000402C01E4C024802541E50027C1E781E6F4
:1056800040260022C1E281E3402301E1C0218020C5
:1056900041E001A0C060806141A10063C1A381A27B
:1056A00040620066C1A681A7406701A5C06580640D
:1056B00041A4006CC1AC81AD406D01AFC06F806E84
:1056C00041AE01AAC06A806B41AB0069C1A981A843
:1056D00040680078C1B881B9407901BBC07B807A4D
:1056E00041BA01BEC07E807F41BF007DC1BD81BC8B
:1056F000407C01B4C074807541B50077C1B781B6F4
:1057000040760072C1B281B3407301B1C071807044
:1057100041B00050C190819140510193C0538052DB
:1057200041920196C056805741970055C19581948A
:105730004054019CC05C805D419D005FC19F819E83
:10574000405E005AC19A819B405B0199C0598058C4
:1057500041980188C04880494189004BC18B818AAA
:10576000404A004EC18E818F404F018DC04D804C0C
:10577000418C0044C184818540450187C0478046F3
:1057800041860182C042804341830041C1818180C2
:1057900040401C1C3E7F0000000000000000000094
:1057A000000000000080C0E0F0F8F8FCFCFEFEFE07
:1057B000FE000000000000000000FEFEFEFEFEFEF7
:1057C000FEFEFEFCF8F0E0C00080F0F8FCFEFEFEFD
:1057D000FEFEFEFCF8F08000001EFEFEFEFEFC0059
:1057E0000000F8FEFEFEFE1E0000FEFEFEFEFEFEB7
:1057F000FEFEFEFEFEFE0080F0F8FCFEFEFEFEFE5B
:10580000FEFCF8F0800000FEFEFEFEFEFEF800004A
:1058100000FEFEFEFE000000000000000000000090
:10582000C0F0F8FEFFFFFFFFFFFFFFFFFFFFFFFFDE
:10583000FF000000000000000000FFFFFFFFFFFF6F
:105840000101FFFFFFFFFFFF00FFFFFFFFFFFF0161
:1058500001FFFFFFFFFFFF0000007FFFFFFFFFF8DA
:1058600000F8FFFFFFFF07000000010101FFFFFF3D
:10587000FFFFFF01010100FFFFFFFFFFFF0101FF2D
:10588000FFFFFFFFFF0000FFFFFFFFFFFFFFF00034
:1058900000FFFFFFFF0000000000000080F0FCFFA1
:1058A000FFFFFFFFFFFF7F3F1F0F07030301010102
:1058B00001000000000000000000FFFFFFFFFFFFED
:1058C0000000FFFFFFFFFFFF00FFFFFFFFFFFF00E4
:1058D00000FFFFFFFFFFFF000000003FFFFFFFFF93
:1058E000FCFFFFFFFF0700000000000000FFFFFFBC
:1058F000FFFFFF00000000FFFFFFFFFFFF0000FFB2
:10590000FFFFFFFFFF0000FFFFFFFFFFFFFFFFF0B4
:1059100000FFFFFFFF0000000000E0FCFFFFFFFFB3
:10592000FFFF7F1F070100000000000000000000D3
:1059300000000000000000000000FFFFFFFFFFFF6D
:10594000FEFEFFFFCF87030100FFFFFFFFFFFF0009
:1059500000FFFFFFFFFFFF0000000000FFFFFFFF51
:10596000FFFFFFFF030000000000000000FFFFFF3B
:10597000FFFFFF00000000FFFFFFFFFFFF0000FF31
:10598000FFFFFFFFFF0000FFFFFFFF3FFFFFFFFFE5
:10599000F0FFFFFFFF000000C0FEFFFFFFFFFFFF63
:1059A0001F0100000000000080E0F0F8FCFEFEFF98
:1059B000FF000000000000000000FFFFFFFFFFFFEE
:1059C0000303FFFFFFFFFFFE00FFFFFFFFFFFF00DE
:1059D00000FFFFFFFFFFFF00000000FEFFFFFFFFD3
:1059E000FFFFFFFFFE0000000000000000FFFFFFC0
:1059F000FFFFFF00000000FFFFFFFFFFFF0000FFB1
:105A0000FFFFFFFFFF0000FFFFFFFF003FFFFFFF63
:105A1000FFFFFFFFFF0000F0FFFFFFFFFFFF1F0082
:105A2000000000000080F0FEFFFFFFFFFFFFFFFF10
:105A3000FF000000000000000000FFFFFFFFFFFF6D
:105A40000000FFFFFFFFFFFF00FFFFFFFFFFFF0062
:105A500000FFFFFFFFFFFF000000FFFFFFFFFF0F42
:105A6000FFFFFFFFFFFF00000000000000FFFFFF3F
:105A7000FFFFFF00000000FFFFFFFFFFFF0000FF30
:105A8000FFFFFFFFFF0000FFFFFFFF00003FFFFFE2
:105A9000FFFFFFFFFF00E0FFFFFFFFFFFF0F000022
:105AA00000000000F0FFFFFFFFFFFFFFFFFFFFFF11
:105AB000FF000000000000000000FFFFFFFFFFFFED
:105AC0000000FFFFFFFFFFFF00FFFFFFFFFFFF8062
:105AD00080FFFFFFFFFFFF0000FFFFFFFFFF0F0042
