:020000040800F2
:10000000900F0020DD010008E70D0008C90100087D
:10001000790E0008930E0008AD0E000800000000E5
:10002000000000000000000000000000C70E0008F3
:10003000ED01000800000000EF010008694B000816
:10004000F3010008F3010008F30100086F0900083C
:10005000F3010008F3010008F3010008F3010008B0
:10006000F3010008F3010008F3010008F3010008A0
:10007000F3010008F30100084B110008F301000828
:10008000F3010008F3010008F3010008F301000880
:10009000F3010008F3010008F3010008F301000870
:1000A000F3010008F3010008F3010008F301000860
:1000B000F3010008F3010008F3010008F301000850
:1000C000F3010008F3010008F3010008F301000840
:1000D000AB0C0008BB100008F3010008F301000896
:1000E000F3010008F3010008F301000800F002F832
:1000F00000F05AF80AA090E8000C82448344AAF168
:100100000107DA4501D100F04FF8AFF2090EBAE865
:100110000F0013F0010F18BFFB1A43F0010318473B
:10012000F05E0000105F00000A444FF0000C10F871
:10013000013B13F0070408BF10F8014B1D1108BF65
:1001400010F8015B641E05D010F8016B641E01F805
:10015000016BF9D113F0080F1EBF10F8014BAD1C55
:100160000C1B09D16D1E58BF01F801CBFAD505E073
:1001700014F8016B01F8016B6D1EF9D59142D6D3CD
:10018000704700000023002400250026103A28BFF5
:1001900078C1FBD8520728BF30C148BF0B607047F9
:1001A0001FB51FBD10B510BD04F0C9FE1146FFF705
:1001B000F7FF04F0C0FC04F0E7FE03B4FFF7F2FF22
:1001C00003BC04F0EFFE00001EF0040F0CBFEFF3C1
:1001D0000880EFF3098000F013BE000008480047D4
:1001E000FEE7FEE7FEE7FEE7FEE7FEE7FEE7FEE7E7
:1001F000FEE7FEE703480449044A054B7047000048
:10020000ED00000890090020900F0020900B0020C6
:10021000900B0020704770B50024AFF2070572B64E
:1002200059480568280C0004B0F1006F07D0AFF200
:100230001B005549086062B6FFF7ECFF18E0AFF20B
:100240002B00854203D162B6FFF7E4FF10E00024E3
:1002500006E04D49601C51F8200041F82400641C60
:10026000142CF6D9AFF253004749086562B6A84787
:1002700070BD0146002072B604E0401C142801D96C
:1002800062B67047404A52F82020AFF277039A4294
:10029000F3D13D4A42F8201062B600BFF1E710B535
:1002A00000243A480068401C3849086000BF23E039
:1002B000374850F83400AFF2A301884200D11AE069
:1002C000334800EBC4008088012809D0304800EB97
:1002D000C4008088401E2E4901EBC401888009E0DB
:1002E0002B4951F83400FFF7C4FFAFF2D70028497B
:1002F00041F8340000BF641C142CD9D310BD23482E
:100300000068704730B502460B4672B6002016E012
:100310001F4C54F83040944205D11D4C04EBC004EE
:10032000A38062B630BD1A4C54F83040AFF21B15B2
:10033000AC4203D111B981B241F40041401C1428F0
:10034000E6D321F40041124C44F8312004EBC104FF
:10035000A38062B600BFE5E7002000BF0CE0AFF26B
:100360004B11094A42F82010094A42F83010002186
:1003700002EBC0029180401C1428F0D9704710B5E0
:1003800000F0F0FD10BD0000800200200000002001
:10039000D402002008B502464FF6FF7000900DE031
:1003A00012F8010BBDF80030DBB25840074B33F8B0
:1003B0001000BDF8003080EA23200090081EA1F153
:1003C0000103D9B2ECD1BDF8000008BDB254000859
:1003D0005F48806940F01D005D4988615D48406864
:1003E00040F000705B4948605B48006820F4404082
:1003F000594908600846006840F44050086070475A
:1004000056480078032819DA5348806848F20302F6
:100410001040534A514B1B7822F813005148006892
:1004200000F4C850504A4D4B1B7822F813004B483B
:100430000078401C494A1070002070470020474A4D
:10044000107047480088464A52881040444A5288F3
:10045000434B9B881A401043414A1288404B9B886B
:100460001A401043C043414A10803F4800883E4A2A
:10047000528810403C4A52883B4B9B881A4010439C
:10048000394A1288384B9B881A4040EA0201B1F57C
:10049000C05F03D10120364A108005E0B1F5807FAE
:1004A00002D10220324A10800120C6E72F49098874
:1004B00001F0020119B100212E4A118002202B49BE
:1004C000098801F0010119B100212A4A1180032095
:1004D00028490988491C89B2264A1180642905DB0C
:1004E0002249098801F0030101B901207047204821
:1004F0000088B0F5C05F04D100201F4908800120AA
:1005000070471B480088B0F5807F04D100201A494D
:1005100008800220F4E718480088401C80B2164981
:100520000880C8280DDB12480088B0F5C85F01D1EB
:100530000320E5E70E480088B0F5885F01D104206C
:10054000DEE70020DCE70A480088C0B27047000000
:100550000010024000000140001001400C0000208B
:100560000E000020080801401400002008000020B0
:100570000A0000201A0000201C00002001B500BF66
:10058000BDF80000401E80B200900028F8D108BDE0
:10059000AC48006800F03330AA490860084600689B
:1005A00040F0333008607047A648006800F0CC3057
:1005B000A44908600846006800F033300860084627
:1005C000006840F04430086070479F48806940F000
:1005D0001C009D4988619D48006820F44C009B499F
:1005E00008609B48006840F6CC4188439849086001
:1005F000081D006820F44C40091D086093480068FD
:1006000040F40810914908609148006840F22221A6
:1006100008438F490860081D006840F40850091D10
:100620000860704710B54FF4806089491031086048
:100630001420FFF7A3FF4FF0806085491031086058
:100640001420FFF79BFF10BD10B510207F490861F3
:1006500080037F491031086002200860FFF7A4FF83
:10066000FFF7E0FF774808300068C4B24FF480100D
:1006700076490861801076491031086040100860A2
:10068000FFF786FF204610BD70B504460D4625B124
:1006900004206F491031086004E04FF480206C4959
:1006A0001031086067480C30006800F47F40204338
:1006B00064490C3108601420FFF760FFFFF7B2FFB8
:1006C00070BD28B14FF40061614A1032116004E03E
:1006D0004FF000615E4A10321160704710B5FFF7AD
:1006E00074FF01205A491031086000BFFFF7ACFFCA
:1006F00000F010000028F9D1102054490861202092
:1007000008610021B820FFF7BFFF00214020FFF75C
:10071000BBFF0021C020FFF7B7FF00213F20FFF7FC
:10072000B3FF00BFFFF790FF00F020000028F9D1D1
:100730004FF4006046491031086010BD45487047CD
:1007400010B500244448007810B101286FD136E07C
:100750004FF400103D490861102008613F490978B5
:10076000B831C8B20021FFF78FFF00214020FFF70A
:100770008BFF00240CE03A490A880988491C384B51
:1007800019803449885C0121FFF77EFF601CC4B2E8
:10079000402CF0DB324800884030314908802F4837
:1007A0000078401CC0B22D490870082806DB0020E4
:1007B00008702B49088001202749087037E04FF462
:1007C0008010224908612020086124490978B83145
:1007D000C8B20021FFF758FF00214020FFF754FF67
:1007E0001F48008840301E49088000240CE01C4946
:1007F0000A880988491C1A4B19801649885C01210E
:10080000FFF742FF601CC4B2402CF0DB13480078B5
:10081000401CC0B211490870082807DB002008708E
:100820000F4908800C490870012010BD00BF00BFAF
:100830000020FAE710B500BFFFF782FF0028FBD0C9
:1008400010BD0000000801400010024000100140EF
:10085000000C01407C0300201F0000201E0000202F
:10086000200000205348C06940F0C0505149C86181
:100870005148006840F480704F4908604D48006A54
:1008800000F40040B0F5004F3BD04A48006A40F405
:100890008030484908620846006A20F480300862C7
:1008A0000846006A40F4014008624448008840F06D
:1008B00010004249088047F6FF704049083108801F
:1008C0003E48008820F010003C4908803948006A02
:1008D00040F001003749086200BF3648006A00F066
:1008E00001000028F9D0354800884FF6F77108401C
:1008F0003249088000BF3148008800F0080008280D
:10090000F9D12E48008840F010002C4908800120C1
:10091000091F0880081D008820F01000091D0880AC
:100920000320012181404209920002F1E022C2F835
:10093000001100BF70472148183000881F4914314A
:10094000098840EA014070471C49098841F01001BC
:100950001A4A1180010C194A14321180121D10809C
:100960001649098821F01001144A11807047134874
:10097000008800F0010028B11048008820F0010034
:100980000E4908800D48008800F0020028B10B488D
:10099000008820F00200094908800848008800F01B
:1009A000040028B10548008820F0040003490880AD
:1009B0007047000000100240007000400428004012
:1009C00000BF011EA0F1010290B2FAD1704710B52C
:1009D0000446204600F014F910BD10B504464FF04F
:1009E00080505A4908600A20FFF7EAFF2046FFF7C7
:1009F000EEFF4FF480505549086010BD70B50546B4
:100A00004020FFF7EAFF4FF0805050490860C020B7
:100A1000FFF7DDFF002404E0285DFFF7D8FF601C2E
:100A2000C4B2092CF8D34FF4805048490860032021
:100A3000FFF7D3FF8A20FFF7D0FF70BD70B50546E2
:100A400000244FF08050414908604220FFF7BFFF6B
:100A5000002000F0BAF800BF04E000F0F9F82855D3
:100A6000601CC4B2052CF8DB012000F0AEF84FF496
:100A700080503649086070BD10B5002434490978AB
:100A800001EB8101334A8818FFF7D8FF304800781E
:100A900000EB80002F49085C00F0240018BB2C48B4
:100AA000007800EB80000844407800F02400D0B9C2
:100AB0002748007800EB80000844807800F024008C
:100AC00088B92348007800EB80000844C07800F023
:100AD000240040B91E48007800EB800008440079EB
:100AE00000F0240018B100201949087004E01848EB
:100AF0000078401C1649087015480078032820D15A
:100B0000002013490870002417E01248005D1149C5
:100B1000491D095D08400F49491D095D0D4A0A320A
:100B2000125D114008430B490A5D0A31095D0A4014
:100B3000104309490855601CC4B2052CE5DB0120AF
:100B400010BD0020FCE7044870470000100C014075
:100B5000270000207C070020220000205948006860
:100B600059490840574908600846006840F4403039
:100B700008600846006840F4000008600846006805
:100B800040F4401008600846006840F0806008604B
:100B90000846006840F0004008600846006840F0E1
:100BA000405008604948C06940F480404749C861E6
:100BB000002047490880091D0880081F008848F266
:100BC000E73108434249088070474149098821F0CC
:100BD00040013F4A1180012805D11146098841F49E
:100BE0008041118005E03A49098821F48041384A62
:100BF00011803749098841F04001354A118070471A
:100C000008B50021009106E00099491C0091B1F55A
:100C1000A04F00D908BD2E490831098801F0020112
:100C20000029F1D00021009129490C31088006E00B
:100C30000099491C0091B1F5A04F00D9EAE7244979
:100C40000831098801F080010029F1D100BFE1E7F6
:100C500008B50020009007E00098401C0090B0F517
:100C6000A04F01D9002008BD19480830008800F0C5
:100C700080000028F0D10090FF2015490C31088039
:100C800007E00098401C0090B0F5A04F01D900206B
:100C9000E9E70F480830008800F001000028F0D094
:100CA0000B480C300088C0B2DDE7094808300088E6
:100CB0000748083000880648083000880448083093
:100CC00000887047040C0140FFFF333300100240DE
:100CD0000038004000210020814A126842F480322E
:100CE0007F4B1A6000BF7E4A126802F40030491C34
:100CF00010B9B1F5A06FF6D1794A126802F400324A
:100D00000AB1012000E00020012843D1754A126891
:100D100042F01002734B1A601A46126822F0030266
:100D20001A601A46126842F002021A606C4A52684F
:100D300042F480626A4B5A601A46526822F47C126E
:100D40005A601A46526842F4E8125A601A4612680B
:100D500042F080721A6000BF614A126802F00072AD
:100D6000002AF9D05E4A526822F003025C4B5A60B6
:100D70001A46526842F002025A6000BF584A52684E
:100D800002F00C02082AF9D1554A126842F40022F6
:100D9000534B1A60704700B55148006840F001009D
:100DA0004F490860084640684F4908404C49486030
:100DB000084600684D4908404949086008460068EF
:100DC00020F4802008600846406820F4FE00486057
:100DD0004FF41F008860FFF77DFF45484149486098
:100DE0004448486000BD10B501F074F842A001F01D
:100DF0003AFB0121084601F0EFF901F05DF810BD62
:100E00002DE9F04104466569A669E76901F062F8D9
:100E10000121084601F0E0F938A001F024FB02218D
:100E2000012001F0D9F938A001F01DFB304601F096
:100E300088FC0321012001F0CFF936A001F013FB5B
:100E4000384601F07EFC0421012001F0C5F934A0F0
:100E500001F009FB284601F074FC0521012001F096
:100E6000BBF932A001F0FFFA3348006801F069FCD9
:100E700001F026F8BDE8F08110B501F02BF8012152
:100E8000084601F0A9F92DA001F0EDFA01F014F8DF
:100E900010BD10B501F01EF80121084601F09CF9C3
:100EA00029A001F0E0FA01F007F810BD10B501F03B
:100EB00011F80121084601F08FF926A001F0D3FABC
:100EC00000F0FAFF10BD10B501F004F8012108464A
:100ED00001F082F922A001F0C6FA00F0EDFF10BD8A
:100EE00000100240002002400000FFF0FFFFF6FE6D
:100EF00023016745AB89EFCD4E4D490048617264CF
:100F00004661756C74000000504320202020203D75
:100F100000000000505352202020203D000000001F
:100F20004C5220202020203D000000005461736BB3
:100F30004164723D00000000040000204D656D4DCD
:100F4000616E6167650000004275734661756C747F
:100F50000000000055736167654661756C740000A0
:100F60005356430003484FF0E02148618861072051
:100F7000086170473F19010010B50446201D8549DE
:100F8000C8640846406C40F0100048640846406C55
:100F900040F0800048640846406C40F0020048641D
:100FA0000E2000F0EBF810BD70B504467A480068DA
:100FB00020F44C60784908600846006840F0B000B2
:100FC00008600846006840F48060086073488069E3
:100FD00040F480407149886171480480001D008898
:100FE00020F480506E49091D0880081D008820F4F7
:100FF0004050091D088042F22C00091F08806848F3
:101000000C30008840F0800065490C3108802520B4
:101010000F21002807DA0A07150E624A00F00F03B5
:101020001B1FD55403E00A07130E5F4A135400BF79
:10103000252000F0A3F85948406940F001005749C5
:10104000486157480838FFF797FF70BD40B15449D1
:10105000091D098841F00401514A121D118007E061
:101060004F49091D098821F004014D4A121D1180C4
:10107000704700224D4B1A801A4691705060484AC2
:10108000121D128822F00402454B1B1D1A800278A3
:10109000434B1B1F1A80424A121D128842F048021D
:1010A0003F4B1B1D1A807047414870473C48083829
:1010B00000883B48001F0088704710B53848083842
:1010C000008800F0200090B135480838008800F012
:1010D0000F0038B9324A121F1288D0B2344A116850
:1010E000884704E0FFF7E2FF3149486880472C4811
:1010F0000838008800F0080020B1FFF7D7FF2C491E
:101100004868804726480838008800F0400050B101
:101110002749886880472248001D008820F0400049
:101120001F49091D08801E480838008810BD194A4B
:10113000526C22F00102174B5A641A4610659164F2
:10114000526C42F001025A6470471248006800F481
:10115000005090B10F48406840F400500D4948607D
:101160000846406C20F0010048640D48001D0088CE
:1011700040F040000A49091D0880704700F01F0236
:10118000012191404209920002F1E022C2F80011CF
:1011900070470000000002400408014000100240B7
:1011A0000838014018ED00E000E400E028000020CD
:1011B0008C0700202E480088401C2D4908800846D6
:1011C0000088322190FBF1F201FB120028B9294876
:1011D000007880F0010027490870254800886421C4
:1011E00090FBF1F201FB120028B92248007880F050
:1011F0000200204908701E480088FA2190FBF1F295
:1012000001FB120028B91B48007880F0040019493E
:101210000870174800884FF4FA7190FBF1F201FB57
:10122000120028B91348007880F0080011490870AE
:101230000F4800884FF47A7190FBF1F201FB120025
:1012400040B90C48007880F010000A49087000206E
:10125000074908807047014601208840054A1278F6
:10126000104010B14FF6FF7070470020FCE70000FF
:10127000320000203000002070B500208549087041
:101280004870002428E0FFF75EFC005D00F00200DB
:101290008501FFF758FC005D00F0100045EA800072
:1012A000610008417B49097808437A490870FFF7D3
:1012B0004AFC005DC007050EFFF745FC005D00F02D
:1012C000080045EAC00061000841724949780843B6
:1012D00070494870601CC4B2042CD4DB6D4800789F
:1012E0006C49497840EA01206A49488070BD6A48E3
:1012F000704710B50024FFF7BFFBD8B1FFF7BCFF64
:101300006448448864480460644800686040204041
:101310006149486061480068A04388600846C06829
:10132000496848405C49C860012008615B48046026
:10133000012010BD0020FCE7564800787047554852
:101340004078704701465448006801228A401040A6
:10135000704701465048406801228A40104070475B
:1013600001464D48806801228A401040704701467E
:101370004948C06801228A40104070474649C96800
:10138000012282409143444AD160704730B5034600
:101390000D4614461888A84200DA1D801888A0421D
:1013A00000DD1C800B20FFF7CDFFE0B11888A842BC
:1013B00000D130BD3A4800880B2806D00B203849B0
:1013C00008801888401E188033E036480088401C8A
:1013D00080B23449088032282BDB1888401E1880E0
:1013E0002D20088025E00C20FFF7ACFFE0B1188825
:1013F000A04200D1DDE72A4800880C2806D00C2046
:10140000274908801888401C188012E02548008869
:10141000401C80B22349088032280ADB1888401C0F
:1014200018802D20088004E000201D4908801D49F7
:10143000088000BFBDE730B503460C4615460D20B9
:10144000FFF780FF70B11888A04200D130BD164868
:1014500000880D281CD00D20134908801888401ED4
:10146000188015E00E20FFF76DFF70B11888A842B4
:1014700000D1EBE70C4800880E2809D00E200A495D
:1014800008801888401C188002E000200649088067
:1014900000BFDBE739000020980700204000002053
:1014A00046000020440000204800002010B5002421
:1014B000FFF749F8032803D0FFF745F8042801D1C6
:1014C00044F4805403F0DDFC0078042801D144F496
:1014D000807403F0D6FC0078052801D144F4007430
:1014E00003F0CFFC4078502801DB44F4806403F023
:1014F000C8FC8078032801D144F40064002003F084
:101500007BFB032801DB44F01004012003F074FB93
:10151000032801DB44F02004022003F06DFB0328C4
:1015200001DB44F04004032003F066FB032801DBE9
:1015300044F08004002003F0CCFB042801D344F0E5
:101540000104012003F0C5FB042801D344F0020488
:10155000022003F0BEFB042801D344F0040403205E
:1015600003F0B7FB042801D344F0080403F0E0FCC7
:1015700080780221B1EB101F01DC44F4804403F0B9
:10158000D7FCC0780221B1EB101F01DC44F4004409
:1015900003F0CEFC00790221B1EB101F01DC44F412
:1015A00080340948046009480068604020400649CA
:1015B000486006480068A04388600448046010BD85
:1015C0000020704700487047AC0700204C00002006
:1015D00010B5EE48FFF712FA10BD0146EB4A0020A5
:1015E00002E01154431CD8B20928FAD3704770B5F1
:1015F00002460C46E549082A05DB1546D61702EBDC
:101600005676C6F3C700A2EBC005EBB2302A0CD069
:10161000312A0AD0322A08D0332A06D0342A04D0FC
:101620000D5C03269E40B5430D54012C05D10D5C85
:1016300001269E4035430D5414E0022C05D10D5C6B
:1016400002269E4035430D540CE0032C05D10D5C61
:1016500003269E4035430D5404E00D5C03269E4056
:10166000B5430D5470BD012807D1C849897921F0CF
:1016700008010831C54A917105E0C449897921F012
:101680000801C24A91717047012807D1BF49897981
:1016900021F010011031BD4A917105E0BB498979F3
:1016A00021F01001B94A91717047012807D1B7495B
:1016B000897921F00401091DB44A917105E0B3490B
:1016C000897921F00401B14A91717047012807D14D
:1016D000AE49897921F00201891CAC4A917105E07B
:1016E000AA49897921F00201A84A91717047A74956
:1016F000897821F00101A54A91701146897821F07D
:1017000002019170012806D11146897821F001016A
:10171000491C917018E0022807D19C49897821F072
:101720000201891C994A91700EE003280CD1974957
:10173000897821F00101491C944A917011468978F9
:1017400021F00201891C917070479049897821F03D
:1017500040018E4A91701146897821F08001917084
:10176000012806D11146897821F04001403191705D
:1017700018E0022807D18549897821F0800180315D
:10178000824A91700EE003280CD18049897821F0BB
:10179000400140317D4A91701146897821F08001E5
:1017A00080319170704770B50446032C03DC012032
:1017B000FFF7CBFF0FE0042C03D10220FFF7C5FF9A
:1017C00009E0052C07D10220FFF745FD00F00305D5
:1017D0002846FFF7BAFF70BD6C49897821F01001E7
:1017E0006A4A91701146897821F020019170012890
:1017F00006D11146897821F010011031917018E05E
:10180000022807D16149897821F0200120315F4AFF
:1018100091700EE003280CD15C49897821F0100109
:1018200010315A4A91701146897821F020012031F7
:101830009170704770B50446402C02D10120FFF72B
:10184000CBFF3CB90220FFF706FD00F0010528465A
:10185000FFF7C2FF502C07D10220FFF7FCFC00F07D
:1018600003052846FFF7B8FF602C02DB0220FFF7D4
:10187000B3FF70BD4549897821F00401434A917056
:101880001146897821F008019170012806D111468E
:10189000897821F00401091D917018E0022807D110
:1018A0003A49897821F008010831384A91700EE0F0
:1018B00003280CD13549897821F00401091D334AE8
:1018C00091701146897821F00801083191707047B4
:1018D00070B50446032C08D10220FFF7BCFC00F0D1
:1018E00003052846FFF7C6FF02E00120FFF7C2FF0D
:1018F00070BD2DE9F04781460E461746984638469A
:1019000003F090F904464046FFF7A5FCC5B2304607
:1019100003F072F9032819DB032C07DB05F0030041
:1019200040F002014846FFF762FE22E0012C07D199
:1019300005F0030040F001014846FFF758FE18E0AB
:1019400005F003014846FFF752FE12E024B90021DA
:101950004846FFF74CFE0CE0012C04D1012148461B
:10196000FFF745FE05E0032C03DB02214846FFF7A5
:101970003EFE042C02D10120FFF775FE0A2C02D195
:101980000120FFF781FEBDE8F0870000B8070020C6
:101990004FF08040CC490861CC48008820F001001D
:1019A000CA490880704710B5C948C078801EC4B2C3
:1019B0002146C748FEF7EEFCC549085310BD70B577
:1019C00004460D46C148007800F0010000B170BD2A
:1019D0004FF48040BC49086129462046FFF7A7FB29
:1019E000BA48008820F00100401CB849088000BFB8
:1019F000EDE70020B749087048708870C8707047DC
:101A000031B5B44CB4480078401CB3490870E07854
:101A100000283FD09DF8002008460078801F611DF7
:101A20000A54E078AC490978884276DC0020AA495B
:101A30000870E078801EC1B22046FEF7ABFCE1786A
:101A4000214431F8021C884221D1A078012802D01B
:101A5000022810D107E09D48008820F00400001DF6
:101A60009A4908800BE09948008820F00400001D86
:101A70009649088003E0FFF7BCFF002038BD00BF97
:101A8000FFF7B7FF0020954908800120F6E7FFF730
:101A9000B0FF42E0207872280CD06078A52809D0E9
:101AA000A07838B99DF80000722803D19DF8000095
:101AB000207032E0207872280CD16078A52809D0F7
:101AC000A07838B99DF80000A52803D19DF8000042
:101AD000607022E0207872280BD16078A52808D1A8
:101AE000A07830B99DF8000018B19DF80000A070F2
:101AF00013E0207872280BD16078A52808D1A0784F
:101B000030B19DF8000018B19DF80000E07004E0CD
:101B1000002071490870FFF76CFF0020AEE710B598
:101B20006F48806940F010006D49886166484068E0
:101B300020F04060644948600846406840F04070CA
:101B400048604FF49070FFF72FFAFFF7ADFA654940
:101B50000160FFF7A9FA64494160FFF7A5FA6349FC
:101B6000816010BD5D480088B0F57A7F0BD85B4876
:101B70000088401C594908805448008820F0020021
:101B80005249088006E05148008820F00200801C7D
:101B90004E49088070474D487047554870474D483A
:101BA00070474B48704710B5494C72202070A520F3
:101BB00060700220A0701120E070FFF7F4FEE17861
:101BC0002046FFF7FCFE10BD70B5FFF7EAFF441D8D
:101BD000FFF7E3FF00781238112862D2DFE800F047
:101BE00009121B20252A40496161616161614E53E0
:101BF0005C00FFF7D6FF1221017102F0DFFF0079D0
:101C0000A07159E0FFF7CDFF1321017102F0D6FF5B
:101C10008079E07150E0FFF7C4FF142101714BE0BF
:101C2000FFF7BFFF1521017146E0FFF7BAFF16214C
:101C3000017141E0FFF7B5FF1721017103F047F88B
:101C40004078207103F043F80078A07103F03FF86A
:101C50004088206003F03BF8051D002028702BE031
:101C6000FFF79FFF1821017103F018F980892060A8
:101C700022E0FFF796FF192101711DE0FFF791FFA8
:101C80002021017118E0FFF78CFF2121017103F081
:101C9000F8F8007920710FE0FFF783FF222101712E
:101CA0000AE0FFF77EFF11210171FEF74CFC207165
:101CB000FEF7FCFB607100BF00BFFFF76EFF002165
:101CC0000170FFF770FF70BD001001405000002050
:101CD00021080020C10700205400002052000020ED
:101CE00000100240011A0008F319000891190008B9
:101CF000550000204CF6BB40654908804AF6992003
:101D0000488048F67700888046F25560088144F2A2
:101D10003340488142F21120888170475D49086054
:101D200070475C480068704759487047F0B50146F5
:101D30004AF6C0050D444AF6C006B5FBF6F5564E08
:101D4000354468080725B0FBF5F605FB1605504E2F
:101D5000F58047F62C5528448500ED1C4F4EB5FB09
:101D6000F6F5ECB235466543A0EBA5008500ED1C09
:101D700040F2B556B5FBF6F5EBB235465D43A0EB48
:101D8000A50000EB8005AD1C9926B5FBF6F5EAB27F
:101D900002EB021505EBC505AD1C052695FBF6F516
:101DA000451B6D1C3A4EB5800A2592FBF5F6D51CF5
:101DB0000C2707FB1655364E75800A2592FBF5F663
:101DC000642505FB0435A5F596553544304E358020
:101DD0004FF46165B1FBF5F51826B5FBF6F706FB88
:101DE00017552B4E35813C25B1FBF5F53C26B5FB4F
:101DF000F6F706FB1755264E75813C25B1FBF5F627
:101E000005FB1615224EB581F0BD70B501464D8813
:101E1000C5F10E050C2695FBF6F5EBB20D8805F520
:101E20009655ED1AAAB24D8806FB0355ED1EECB28D
:101E30008D88681E04EB041505EBC505AD1C052651
:101E400095FBF6F5284440F26D1505FB020000EB0A
:101E5000A200642592FBF5F5401B4FF4C87592FB78
:101E6000F5F52844A0F5FA402D380D4D401B0D4DD9
:101E700068430D89C5EB4516C6EB052500EB05103B
:101E80004D89C5EB051500EB85008D89284470BD93
:101E90008108002058000020177B4A00B13A020058
:101EA0008B3D25008051010010B5FEF717FCFEF7B1
:101EB00045FCFE49086010BD10B5FEF741FC10BDA1
:101EC00010B5FEF7B7FC10BD10B504462046FEF76E
:101ED000F8FB10BD002005E00021F44A12681154FF
:101EE000411C88B2B0F5806FF6DB7047002005E03A
:101EF000FF21EE4A12681154411C88B2B0F5806F80
:101F0000F6DB7047F0B50446802C01DC402900DD8B
:101F1000F0BD0E46CF1701EB5777FF1004EBC71744
:101F2000BDB2CF1701EB5777FF10A1EBC707BBB2CC
:101F3000DE4E3668705D1AB901269E40B0430CE053
:101F4000012A04D101269E400643B0B205E0022AD0
:101F500003D101269E404640B0B2D44F3F68785529
:101F600000BFD5E72DE9F84F04460D4691469A4645
:101F700000260027B346002000908046802C07DC16
:101F8000B9F1800F04DC402D02DCBAF1400F01DD15
:101F9000BDE8F88FAAEB0506A9EB0407002E04DACA
:101FA00076424FF0FF30009001E001200090002FBA
:101FB00003DA7F424FF0FF3B01E04FF0010B760068
:101FC0007F00E9B2E0B20A9AFFF79CFFB74213DD47
:101FD000A6EB67080DE0B8F1000F03DB009805449D
:101FE000A8EB07085C44B044E9B2E0B20A9AFFF7F4
:101FF00089FF4C45EFD112E0A7EB66080DE0B8F180
:10200000000F02DB5C44A8EB060800980544B844C6
:10201000E9B2E0B20A9AFFF775FF5545EFD100BF6C
:10202000B6E72DE9F04705460E4690469A4600244D
:102030000027A146802D03DD402E01DDBDE8F0879D
:102040004FFA88F70320A0EB48004FFA80F951E0DF
:10205000F219D1B22A19D0B25246FFF753FFF21B40
:10206000D1B22A19D0B25246FFF74CFFF219D1B2C1
:102070002A1BD0B25246FFF745FFF21BD1B22A1BF2
:10208000D0B25246FFF73EFF3219D1B2EA19D0B2B0
:102090005246FFF737FF321BD1B2EA19D0B252468F
:1020A000FFF730FF3219D1B2EA1BD0B25246FFF728
:1020B00029FF321BD1B2EA1BD0B25246FFF722FFF2
:1020C000B9F1000F09DA2046611C4CB2062101EB80
:1020D000800048444FFA80F90CE02046611C4CB265
:1020E00039467A1E57B2401A0A2101EB8000484453
:1020F0004FFA80F9BC42ABDD00BF9FE72DE9F84FF6
:1021000007460D4690461E46DDF828A0BAF1640F3A
:1021100001DDBDE8F88F012033464246314600908C
:102120003846FFF71FFF01203346424629460090FC
:102130004046FFF717FF012033463A4629460090F4
:102140003846FFF70FFF01202B46424629460090F4
:102150003846FFF707FF01206B1EA8F10702691E32
:102160000090F81DFFF7FEFE0120AB1EA8F107024C
:10217000A91E0090F81DFFF7F5FE701BC01E00FBA6
:102180000AF0642190FBF1F000F0FF0900240BE05D
:1021900001200090B01E031BA8F10202011BB81C15
:1021A000FFF7E0FE601CC4B24C45F1DB701BC01EA3
:1021B00000F0FF0B5C460BE000200090B01E031BFC
:1021C000A8F10202011BB81CFFF7CCFE601EC4B2CE
:1021D0004C45F1DC00BF9CE718280ADC082908DC24
:1021E0004A1ED301421E02EB420203EB4202304B75
:1021F0001A807047002004E000212E4A1154411C2F
:10220000C8B22028F8DB704730B5014600200FE047
:1022100001EB81020244284B9B5C254A14881288FA
:10222000521C234D2A80214A12681355421CD0B2F9
:102230000528EDDB00241E4A13881288521C1C4D11
:102240002A801A4A1268D45430BDF0B504460021E1
:102250000022002000235AE004EB84051D44164EA2
:10226000705D00F0010505EB450200F0020505EB8D
:10227000450542EA450200F0040505EB450542EA42
:10228000850200F0080505EB450542EAC505EAB2FE
:10229000001100F0010505EB450100F0020505EB1A
:1022A000450541EA450100F0040507E05C00002017
:1022B0006000002090080020B24F000805EB4505A3
:1022C00041EA850100F0080505EB450541EAC50531
:1022D000E9B2FE4D2D68FE4E3688AA55FB4D2E689C
:1022E000FB4D2D886D1C7255F84D2E68F84D2D88CC
:1022F00080357155F54D2E68F54D2D888135715518
:10230000F34D2D88AD1CF24E35805D1CEBB2052BD4
:10231000A2DB0026EE4D2F882D886D1CDFF8B0C3A0
:10232000ACF80050E94D2D68EE5565462F882D8894
:102330006D1CACF80050E54D2D68EE55F0BD70B544
:1023400005460E4631462846FFF746FF002408E0C2
:10235000E048005D18B1DF49085DFFF776FF601CBB
:10236000C4B2C5F10C00A042F2DCFFF743FF70BD20
:10237000F0B50446002100220020002345E004EBD4
:1023800084051D44D44E705D00F0010505EB450247
:1023900000F0020505EB450542EA450200F00405A0
:1023A00005EB450542EA850200F0080505EB450509
:1023B00042EAC505EAB2001100F0010505EB45014E
:1023C00000F0020505EB450541EA450100F0040572
:1023D00005EB450541EA850100F0080505EB4505DB
:1023E00041EAC505E9B2B94D2D68B94E3688AA55FE
:1023F000B64D2E68B64D2D8880357155B44D2D885B
:102400006D1CB34E35805D1CEBB2052BB7DB00268F
:10241000AF4D2F882D886D1CDFF8B4C2ACF800508A
:10242000AA4D2D68EE55F0BD70B505460E46162D29
:1024300002DD052E00DD70BD31462846FFF7CCFEDB
:10244000002408E0A348005D18B1A249085DFFF729
:102450008FFF601CC4B2C5F11600A042F2DCFFF78A
:10246000C9FE00BFE7E730B504460025FFF7C2FE0E
:1024700005E014F8010BFFF7C7FE681CC5B2207811
:102480000028F6D1284630BD70B505460021B82099
:10249000FEF7FAF800214020FEF7F6F8002405E0E8
:1024A000285D8A4909680855601C84B2B4F5806FBC
:1024B000F6DB70BD3FB504460025E4B10EE00A200E
:1024C000B4FBF0F100FB1140303029466A1CD5B254
:1024D00001AA50540A20B4FBF0F40095002CEED170
:1024E00006E0691EC9B20D4601AA505CFFF78CFEDA
:1024F000002DF6D107E03020FFF786FE9DF80000A2
:10250000401CC0B200909DF8000004B030BD7CB506
:1025100004460D46B4F5803F45DA052D43DA42F214
:10252000107094FBF0F0C0B28DF8040042F210700D
:1025300094FBF0F100FB114084B24FF47A7094FBED
:10254000F0F0C0B28DF803004FF47A7094FBF0F114
:1025500000FB114084B2642094FBF0F0C0B28DF80F
:102560000200642094FBF0F100FB114084B20A20C9
:1025700094FBF0F0C0B28DF801000A2094FBF0F15A
:1025800000FB1140C0B28DF80000002609E0691E72
:10259000891B1DF8011001F13000FFF735FE701C9A
:1025A000C6B2AE42F3DB681CC0B27CBDFCB50446CB
:1025B0000E46174642F2107094FBF0F0C0B28DF850
:1025C000040042F2107094FBF0F100FB114084B261
:1025D0004FF47A7094FBF0F0C0B28DF803004FF422
:1025E0007A7094FBF0F100FB114084B2642094FBFC
:1025F000F0F0C0B28DF80200642094FBF0F100FB13
:10260000114084B20A2094FBF0F0C0B28DF80100B2
:102610000A2094FBF0F100FB1140C0B28DF80000DD
:10262000002511E0C5F103011DF8011001F1300092
:10263000FFF7EAFD002E05DD701EA84202D12C2016
:10264000FFF7E2FD681CC5B2042DEBDB3846FFF74F
:102650000AFF0720FCBD7CB504460D46B4F5803F5B
:102660004FDA052D4DDA42F2107094FBF0F0C0B253
:102670008DF8040042F2107094FBF0F100FB114061
:1026800084B24FF47A7094FBF0F0C0B28DF803007E
:102690004FF47A7094FBF0F100FB114084B2642097
:1026A00094FBF0F0C0B28DF80200642094FBF0F1CE
:1026B00000FB114084B20A2094FBF0F0C0B28DF808
:1026C00001000A2094FBF0F108E000005C0000200B
:1026D0006000002090080020B24F000800FB11406D
:1026E000C0B28DF80000002609E0691E891B1DF8A4
:1026F000011001F13000FFF7A8FD701CC6B2AE4218
:10270000F3DB7CBD70B506460C461546601CC1B2B5
:102710003046FFF761FD2846FFF7A5FE70BD10B5F6
:102720000446092C03DC04F13000FFF76DFD0A2C90
:1027300006DB0F2C04DC04F1570188B2FFF764FDBF
:1027400010BD30B5044615A0FFF78DFE250F2846B5
:10275000FFF7E5FFC4F303652846FFF7E0FFC4F386
:1027600003552846FFF7DBFFC4F303452846FFF770
:10277000D6FFC4F303352846FFF7D1FFC4F3032582
:102780002846FFF7CCFFC4F303152846FFF7C7FF21
:1027900004F00F052846FFF7C2FF30BD3078000077
:1027A00038B5044601210846FFF716FD2046FFF71D
:1027B0005AFE01211120FFF70FFDFFF7B5FA058939
:1027C00002212846FFF7A3FEFFF7AEFA007B00F0D8
:1027D000010018B13A20FFF717FD02E02020FFF7B3
:1027E00013FDFFF7A1FA458902212846FFF78FFE66
:1027F00001200A237F22194600900020FFF7B2FB38
:1028000001200B237F22194600900020FFF7AAFB2E
:1028100001200C237F22194600900020FFF7A2FB25
:1028200038BD7047014601EB410000EB0112FE4844
:1028300000EB82007047FC48001F70470020FA49F7
:10284000091F08804880704710B5FFF743FBF74821
:10285000FFF71AFEFFF734FB10BD08B501203F2338
:102860000022082100901046FFF77CFB012008237E
:102870007F22194600900020FFF774FB01203F23C0
:102880007F22082100901046FFF76CFB01203F23B8
:102890000022194600907F20FFF764FBE44800887F
:1028A000401C80B2E2490880052818DB002008801F
:1028B000E0480088401CDF490880DF480088401C51
:1028C000DD490880084600887F2801DB0020088059
:1028D000D84800881C2802DB0020D6490880D5484B
:1028E0000078401EC2B2012324213F20FFF799FB4C
:1028F000D0480278012324213F20FFF792FB0120DA
:1029000023230090CC4802883F210846FFF72AFB8A
:1029100001200090C8480088421E23233F213E200A
:10292000FFF720FB01200090C3480088821E23236C
:102930003F213D20FFF716FB01200090BE48008894
:10294000C0F17F0223233F210846FFF70BFB012044
:102950000090B9480088C0F17E0223233F213E2029
:10296000FFF700FB01200090B3480088C0F17D0212
:1029700023233F213D20FFF7F5FA01200090AE48C8
:102980000088C0F17F02232309213F20FFF7EAFAE4
:1029900001200090A8480088C0F17E02232309216D
:1029A0003E20FFF7DFFA01200090A3480088C0F125
:1029B0007D02232309213D20FFF7D4FA01202323A0
:1029C00000909D48028809213F20FFF7CBFA0120A3
:1029D000009099480088421E232309213E20FFF7DA
:1029E000C1FA0120009094480088821E2323092107
:1029F0003D20FFF7B7FA08BD10B50446242C51D28C
:102A0000DFE804F0501216141A181E1C2220262487
:102A10002A282E2C323036343A383E3C4240464446
:102A20004A48505050504E4C844810BD8448FCE7F2
:102A30008448FAE78448F8E78448F6E78448F4E7EE
:102A40008448F2E78448F0E78448EEE78448ECE7FE
:102A50008448EAE78448E8E78448E6E78448E4E70E
:102A60008448E2E78448E0E78448DEE78448DCE71E
:102A70008448DAE78448D8E78448D6E78448D4E72E
:102A80008448D2E78448D0E78448CEE78448CCE73E
:102A90008448CAE78448C8E78448C6E78448C4E74E
:102AA0008448C2E78448FFF7DEFC04212046FFF794
:102AB0002EFD0020B9E72DE9F04104460D461646EB
:102AC000ACB903210820FFF787FB0020FFF7AAFE1F
:102AD000858146B10020FFF7A5FE8789022138468F
:102AE000FFF715FD0FE075A0FFF7BDFC0BE003211C
:102AF0000820FFF771FB0020FFF794FE8789022171
:102B00003846FFF704FDBDE8F0812DE9F0410446A9
:102B10000D461646ACB904210820FFF75DFB0020E6
:102B2000FFF780FE058346B10020FFF77BFE078B91
:102B300002213846FFF7EBFC0FE060A0FFF793FCA3
:102B40000BE004210820FFF747FB0020FFF76AFE97
:102B5000078B02213846FFF7DAFCBDE8F0812DE94A
:102B6000F04104460D4616463046FFF7DFF8681C74
:102B7000C5B229462046FFF72FFBFFF7D5F8878817
:102B800002213846FFF7C3FC2E20FFF73DFBFFF77D
:102B9000CBF8478802213846FFF7B9FC2E20FFF713
:102BA00033FBFFF7C1F8078804213846FFF7AFFC75
:102BB0002F20FFF729FB04F10B00C4B2A11CC8B2FF
:102BC0002946FFF709FB3A20FFF71EFB611DC8B23B
:102BD0002946FFF701FB3A20FFF716FB204629465E
:102BE000FFF7FAFAFFF7A0F8078902213846FFF746
:102BF0008EFCE11CC8B22946FFF7EEFAFFF794F805
:102C0000478902213846FFF782FCA11DC8B2294638
:102C1000FFF7E2FAFFF788F8878902213846FFF7C5
:102C200076FCBDE8F081000068000020B656000880
:102C3000300200203202002034020020AE5D000885
:102C4000BE5D0008CC5D0008DA5D0008E85D0008A4
:102C5000F95D0008075E0008185E0008295E00089C
:102C60003D5E00084E5E0008625E0008735E00086C
:102C7000875E0008955E0008A65E0008B65E000844
:102C8000C95E0008D95E0008EC5E0008FC5E000822
:102C90000F5F00081F5F0008325F0008415F0008F7
:102CA000535F0008625F0008745F0008835F0008DC
:102CB000955F0008A95F0008A15D000820200000C2
:102CC0002DE9F04105460E4617461C4605210A200F
:102CD000FFF782FA3A20FFF797FA05210D20FFF758
:102CE0007BFA3A20FFF790FA7DB905210820FFF71B
:102CF00073FA268127B120890221FFF708FC0CE036
:102D0000AFF24800FFF7AFFB07E005210820FFF70F
:102D100063FA20890221FFF7FAFB012D0FD105216B
:102D20000B20FFF759FA668127B160890221FFF76E
:102D3000EEFB0CE0AFF27C00FFF795FB07E005210E
:102D40000B20FFF749FA60890221FFF7E0FB022D13
:102D50000FD105210E20FFF73FFAA68127B1A089E8
:102D60000221FFF7D4FB0CE0AFF2B000FFF77BFBD2
:102D700007E005210E20FFF72FFAA0890221FFF7B7
:102D8000C6FBBDE8F0812DE9F04105460E46174629
:102D90001C4606210A20FFF71FFA2E20FFF734FAFF
:102DA00006210D20FFF718FA2E20FFF72DFA7DB926
:102DB00006210820FFF710FAA68027B1A08802217B
:102DC000FFF7A5FB0CE0AFF20C10FFF74CFB07E0A0
:102DD00006210820FFF700FAA0880221FFF797FBE1
:102DE000012D0FD106210B20FFF7F6F9668027B1E0
:102DF00060880221FFF78BFB0CE0AFF24010FFF779
:102E000032FB07E006210B20FFF7E6F9608802217C
:102E1000FFF77DFB022D0ED106210E20FFF7DCF916
:102E2000268027B120880421FFF771FB0BE0FEA06C
:102E3000FFF719FB07E006210E20FFF7CDF92088E8
:102E40000421FFF764FBBDE8F08170B505460E462E
:102E50001446E81CC1B21220FFF7BEF9012E0CD1B6
:102E60000220FEF7F8F920B1E0880121FFF74FFBBF
:102E700007E0EFA0FFF7F7FA03E0E0880121FFF792
:102E800046FBE81CC1B20D20FFF7A6F96EB902207F
:102E9000FEF7E1F920B120890221FFF738FB08E0B5
:102EA000AFF2E810FFF7DFFA03E020890221FFF715
:102EB0002EFB70BD10B50446012C03D1DD48FFF791
:102EC000D2FA0EE0022C03D1DB48FFF7CCFA08E07F
:102ED000032C03D1D948FFF7C6FA02E0D848FFF720
:102EE000C2FA10BD0146012901D1D6487047022916
:102EF00001D1D548FAE7032901D1D448F6E70020EB
:102F0000F4E770B50546284601F0E3FE0446012CBF
:102F100003D1CF48FFF7A7FA1AE0022C03D1CD481E
:102F2000FFF7A1FA14E0032C03D1CB48FFF79BFA7B
:102F30000EE0042C03D1C148FFF795FA08E0052CF8
:102F400003D1BD48FFF78FFA02E0BC48FFF78BFAC8
:102F500070BD2DE9F04104460D461646FEF7BAFF56
:102F60002068FFF71DFC3DB1F01CC1B21420FFF733
:102F700033F9BAA0FFF777FA0020FFF753FCA0421D
:102F80004BD103210120FFF727F96068FFF76BFAA7
:102F9000002211460320FFF78EFD04210120FFF7D8
:102FA0001BF92069FFF75FFA002211460320FFF7A3
:102FB000ACFD05210120FFF70FF9E069FFF753FA97
:102FC000FEF7B2FE07463B46002211460320FFF7FC
:102FD00077FE06210120FFF7FFF8A06AFFF743FA0A
:102FE000FEF7A2FE878802213846FFF790FA2E20CE
:102FF000FFF70AF9FEF798FE478802213846FFF7E7
:1030000086FA2E20FFF700F9FEF78EFE07880421CE
:103010003846FFF77CFABDE8F0810120FFF702FC9B
:10302000A0427DD103210120FFF7D6F88C48FFF79D
:103030001AFA04210120FFF7CFF88A48FFF713FAA4
:1030400089A0FFF710FA0020FFF75BFF04210B2097
:10305000FFF7C2F885A0FFF706FA002001F042FF53
:10306000078902213846FFF752FA81A0FFF7FBF9E2
:10307000002001F037FFC78801213846FFF747FAE3
:1030800005210120FFF7A8F87A48FFF7ECF976A0B0
:10309000FFF7E9F90120FFF734FF05210B20FFF7C7
:1030A0009BF872A0FFF7DFF9012001F01BFF0789F1
:1030B00002213846FFF72BFA6DA0FFF7D4F9012063
:1030C00001F010FFC78801213846FFF720FA0621DA
:1030D0000120FFF781F86848FFF7C5F962A0FFF704
:1030E000C2F90220FFF70DFF06210B20FFF774F84D
:1030F0005EA0FFF7B8F9022001F0F4FE0789022173
:103100003846FFF704FA5AA0FFF7ADF9022001F0A4
:10311000E9FEC78801213846FFF7F9F9072100E0E9
:1031200026E00120FFF758F85448FFF79CF94EA01D
:10313000FFF799F90320FFF7E4FE07210B20FFF7C3
:103140004BF84AA0FFF78FF9032001F0CBFE078967
:1031500002213846FFF7DBF945A0FFF784F9032089
:1031600001F0C0FEC78801213846FFF7D0F952E7C9
:103170000220FFF757FBA04234D103210120FFF7C3
:103180002BF86068FFF76FF9A068FFF76CF904216E
:103190000120FFF721F82069FFF765F96069FFF763
:1031A00062F905210120FFF717F8E069FFF75BF9E5
:1031B000206AFFF758F906210120FFF70DF8A06AF1
:1031C000FFF751F9E06AFFF74EF907210120FFF7F9
:1031D00003F8606BFFF747F9A08F29A20021FFF7E2
:1031E000E5F918E70320FFF71DFBA0426AD1032190
:1031F0000120FEF7F1FF6068FFF735F9A068FFF7DF
:1032000032F904210120FEF7E7FF2069FFF72BF9CF
:103210006069FFF728F905210120FEF7DDFFE0696D
:10322000FFF721F92EE00000202020200000000000
:1032300020000000205D00083C5D0008425D0008A1
:103240004B5D00081A5D0008035D00086A5D000818
:10325000455D0008FD5C0008F75C00083C3D00008F
:10326000105B0008255B00082D0000002D200000E9
:10327000202D20002A5B00082F5B0008345B00082B
:103280006D42000001F0FDFD4078102805D0A08CB3
:10329000FEA20221FFF78AF902E0FD48FFF7E3F8FA
:1032A00006210120FEF798FFA06AFFF7DCF801F085
:1032B000E8FD90F802804046FFF714FE0746FFF74E
:1032C000D2F8A8E60420FFF7ADFAA04248D101F0F9
:1032D0002FFE00884FF6FF71884207D1032101209D
:1032E000FEF77AFFEB48FFF7BEF838E00321012034
:1032F000FEF772FFE848FFF7B6F801F019FE0788FD
:10330000E2A202213846FFF751F904210120FEF71D
:1033100063FFE248FFF7A7F801F00AFE807807098B
:103320003846FFF7C7FD05210120FEF755FFDC48B1
:10333000FFF799F801F0FCFDC07807093846FFF760
:10334000B9FD06210120FEF747FFD648FFF78BF8AD
:1033500001F0EEFD007907093846FFF7ABFD5AE6AC
:103360000520FFF75FFAA04246D103210120FEF7B6
:1033700033FF0520FFF756FA878904213846FFF707
:10338000C6F8C9A0FFF76FF80520FFF74BFA078BC7
:1033900004213846FFF7BBF801F080FD408910B1E9
:1033A000C248FFF760F801F079FD808800B932E685
:1033B00005210120FEF710FFBD48FFF754F8A08C4F
:1033C0000421FFF7A4F801F069FD07683A460521DA
:1033D0000120FFF7C4FB07210120FEF7FDFE30218D
:1033E000085DFFF709FB30B13021085DFFF704FBF2
:1033F0000746FFF738F80EE60620FFF713FAA0425B
:1034000006D101210846FEF7E7FEAAA0FFF72BF838
:1034100000BF00E610B5FEF75DFD04210320FEF7B6
:10342000DBFEA848FFF71FF810BD10B504210120EE
:10343000FEF7D2FEFDF787F8012806D002281CD03F
:1034400003280AD0042820D10FE09F48FFF70BF88B
:1034500001213520FEF7CBF817E09C48FFF703F871
:1034600003213520FEF7C3F80FE09948FEF7FBFF74
:1034700003213520FEF7BBF807E09648FEF7F3FF7F
:1034800002213520FEF7B3F800BF00BF10BD014692
:10349000102901D190487047402901D18F48FAE79F
:1034A000502901D18E48F6E7602901D18D48F2E715
:1034B000702901D18C48EEE78C48ECE701460129E0
:1034C00001D185487047022901D18448FAE70329D0
:1034D00001D18248F6E7042901D18548F2E70529A0
:1034E00001D18448EEE7062901D18148EAE70020AE
:1034F000E8E710B501F0C5FC007900F0010058B113
:1035000001F0BFFC04782046FFF7D8FF03460320F4
:10351000FFF788F9836004E00320FFF783F9764919
:10352000816001F0AEFC0079C0F3400058B101F0B9
:10353000A8FC44782046FFF7AAFF03460320FFF7C4
:1035400071F9436104E00320FFF76CF96A494161B6
:1035500010BD70B50546284601F034FB04460CB991
:103560005D4870BD012C01D15C48FAE7022C01D105
:103570006248F6E7032C01D16148F2E7042C01D13F
:103580006048EEE7052C01D15548EAE75E48E8E7D8
:1035900010B5044604F0010040B10020FFF7D9FF48
:1035A00003460220FFF73EF9836004E00220FFF7A4
:1035B00039F95149816004F0020040B10120FFF760
:1035C000C8FF03460220FFF72DF9436104E0022003
:1035D000FFF728F94849416104F0040040B1022096
:1035E000FFF7B7FF03460220FFF71CF9036204E070
:1035F0000220FFF717F94049016204F0080040B1CA
:103600000320FFF7A6FF03460220FFF70BF9C36272
:1036100004E00220FFF706F93749C16210BD10B57A
:103620000446601CC1B20120FEF7D6FD3748FEF704
:103630001AFF3748FEF717FF10BD10B50446601C8F
:10364000C1B20120FEF7C8FD2948FEF70CFF314842
:10365000FEF709FF10BD10B504462046FFF7A0F89D
:1036600010BD10B503210120FEF7B6FD1948FEF785
:10367000FAFE04210120FEF7AFFD2448FEF7F3FE19
:103680002448FEF7F0FE24A048E0000042000000BD
:10369000455D0008575C0008FF5B00080A5C0008F5
:1036A000125C00081A5C00082F0000003A5C000859
:1036B000315C0008454550524F4D20496E666F3AC7
:1036C00000000000455C0008835C00086D5C000899
:1036D000975C0008AC5C0008535D0008205D0008A2
:1036E000315D00088F5D0008995D0008895D000864
:1036F000725D00087A5D00085E5D00084B5D0008A1
:103700003C5D0008265D0008425D0008085D000879
:10371000F35C0008435B000831000000FEF7A3FEE5
:10372000022001F07FFA03280CD105210120FEF7C9
:1037300053FD6F48FEF797FE6E48FEF794FE6EA0AD
:10374000FEF791FE10BD10B503210120FEF744FDE8
:103750006A48FEF788FE04210120FEF73DFD64481B
:10376000FEF781FE6348FEF77EFEAFF25400FEF7DF
:103770007AFE05210120FEF72FFD5D48FEF773FE5E
:103780005C48FEF770FE5CA0FEF76DFE10BD10B544
:1037900003210120FEF720FD5948FEF764FE0020BA
:1037A00001F0B1FA032804D1FFF739FF5548FEF7BD
:1037B0005AFE012001F0A7FA032805D10420FFF7E3
:1037C0002EFF5148FEF74FFE022001F09CFA03281D
:1037D00005D10520FFF723FF4C48FEF744FE10BD3E
:1037E00010B5FDF7EFFE046803210120FEF7F4FC9D
:1037F0004748FEF738FE04F0100030B10320FFF711
:103800001CFFAFF2EC00FEF72EFE04F0200028B102
:103810000420FFF712FF38A0FEF725FE04F0400059
:1038200028B10520FFF709FF3AA0FEF71CFE04F0BF
:10383000800028B10620FFF700FF37A0FEF713FE37
:1038400010BD10B503210120FEF7C6FC3348FEF77A
:103850000AFE002001F0E6F901280CD10421FEF750
:10386000BBFC2348FEF7FFFD2248FEF7FCFDAFF24C
:103870005810FEF7F8FD022001F0D4F901280BD111
:103880000521FEF7A9FC1A48FEF7EDFD1948FEF7E1
:10389000EAFD19A0FEF7E7FD10BD10B503210120D8
:1038A000FEF79AFC1E48FEF7DEFD01F0E8FA447FC1
:1038B00002212046FEF72BFE03210D20FEF78CFC93
:1038C0001848FEF7D0FD01F0DAFA847F0221204685
:1038D000FEF71DFEFFF7A9FD10BD10B5FEF7FAFAC1
:1038E00004210320FEF7A0FD0F48FEF7BCFD10BD2C
:1038F000085D0008435B000832000000BD5F00085F
:10390000CD5F0008255B00082A5B00082F5B0008DC
:10391000DD5F00083300000034000000EB5F0008AA
:10392000E15A0008E95A0008FC5F0008002006E0A0
:10393000002100EB80022C4B9954411CC8B2042892
:10394000F6DB7047002017E000EB8001264A515C4F
:10395000012904D1022100EB8002234B995400EB92
:103960008001214A515C022904D1002100EB800230
:103970001D4B9954411CC8B20428E5DB704710B5B3
:1039800000EB8002184B9A5C52B9012200EB8003D5
:10399000154CE25400EB800223461A44C2F8011091
:1039A00010BD00EB8001104A515C21B9012100EBF0
:1039B00080020D4B99547047014601EB81000A4A81
:1039C000105C30B1002001EB8102074B98540120BC
:1039D00070470020FCE7014601EB8100024A1044D9
:1039E000D0F8010070470000B0080020002013E06C
:1039F0002A4931F81010491C284A22F81010284989
:103A0000095C012906D1274931F81010491C254AC3
:103A100022F81010411CC8B20428E9DB70470020CE
:103A20000AE000211D4A22F810101E4A22F8101048
:103A30001B4A1154411CC8B20428F2DB70470146EE
:103A4000164830F8110070470021144A22F810106F
:103A500070470146134830F8110070470021104AA2
:103A6000115470470E49095C31B900210D4A22F802
:103A7000101001210A4A115470470949095C0129B3
:103A800002D10221064A115470470549095C0229F6
:103A900002D10121024A1154704700003602002071
:103AA000460200203E02002001B508E04FF0E02071
:103AB000006900F4803010B10098401E009000981A
:103AC0000028F3D108BD10B5044634B90020FDF735
:103AD000FDFD0020FE49086016E0FD4800686040DA
:103AE000204040B10D20FDF749FC0020FDF7EEFD20
:103AF000F748046008E00D20FDF739FC20B10120F3
:103B0000FDF7E4FDF248046010BD10B5F1480078FF
:103B1000052870D2DFE800F0030B71BDBE000B205A
:103B2000FDF71EFC10B10120EA490870B4E0022044
:103B3000FDF791FB00F001042046FDF7B6FD0020E3
:103B4000FDF715FC78B10220FDF785FB00F00104BC
:103B500021462620FDF74BFDDF48007840F00100AC
:103B6000DD49087009E000212620FDF740FDDA4814
:103B7000007820F00100D84908700120FDF7F7FB1C
:103B800078B10220FDF767FB00F0010421462420F4
:103B9000FDF72DFDD048007840F00200CE490870B6
:103BA00009E000212420FDF722FDCB48007820F019
:103BB0000200C94908700B20FDF7CBFB10B10220B1
:103BC000C44908700C20FDF7C4FBA8B10B20FDF719
:103BD000D5FB0C20FDF7D2FB0020FDF7CFFB012029
:103BE000FDF7CCFB0020BD490870BA490870BA49FE
:103BF0000870012010BD4EE04EE00120FDF755FD9C
:103C00000120FDF730FDB448007800F0010078B1E4
:103C10000220FDF720FB00F0020421462620FDF7DC
:103C2000E6FCAE48007840F00100AC49087003E0C3
:103C300000212620FDF7DBFCA748007800F00200F9
:103C400078B10220FDF707FB00F002042146242092
:103C5000FDF7CDFCA148007840F002009F490870B4
:103C600003E000212420FDF7C2FC0C20FDF771FBCE
:103C700070B10020FDF782FB0120FDF77FFB0020E3
:103C80009649087093490870934908700120B1E77C
:103C900002E001E000E000BF00BF0020AAE710B58D
:103CA0008F480078072848D2DFE800F004333B4310
:103CB00044454600FCF747FC022803D1012088490F
:103CC000087025E00920FDF744FB18B10220844963
:103CD00008701DE0002001F016F8022804D0012031
:103CE00001F011F8022803D103207D4908700FE08C
:103CF000032001F008F8032803D104207849087054
:103D000006E00B20FDF725FB10B105207449087073
:103D100014E0FCF718FC022802D00020704908705B
:103D20000CE00920FDF71CFB10B100206C49087065
:103D300004E003E002E001E000E000BF00BFAFF2FA
:103D4000A100FCF796FA10BD10B5FDF7AFFBAFF27E
:103D50000700FCF78EFA10BD10B5FEF7ADF8AFF214
:103D60000700FCF786FA10BD10B501F088F8C07F97
:103D7000012804D15B490870FDF72AFC10BD5948A1
:103D8000007820B1002057490870FDF726FC01F0AB
:103D900078F804782046FDF706FD01F072F84478C3
:103DA0002046FDF747FD01F06CF884782046FDF7CA
:103DB0008FFD0220FDF74FFA00F001042046FDF7C9
:103DC00096FCFDF7FFFB00684749084020B1012140
:103DD0003720FDF70CFC03E000213720FDF707FC3E
:103DE000002000F009FF03280EDA012000F004FF94
:103DF000032809DA022000F0FFFE032804DA03207A
:103E000000F0FAFE032804DB01213820FDF7EFFB68
:103E100003E000213820FDF7EAFB002000F059FF05
:103E200004280ED2012000F054FF042809D20220F9
:103E300000F04FFF042804D2032000F04AFF0428BA
:103E400004D301213920FDF7D2FB03E00021392002
:103E5000FDF7CDFBFDF7B6FB04682046FFF733FE08
:103E600001F00DF8C07F012803D1FDF796FE162161
:103E70000170FCF71BFB032806D10220FDF7EBF9CC
:103E8000C4B22046FDF7A9FBFDF7A2FB00BF75E712
:103E90002DE9F041FDF783FE441DFDF782FE471D2D
:103EA000FDF77FFE451DFDF776FE0646008820F0F3
:103EB00004003080FDF773FE0079A0287ED1FDF765
:103EC0006EFE461D304600F053FFFDF768FE0DE024
:103ED0005002002054020020550200204C02002015
:103EE0004D02002056020020FFC00100461D304652
:103EF00001F012F800F0C5FF94F8201001F00F0156
:103F0000017000F0BEFF94F8201001F0F001417044
:103F100000F0B7FF0078012807D100F0B2FFC61CFF
:103F2000C07820F00100307007E000F0AAFFC61C46
:103F3000C07820F00100401C307000F0A2FF4078F3
:103F4000102807D100F09DFFC61CC07820F00200A9
:103F5000307007E000F095FFC61CC07820F002002A
:103F6000801C307000F08DFF94F821108170206863
:103F7000FDF7D4FE0020FEF755FC617F8181002013
:103F8000FEF750FCA17F01830320FEF74BFCB4F841
:103F90000D10818400F075FF86783046FEF7A2FF91
:103FA00080460320FEF73EFCC0F82C8000F076FF30
:103FB000A188018100F072FFE18800E00AE0418100
:103FC0000520FEF72FFCA18881810520FEF72AFC41
:103FD000E1880183FDF7E3FD007918281AD1FDF788
:103FE000DEFD461D304600F04EFF00F057FF86888C
:103FF0000520FEF717FC868400F050FF8679052027
:10400000FEF710FC068600F049FFC6790520FEF792
:1040100009FC8687FEF70FFC0088012843D1FDF7D5
:10402000BEFD0079192806D1FDF7B9FD461D3046C1
:1040300000F036FF3AE0FE48007803280CDCFDF77C
:10404000ACFD19210170FA4800782880F848007802
:10405000401CF749087029E0FDF79FFD00782028F3
:1040600024D1FEF7E8FB4088461E304600F03AFFB8
:1040700000882880FEF7DFFB4088461E304600F0AF
:1040800031FFC088E880FEF7D6FB4088461E3046E8
:1040900000F028FF008928810020E54908700A20E7
:1040A000FDF76CF902E00020E1490870FDF78CFD96
:1040B000BDE8F08110B50020FDF78FFA0220FDF772
:1040C000CAF800F003042046FDF711FB0121372058
:1040D000FDF78DFAFDF77CFAFFF79CF910BD10B5DE
:1040E000FDF759FD0078C0F3800018B1AFF25F20F2
:1040F000FCF7BFF8AFF21900FCF7BBF810BD2DE9D3
:10410000F041FDF74EFD441D0A20FDF730F900286F
:104110007ED0FEF790FB008807287AD2DFE800F017
:1041200004FDFCFBFAF9F800C248008838B9FEF734
:1041300082FB851C032200212846FDF727F9FEF7A4
:104140007AFB4088002839D101220021BA48FDF7C6
:1041500072F9B948008801282ADA0120B549088097
:1041600000F02CFD051D402200212846FDF70EF928
:104170000220FDF770F8C5B200F020FD0679AE49C7
:1041800008782A463146FEF796FC0920FDF7E1F84B
:1041900060B10A20FDF7F2F80020A649088001204E
:1041A000A5490880FDF7F9FC12210170BDE8F081F6
:1041B0000020A049088001209F490880FEF73BFBB2
:1041C000408801283BD1012200219B48FDF733F9AB
:1041D0009948008801282CDA01209649088000F0CF
:1041E000EDFC851D402200212846FDF7CFF8022076
:1041F000FDF731F8C5B200F0E1FC86798E49087808
:104200002A463146FEF781FC0920FDF7A2F801E0BD
:10421000D0E2B9E260B10A20FDF7B0F8002085498C
:104220000880012084490880FDF7B7FC1321017044
:10423000BCE700207F49088001207F490880FEF705
:10424000FAFA4088022869D1032200217B48FDF751
:10425000F2F87A48008803287CDA01207549088042
:1042600076480088C8B9FDF75FFD00F10805172200
:1042700000212846FDF78AF8FDF756FD0746022083
:10428000FCF7E9FFC5B2FDF74FFD06896B490878D9
:104290003B462A463146FEF713FD68480088012850
:1042A00019D1FDF741FD00F10A053B220021284606
:1042B000FDF76CF8FDF738FD07460220FCF7CBFF51
:1042C000C5B2FDF731FD46895C4908783B462A4670
:1042D0003146FEF7F5FC59480088022821D1FDF748
:1042E00023FD00F10C053B2200212846FDF74EF886
:1042F000FDF71AFD07460220FCF7ADFFC5B2FDF73A
:1043000013FD86894D4908783B462A46314606E02A
:104310002EE2E6E1E1E18FE131E1B5E020E0FEF7F8
:10432000CFFC0920FDF715F890B10A20FDF726F81B
:10433000002040490880032040490880FDF7F4FC34
:104340000546FDF762FD2060FDF727FC1421017092
:104350002CE7FFE700203749088003203749088011
:10436000FEF769FA4088032861D10322002134480E
:10437000FDF761F83248008803287EDA01202D49D4
:1043800008802F480088C0B9FDF7CEFC051D1F220C
:1043900001212846FCF7FAFFFDF7C6FC074602207C
:1043A000FCF759FFC6B2FDF7BFFC858824490878A1
:1043B0003B4632462946FEF7E6FC214800880128A4
:1043C00018D1FDF7B1FC851C0C2201212846FCF711
:1043D000DDFFFDF7A9FC07460220FCF73CFFC5B254
:1043E000FDF7A2FC4688164908783B462A46314626
:1043F000FEF7C9FC12480088022825D1FDF794FC7D
:10440000054640F6020240F2B271FCF7BFFFFDF72D
:104410008BFC07460220FCF71EFFC5B2FDF784FCAB
:104420000688074908783B462A4631460AE02AE0D2
:10443000570200205A020020600200205C02002087
:104440005E020020FEF79FFC0920FCF782FF90B17E
:104450000A20FCF793FF0020FE4908800320FE4954
:104460000880FDF761FC0546FDF7CFFC2060FDF7F5
:1044700094FB1521017099E6FFE70020F5490880BB
:104480000320F549088080E1F248008838B9FEF73A
:10449000D2F9851C042201212846FCF777FF02226D
:1044A0000021EE48FCF7C7FFEC48008802285FDADD
:1044B0000120E8490880FEF7BEF94088401E86B218
:1044C000FEF7B9F94088451E284600F00BFD06802E
:1044D000E248008801281DD1FEF7ADF94088461E4C
:1044E000304600F0FFFC851D022200212846FCF723
:1044F0004DFFFEF7A0F94088471E384600F0F2FC59
:104500000546FEF798F98678D44801782A46304661
:10451000FEF79BFCD1480088F0B9FEF78CF9408883
:10452000461E304600F0DEFC00F108056322002143
:104530002846FCF72BFFFEF77EF94088471E3846D9
:1045400000F0D0FC0546FEF776F98678C34801787E
:104550002A463046FEF779FC0920FCF7FAFE30B116
:104560000020BC490880FDF718FB202101701DE6E2
:104570000020B84908800220B849088005E1FEF70C
:104580005AF9851C042200212846FCF7FFFE00F0A2
:104590009EFB45782846FEF7FBFF00F098FB458818
:1045A0000220FEF73FF9858700F091FB051D0120F1
:1045B0002870FEF740F9408803281DDC0D20FCF729
:1045C000C8FE50B100F083FB451CFEF734F981783A
:1045D000012088402978084328700E20FCF7B9FE96
:1045E00050B100F074FB451CFEF725F981780120DD
:1045F0008840297881432970FEF71DF940880428F6
:1046000008D100F064FB851C4FF4FA7201212846A2
:10461000FCF711FF0920FCF79CFE60B10A20FCF7B3
:10462000ADFEFEF708F9857800F051FB0570FDF747
:10463000B4FA17210170A8E0FEF7FDF8851C0122ED
:1046400000212846FCF7A2FEFEF753FFFEF7F3F821
:104650004088B0B90D20FCF77CFE38B100F011FCA9
:10466000051D007920F00100401C28700E20FCF789
:1046700070FE30B100F005FC051D007920F001004E
:104680002870FEF7D8F84088012816D10D20FCF7D5
:1046900060FE38B100F0F5FB051D007920F0020046
:1046A000801C28700E20FCF754FE30B100F0E9FBAE
:1046B000051D007920F0020028700920FCF749FE52
:1046C00050B10A20FCF75AFE00F0DBFB00792071A4
:1046D000FDF763FA2121017057E00A20FCF74EFE36
:1046E00053E000F0DBFB058900F0D8FB00F10C067D
:1046F0002A4601213046FCF749FE0D20FCF729FE31
:1047000018B100F0CBFB012181810E20FCF721FEC6
:1047100028B100F0C3FB058900F0C0FB85810920AA
:10472000FCF717FE20B100F0B9FB4FF6FF71818155
:1047300000F0B4FBC58900F0B1FB8089854216D03A
:1047400000F0ACFB858900F0A9FBC58100F0A6FB59
:1047500080894FF6FF71884205D100F09FFB0589E3
:1047600000F09CFB8581FDF718FA182101700CE020
:104770000A20FCF7EEFD18B1FDF70FFA22210170B7
:104780000A20FCF7FBFD00E000BF00BFFDF7C9FAFF
:104790000546FDF7CBFAFEF74EF88578FEF74BF8A5
:1047A00007783846FEF73EF806462A460121FEF70E
:1047B000D0FB70E0002027490880032028490880AA
:1047C00025490880012027490880022023490880C4
:1047D000FEF731F800214180FEF78BFE00F05EFB12
:1047E000058900F05BFB85810020FEF71BF88589B9
:1047F00000F0E4F985800020FEF714F8058B00F046
:10480000DDF9C580FDF78DFA0546FDF78FFA00F05A
:104810005EFA45782846FEF7BBFE00F058FA458858
:104820000220FDF7FFFF8587FDF7B7F9007817280D
:1048300004D000F04CFA051D002028700E20FCF773
:1048400088FD18B1FDF7F7FF052101800D20FCF769
:1048500080FD09E05A0200205E0200206202002072
:104860005C0200206002002018B1FDF7E4FF002187
:104870000180FDF7E0FF054605220021FCF786FDDB
:10488000FDF7D9FF06783046FDF7CCFF054600223C
:104890001146FEF75EFB00BF88E470B5FDF781F9B5
:1048A000441D00F0ECFAC07F012802D1FFF715F893
:1048B00070BD0E20FCF74DFD18B1FDF76EF9162105
:1048C0000170FDF72EFA0546FDF730FAFDF7B6FF49
:1048D0000920FCF753FD0A20FCF750FDFDF7FAFA1A
:1048E000B248FEF7B8FEFBF72EFE022802D1FEF713
:1048F000B8FE20E0002000F095F9042802D1FEF770
:1049000022FF18E0032000F01CFA10B1FEF73FFF71
:1049100011E0FCF757FE0068A549084010B1FEF70A
:104920005FFF08E0012000F0A9F910B1FEF789FF50
:1049300001E0FEF7B2FF0223002211462620FCF719
:10494000D8FF02231A4619462420FCF7D2FF002084
:1049500000F068F901280ADC012000F063F9012861
:1049600005DC0020FCF77FFE0020FCF78DFEFCF745
:10497000E6FC2072FCF7E0FC607200BF98E770B5BF
:10498000FDF70FF9441D00F07AFAC07F012802D12B
:10499000FEF7A3FF70BD0E20FCF7DBFC18B1FDF79E
:1049A000FCF816210170FDF7BCF90546FDF7BEF9CC
:1049B000FDF744FF0920FCF7E1FC0A20FCF7DEFCD0
:1049C000FDF788FA7B48FEF746FEFBF7BCFD0228A0
:1049D00002D1FEF746FE20E0002000F023F9042873
:1049E00002D1FEF7B0FE18E0032000F0AAF910B1E2
:1049F000FEF7CDFE11E0FCF7E5FD00686C490840CC
:104A000010B1FEF7EDFE08E0012000F037F910B11B
:104A1000FEF717FF01E0FEF740FF022300221146D8
:104A20002620FCF766FF02231A4619462420FCF7CD
:104A300060FF002000F0F6F801280ADC012000F0F9
:104A4000F1F8012805DC0020FCF70DFE0020FCF742
:104A50001BFEFCF774FC00F06000207200BF99E7B9
:104A600010B555480078032806D1FBF71FFD032831
:104A700002D00020FCF7B1FDFBF718FD4E4908708D
:104A800008460078012803D1AFF20D10FBF7F1FBC7
:104A900049480078022803D1AFF20120FBF7E9FB77
:104AA00045480078032803D1AFF6AD10FBF7E1FBD2
:104AB000FFF75AF910BD10B5FDF76DF80078C0F397
:104AC000400020B1AFF61320FBF7D3FB09E0FCF761
:104AD00010FC10B9FBF794FC18B1AFF27B00FBF7A8
:104AE000C8FB0A21AFF23100FBF70CFC10BD10B57A
:104AF00002E00A20FEF7D8FFFBF782FC0028F8D07E
:104B0000FDF78FFEFDF70BF8FDF7F4F8AFF6B750A1
:104B1000FBF7AFFBAFF67960FBF7ABFBAFF6D75017
:104B2000FBF7A7FBAFF27100FBF7A3FBAFF6512039
:104B3000FBF79FFB10BDFCF72EF9FBF749FCFCF7D8
:104B40000DF8FDF7B1F9FEF76AFFFEF7EFFEFBF790
:104B500003FCAFF26500FBF78CFBFCF703FA62B6CF
:104B600001E0FBF758FBFCE710B50220FCF773FBF4
:104B7000C4B2FBF794FBFEF739FFFCF71BFBFCF715
:104B8000F1FF00F07CF9C07F01280AD12046FCF734
:104B900024FD2046FDF798F901213020FCF727FD80
:104BA00002E00120FDF790F910BD0000C65A000890
:104BB000FFC00100B65A00085802002000487047A4
:104BC00064020020014619B9CA48C07C0009704738
:104BD000012903D1C748007D0009F8E7022903D164
:104BE000C448407D0009F2E7032903D1C148807D14
:104BF0000009ECE70220EAE7014611B9BE48007857
:104C00007047012902D1BD480078F9E7022902D195
:104C1000BB480078F4E7032902D1BA480078EFE7EF
:104C20000220EDE7014621B9B248C07C00F00F0038
:104C30007047012904D1AF48007D00F00F00F7E76D
:104C4000022904D1AB48407D00F00F00F0E70329B2
:104C500004D1A848807D00F00F00E9E7042904D1C1
:104C6000A448C07D00F00F00E2E7052904D1A14867
:104C7000007E00F00F00DBE70C20D9E701469D48DD
:104C8000C07C00F00F0088421DD09A48007D00F0E3
:104C90000F00884217D09748407D00F00F008842EF
:104CA00011D09448807D00F00F0088420BD09148CD
:104CB000C07D00F00F00884205D08E48007E00F0D5
:104CC0000F00884201D1012070470020FCE78E4888
:104CD0007047014619B98748407E0009704701298D
:104CE00003D18448807E0009F8E7022903D1814876
:104CF000C07E0009F2E7032903D17E48007F000946
:104D0000ECE70520EAE7014621B97A48407E00F049
:104D10000F007047012904D17648807E00F00F0013
:104D2000F7E7022904D17348C07E00F00F00F0E7D6
:104D3000032904D16F48007F00F00F00E9E7052048
:104D4000E7E701466B48407E00F00F0088420BD039
:104D50006848807E00F00F00884205D06548C07E1C
:104D600000F00F00884201D1012070470020FCE7CD
:104D700010B501465F4A002002E00B5C1354401C52
:104D80002228FAD3604B1B7903F0010303B110BD55
:104D9000584BDB7C0224B4EB131F04D0554BDB7C57
:104DA0001B09554C2370534B1B7D0224B4EB131F7E
:104DB00004D0504B1B7D1B09504C23704D4B5B7D29
:104DC0000224B4EB131F04D04A4B5B7D1B094C4CEF
:104DD0002370484B9B7D0224B4EB131F04D0454B3A
:104DE0009B7D1B09474C2370424BDB7C1B0933B175
:104DF000454B5B7843F00103434C637005E0424B45
:104E00005B7823F00103404C63703A4B1B7D1B0918
:104E100033B13D4B5B7843F002033B4C637005E0DC
:104E2000394B5B7823F00203374C6370314B5B7D69
:104E30001B0933B1344B5B7843F00403324C63708D
:104E400005E0314B5B7823F004032F4C6370294B52
:104E50009B7D1B0933B12C4B5B7843F008032A4C34
:104E6000637005E0284B5B7823F00803264C6370E1
:104E7000204BB3F81130244C638000BF87E71D48F6
:104E800070472248704701460A68214B1A608A8899
:104E90009A808A799A71CA79DA7170471C4870478A
:104EA00030B501460A880B88C2EBC204194D25F8BB
:104EB0001430CB88C2EBC20405EB4404E3800B89B9
:104EC000C2EBC20405EB440423814B89C2EBC2044C
:104ED00005EB440463818B89C2EBC20405EB4404F7
:104EE000A38130BD0146C1EBC1000A4A02EB40007C
:104EF00070470000C40800206C0200206D020020F2
:104F00006E0200206F020020700200207602002056
:104F1000E6080020F608002001460A89054B1A80A1
:104F20001A468B7A9370CB7AD3700B7B13717047D0
:104F3000004870477B0200207047704770477546F5
:104F400000F02CF8AE4605006946534620F00700F5
:104F5000854618B020B5FBF74DF9BDE820404FF06D
:104F600000064FF000074FF000084FF0000B21F053
:104F70000701AC46ACE8C009ACE8C009ACE8C00920
:104F8000ACE8C0098D46704710B50446AFF3008009
:104F90002046BDE81040FBF710B9000000487047FC
:104FA0003009002001491820ABBEFEE726000200B0
:104FB0007047000000000000005F000000070007CD
:104FC00000147F147F14242A7F2A1223130864629A
:104FD00036495522500005030000001C2241000004
:104FE00041221C0014083E081408083E080800501E
:104FF0003000000808080808006060000020100861
:105000000402000000000000005F0000000700072D
:1050100000147F147F14242A7F2A12231308646249
:1050200036495522500005030000001C22410000B3
:1050300041221C0014083E081408083E08080050CD
:105040003000000808080808006060000020100810
:105050000402000000000000005F000000070007DD
:1050600000147F147F14242A7F2A122313086462F9
:1050700036495522500005030000001C2241000063
:1050800041221C0014083E081408083E080800507D
:1050900030000008080808080060600000201008C0
:1050A00004023E5149453E00427F40004261514961
:1050B000462141454B311814127F1027454545398B
:1050C0003C4A4949300171090503364949493606C8
:1050D0004949291E003636000000563600000008F7
:1050E0001422411414141414004122140802015112
:1050F0000906324979413E7E1111117E7F494949A5
:10510000363E414141227F4141221C7F494949416C
:105110007F090909013E4149497A7F0808087F0053
:10512000417F41002040413F017F081422417F40E0
:105130004040407F020C027F7F0408107F3E4141C7
:10514000413E7F090909063E4151215E7F09192927
:1051500046464949493101017F01013F4040403FF6
:105160001F2040201F3F4038403F6314081463074E
:10517000087008076151494543007F41410002041E
:105180000810200041417F00040201020440404019
:105190004040000102040020545454787F484444A5
:1051A000383844444420384444487F3854545418D0
:1051B000087E0901020C5252523E7F080404780016
:1051C000447D40002040443D007F102844000041C1
:1051D0007F40007C041804787C0804047838444438
:1051E00044387C14141408081414187C7C08040433
:1051F000084854545420043F4440203C4040207C04
:105200001C2040201C3C4030403C44281028440CCA
:105210005050503C4464544C440008364100000057
:105220007F00000041360800100808100878464149
:105230004678000000000000005F00000007000743
:1052400000147F147F14242A7F2A12231308646217
:1052500036495522500005030000001C2241000081
:1052600041221C0014083E081408083E080800509B
:1052700030000008080808080060600000201008DE
:105280000402000000000000005F000000070007AB
:1052900000147F147F14242A7F2A122313086462C7
:1052A00036495522500005030000001C2241000031
:1052B00041221C0014083E081408083E080800504B
:1052C000300000080808080800606000002010088E
:1052D0000402000000000000005F0000000700075B
:1052E00000147F147F14242A7F2A12231308646277
:1052F00036495522500005030000001C22410000E1
:1053000041221C0014083E081408083E08080050FA
:10531000300000080808080800606000002010083D
:1053200004023E5149453E00427F400042615149DE
:10533000462141454B311814127F10274545453908
:105340003C4A494930017109050336494949360645
:105350004949291E00363600000056360000081460
:1053600022410014141414140041221408020151A3
:1053700009067E1111117E7F494949317F4949490A
:10538000367F01010103702927217F7F4949494167
:1053900077087F087741494949367F1008047F7FA5
:1053A0001009047F7F0814224120413F017F7F02C2
:1053B0000C027F7F0808087F3E4141413E7F01018A
:1053C000017F7F090909063E4141412201017F0118
:1053D0000147281008071E217F211E63140814634B
:1053E0003F2020205F070808087F7F407F407F3FE5
:1053F000203F205F017F4848307F4830007F007F9A
:10540000484830414141493E7F083E413E462919C6
:10541000097F20545454783C4A4A49317C545428DA
:10542000007C0404040CC078447CC03854545418E4
:105430006C107C106C44445454287C2010087C7CF4
:105440002112097C7C1028440020443C047C7C0808
:1054500010087C7C1010107C38444444387C0404D0
:10546000047C7C14141408384444440004047C0470
:10547000040C5050503C10287C281044281028441C
:105480003C40407C400C1010107C7C407C407C7C7C
:10549000407C40FC047C5050207C5020007C007CF0
:1054A00050502028444454387C1038443808543430
:1054B000147C0000C1C081C1400101C3C00380024F
:1054C00041C201C6C006800741C70005C1C581C4ED
:1054D000400401CCC00C800D41CD000FC1CF81CE66
:1054E000400E000AC1CA81CB400B01C9C009800827
:1054F00041C801D8C018801941D9001BC1DB81DA2D
:10550000401A001EC1DE81DF401F01DDC01D801C6E
:1055100041DC0014C1D481D5401501D7C0178016D5
:1055200041D601D2C012801341D30011C1D181D024
:10553000401001F0C030803141F10033C1F381F2FD
:1055400040320036C1F681F7403701F5C03580346E
:1055500041F4003CC1FC81FD403D01FFC03F803E65
:1055600041FE01FAC03A803B41FB0039C1F981F8A4
:1055700040380028C1E881E9402901EBC02B802A8E
:1055800041EA01EEC02E802F41EF002DC1ED81ECEC
:10559000402C01E4C024802541E50027C1E781E6D5
:1055A00040260022C1E281E3402301E1C0218020A6
:1055B00041E001A0C060806141A10063C1A381A25C
:1055C00040620066C1A681A7406701A5C0658064EE
:1055D00041A4006CC1AC81AD406D01AFC06F806E65
:1055E00041AE01AAC06A806B41AB0069C1A981A824
:1055F00040680078C1B881B9407901BBC07B807A2E
:1056000041BA01BEC07E807F41BF007DC1BD81BC6B
:10561000407C01B4C074807541B50077C1B781B6D4
:1056200040760072C1B281B3407301B1C071807025
:1056300041B00050C190819140510193C0538052BC
:1056400041920196C056805741970055C19581946B
:105650004054019CC05C805D419D005FC19F819E64
:10566000405E005AC19A819B405B0199C0598058A5
:1056700041980188C04880494189004BC18B818A8B
:10568000404A004EC18E818F404F018DC04D804CED
:10569000418C0044C184818540450187C0478046D4
:1056A00041860182C042804341830041C1818180A3
:1056B00040401C1C3E7F0000000000000000000075
:1056C000000000000080C0E0F0F8F8FCFCFEFEFEE8
:1056D000FE000000000000000000FEFEFEFEFEFED8
:1056E000FEFEFEFCF8F0E0C00080F0F8FCFEFEFEDE
:1056F000FEFEFEFCF8F08000001EFEFEFEFEFC003A
:105700000000F8FEFEFEFE1E0000FEFEFEFEFEFE97
:10571000FEFEFEFEFEFE0080F0F8FCFEFEFEFEFE3B
:10572000FEFCF8F0800000FEFEFEFEFEFEF800002B
:1057300000FEFEFEFE000000000000000000000071
:10574000C0F0F8FEFFFFFFFFFFFFFFFFFFFFFFFFBF
:10575000FF000000000000000000FFFFFFFFFFFF50
:105760000101FFFFFFFFFFFF00FFFFFFFFFFFF0142
:1057700001FFFFFFFFFFFF0000007FFFFFFFFFF8BB
:1057800000F8FFFFFFFF07000000010101FFFFFF1E
:10579000FFFFFF01010100FFFFFFFFFFFF0101FF0E
:1057A000FFFFFFFFFF0000FFFFFFFFFFFFFFF00015
:1057B00000FFFFFFFF0000000000000080F0FCFF82
:1057C000FFFFFFFFFFFF7F3F1F0F070303010101E3
:1057D00001000000000000000000FFFFFFFFFFFFCE
:1057E0000000FFFFFFFFFFFF00FFFFFFFFFFFF00C5
:1057F00000FFFFFFFFFFFF000000003FFFFFFFFF74
:10580000FCFFFFFFFF0700000000000000FFFFFF9C
:10581000FFFFFF00000000FFFFFFFFFFFF0000FF92
:10582000FFFFFFFFFF0000FFFFFFFFFFFFFFFFF095
:1058300000FFFFFFFF0000000000E0FCFFFFFFFF94
:10584000FFFF7F1F070100000000000000000000B4
:1058500000000000000000000000FFFFFFFFFFFF4E
:10586000FEFEFFFFCF87030100FFFFFFFFFFFF00EA
:1058700000FFFFFFFFFFFF0000000000FFFFFFFF32
:10588000FFFFFFFF030000000000000000FFFFFF1C
:10589000FFFFFF00000000FFFFFFFFFFFF0000FF12
:1058A000FFFFFFFFFF0000FFFFFFFF3FFFFFFFFFC6
:1058B000F0FFFFFFFF000000C0FEFFFFFFFFFFFF44
:1058C0001F0100000000000080E0F0F8FCFEFEFF79
:1058D000FF000000000000000000FFFFFFFFFFFFCF
:1058E0000303FFFFFFFFFFFE00FFFFFFFFFFFF00BF
:1058F00000FFFFFFFFFFFF00000000FEFFFFFFFFB4
:10590000FFFFFFFFFE0000000000000000FFFFFFA0
:10591000FFFFFF00000000FFFFFFFFFFFF0000FF91
:10592000FFFFFFFFFF0000FFFFFFFF003FFFFFFF44
:10593000FFFFFFFFFF0000F0FFFFFFFFFFFF1F0063
:10594000000000000080F0FEFFFFFFFFFFFFFFFFF1
:10595000FF000000000000000000FFFFFFFFFFFF4E
:105960000000FFFFFFFFFFFF00FFFFFFFFFFFF0043
:1059700000FFFFFFFFFFFF000000FFFFFFFFFF0F23
:10598000FFFFFFFFFFFF00000000000000FFFFFF20
:10599000FFFFFF00000000FFFFFFFFFFFF0000FF11
:1059A000FFFFFFFFFF0000FFFFFFFF00003FFFFFC3
:1059B000FFFFFFFFFF00E0FFFFFFFFFFFF0F000003
:1059C00000000000F0FFFFFFFFFFFFFFFFFFFFFFF2
:1059D000FF000000000000000000FFFFFFFFFFFFCE
:1059E0000000FFFFFFFFFFFF00FFFFFFFFFFFF8043
:1059F00080FFFFFFFFFFFF0000FFFFFFFFFF0F0023
:105A000001FFFFFFFFFFFF800000000000FFFFFF1E
:105A1000FFFFFF00000000FFFFFFFFFFFF8080FF90
:105A2000FFFFFFFFFF0000FFFFFFFF0000007FFF01
:105A3000FFFFFFFFFF007F7F7F7F7F7F7F000000F2
:105A4000000000007F7F7F7F7F7F7F7F7F7F7F7F62
:105A50007F0000000000000000007F7F7F7F7F7FCD
:105A600000003F7F7F7F7F7F40010F1F3F7F7F7F51
:105A70007F7F7F3F1F0F01007F7F7F7F7F0F0000B1
:105A800000017F7F7F7F7F7F40000000007F7F7F5E
:105A90007F7F7F00000000010F1F3F7F7F7F7F7FA0
:105AA0007F3F1F0F0100007F7F7F7F000000007F8E
:105AB0007F7F7F7F7F00C1CBCECAC8D0CEC2CAC095
:105AC00020D3CFD02E00D3CFD0C0C2CBC5CDC8C538
:105AD00000CEE1F9E8E520EDE0F1F2F0EEE9EAE8E8
