:020000040800F2
:10000000900F0020DD010008CB0D0008C901000899
:100010005D0E0008770E0008910E00080000000039
:10002000000000000000000000000000AB0E00080F
:10003000ED01000800000000EF0100082F4C00084F
:10004000F3010008F3010008F30100085309000858
:10005000F3010008F3010008F3010008F3010008B0
:10006000F3010008F3010008F3010008F3010008A0
:10007000F3010008F30100082F110008F301000844
:10008000F3010008F3010008F3010008F301000880
:10009000F3010008F3010008F3010008F301000870
:1000A000F3010008F3010008F3010008F301000860
:1000B000F3010008F3010008F3010008F301000850
:1000C000F3010008F3010008F3010008F301000840
:1000D0008F0C00089F100008F3010008F3010008CE
:1000E000F3010008F3010008F301000800F002F832
:1000F00000F05AF80AA090E8000C82448344AAF168
:100100000107DA4501D100F04FF8AFF2090EBAE865
:100110000F0013F0010F18BFFB1A43F0010318473B
:10012000AC5F0000CC5F00000A444FF0000C10F8F8
:10013000013B13F0070408BF10F8014B1D1108BF65
:1001400010F8015B641E05D010F8016B641E01F805
:10015000016BF9D113F0080F1EBF10F8014BAD1C55
:100160000C1B09D16D1E58BF01F801CBFAD505E073
:1001700014F8016B01F8016B6D1EF9D59142D6D3CD
:10018000704700000023002400250026103A28BFF5
:1001900078C1FBD8520728BF30C148BF0B607047F9
:1001A0001FB51FBD10B510BD04F02BFF1146FFF7A2
:1001B000F7FF04F023FD04F049FF03B4FFF7F2FF5B
:1001C00003BC04F051FF00001EF0040F0CBFEFF35E
:1001D0000880EFF3098000F005BE000008480047E2
:1001E000FEE7FEE7FEE7FEE7FEE7FEE7FEE7FEE7E7
:1001F000FEE7FEE703480449044A054B7047000048
:10020000ED00000890090020900F0020900B0020C6
:10021000900B0020704770B50024AFF2070572B64E
:1002200059480568280C0004B0F1006F07D0AFF200
:100230001B005549086062B6FFF7ECFF18E0AFF20B
:100240002B00854203D162B6FFF7E4FF10E00024E3
:1002500006E04D49601C51F8200041F82400641C60
:10026000142CF6D9AFF253004749086562B6A84787
:1002700070BD0146002072B604E0401C142801D96C
:1002800062B67047404A52F82020AFF277039A4294
:10029000F3D13D4A42F8201062B600BFF1E710B535
:1002A00000243A480068401C3849086000BF23E039
:1002B000374850F83400AFF2A301884200D11AE069
:1002C000334800EBC4008088012809D0304800EB97
:1002D000C4008088401E2E4901EBC401888009E0DB
:1002E0002B4951F83400FFF7C4FFAFF2D70028497B
:1002F00041F8340000BF641C142CD9D310BD23482E
:100300000068704730B502460B4672B6002016E012
:100310001F4C54F83040944205D11D4C04EBC004EE
:10032000A38062B630BD1A4C54F83040AFF21B15B2
:10033000AC4203D111B981B241F40041401C1428F0
:10034000E6D321F40041124C44F8312004EBC104FF
:10035000A38062B600BFE5E7002000BF0CE0AFF26B
:100360004B11094A42F82010094A42F83010002186
:1003700002EBC0029180401C1428F0D9704710B5E0
:1003800000F0E2FD10BD000080020020000000200F
:10039000D402002008B502464FF6FF7000900DE031
:1003A00012F8010BBDF80030DBB25840074B33F8B0
:1003B0001000BDF8003080EA23200090081EA1F153
:1003C0000103D9B2ECD1BDF8000008BD7655000894
:1003D0005848806940F01D00564988615648406879
:1003E00040F00070544948605448006820F4404090
:1003F000524908600846006840F440500860704761
:10040000B0F5C05F05D100214D4A118001214D4A50
:100410001180B0F5807F05D10021494A1180022169
:10042000484A118046490988491C89B2444A1180CA
:1004300021290BDBB0F5C85F02D10321414A1180AD
:10044000B0F5885F02D104213E4A1180704700B5A3
:100450003D480078032819DA3848806848F20301DB
:1004600008403A49384A127821F8120038480068A2
:1004700000F4C8503749344A127821F81200324843
:100480000078401C30490870002000BD00202E4933
:1004900008702E4800882D49498808402B49498812
:1004A0002A4A92881140084328490988274A928895
:1004B00011400843C0432849088026480088254940
:1004C0004988084023494988224A928811400843B4
:1004D000204909881F4A9288114040EA01031846C2
:1004E000FFF78EFF0120D0E71B49098801F00201C8
:1004F00019B10021194A118002201749098801F019
:10050000010119B10021154A1180032013490988FE
:10051000491C89B2114A1180642905DB0E490988FA
:1005200001F0030101B90120704706480088C0B2FC
:100530007047000000100240000001400010014020
:100540001C0000200A0000200C0000200E000020EB
:100550000808014014000020080000201A000020B4
:1005600001B500BFBDF80000401E80B20090002819
:10057000F8D108BDAC48006800F03330AA490860E3
:100580000846006840F0333008607047A6480068AD
:1005900000F0CC30A44908600846006800F0333011
:1005A00008600846006840F04430086070479F4883
:1005B000806940F01C009D4988619D48006820F4D6
:1005C0004C009B4908609B48006840F6CC4188433A
:1005D00098490860081D006820F44C40091D086017
:1005E0009348006840F408109149086091480068F9
:1005F00040F2222108438F490860081D006840F43A
:100600000850091D0860704710B54FF48060894993
:10061000103108601420FFF7A3FF4FF08060854978
:10062000103108601420FFF79BFF10BD10B510209B
:100630007F49086180037F4910310860022008600B
:10064000FFF7A4FFFFF7E0FF774808300068C4B267
:100650004FF48010764908618010764910310860A7
:1006600040100860FFF786FF204610BD70B50446B5
:100670000D4625B104206F491031086004E04FF4A5
:1006800080206C491031086067480C30006800F425
:100690007F40204364490C3108601420FFF760FF5D
:1006A000FFF7B2FF70BD28B14FF40061614A10320C
:1006B000116004E04FF000615E4A10321160704733
:1006C00010B5FFF774FF01205A491031086000BFD0
:1006D000FFF7ACFF00F010000028F9D110205449BA
:1006E0000861202008610021B820FFF7BFFF00212A
:1006F0004020FFF7BBFF0021C020FFF7B7FF00211C
:100700003F20FFF7B3FF00BFFFF790FF00F020008E
:100710000028F9D14FF4006046491031086010BD3F
:100720004548704710B500244448007810B10128AE
:100730006FD136E04FF400103D4908611020086188
:100740003F490978B831C8B20021FFF78FFF002177
:100750004020FFF78BFF00240CE03A490A88098803
:10076000491C384B19803449885C0121FFF77EFF12
:10077000601CC4B2402CF0DB324800884030314964
:1007800008802F480078401CC0B22D490870082806
:1007900006DB002008702B490880012027490870DB
:1007A00037E04FF480102249086120200861244975
:1007B0000978B831C8B20021FFF758FF0021402066
:1007C000FFF754FF1F48008840301E49088000246E
:1007D0000CE01C490A880988491C1A4B19801649E3
:1007E000885C0121FFF742FF601CC4B2402CF0DBA3
:1007F00013480078401CC0B211490870082807DB74
:10080000002008700F4908800C490870012010BDB5
:1008100000BF00BF0020FAE710B500BFFFF782FF5E
:100820000028FBD010BD000000080140001002406D
:1008300000100140000C01407C0300201F0000203C
:100840001E000020200000205348C06940F0C05026
:100850005149C8615148006840F480704F490860B0
:100860004D48006A00F40040B0F5004F3BD04A48C4
:10087000006A40F48030484908620846006A20F463
:10088000803008620846006A40F40140086244482B
:10089000008840F010004249088047F6FF70404948
:1008A000083108803E48008820F010003C4908804C
:1008B0003948006A40F001003749086200BF3648F5
:1008C000006A00F001000028F9D0354800884FF692
:1008D000F77108403249088000BF3148008800F0B5
:1008E00008000828F9D12E48008840F010002C4953
:1008F00008800120091F0880081D008820F01000D2
:10090000091D08800320012181404209920002F163
:10091000E022C2F8001100BF70472148183000885B
:100920001F491431098840EA014070471C49098871
:1009300041F010011A4A1180010C194A1432118039
:10094000121D10801649098821F01001144A1180E7
:1009500070471348008800F0010028B11048008853
:1009600020F001000E4908800D48008800F00200C8
:1009700028B10B48008820F0020009490880084887
:10098000008800F0040028B10548008820F0040029
:1009900003490880704700000010024000700040CA
:1009A0000428004000BF011EA0F1010290B2FAD15C
:1009B000704710B50446204600F014F910BD10B57C
:1009C00004464FF080505A4908600A20FFF7EAFFBA
:1009D0002046FFF7EEFF4FF480505549086010BDE8
:1009E00070B505464020FFF7EAFF4FF080505049B0
:1009F0000860C020FFF7DDFF002404E0285DFFF75A
:100A0000D8FF601CC4B2092CF8D34FF48050484979
:100A100008600320FFF7D3FF8A20FFF7D0FF70BDE7
:100A200070B5054600244FF08050414908604220CF
:100A3000FFF7BFFF002000F0BAF800BF04E000F0AD
:100A4000F9F82855601CC4B2052CF8DB012000F031
:100A5000AEF84FF480503649086070BD10B50024E0
:100A60003449097801EB8101334A8818FFF7D8FF30
:100A70003048007800EB80002F49085C00F024002B
:100A800018BB2C48007800EB80000844407800F048
:100A90002400D0B92748007800EB80000844807813
:100AA00000F0240088B92348007800EB8000084457
:100AB000C07800F0240040B91E48007800EB8000A8
:100AC0000844007900F0240018B10020194908708A
:100AD00004E018480078401C164908701548007852
:100AE000032820D1002013490870002417E0124881
:100AF000005D1149491D095D08400F49491D095D07
:100B00000D4A0A32125D114008430B490A5D0A3151
:100B1000095D0A40104309490855601CC4B2052C00
:100B2000E5DB012010BD0020FCE704487047000011
:100B3000100C0140270000207C070020220000202C
:100B400059480068594908405749086008460068F4
:100B500040F4403008600846006840F40000086037
:100B60000846006840F4401008600846006840F0FD
:100B7000806008600846006840F000400860084651
:100B8000006840F0405008604948C06940F4804027
:100B90004749C861002047490880091D0880081F8F
:100BA000008848F2E73108434249088070474149CC
:100BB000098821F040013F4A1180012805D11146E2
:100BC000098841F48041118005E03A49098821F4FF
:100BD0008041384A11803749098841F04001354A3F
:100BE0001180704708B50021009106E00099491C6A
:100BF0000091B1F5A04F00D908BD2E4908310988F0
:100C000001F002010029F1D00021009129490C31A5
:100C1000088006E00099491C0091B1F5A04F00D969
:100C2000EAE724490831098801F080010029F1D15F
:100C300000BFE1E708B50020009007E00098401CE5
:100C40000090B0F5A04F01D9002008BD1948083028
:100C5000008800F080000028F0D10090FF201549A6
:100C60000C31088007E00098401C0090B0F5A04FC0
:100C700001D90020E9E70F480830008800F00100A2
:100C80000028F0D00B480C300088C0B2DDE70948DE
:100C90000830008807480830008806480830008877
:100CA0000448083000887047040C0140FFFF3333CC
:100CB000001002400038004000210020814A1268E4
:100CC00042F480327F4B1A6000BF7E4A126802F401
:100CD0000030491C10B9B1F5A06FF6D1794A1268FD
:100CE00002F400320AB1012000E00020012843D1C3
:100CF000754A126842F01002734B1A601A46126865
:100D000022F003021A601A46126842F002021A60C8
:100D10006C4A526842F480626A4B5A601A465268C2
:100D200022F47C125A601A46526842F4E8125A6061
:100D30001A46126842F080721A6000BF614A126857
:100D400002F00072002AF9D05E4A526822F00302D3
:100D50005C4B5A601A46526842F002025A6000BF69
:100D6000584A526802F00C02082AF9D1554A126812
:100D700042F40022534B1A60704700B55148006896
:100D800040F001004F490860084640684F4908405C
:100D90004C494860084600684D4908404949086088
:100DA0000846006820F4802008600846406820F467
:100DB000FE0048604FF41F008860FFF77DFF454844
:100DC000414948604448486000BD10B501F074F8DE
:100DD00042A001F03AFB0121084601F0EFF901F0D1
:100DE0005DF810BD2DE9F04104466569A669E76923
:100DF00001F062F80121084601F0E0F938A001F0A5
:100E000024FB0221012001F0D9F938A001F01DFBDB
:100E1000304601F088FC0321012001F0CFF936A013
:100E200001F013FB384601F07EFC0421012001F0A3
:100E3000C5F934A001F009FB284601F074FC052136
:100E4000012001F0BBF932A001F0FFFA334800683D
:100E500001F069FC01F026F8BDE8F08110B501F061
:100E60002BF80121084601F0A9F92DA001F0EDFAB7
:100E700001F014F810BD10B501F01EF8012108466C
:100E800001F09CF929A001F0E0FA01F007F810BD8B
:100E900010B501F011F80121084601F08FF926A0E4
:100EA00001F0D3FA00F0FAFF10BD10B501F004F81C
:100EB0000121084601F082F922A001F0C6FA00F0F3
:100EC000EDFF10BD00100240002002400000FFF0C6
:100ED000FFFFF6FE23016745AB89EFCD4E4D49007C
:100EE000486172644661756C7400000050432020B4
:100EF0002020203D00000000505352202020203DA3
:100F0000000000004C5220202020203D0000000066
:100F10005461736B4164723D0000000004000020C6
:100F20004D656D4D616E61676500000042757346E9
:100F300061756C74000000005573616765466175EA
:100F40006C7400005356430003484FF0E0214861A1
:100F500088610720086170473F19010010B50446F9
:100F6000201D8549C8640846406C40F01000486464
:100F70000846406C40F0800048640846406C40F0F1
:100F8000020048640E2000F0EBF810BD70B5044676
:100F90007A48006820F44C60784908600846006888
:100FA00040F0B00008600846006840F480600860C7
:100FB0007348806940F480407149886171480480B9
:100FC000001D008820F480506E49091D0880081D0E
:100FD000008820F44050091D088042F22C00091FAF
:100FE000088068480C30008840F0800065490C316A
:100FF000088025200F21002807DA0A07150E624A0B
:1010000000F00F031B1FD55403E00A07130E5F4ABD
:10101000135400BF252000F0A3F85948406940F060
:1010200001005749486157480838FFF797FF70BDDE
:1010300040B15449091D098841F00401514A121D6B
:10104000118007E04F49091D098821F004014D4A2C
:10105000121D1180704700224D4B1A801A46917064
:101060005060484A121D128822F00402454B1B1D95
:101070001A800278434B1B1F1A80424A121D1288A5
:1010800042F048023F4B1B1D1A8070474148704791
:101090003C48083800883B48001F0088704710B55E
:1010A00038480838008800F0200090B135480838EA
:1010B000008800F00F0038B9324A121F1288D0B2EF
:1010C000344A1168884704E0FFF7E2FF3149486875
:1010D00080472C480838008800F0080020B1FFF74E
:1010E000D7FF2C494868804726480838008800F018
:1010F000400050B12749886880472248001D008879
:1011000020F040001F49091D08801E48083800884B
:1011100010BD194A526C22F00102174B5A641A464C
:1011200010659164526C42F001025A647047124893
:10113000006800F4005090B10F48406840F400503F
:101140000D4948600846406C20F0010048640D4895
:10115000001D008840F040000A49091D08807047C2
:1011600000F01F02012191404209920002F1E022A9
:10117000C2F800117047000000000240040801405E
:10118000001002400838014018ED00E000E400E0E3
:10119000280000208C0700202E480088401C2D4984
:1011A000088008460088322190FBF1F201FB120012
:1011B00028B92948007880F001002749087025489F
:1011C0000088642190FBF1F201FB120028B922484B
:1011D000007880F00200204908701E480088FA213B
:1011E00090FBF1F201FB120028B91B48007880F057
:1011F000040019490870174800884FF4FA7190FBF1
:10120000F1F201FB120028B91348007880F00800C1
:10121000114908700F4800884FF47A7190FBF1F281
:1012200001FB120040B90C48007880F010000A4918
:101230000870002007490880704701460120884057
:10124000054A1278104010B14FF6FF707047002029
:10125000FCE70000320000203000002070B50020C4
:10126000854908704870002428E0FFF75EFC005DA7
:1012700000F002008501FFF758FC005D00F010004F
:1012800045EA8000610008417B49097808437A49B2
:101290000870FFF74AFC005DC007050EFFF745FC2C
:1012A000005D00F0080045EAC00061000841724995
:1012B0004978084370494870601CC4B2042CD4DBE0
:1012C0006D4800786C49497840EA01206A494880B5
:1012D00070BD6A48704710B50024FFF7BFFBD8B156
:1012E000FFF7BCFF644844886448046064480068B1
:1012F000604020406149486061480068A0438860C0
:101300000846C068496848405C49C86001200861D7
:101310005B480460012010BD0020FCE756480078BF
:10132000704755484078704701465448006801228C
:101330008A401040704701465048406801228A4068
:101340001040704701464D48806801228A40104095
:10135000704701464948C06801228A4010407047E2
:101360004649C968012282409143444AD16070478E
:1013700030B503460D4614461888A84200DA1D8091
:101380001888A04200DD1C800B20FFF7CDFFE0B1E4
:101390001888A84200D130BD3A4800880B2806D0F2
:1013A0000B20384908801888401E188033E03648E2
:1013B0000088401C80B23449088032282BDB188812
:1013C000401E18802D20088025E00C20FFF7ACFF80
:1013D000E0B11888A04200D1DDE72A4800880C2837
:1013E00006D00C20274908801888401C188012E07D
:1013F00025480088401C80B22349088032280ADB37
:101400001888401C18802D20088004E000201D4909
:1014100008801D49088000BFBDE730B503460C4673
:1014200015460D20FFF780FF70B11888A04200D14B
:1014300030BD164800880D281CD00D2013490880A7
:101440001888401E188015E00E20FFF76DFF70B160
:101450001888A84200D1EBE70C4800880E2809D074
:101460000E200A4908801888401C188002E00020DD
:101470000649088000BFDBE73900002098070020FC
:1014800040000020460000204400002048000020CA
:1014900010B50024FFF749F8032803D0FFF745F8FB
:1014A000042801D144F4805403F04DFD0078042851
:1014B00001D144F4807403F046FD0078052801D181
:1014C00044F4007403F03FFD4078502801DB44F4FD
:1014D000806403F038FD8078032801D144F400646F
:1014E000002003F0EBFB032801DB44F01004012093
:1014F00003F0E4FB032801DB44F02004022003F0A6
:10150000DDFB032801DB44F04004032003F0D6FB9D
:10151000032801DB44F08004002003F03CFC042895
:1015200001D344F00104012003F035FC042801D369
:1015300044F00204022003F02EFC042801D344F0FE
:101540000404032003F027FC042801D344F008041A
:1015500003F050FD80780221B1EB101F01DC44F450
:10156000804403F047FDC0780221B1EB101F01DC7D
:1015700044F4004403F03EFD00790221B1EB101F5A
:1015800001DC44F480340948046009480068604084
:1015900020400649486006480068A0438860044827
:1015A000046010BD0020704700487047AC07002061
:1015B0004C00002010B5EB48FFF712FA10BD0146B1
:1015C000E84A002002E01154431CD8B20928FAD39B
:1015D000704770B502460C46E249082A05DB1546FD
:1015E000D61702EB5676C6F3C700A2EBC005EBB2E6
:1015F000302A0CD0312A0AD0322A08D0332A06D019
:10160000342A04D00D5C03269E40B5430D54012CB2
:1016100005D10D5C01269E4035430D5414E0022C8B
:1016200005D10D5C02269E4035430D540CE0032C81
:1016300005D10D5C03269E4035430D5404E00D5C3E
:1016400003269E40B5430D5470BD012807D1C549FE
:10165000897921F008010831C24A917105E0C14938
:10166000897921F00801BF4A91717047012807D19B
:10167000BC49897921F010011031BA4A917105E015
:10168000B849897921F01001B64A91717047012853
:1016900007D1B449897921F00401091DB14A91713A
:1016A00005E0B049897921F00401AE4A9171704793
:1016B000012807D1AB49897921F00201891CA94A87
:1016C000917105E0A749897921F00201A54A91713C
:1016D0007047A449897821F00101A24A917011460E
:1016E000897821F002019170012806D1114689788C
:1016F00021F00101491C917018E0022807D1994995
:10170000897821F00201891C964A91700EE0032825
:101710000CD19449897821F00101491C914A9170BA
:101720001146897821F00201891C917070478D491A
:10173000897821F040018B4A91701146897821F017
:1017400080019170012806D11146897821F040016D
:101750004031917018E0022807D18249897821F040
:10176000800180317F4A91700EE003280CD17D49C1
:10177000897821F0400140317A4A91701146897888
:1017800021F0800180319170704770B50446032CC0
:1017900003DC0120FFF7CBFF0FE0042C03D1022074
:1017A000FFF7C5FF09E0052C07D10220FFF745FD33
:1017B00000F003052846FFF7BAFF70BD6949897834
:1017C00021F01001674A91701146897821F02001BB
:1017D0009170012806D11146897821F0100110314D
:1017E000917018E0022807D15E49897821F0200124
:1017F00020315C4A91700EE003280CD15949897858
:1018000021F010011031574A91701146897821F06A
:10181000200120319170704770B50446402C02D1F0
:101820000120FFF7CBFF3CB90220FFF706FD00F0D7
:1018300001052846FFF7C2FF502C07D10220FFF711
:10184000FCFC00F003052846FFF7B8FF602C02DB24
:101850000220FFF7B3FF70BD4249897821F00401EF
:10186000404A91701146897821F008019170012851
:1018700006D11146897821F00401091D917018E004
:10188000022807D13749897821F008010831354A03
:1018900091700EE003280CD13249897821F00401BF
:1018A000091D304A91701146897821F008010831EC
:1018B0009170704770B50446032C08D10220FFF7E1
:1018C000BCFC00F003052846FFF7C6FF02E001203C
:1018D000FFF7C2FF70BD2DE9F04781460E4617465F
:1018E0009846384603F000FA04464046FFF7A5FC48
:1018F000C5B2304603F0E2F9032819DB032C07DBFD
:1019000005F0030040F002014846FFF762FE22E0C6
:10191000012C07D105F0030040F001014846FFF714
:1019200058FE18E005F003014846FFF752FE12E0AA
:1019300024B900214846FFF74CFE0CE0012C04D1ED
:1019400001214846FFF745FE05E0032C03DB022199
:101950004846FFF73EFE042C02D10120FFF775FE3A
:10196000BDE8F087B80700204FF08040CF490861FC
:10197000CF48008820F00100CD490880704710B59D
:10198000CC48C078801EC4B22146CA48FEF702FD8A
:10199000C849085310BD70B504460D46C4480078C8
:1019A00000F0010000B170BD4FF48040BF490861F4
:1019B00029462046FFF7ADFBBD48008820F0010016
:1019C000401CBB49088000BFEDE70020BA49087001
:1019D00048708870C870704731B5B74CB748007808
:1019E000401CB6490870E07800283FD09DF80020E0
:1019F00008460078801F611D0A54E078AF490978D5
:101A0000884276DC0020AD490870E078801EC1B2C3
:101A10002046FEF7BFFCE178214431F8021C8842E1
:101A200021D1A078012802D0022810D107E0A048D7
:101A3000008820F00400001D9D4908800BE09C48B0
:101A4000008820F00400001D9949088003E0FFF79A
:101A5000BCFF002038BD00BFFFF7B7FF002098494A
:101A600008800120F6E7FFF7B0FF42E020787228F7
:101A70000CD06078A52809D0A07838B99DF800006E
:101A8000722803D19DF80000207032E0207872287F
:101A90000CD16078A52809D0A07838B99DF800004D
:101AA000A52803D19DF80000607022E020787228FC
:101AB0000BD16078A52808D1A07830B99DF8000036
:101AC00018B19DF80000A07013E0207872280BD1A7
:101AD0006078A52808D1A07830B19DF8000018B131
:101AE0009DF80000E07004E0002074490870FFF7E2
:101AF0006CFF0020AEE710B57248806940F010001E
:101B0000704988616948406820F0406067494860D2
:101B10000846406840F0407048604FF49070FFF70E
:101B200035FAFFF7B3FA68490160FFF7AFFA674982
:101B30004160FFF7ABFA6649816010BD60480088DC
:101B4000B0F57A7F0BD85E480088401C5C4908805D
:101B50005748008820F002005549088006E05448A4
:101B6000008820F00200801C5149088070475048CE
:101B7000704758487047504870474E48704710B5F6
:101B80004C4C72202070A52060700220A0701120A3
:101B9000E070FFF7F4FEE1782046FFF7FCFE10BD91
:101BA00070B5FFF7EAFF441DFFF7E3FF0078123836
:101BB000112862D2DFE800F009121B20252A4049D3
:101BC0006161616161614E535C00FFF7D6FF1221D4
:101BD000017103F055F80079A0715FE0FFF7CDFFC8
:101BE0001321017103F04CF88079E07156E0FFF7A2
:101BF000C4FF1421017151E0FFF7BFFF15210171EE
:101C00004CE0FFF7BAFF1621017147E0FFF7B5FF7F
:101C10001721017103F0BDF84078207103F0B9F885
:101C20000078A07103F0B5F84088206003F0B1F8A7
:101C3000051D0020287031E0FFF79FFF182101717A
:101C400003F08EF98089206028E0FFF796FF1921C4
:101C5000017123E0FFF791FF202101711EE0FFF7E2
:101C60008CFF2121017103F06EF90079207115E0DC
:101C7000FFF783FF2221017110E0FFF77EFF1121A2
:101C80000171FEF752FC2071FEF72EFC6071FFF728
:101C900048FB2072FFF742FB607200BF00BFFFF7F6
:101CA00068FF00210170FFF76AFF70BD001001405E
:101CB0005000002021080020C1070020540000200F
:101CC0005200002000100240D9190008CB1900086A
:101CD00069190008550000204CF6BB406549088092
:101CE0004AF69920488048F67700888046F2556089
:101CF000088144F23340488142F2112088817047C4
:101D00005D49086070475C480068704759487047F3
:101D1000F0B501464AF6C0050D444AF6C006B5FBCB
:101D2000F6F5564E354468080725B0FBF5F605FB79
:101D30001605504EF58047F62C5528448500ED1CBD
:101D40004F4EB5FBF6F5ECB235466543A0EBA5006A
:101D50008500ED1C40F2B556B5FBF6F5EBB2354605
:101D60005D43A0EBA50000EB8005AD1C9926B5FBFB
:101D7000F6F5EAB202EB021505EBC505AD1C05262A
:101D800095FBF6F5451B6D1C3A4EB5800A2592FB76
:101D9000F5F6D51C0C2707FB1655364E75800A251F
:101DA00092FBF5F6642505FB0435A5F596553544FB
:101DB000304E35804FF46165B1FBF5F51826B5FB63
:101DC000F6F706FB17552B4E35813C25B1FBF5F593
:101DD0003C26B5FBF6F706FB1755264E75813C25CC
:101DE000B1FBF5F605FB1615224EB581F0BD70B5B9
:101DF00001464D88C5F10E050C2695FBF6F5EBB2B4
:101E00000D8805F59655ED1AAAB24D8806FB0355C7
:101E1000ED1EECB28D88681E04EB041505EBC505BC
:101E2000AD1C052695FBF6F5284440F26D1505FB23
:101E3000020000EBA200642592FBF5F5401B4FF475
:101E4000C87592FBF5F52844A0F5FA402D380D4DE4
:101E5000401B0D4D68430D89C5EB4516C6EB0525A6
:101E600000EB05104D89C5EB051500EB85008D894C
:101E7000284470BD8108002058000020177B4A00CC
:101E8000B13A02008B3D25008051010010B5FEF7EC
:101E900017FCFEF745FCFE49086010BD10B5FEF7C3
:101EA00041FC10BD10B5FEF7B7FC10BD10B50446DF
:101EB0002046FEF7F8FB10BD002005E00021F44AA3
:101EC00012681154411C88B2B0F5806FF6DB704780
:101ED000002005E0FF21EE4A12681154411C88B22F
:101EE000B0F5806FF6DB7047F0B50446802C01DC5E
:101EF000402900DDF0BD0E46CF1701EB5777FF10EC
:101F000004EBC717BDB2CF1701EB5777FF10A1EB5A
:101F1000C707BBB2DE4E3668705D1AB901269E4017
:101F2000B0430CE0012A04D101269E400643B0B222
:101F300005E0022A03D101269E404640B0B2D44FAC
:101F40003F68785500BFD5E72DE9F84F04460D46A8
:101F500091469A4600260027B3460020009080460E
:101F6000802C07DCB9F1800F04DC402D02DCBAF1D3
:101F7000400F01DDBDE8F88FAAEB0506A9EB0407C9
:101F8000002E04DA76424FF0FF30009001E001208D
:101F90000090002F03DA7F424FF0FF3B01E04FF04B
:101FA000010B76007F00E9B2E0B20A9AFFF79CFFCE
:101FB000B74213DDA6EB67080DE0B8F1000F03DBB5
:101FC00000980544A8EB07085C44B044E9B2E0B2CD
:101FD0000A9AFFF789FF4C45EFD112E0A7EB66089C
:101FE0000DE0B8F1000F02DB5C44A8EB0608009896
:101FF0000544B844E9B2E0B20A9AFFF775FF5545C7
:10200000EFD100BFB6E72DE9F04705460E469046F2
:102010009A4600240027A146802D03DD402E01DDD5
:10202000BDE8F0874FFA88F70320A0EB48004FFA8D
:1020300080F951E0F219D1B22A19D0B25246FFF715
:1020400053FFF21BD1B22A19D0B25246FFF74CFF10
:10205000F219D1B22A1BD0B25246FFF745FFF21B4C
:10206000D1B22A1BD0B25246FFF73EFF3219D1B28D
:10207000EA19D0B25246FFF737FF321BD1B2EA1944
:10208000D0B25246FFF730FF3219D1B2EA1BD0B2BC
:102090005246FFF729FF321BD1B2EA1BD0B252469B
:1020A000FFF722FFB9F1000F09DA2046611C4CB29C
:1020B000062101EB800048444FFA80F90CE02046ED
:1020C000611C4CB239467A1E57B2401A0A2101EB04
:1020D000800048444FFA80F9BC42ABDD00BF9FE767
:1020E0002DE9F84F07460D4690461E46DDF828A01C
:1020F000BAF1640F01DDBDE8F88F01203346424696
:10210000314600903846FFF71FFF01203346424614
:10211000294600904046FFF717FF012033463A4614
:10212000294600903846FFF70FFF01202B46424614
:10213000294600903846FFF707FF01206B1EA8F1E3
:102140000702691E0090F81DFFF7FEFE0120AB1E7E
:10215000A8F10702A91E0090F81DFFF7F5FE701BFD
:10216000C01E00FB0AF0642190FBF1F000F0FF09B3
:1021700000240BE001200090B01E031BA8F1020216
:10218000011BB81CFFF7E0FE601CC4B24C45F1DB3C
:10219000701BC01E00F0FF0B5C460BE0002000909F
:1021A000B01E031BA8F10202011BB81CFFF7CCFEF6
:1021B000601EC4B24C45F1DC00BF9CE718280ADC65
:1021C000082908DC4A1ED301421E02EB420203EB3F
:1021D0004202304B1A807047002004E000212E4A52
:1021E0001154411CC8B22028F8DB704730B50146B5
:1021F00000200FE001EB81020244284B9B5C254A42
:1022000014881288521C234D2A80214A12681355C3
:10221000421CD0B20528EDDB00241E4A1388128828
:10222000521C1C4D2A801A4A1268D45430BDF0B595
:10223000044600210022002000235AE004EB84051C
:102240001D44164E705D00F0010505EB450200F0DF
:10225000020505EB450542EA450200F0040505EBE1
:10226000450542EA850200F0080505EB450542EA0E
:10227000C505EAB2001100F0010505EB450100F0CB
:10228000020505EB450541EA450100F0040507E0BC
:102290005C000020600000209008002076500008BC
:1022A00005EB450541EA850100F0080505EB45050C
:1022B00041EAC505E9B2FE4D2D68FE4E3688AA55A5
:1022C000FB4D2E68FB4D2D886D1C7255F84D2E6808
:1022D000F84D2D8880357155F54D2E68F54D2D88BA
:1022E00081357155F34D2D88AD1CF24E35805D1C46
:1022F000EBB2052BA2DB0026EE4D2F882D886D1C3E
:10230000DFF8B0C3ACF80050E94D2D68EE556546D6
:102310002F882D886D1CACF80050E54D2D68EE55CA
:10232000F0BD70B505460E4631462846FFF746FF1C
:10233000002408E0E048005D18B1DF49085DFFF7C0
:1023400076FF601CC4B2C5F10C00A042F2DCFFF7BE
:1023500043FF70BDF0B50446002100220020002399
:1023600045E004EB84051D44D44E705D00F001058A
:1023700005EB450200F0020505EB450542EA450282
:1023800000F0040505EB450542EA850200F008056A
:1023900005EB450542EAC505EAB2001100F001056A
:1023A00005EB450100F0020505EB450541EA450155
:1023B00000F0040505EB450541EA850100F008053C
:1023C00005EB450541EAC505E9B2B94D2D68B94EA1
:1023D0003688AA55B64D2E68B64D2D888035715574
:1023E000B44D2D886D1CB34E35805D1CEBB2052BB2
:1023F000B7DB0026AF4D2F882D886D1CDFF8B4C2E7
:10240000ACF80050AA4D2D68EE55F0BD70B50546EC
:102410000E46162D02DD052E00DD70BD3146284624
:10242000FFF7CCFE002408E0A348005D18B1A249E4
:10243000085DFFF78FFF601CC4B2C5F11600A04213
:10244000F2DCFFF7C9FE00BFE7E730B50446002520
:10245000FFF7C2FE05E014F8010BFFF7C7FE681C8A
:10246000C5B220780028F6D1284630BD70B50546A3
:102470000021B820FEF7FAF800214020FEF7F6F818
:10248000002405E0285D8A4909680855601C84B26B
:10249000B4F5806FF6DB70BD3FB504460025E4B1AE
:1024A0000EE00A20B4FBF0F100FB11403030294669
:1024B0006A1CD5B201AA50540A20B4FBF0F400956E
:1024C000002CEED106E0691EC9B20D4601AA505C8F
:1024D000FFF78CFE002DF6D107E03020FFF786FED7
:1024E0009DF80000401CC0B200909DF8000004B0B0
:1024F00030BD7CB504460D46B4F5803F45DA052D68
:1025000043DA42F2107094FBF0F0C0B28DF8040090
:1025100042F2107094FBF0F100FB114084B24FF4D2
:102520007A7094FBF0F0C0B28DF803004FF47A702B
:1025300094FBF0F100FB114084B2642094FBF0F0B6
:10254000C0B28DF80200642094FBF0F100FB114052
:1025500084B20A2094FBF0F0C0B28DF801000A208A
:1025600094FBF0F100FB1140C0B28DF80000002692
:1025700009E0691E891B1DF8011001F13000FFF709
:1025800035FE701CC6B2AE42F3DB681CC0B27CBD27
:10259000FCB504460E46174642F2107094FBF0F06C
:1025A000C0B28DF8040042F2107094FBF0F100FB11
:1025B000114084B24FF47A7094FBF0F0C0B28DF801
:1025C00003004FF47A7094FBF0F100FB114084B2E9
:1025D000642094FBF0F0C0B28DF80200642094FBFC
:1025E000F0F100FB114084B20A2094FBF0F0C0B27D
:1025F0008DF801000A2094FBF0F100FB1140C0B2FD
:102600008DF80000002511E0C5F103011DF801104F
:1026100001F13000FFF7EAFD002E05DD701EA84233
:1026200002D12C20FFF7E2FD681CC5B2042DEBDBC4
:102630003846FFF70AFF0720FCBD7CB504460D466F
:10264000B4F5803F4FDA052D4DDA42F2107094FB5D
:10265000F0F0C0B28DF8040042F2107094FBF0F17B
:1026600000FB114084B24FF47A7094FBF0F0C0B2DA
:102670008DF803004FF47A7094FBF0F100FB1140E9
:1026800084B2642094FBF0F0C0B28DF802006420A4
:1026900094FBF0F100FB114084B20A2094FBF0F0AF
:1026A000C0B28DF801000A2094FBF0F108E00000B0
:1026B0005C00002060000020900800207650000898
:1026C00000FB1140C0B28DF80000002609E0691E31
:1026D000891B1DF8011001F13000FFF7A8FD701CE7
:1026E000C6B2AE42F3DB7CBD70B506460C4615465D
:1026F000601CC1B23046FFF761FD2846FFF7A5FE1A
:1027000070BD10B50446092C03DC04F13000FFF75E
:102710006DFD0A2C06DB0F2C04DC04F1570188B296
:10272000FFF764FD10BD30B5044615A0FFF78DFE20
:10273000250F2846FFF7E5FFC4F303652846FFF79A
:10274000E0FFC4F303552846FFF7DBFFC4F303455E
:102750002846FFF7D6FFC4F303352846FFF7D1FF1D
:10276000C4F303252846FFF7CCFFC4F3031528461E
:10277000FFF7C7FF04F00F052846FFF7C2FF30BD83
:102780003078000038B5044601210846FFF716FDF1
:102790002046FFF75AFE01211120FFF70FFDFFF73A
:1027A000B5FA058902212846FFF7A3FEFFF7AEFA26
:1027B000007B00F0010018B13A20FFF717FD02E09E
:1027C0002020FFF713FDFFF7A1FA458902212846D3
:1027D000FFF78FFE01200A237F2219460090002078
:1027E000FFF7B2FB01200B237F2219460090002047
:1027F000FFF7AAFB01200C237F221946009000203E
:10280000FFF7A2FB38BD7047014601EB410000EB2A
:102810000112FE4800EB82007047FC48001F704721
:102820000020FA49091F08804880704710B5FFF75B
:1028300043FBF748FFF71AFEFFF734FB10BD08B55E
:1028400001203F230022082100901046FFF77CFB67
:10285000012008237F22194600900020FFF774FB17
:1028600001203F237F22082100901046FFF76CFBD8
:1028700001203F230022194600907F20FFF764FBD0
:10288000E4480088401C80B2E2490880052818DB33
:1028900000200880E0480088401CDF490880DF48AD
:1028A0000088401CDD490880084600887F2801DB3D
:1028B00000200880D84800881C2802DB0020D64968
:1028C0000880D5480078401EC2B2012324213F2051
:1028D000FFF799FBD0480278012324213F20FFF71E
:1028E00092FB012023230090CC4802883F21084618
:1028F000FFF72AFB01200090C8480088421E2323CE
:102900003F213E20FFF720FB01200090C3480088B4
:10291000821E23233F213D20FFF716FB012000905C
:10292000BE480088C0F17F0223233F210846FFF7FD
:102930000BFB01200090B9480088C0F17E022323E0
:102940003F213E20FFF700FB01200090B3480088A4
:10295000C0F17D0223233F213D20FFF7F5FA01203E
:102960000090AE480088C0F17F02232309213F2058
:10297000FFF7EAFA01200090A8480088C0F17E0223
:10298000232309213E20FFF7DFFA01200090A3480E
:102990000088C0F17D02232309213D20FFF7D4FAEE
:1029A0000120232300909D48028809213F20FFF742
:1029B000CBFA0120009099480088421E2323092168
:1029C0003E20FFF7C1FA0120009094480088821E43
:1029D000232309213D20FFF7B7FA08BD10B50446AF
:1029E000242C51D2DFE804F0501216141A181E1CC1
:1029F000222026242A282E2C323036343A383E3CE7
:102A0000424046444A48505050504E4C844810BDB5
:102A10008448FCE78448FAE78448F8E78448F6E706
:102A20008448F4E78448F2E78448F0E78448EEE716
:102A30008448ECE78448EAE78448E8E78448E6E726
:102A40008448E4E78448E2E78448E0E78448DEE736
:102A50008448DCE78448DAE78448D8E78448D6E746
:102A60008448D4E78448D2E78448D0E78448CEE756
:102A70008448CCE78448CAE78448C8E78448C6E766
:102A80008448C4E78448C2E78448FFF7DEFC042199
:102A90002046FFF72EFD0020B9E72DE9F04104465E
:102AA0000D461646ACB903210820FFF787FB00202E
:102AB000FFF7AAFE858146B10020FFF7A5FE8789B2
:102AC00002213846FFF715FD0FE075A0FFF7BDFCAA
:102AD0000BE003210820FFF771FB0020FFF794FEB5
:102AE000878902213846FFF704FDBDE8F0812DE912
:102AF000F04104460D461646ACB904210820FFF704
:102B00005DFB0020FFF780FE058346B10020FFF744
:102B10007BFE078B02213846FFF7EBFC0FE060A03D
:102B2000FFF793FC0BE004210820FFF747FB002090
:102B3000FFF76AFE078B02213846FFF7DAFCBDE893
:102B4000F0812DE9F04104460D4616463046FFF768
:102B5000DFF8681CC5B229462046FFF72FFBFFF7B8
:102B6000D5F8878802213846FFF7C3FC2E20FFF7EF
:102B70003DFBFFF7CBF8478802213846FFF7B9FC49
:102B80002E20FFF733FBFFF7C1F8078804213846F2
:102B9000FFF7AFFC2F20FFF729FB04F10B00C4B2B5
:102BA000A11CC8B22946FFF709FB3A20FFF71EFB1C
:102BB000611DC8B22946FFF701FB3A20FFF716FB5B
:102BC00020462946FFF7FAFAFFF7A0F80789022105
:102BD0003846FFF78EFCE11CC8B22946FFF7EEFA33
:102BE000FFF794F8478902213846FFF782FCA11DC0
:102BF000C8B22946FFF7E2FAFFF788F88789022171
:102C00003846FFF776FCBDE8F08100006800002040
:102C10007A570008300200203202002034020020DF
:102C20006B5E00087B5E0008895E0008975E000806
:102C3000A55E0008B65E0008C45E0008D55E000808
:102C4000E65E0008FA5E00080B5F00081F5F0008E0
:102C5000305F0008445F0008525F0008635F0008AF
:102C6000735F0008865F0008965F0008A95F000890
:102C7000B95F0008CC5F0008DC5F0008EF5F000868
:102C8000FE5F0008106000081F6000083160000847
:102C90004060000852600008666000085E5E000840
:102CA000202000002DE9F04105460E4617461C463F
:102CB00005210A20FFF782FA3A20FFF797FA05214B
:102CC0000D20FFF77BFA3A20FFF790FA7DB9052136
:102CD0000820FFF773FA268127B120890221FFF728
:102CE00008FC0CE0AFF24800FFF7AFFB07E005215E
:102CF0000820FFF763FA20890221FFF7FAFB012D74
:102D00000FD105210B20FFF759FA668127B16089A1
:102D10000221FFF7EEFB0CE0AFF27C00FFF795FB22
:102D200007E005210B20FFF749FA60890221FFF730
:102D3000E0FB022D0FD105210E20FFF73FFAA681FF
:102D400027B1A0890221FFF7D4FB0CE0AFF2B0005D
:102D5000FFF77BFB07E005210E20FFF72FFAA08984
:102D60000221FFF7C6FBBDE8F0812DE9F0410546E1
:102D70000E4617461C4606210A20FFF71FFA2E2092
:102D8000FFF734FA06210D20FFF718FA2E20FFF77F
:102D90002DFA7DB906210820FFF710FAA68027B189
:102DA000A0880221FFF7A5FB0CE0AFF20C10FFF7A3
:102DB0004CFB07E006210820FFF700FAA08802215B
:102DC000FFF797FB012D0FD106210B20FFF7F6F936
:102DD000668027B160880221FFF78BFB0CE0AFF221
:102DE0004010FFF732FB07E006210B20FFF7E6F962
:102DF00060880221FFF77DFB022D0ED106210E20F7
:102E0000FFF7DCF9268027B120880421FFF771FB4A
:102E10000BE0FEA0FFF719FB07E006210E20FFF7ED
:102E2000CDF920880421FFF764FBBDE8F08170B57F
:102E300005460E461446E81CC1B21220FFF7BEF943
:102E4000012E0CD10220FEF7F8F920B1E088012113
:102E5000FFF74FFB07E0EFA0FFF7F7FA03E0E0888A
:102E60000121FFF746FBE81CC1B20D20FFF7A6F9D0
:102E70006EB90220FEF7E1F920B120890221FFF7A7
:102E800038FB08E0AFF2E810FFF7DFFA03E0208933
:102E90000221FFF72EFB70BD10B50446012C03D1B3
:102EA000DD48FFF7D2FA0EE0022C03D1DB48FFF732
:102EB000CCFA08E0032C03D1D948FFF7C6FA02E0A8
:102EC000D848FFF7C2FA10BD0146012901D1D64802
:102ED0007047022901D1D548FAE7032901D1D44826
:102EE000F6E70020F4E770B50546284601F053FFE9
:102EF0000446284601F069FF18B9CB48FFF7A5FA48
:102F000020E0012C03D1C748FFF79FFA1AE0022CFA
:102F100003D1C848FFF799FA14E0032C03D1C6483F
:102F2000FFF793FA0EE0042C03D1BD48FFF78DFAAA
:102F300008E0052C03D1B948FFF787FA02E0B8484A
:102F4000FFF783FA70BD2DE9F04104460D461646A1
:102F5000FEF7B2FF2068FFF715FC3DB1F01CC1B2CF
:102F60001420FFF72BF9B5A0FFF76FFA0020FFF749
:102F70004BFCA04252D103210120FFF71FF96068EA
:102F8000FFF763FA03210720FFF718F92D20FFF759
:102F90002DF9002211460320FFF77FFD04210120B7
:102FA000FFF70CF92069FFF750FA002211460320C1
:102FB000FFF79DFD05210120FFF700F9E069FFF70C
:102FC00044FAFEF7A3FE07463B46002211460320C3
:102FD000FFF768FE06210120FFF7F0F8A06AFFF76F
:102FE00034FAFEF793FE878802213846FFF781FA0C
:102FF0002E20FFF7FBF8FEF789FE478802213846AE
:10300000FFF777FA2E20FFF7F1F8FEF77FFE07882B
:1030100004213846FFF76DFABDE8F0810120FFF783
:10302000F3FBA0427ED103210120FFF7C7F88448BB
:10303000FFF70BFA04210120FFF7C0F88148FFF7E2
:1030400004FA81A0FFF701FA0020FFF74CFF0421EA
:103050000B20FFF7B3F87DA0FFF7F7F9002001F090
:10306000A3FF078902213846FFF743FA78A0FFF74C
:10307000ECF9002001F098FFC78801213846FFF7DE
:1030800038FA05210120FFF799F87248FFF7DDF9BA
:103090006DA0FFF7DAF90120FFF725FF05210B20CE
:1030A000FFF78CF869A0FFF7D0F9012001F07CFF51
:1030B000078902213846FFF71CFA65A0FFF7C5F91A
:1030C000012001F071FFC78801213846FFF711FA8E
:1030D00006210120FFF772F85F48FFF7B6F95AA002
:1030E000FFF7B3F90220FFF7FEFE06210B20FFF7E2
:1030F00065F856A0FFF7A9F9022001F055FF0789EE
:1031000002213846FFF7F5F951A0FFF79EF902209A
:1031100001F04AFFC78801213846FFF7EAF9072185
:10312000012000E025E0FFF749F84C48FFF78DF952
:1031300045A0FFF78AF90320FFF7D5FE07210B20F2
:10314000FFF73CF841A0FFF780F9032001F02CFFC6
:10315000078902213846FFF7CCF93DA0FFF775F942
:10316000032001F021FFC78801213846FFF7C1F98C
:1031700052E70220FFF748FBA04234D1032101208F
:10318000FFF71CF86068FFF760F9A068FFF75DF9CA
:1031900004210120FFF712F82069FFF756F9606952
:1031A000FFF753F905210120FFF708F8E069FFF761
:1031B0004CF9206AFFF749F906210120FEF7FEFFCE
:1031C000A06AFFF742F9E06AFFF73FF90721012003
:1031D000FEF7F4FF606BFFF738F9A08F20A2002103
:1031E000FFF7D6F918E70320FFF70EFBA04268D1DE
:1031F00003210120FEF7E2FF6068FFF726F9A068CF
:10320000FFF723F9042101202CE0000020202020DA
:103210000000000020000000DF5D0008FB5D0008EA
:10322000015E00080A5E0008D95D0008C25D000862
:10323000275E0008BC5D0008B65D00083C3D00004C
:10324000D25B0008E75B00082D0000002D20000085
:10325000202D2000EC5B0008F15B0008F65B000805
:103260006D420000FEF7AAFF2069FFF7EEF86069E3
:10327000FFF7EBF805210120FEF7A0FFE069FFF75B
:10328000E4F801F060FE4078102805D0A08CF7A289
:103290000221FFF77DF902E0F548FFF7D6F8062195
:1032A0000120FEF78BFFA06AFFF7CFF801F04BFE7D
:1032B00090F802804046FFF707FE0746FFF7C5F883
:1032C000AAE60420FFF7A0FAA04251D101F092FE35
:1032D00000884FF6FF71884207D103210120FEF7D5
:1032E0006DFFE448FFF7B1F841E003210120FEF74C
:1032F00065FFE148FFF7A9F801F07CFE0788DBA233
:1033000002213846FFF744F904210120FEF756FF59
:10331000DA48FFF79AF82D20FEF768FF01F06AFE01
:10332000807807093846FFF7B7FD05210120FEF731
:1033300045FFD348FFF789F82D20FEF757FF01F02E
:1033400059FEC07807093846FFF7A6FD062101207F
:10335000FEF734FFCB48FFF778F82D20FEF746FF45
:1033600001F048FE007907093846FFF795FD53E65E
:103370000520FFF749FAA04246D103210120FEF7BC
:103380001DFF0520FFF740FA878904213846FFF723
:10339000B0F8BDA0FFF759F80520FFF735FA078B05
:1033A00004213846FFF7A5F801F0DAFD408910B195
:1033B000B648FFF74AF801F0D3FD808800B92BE644
:1033C00005210120FEF7FAFEB148FFF73EF8A08C78
:1033D0000421FFF78EF801F0C3FD07683A46052186
:1033E0000120FFF7AEFB07210120FEF7E7FE3021A9
:1033F000085DFFF7F3FA30B13021085DFFF7EEFA10
:103400000746FFF722F807E60620FFF7FDF9A0427E
:1034100006D101210846FEF7D1FE9EA0FFF715F860
:1034200000BFF9E510B5FEF747FD04210320FEF7C4
:10343000C5FE9C48FFF709F810BD10B50421012016
:10344000FEF7BCFEFDF771F8012806D002281CD05B
:1034500003280AD0042820D10FE09348FEF7F5FF97
:1034600001213520FEF7B5F817E09048FEF7EDFF93
:1034700003213520FEF7ADF80FE08D48FEF7E5FF9C
:1034800003213520FEF7A5F807E08A48FEF7DDFFA7
:1034900002213520FEF79DF800BF00BF10BD014698
:1034A000102901D184487047402901D18348FAE7A7
:1034B000502901D18248F6E7602901D18148F2E71D
:1034C000702901D18048EEE78048ECE701460129E8
:1034D00001D179487047022901D17848FAE70329D8
:1034E00001D17648F6E7042901D17948F2E70529A8
:1034F00001D17848EEE7062901D17548EAE70020B6
:10350000E8E710B501F01FFD007900F0010058B1A7
:1035100001F019FD04782046FFF7D8FF0346032089
:10352000FFF772F9836004E00320FFF76DF96A4941
:10353000816001F008FD0079C0F3400058B101F04E
:1035400002FD44782046FFF7AAFF03460320FFF759
:103550005BF9436104E00320FFF756F95E494161DE
:1035600010BD70B50546284601F08EFB04460CB927
:10357000514870BD012C01D15048FAE7022C01D10D
:103580005648F6E7032C01D15548F2E7042C01D147
:103590005448EEE7052C01D14948EAE75248E8E7EC
:1035A00010B5044604F0010040B10020FFF7D9FF38
:1035B00003460220FFF728F9836004E00220FFF7AA
:1035C00023F94549816004F0020040B10120FFF772
:1035D000C8FF03460220FFF717F9436104E0022009
:1035E000FFF712F93C49416104F0040040B10220A8
:1035F000FFF7B7FF03460220FFF706F9036204E076
:103600000220FFF701F93449016204F0080040B1DB
:103610000320FFF7A6FF03460220FFF7F5F8C36279
:1036200004E00220FFF7F0F82B49C16210BD10B58D
:103630000446601CC1B20120FEF7C0FD2B48FEF716
:1036400004FF2B48FEF701FF10BD10B50446601CB7
:10365000C1B20120FEF7B2FD2648FEF7F6FE10BD0E
:1036600010B504462046FFF78DF810BD420000005B
:10367000045E0008165D0008C15C0008CC5C000810
:10368000D35C0008DA5C00082F000000F95C000839
:10369000F05C0008454550524F4D20496E666F3A28
:1036A00000000000045D0008425D00082C5D000879
:1036B000565D00086B5D0008105E0008DF5D0008C5
:1036C000F05D00084C5E0008565E0008465E00088B
:1036D0002F5E0008375E00081B5E00080A5E0008C7
:1036E000FB5D0008E55D0008015E0008C75D00089D
:1036F000B25D0008055C000810B503210120FEF74B
:103700005DFD9E48FEF7A1FE04210120FEF756FD57
:103710009B48FEF79AFE9B48FEF797FE9AA0FEF79D
:1037200094FE022001F0E0FA03280CD105210120CB
:10373000FEF744FD9248FEF788FE9248FEF785FEAC
:1037400092A0FEF782FE10BD10B503210120FEF706
:1037500035FD8F48FEF779FE04210120FEF72EFD8E
:103760008748FEF772FE8748FEF76FFE86A0FEF7D9
:103770006CFE05210120FEF721FD8148FEF765FE64
:103780008048FEF762FE81A0FEF75FFE10BD10B517
:1037900003210120FEF712FD7E48FEF756FE0020B1
:1037A00001F013FB032804D1FFF741FF7A48FEF72D
:1037B0004CFE012001F009FB032805D10420FFF78E
:1037C00036FF7648FEF741FE022001F0FEFA03289C
:1037D00005D10520FFF72BFF7148FEF736FE10BD1F
:1037E00010B5044603210120FEF7E8FC6D48FEF702
:1037F0002CFE04F0010030B104210120FEF7DEFCB4
:103800006548FEF722FE04F0020030B105210120D8
:10381000FEF7D4FC6148FEF718FE04F0040030B156
:1038200006210120FEF7CAFC5D48FEF70EFE04F0FB
:10383000080030B107210120FEF7C0FC5A48FEF70E
:1038400004FE04F0100028B10420FFF7FEFE4EA095
:10385000FEF7FBFD04F0200028B10520FFF7F5FE80
:103860004AA0FEF7F2FD04F0400028B10620FFF761
:10387000ECFE4EA0FEF7E9FD04F0800028B1072021
:10388000FFF7E3FE4AA0FEF7E0FD04F4804030B10C
:1038900004210120FEF792FC4648FEF7D6FD04F411
:1038A000004030B105210120FEF788FC4248FEF7B8
:1038B000CCFD04F4803030B106210120FEF77EFCFF
:1038C0003E48FEF7C2FD10BD10B503210120FEF7F2
:1038D00075FC3B48FEF7B9FD002001F005FA012810
:1038E0000BD10421FEF76AFC2548FEF7AEFD254802
:1038F000FEF7ABFD24A0FEF7A8FD022001F0F4F9CD
:1039000001280BD10521FEF759FC1D48FEF79DFD4E
:103910001C48FEF79AFD1DA0FEF797FD10BD10B5DF
:1039200003210120FEF74AFC2648FEF78EFD2D20DC
:10393000FEF75CFC01F005FB447F02212046FEF708
:10394000D8FD03210D20FEF739FC1F48FEF77DFD51
:1039500001F0F7FA847F02212046FEF7CAFDFFF747
:103960006CFD10BD10B5FEF7A7FA04210320FEF789
:103970004DFD1648FEF769FD10BD00006B5D0008A7
:10398000C75D0008055C000831000000320000003F
:103990007A60000888600008E75B0008EC5B0008BC
:1039A000F15B000898600008F65B00083300000037
:1039B00034000000CC5C0008D35C0008DA5C00082E
:1039C000A6600008A55B0008AB5B0008B7600008B4
:1039D000002006E0002100EB80022C4B9954411C92
:1039E000C8B20428F6DB7047002017E000EB800126
:1039F000264A515C012904D1022100EB8002234BAD
:103A0000995400EB8001214A515C022904D1002124
:103A100000EB80021D4B9954411CC8B20428E5DB21
:103A2000704710B500EB8002184B9A5C52B9012226
:103A300000EB8003154CE25400EB800223461A444D
:103A4000C2F8011010BD00EB8001104A515C21B991
:103A5000012100EB80020D4B99547047014601EBA8
:103A600081000A4A105C30B1002001EB8102074B53
:103A70009854012070470020FCE7014601EB8100CB
:103A8000024A1044D0F8010070470000B00800203E
:103A9000002013E02A4931F81010491C284A22F866
:103AA00010102849095C012906D1274931F8101066
:103AB000491C254A22F81010411CC8B20428E9DB31
:103AC000704700200AE000211D4A22F810101E4A0B
:103AD00022F810101B4A1154411CC8B20428F2DB12
:103AE00070470146164830F8110070470021144A0B
:103AF00022F8101070470146134830F81100704743
:103B00000021104A115470470E49095C31B9002157
:103B10000D4A22F8101001210A4A11547047094930
:103B2000095C012902D10221064A11547047054956
:103B3000095C022902D10121024A11547047000098
:103B400036020020460200203E02002001B508E0B7
:103B50004FF0E020006900F4803010B10098401E62
:103B6000009000980028F3D108BD10B5044634B980
:103B70000020FDF79DFD0020FE49086016E0FD488D
:103B800000686040204040B10D20FDF7E9FB0020B7
:103B9000FDF78EFDF748046008E00D20FDF7D9FB26
:103BA00020B10120FDF784FDF248046010BD10B57E
:103BB000F1480078052870D2DFE800F0030B71BDF2
:103BC000BE000B20FDF7BEFB10B10120EA490870D2
:103BD000B4E00220FDF731FB00F001042046FDF7C0
:103BE00056FD0020FDF7B5FB78B10220FDF725FB5F
:103BF00000F0010421462620FDF7EBFCDF480078A9
:103C000040F00100DD49087009E000212620FDF7A1
:103C1000E0FCDA48007820F00100D8490870012063
:103C2000FDF797FB78B10220FDF707FB00F00104D8
:103C300021462420FDF7CDFCD048007840F002005A
:103C4000CE49087009E000212420FDF7C2FCCB48D2
:103C5000007820F00200C94908700B20FDF76BFBCB
:103C600010B10220C44908700C20FDF764FBA8B114
:103C70000B20FDF775FB0C20FDF772FB0020FDF714
:103C80006FFB0120FDF76CFB0020BD490870BA49AD
:103C90000870BA490870012010BD4EE04EE00120C6
:103CA000FDF7F5FC0120FDF7D0FCB448007800F0EA
:103CB000010078B10220FDF7C0FA00F002042146AD
:103CC0002620FDF786FCAE48007840F00100AC49A4
:103CD000087003E000212620FDF77BFCA748007850
:103CE00000F0020078B10220FDF7A7FA00F002040C
:103CF00021462420FDF76DFCA148007840F0020029
:103D00009F49087003E000212420FDF762FC0C208D
:103D1000FDF711FB70B10020FDF722FB0120FDF73C
:103D20001FFB00209649087093490870934908705A
:103D30000120B1E702E001E000E000BF00BF002089
:103D4000AAE710B58F480078072848D2DFE800F0CE
:103D500004333B4344454600FCF7E7FB022803D10C
:103D600001208849087025E00920FDF7E4FA18B120
:103D70000220844908701DE0002001F026F8022886
:103D800004D0012001F021F8022803D103207D494D
:103D900008700FE0032001F018F8032803D1042075
:103DA0007849087006E00B20FDF7C5FA10B1052030
:103DB0007449087014E0FCF7B8FB022802D0002018
:103DC000704908700CE00920FDF7BCFA10B1002022
:103DD0006C49087004E003E002E001E000E000BF8D
:103DE00000BFAFF2A100FCF744FA10BD10B5FDF71B
:103DF0004FFBAFF20700FCF73CFA10BD10B5FEF721
:103E00004DF8AFF20700FCF734FA10BD10B501F021
:103E100098F8C07F012804D15B490870FDF7CAFB00
:103E200010BD5948007820B1002057490870FDF7AF
:103E3000C6FB01F088F804782046FDF7A6FC01F0E7
:103E400082F844782046FDF7E7FC01F07CF884789E
:103E50002046FDF72FFD0220FDF7EFF900F00104E9
:103E60002046FDF736FCFDF79FFB006847490840F8
:103E700020B101213720FDF7ACFB03E00021372002
:103E8000FDF7A7FB002000F019FF03280EDA012040
:103E900000F014FF032809DA022000F00FFF0328C6
:103EA00004DA032000F00AFF032804DB0121382094
:103EB000FDF78FFB03E000213820FDF78AFB00208F
:103EC00000F069FF04280ED2012000F064FF0428EE
:103ED00009D2022000F05FFF042804D2032000F082
:103EE0005AFF042804D301213920FDF772FB03E0B7
:103EF00000213920FDF76DFBFDF756FB04682046D5
:103F0000FFF733FE01F01DF8C07F012803D1FDF754
:103F100030FE16210170FCF7E7FA032806D10220D3
:103F2000FDF78BF9C4B22046FDF749FBFDF742FBD4
:103F300000BF75E72DE9F041FDF71DFE441DFDF7BB
:103F40001CFE471DFDF719FE451DFDF710FE064638
:103F5000008820F004003080FDF70DFE0079A028D5
:103F60007ED1FDF708FE461D304600F063FFFDF7E9
:103F700002FE0DE0500200205402002055020020F5
:103F80004C0200204D02002056020020FFC001001C
:103F9000461D304601F022F800F0D5FF94F82010BD
:103FA00001F00F01017000F0CEFF94F8201001F035
:103FB000F001417000F0C7FF0078012807D100F040
:103FC000C2FFC61CC07820F00100307007E000F08E
:103FD000BAFFC61CC07820F00100401C307000F011
:103FE000B2FF4078102807D100F0ADFFC61CC078A2
:103FF00020F00200307007E000F0A5FFC61CC0787A
:1040000020F00200801C307000F09DFF94F8211019
:1040100081702068FDF774FE0020FEF7F5FB617FDC
:1040200081810020FEF7F0FBA17F01830320FEF7D2
:10403000EBFBB4F80D10818400F085FF86783046E4
:10404000FEF742FF80460320FEF7DEFBC0F82C801F
:1040500000F086FFA188018100F082FFE18800E086
:104060000AE041810520FEF7CFFBA1888181052070
:10407000FEF7CAFBE1880183FDF77DFD0079182872
:104080001AD1FDF778FD461D304600F05EFF00F0C6
:1040900067FF86880520FEF7B7FB868400F060FF87
:1040A00086790520FEF7B0FB068600F059FFC67939
:1040B0000520FEF7A9FB8687FEF7AFFB00880128E5
:1040C00043D1FDF758FD0079192806D1FDF753FDBE
:1040D000461D304600F046FF3AE0FE4800780328CF
:1040E0000CDCFDF746FD19210170FA4800782880A4
:1040F000F8480078401CF749087029E0FDF739FDC1
:104100000078202824D1FEF788FB4088461E3046E0
:1041100000F04AFF00882880FEF77FFB4088461E9B
:10412000304600F041FFC088E880FEF776FB40880B
:10413000461E304600F038FF008928810020E549FE
:1041400008700A20FDF70CF902E00020E149087030
:10415000FDF726FDBDE8F08110B50020FDF72FFA30
:104160000220FDF76AF800F003042046FDF7B1FADB
:1041700001213720FDF72DFAFDF71CFAFFF752F960
:1041800010BD10B5FDF7F3FC0078C0F3800018B146
:10419000AFF25F20FCF76DF8AFF21900FCF769F899
:1041A00010BD2DE9F041FDF7E8FC441D0A20FDF7A4
:1041B000D0F800287ED0FEF730FB008807287AD29E
:1041C000DFE800F004FDFCFBFAF9F800C2480088C3
:1041D00038B9FEF722FB851C032200212846FDF793
:1041E000C7F8FEF71AFB4088002839D101220021C8
:1041F000BA48FDF712F9B948008801282ADA0120E7
:10420000B549088000F03CFD051D402200212846EC
:10421000FDF7AEF80220FDF710F8C5B200F030FD52
:104220000679AE4908782A463146FEF736FC092061
:10423000FDF781F860B10A20FDF792F80020A64949
:1042400008800120A5490880FDF793FC1221017028
:10425000BDE8F0810020A049088001209F49088026
:10426000FEF7DBFA408801283BD1012200219B4860
:10427000FDF7D3F89948008801282CDA01209649E7
:10428000088000F0FDFC851D402200212846FDF736
:104290006FF80220FCF7D1FFC5B200F0F1FC86797F
:1042A0008E4908782A463146FEF721FC0920FDF7A1
:1042B00042F801E0D0E2B9E260B10A20FDF750F81F
:1042C000002085490880012084490880FDF751FCC1
:1042D00013210170BCE700207F49088001207F493D
:1042E0000880FEF79AFA4088022869D1032200214B
:1042F0007B48FDF792F87A48008803287CDA012091
:104300007549088076480088C8B9FDF7FFFC00F1C0
:104310000805172200212846FDF72AF8FDF7F6FCCC
:1043200007460220FCF789FFC5B2FDF7EFFC0689BE
:104330006B4908783B462A463146FEF7B3FC68488D
:104340000088012819D1FDF7E1FC00F10A053B22A4
:1043500000212846FDF70CF8FDF7D8FC074602209F
:10436000FCF76BFFC5B2FDF7D1FC46895C490878C4
:104370003B462A463146FEF795FC594800880228FC
:1043800021D1FDF7C3FC00F10C053B22002128469A
:10439000FCF7EEFFFDF7BAFC07460220FCF74DFFE5
:1043A000C5B2FDF7B3FC86894D4908783B462A46DD
:1043B000314606E02EE2E6E1E1E18FE131E1B5E0F0
:1043C00020E0FEF76FFC0920FCF7B5FF90B10A2052
:1043D000FCF7C6FF002040490880032040490880C0
:1043E000FDF794FC0546FDF702FD2060FDF7C1FBDB
:1043F000142101702CE7FFE70020374908800320D3
:1044000037490880FEF709FA4088032861D1032262
:1044100000213448FDF701F83248008803287EDA8D
:1044200001202D4908802F480088C0B9FDF76EFC97
:10443000051D1F2201212846FCF79AFFFDF766FCA7
:1044400007460220FCF7F9FEC6B2FDF75FFC85883F
:10445000244908783B4632462946FEF786FC214827
:104460000088012818D1FDF751FC851C0C22012180
:104470002846FCF77DFFFDF749FC07460220FCF7C4
:10448000DCFEC5B2FDF742FC4688164908783B467B
:104490002A463146FEF769FC12480088022825D1D9
:1044A000FDF734FC054640F6020240F2B271FCF71B
:1044B0005FFFFDF72BFC07460220FCF7BEFEC5B2EE
:1044C000FDF724FC0688074908783B462A46314612
:1044D0000AE02AE0570200205A0200206002002071
:1044E0005C0200205E020020FEF73FFC0920FCF782
:1044F00022FF90B10A20FCF733FF0020FE4908801C
:104500000320FE490880FDF701FC0546FDF76FFC1E
:104510002060FDF72EFB1521017099E6FFE70020D2
:10452000F54908800320F549088080E1F2480088B9
:1045300038B9FEF772F9851C042201212846FCF7E0
:1045400017FF02220021EE48FCF767FFEC480088C5
:1045500002285FDA0120E8490880FEF75EF940880A
:10456000401E86B2FEF759F94088451E284600F0E5
:104570001BFD0680E248008801281DD1FEF74DF999
:104580004088461E304600F00FFD851D02220021A6
:104590002846FCF7EDFEFEF740F94088471E3846F6
:1045A00000F002FD0546FEF738F98678D448017818
:1045B0002A463046FEF73BFCD1480088F0B9FEF7AA
:1045C0002CF94088461E304600F0EEFC00F108054C
:1045D000632200212846FCF7CBFEFEF71EF9408837
:1045E000471E384600F0E0FC0546FEF716F98678CF
:1045F000C34801782A463046FEF719FC0920FCF72B
:104600009AFE30B10020BC490880FDF7B2FA2021A3
:1046100001701DE60020B84908800220B8490880D2
:1046200005E1FEF7FAF8851C042200212846FCF774
:104630009FFE00F0AEFB45782846FEF7B1FF00F084
:10464000A8FB45880220FEF7DFF8858700F0A1FB74
:10465000051D01202870FEF7E0F8408803281DDCC6
:104660000D20FCF768FE50B100F093FB451CFEF7EF
:10467000D4F88178012088402978084328700E20DA
:10468000FCF759FE50B100F084FB451CFEF7C5F85D
:10469000817801208840297881432970FEF7BDF890
:1046A0004088042808D100F074FB851C4FF4FA728E
:1046B00001212846FCF7B1FE0920FCF73CFE60B161
:1046C0000A20FCF74DFEFEF7A8F8857800F061FBA4
:1046D0000570FDF74EFA17210170A8E0FEF79DF86E
:1046E000851C012200212846FCF742FEFEF709FF47
:1046F000FEF793F84088B0B90D20FCF71CFE38B1E6
:1047000000F021FC051D007920F00100401C2870FC
:104710000E20FCF710FE30B100F015FC051D0079ED
:1047200020F001002870FEF778F84088012816D1A3
:104730000D20FCF700FE38B100F005FC051D0079E6
:1047400020F00200801C28700E20FCF7F4FD30B130
:1047500000F0F9FB051D007920F002002870092007
:10476000FCF7E9FD50B10A20FCF7FAFD00F0EBFB85
:1047700000792071FDF7FDF92121017057E00A2031
:10478000FCF7EEFD53E000F0EBFB058900F0E8FBE1
:1047900000F10C062A4601213046FCF7E9FD0D2008
:1047A000FCF7C9FD18B100F0DBFB012181810E206F
:1047B000FCF7C1FD28B100F0D3FB058900F0D0FB68
:1047C00085810920FCF7B7FD20B100F0C9FB4FF649
:1047D000FF71818100F0C4FBC58900F0C1FB8089B5
:1047E000854216D000F0BCFB858900F0B9FBC5817D
:1047F00000F0B6FB80894FF6FF71884205D100F0CA
:10480000AFFB058900F0ACFB8581FDF7B2F91821FB
:1048100001700CE00A20FCF78EFD18B1FDF7A9F934
:10482000222101700A20FCF79BFD00E000BF00BFC1
:10483000FDF769FA0546FDF76BFAFDF7EEFF85789F
:10484000FDF7EBFF07783846FDF7DEFF06462A4600
:104850000121FEF778FB70E0002027490880032043
:10486000284908802549088001202749088002201E
:1048700023490880FDF7D1FF00214180FEF741FE6A
:1048800000F06EFB058900F06BFB85810020FDF7D1
:10489000BBFF858900F0F4F985800020FDF7B4FFA7
:1048A000058B00F0EDF9C580FDF72DFA0546FDF703
:1048B0002FFA00F06EFA45782846FEF771FE00F0F8
:1048C00068FA45880220FDF79FFF8587FDF751F9BB
:1048D0000078172804D000F05CFA051D002028702D
:1048E0000E20FCF728FD18B1FDF797FF0521018088
:1048F0000D20FCF720FD09E05A0200205E02002096
:10490000620200205C0200206002002018B1FDF766
:1049100084FF00210180FDF780FF0546052200216C
:10492000FCF726FDFDF779FF06783046FDF76CFFB2
:10493000054600221146FEF706FB00BF88E470B56D
:10494000FDF71BF9451D00F0FCFAC07F012802D1DC
:10495000FFF708F870BD0E20FCF7EDFC18B1FDF76D
:1049600008F916210170FDF7CEF90446FDF7D0F9DC
:10497000FDF756FF0920FCF7F3FC0A20FCF7F0FCDA
:10498000FDF79AFABA48FEF76BFEFBF7CEFD022858
:1049900002D1FEF7B1FE24E0002000F0A5F90428C2
:1049A00002D1FEF7D1FE1CE0032000F02CFA10B17A
:1049B000FEF7EDFE15E0FCF7F7FD0068AD49084095
:1049C00030B1FCF7F1FD04682046FEF709FF08E06E
:1049D000012000F0B5F910B1FEF776FF01E0FEF717
:1049E0009EFF0223002211462620FCF774FF0223BB
:1049F0001A4619462420FCF76EFF002000F074F9D7
:104A0000042804D0012000F06FF9042803D101200C
:104A1000FCF71BFE02E00020FCF717FE032000F06D
:104A2000F2F918B10120FCF721FE02E00020FCF7AA
:104A30001DFE00BF8EE770B5FDF79FF8441D00F026
:104A400080FAC07F012802D1FEF78CFF70BD0E20D6
:104A5000FCF771FC18B1FDF78CF816210170FDF719
:104A600052F90546FDF754F9FDF7DAFE0920FCF787
:104A700077FC0A20FCF774FCFDF71EFA7E48FEF76F
:104A8000EFFDFBF752FD022802D1FEF735FE24E0D0
:104A9000002000F029F9042802D1FEF755FE1CE0A1
:104AA000032000F0B0F910B1FEF771FE15E0FCF73D
:104AB0007BFD00686F49084030B1FCF775FD056863
:104AC0002846FEF78DFE08E0012000F039F910B10C
:104AD000FEF7FAFE01E0FEF722FF02230022114654
:104AE0002620FCF7F8FE02231A4619462420FCF77C
:104AF000F2FE002000F0F8F801280ADC012000F0A6
:104B0000F3F8012805DC0020FCF79FFD0020FCF7EE
:104B1000ADFDFCF706FC00F06000207200BF95E7D9
:104B200010B556480078032806D1FBF7DDFC0328B2
:104B300002D00020FCF743FDFBF7D6FC4F4908707C
:104B400008460078012803D1AFF21510FBF791FB5E
:104B50004A480078022803D1AFF21D20FBF789FBF9
:104B600046480078032803D1AFF6C910FBF781FB54
:104B7000FFF74CF910BD10B5FCF7F9FF0078C0F352
:104B8000400020B1AFF62F20FBF773FB09E0FCF7E4
:104B9000A2FB10B9FBF75BFC18B1AFF27B00FBF78F
:104BA00068FB0A21AFF23100FBF7ACFB10BD10B57A
:104BB000FDF73CFE4FF4FA60FEF7C8FF00BFFBF7BD
:104BC00046FC0028FBD0FDF71EFEFCF794FFFDF726
:104BD00083F8AFF6D750FBF74CFBAFF69960FBF7C5
:104BE00048FBAFF6F750FBF744FBAFF27500FBF75D
:104BF00040FBAFF67120FBF73CFB10BDFCF7BDF8A6
:104C0000FBF7E6FBFBF79CFFFDF740F9FEF759FFCA
:104C1000FEF7DEFEFBF7A0FBAFF26D00FBF729FB12
:104C2000FCF792F962B601E0FBF7F5FAFCE710B584
:104C30000220FCF702FBC4B2FBF731FBFEF728FFB2
:104C4000FCF7AAFAFCF77AFF00F07BF9C07F012895
:104C50000AD12046FCF7B3FC2046FDF727F90121D5
:104C60003020FCF7B6FC02E00120FDF71FF910BD73
:104C70008A5B0008FFC001007A5B00085802002030
:104C80000048704764020020014619B9CA48C07C38
:104C900000097047012903D1C748007D0009F8E7E2
:104CA000022903D1C448407D0009F2E7032903D15A
:104CB000C148807D0009ECE70220EAE7014611B90E
:104CC000BE4800787047012902D1BD480078F9E755
:104CD000022902D1BB480078F4E7032902D1BA487F
:104CE0000078EFE70220EDE7014621B9B248C07C29
:104CF00000F00F007047012904D1AF48007D00F09B
:104D00000F00F7E7022904D1AB48407D00F00F0007
:104D1000F0E7032904D1A848807D00F00F00E9E7FF
:104D2000042904D1A448C07D00F00F00E2E7052962
:104D300004D1A148007E00F00F00DBE70C20D9E78A
:104D400001469D48C07C00F00F0088421DD09A4863
:104D5000007D00F00F00884217D09748407D00F09A
:104D60000F00884211D09448807D00F00F008842E7
:104D70000BD09148C07D00F00F00884205D08E48CE
:104D8000007E00F00F00884201D101207047002012
:104D9000FCE78E487047014619B98748407E0009F4
:104DA0007047012903D18448807E0009F8E7022971
:104DB00003D18148C07E0009F2E7032903D17E4870
:104DC000007F0009ECE70520EAE7014621B97A48AF
:104DD000407E00F00F007047012904D17648807EA4
:104DE00000F00F00F7E7022904D17348C07E00F0FD
:104DF0000F00F0E7032904D16F48007F00F00F0097
:104E0000E9E70520E7E701466B48407E00F00F0028
:104E100088420BD06848807E00F00F00884205D0A1
:104E20006548C07E00F00F00884201D10120704724
:104E30000020FCE710B501465F4A002002E00B5C51
:104E40001354401C2228FAD3604B1B7903F0010352
:104E500003B110BD584BDB7C0224B4EB131F04D00C
:104E6000554BDB7C1B09554C2370534B1B7D022497
:104E7000B4EB131F04D0504B1B7D1B09504C237007
:104E80004D4B5B7D0224B4EB131F04D04A4B5B7D7A
:104E90001B094C4C2370484B9B7D0224B4EB131F21
:104EA00004D0454B9B7D1B09474C2370424BDB7C58
:104EB0001B0933B1454B5B7843F00103434C6370EE
:104EC00005E0424B5B7823F00103404C63703A4BA2
:104ED0001B7D1B0933B13D4B5B7843F002033B4C18
:104EE000637005E0394B5B7823F00203374C637045
:104EF000314B5B7D1B0933B1344B5B7843F00403CA
:104F0000324C637005E0314B5B7823F004032F4C87
:104F10006370294B9B7D1B0933B12C4B5B7843F0AD
:104F200008032A4C637005E0284B5B7823F00803E4
:104F3000264C6370204BB3F81130244C638000BFC3
:104F400087E71D4870472248704701460A68214B91
:104F50001A608A889A808A799A71CA79DA71704758
:104F60001C48704730B501460A880B88C2EBC20462
:104F7000194D25F81430CB88C2EBC20405EB44046C
:104F8000E3800B89C2EBC20405EB440423814B8907
:104F9000C2EBC20405EB440463818B89C2EBC204FB
:104FA00005EB4404A38130BD0146C1EBC1000A4AB0
:104FB00002EB400070470000C40800206C02002093
:104FC0006D0200206E0200206F020020700200209F
:104FD00076020020E6080020F608002001460A8933
:104FE000054B1A801A468B7A9370CB7AD3700B7B61
:104FF00013717047004870477B020020704770476C
:105000007047754600F02CF8AE46050069465346D9
:1050100020F00700854618B020B5FBF7EBF8BDE897
:1050200020404FF000064FF000074FF000084FF00F
:10503000000B21F00701AC46ACE8C009ACE8C009A0
:10504000ACE8C009ACE8C0098D46704710B504460D
:10505000AFF300802046BDE81040FBF7AEB800007B
:10506000004870473009002001491820ABBEFEE718
:10507000260002007047000000000000005F0000F2
:105080000007000700147F147F14242A7F2A1223AC
:105090001308646236495522500005030000001CC5
:1050A0002241000041221C0014083E081408083E5A
:1050B0000808005030000008080808080060600078
:1050C000002010080402000000000000005F000043
:1050D0000007000700147F147F14242A7F2A12235C
:1050E0001308646236495522500005030000001C75
:1050F0002241000041221C0014083E081408083E0A
:105100000808005030000008080808080060600027
:10511000002010080402000000000000005F0000F2
:105120000007000700147F147F14242A7F2A12230B
:105130001308646236495522500005030000001C24
:105140002241000041221C0014083E081408083EB9
:1051500008080050300000080808080800606000D7
:105160000020100804023E5149453E00427F4000A5
:1051700042615149462141454B311814127F102795
:10518000454545393C4A49493001710905033649CD
:10519000494936064949291E003636000000563670
:1051A00000000008142241141414141400412214A5
:1051B000080201510906324979413E7E1111117EE2
:1051C0007F494949363E414141227F4141221C7F6E
:1051D000494949417F090909013E4149497A7F0806
:1051E00008087F00417F41002040413F017F0814B3
:1051F00022417F404040407F020C027F7F04081024
:105200007F3E4141413E7F090909063E4151215EF1
:105210007F09192946464949493101017F01013F6A
:105220004040403F1F2040201F3F4038403F631414
:1052300008146307087008076151494543007F411E
:10524000410002040810200041417F0004020102D5
:10525000044040404040000102040020545454786F
:105260007F484444383844444420384444487F38D4
:1052700054545418087E0901020C5252523E7F08C1
:1052800004047800447D40002040443D007F102805
:10529000440000417F40007C041804787C0804042A
:1052A0007838444444387C14141408081414187CC6
:1052B0007C080404084854545420043F4440203CD3
:1052C0004040207C1C2040201C3C4030403C442876
:1052D0001028440C5050503C4464544C4400083650
:1052E000410000007F00000041360800100808104F
:1052F000087846414678000000000000005F00008A
:105300000007000700147F147F14242A7F2A122329
:105310001308646236495522500005030000001C42
:105320002241000041221C0014083E081408083ED7
:1053300008080050300000080808080800606000F5
:10534000002010080402000000000000005F0000C0
:105350000007000700147F147F14242A7F2A1223D9
:105360001308646236495522500005030000001CF2
:105370002241000041221C0014083E081408083E87
:1053800008080050300000080808080800606000A5
:10539000002010080402000000000000005F000070
:1053A0000007000700147F147F14242A7F2A122389
:1053B0001308646236495522500005030000001CA2
:1053C0002241000041221C0014083E081408083E37
:1053D0000808005030000008080808080060600055
:1053E0000020100804023E5149453E00427F400023
:1053F00042615149462141454B311814127F102713
:10540000454545393C4A494930017109050336494A
:10541000494936064949291E0036360000005636ED
:105420000000081422410014141414140041221422
:105430000802015109067E1111117E7F4949493147
:105440007F494949367F01010103702927217F7F68
:105450004949494177087F087741494949367F10D2
:1054600008047F7F1009047F7F0814224120413FF8
:10547000017F7F020C027F7F0808087F3E41414187
:105480003E7F0101017F7F090909063E414141221A
:1054900001017F010147281008071E217F211E639B
:1054A000140814633F2020205F070808087F7F400E
:1054B0007F407F3F203F205F017F4848307F48305A
:1054C000007F007F484830414141493E7F083E41CE
:1054D0003E462919097F20545454783C4A4A4931A0
:1054E0007C545428007C0404040CC078447CC038EC
:1054F000545454186C107C106C44445454287C2030
:1055000010087C7C2112097C7C1028440020443C3B
:10551000047C7C0810087C7C1010107C38444444C7
:10552000387C0404047C7C1414140838444444007B
:1055300004047C04040C5050503C10287C28104477
:10554000281028443C40407C400C1010107C7C40CB
:105550007C407C7C407C40FC047C5050207C502073
:10556000007C007C50502028444454387C1038443F
:1055700038085434147C0000C1C081C1400101C30B
:10558000C003800241C201C6C006800741C70005B2
:10559000C1C581C4400401CCC00C800D41CD000FB9
:1055A000C1CF81CE400E000AC1CA81CB400B01C9D8
:1055B000C009800841C801D8C018801941D9001B12
:1055C000C1DB81DA401A001EC1DE81DF401F01DD30
:1055D000C01D801C41DC0014C1D481D5401501D709
:1055E000C017801641D601D2C012801341D30011DA
:1055F000C1D181D0401001F0C030803141F1003381
:10560000C1F381F240320036C1F681F7403701F52F
:10561000C035803441F4003CC1FC81FD403D01FFB8
:10562000C03F803E41FE01FAC03A803B41FB003959
:10563000C1F981F840380028C1E881E9402901EB2F
:10564000C02B802A41EA01EEC02E802F41EF002DB1
:10565000C1ED81EC402C01E4C024802541E5002708
:10566000C1E781E640260022C1E281E3402301E157
:10567000C021802041E001A0C060806141A10063A1
:10568000C1A381A240620066C1A681A7406701A5AF
:10569000C065806441A4006CC1AC81AD406D01AFB8
:1056A000C06F806E41AE01AAC06A806B41AB0069D9
:1056B000C1A981A840680078C1B881B9407901BB0F
:1056C000C07B807A41BA01BEC07E807F41BF007D31
:1056D000C1BD81BC407C01B4C074807541B5007708
:1056E000C1B781B640760072C1B281B3407301B1D7
:1056F000C071807041B00050C190819140510193C0
:10570000C053805241920196C05680574197005530
:10571000C19581944054019CC05C805D419D005FB7
:10572000C19F819E405E005AC19A819B405B019956
:10573000C059805841980188C04880494189004B30
:10574000C18B818A404A004EC18E818F404F018DAE
:10575000C04D804C418C0044C18481854045018707
:10576000C047804641860182C04280434183004158
:10577000C181818040401C1C3E7F00000000000071
:1057800000000000000000000080C0E0F0F8F8FC1D
:10579000FCFEFEFEFE000000000000000000FEFE19
:1057A000FEFEFEFEFEFEFEFCF8F0E0C00080F0F81B
:1057B000FCFEFEFEFEFEFEFCF8F08000001EFEFE7B
:1057C000FEFEFC000000F8FEFEFEFE1E0000FEFED7
:1057D000FEFEFEFEFEFEFEFEFEFE0080F0F8FCFE7B
:1057E000FEFEFEFEFEFCF8F0800000FEFEFEFEFE69
:1057F000FEF8000000FEFEFEFE00000000000000BB
:1058000000000000C0F0F8FEFFFFFFFFFFFFFFFFFA
:10581000FFFFFFFFFF000000000000000000FFFF8F
:10582000FFFFFFFF0101FFFFFFFFFFFF00FFFFFF83
:10583000FFFFFF0101FFFFFFFFFFFF0000007FFFF1
:10584000FFFFFFF800F8FFFFFFFF07000000010166
:1058500001FFFFFFFFFFFF01010100FFFFFFFFFF4F
:10586000FF0101FFFFFFFFFFFF0000FFFFFFFFFF42
:10587000FFFFF00000FFFFFFFF000000000000003E
:1058800080F0FCFFFFFFFFFFFFFF7F3F1F0F0703BD
:105890000301010101000000000000000000FFFF03
:1058A000FFFFFFFF0000FFFFFFFFFFFF00FFFFFF05
:1058B000FFFFFF0000FFFFFFFFFFFF000000003FB2
:1058C000FFFFFFFFFCFFFFFFFF07000000000000DD
:1058D00000FFFFFFFFFFFF00000000FFFFFFFFFFD3
:1058E000FF0000FFFFFFFFFFFF0000FFFFFFFFFFC4
:1058F000FFFFFFF000FFFFFFFF0000000000E0FCE3
:10590000FFFFFFFFFFFF7F1F0701000000000000F7
:105910000000000000000000000000000000FFFF89
:10592000FFFFFFFFFEFEFFFFCF87030100FFFFFF2A
:10593000FFFFFF0000FFFFFFFFFFFF000000000070
:10594000FFFFFFFFFFFFFFFF03000000000000005C
:1059500000FFFFFFFFFFFF00000000FFFFFFFFFF52
:10596000FF0000FFFFFFFFFFFF0000FFFFFFFF3F03
:10597000FFFFFFFFF0FFFFFFFF000000C0FEFFFF83
:10598000FFFFFFFF1F0100000000000080E0F0F8B3
:10599000FCFEFEFFFF000000000000000000FFFF13
:1059A000FFFFFFFF0303FFFFFFFFFFFE00FFFFFFFF
:1059B000FFFFFF0000FFFFFFFFFFFF00000000FEF2
:1059C000FFFFFFFFFFFFFFFFFE00000000000000E1
:1059D00000FFFFFFFFFFFF00000000FFFFFFFFFFD2
:1059E000FF0000FFFFFFFFFFFF0000FFFFFFFF00C2
:1059F0003FFFFFFFFFFFFFFFFF0000F0FFFFFFFF84
:105A0000FFFF1F00000000000080F0FEFFFFFFFF0F
:105A1000FFFFFFFFFF000000000000000000FFFF8D
:105A2000FFFFFFFF0000FFFFFFFFFFFF00FFFFFF83
:105A3000FFFFFF0000FFFFFFFFFFFF000000FFFF71
:105A4000FFFFFF0FFFFFFFFFFFFF00000000000050
:105A500000FFFFFFFFFFFF00000000FFFFFFFFFF51
:105A6000FF0000FFFFFFFFFFFF0000FFFFFFFF0041
:105A7000003FFFFFFFFFFFFFFF00E0FFFFFFFFFF13
:105A8000FF0F000000000000F0FFFFFFFFFFFFFF1F
:105A9000FFFFFFFFFF000000000000000000FFFF0D
:105AA000FFFFFFFF0000FFFFFFFFFFFF00FFFFFF03
:105AB000FFFFFF8080FFFFFFFFFFFF0000FFFFFFF2
:105AC000FFFF0F0001FFFFFFFFFFFF80000000004E
:105AD00000FFFFFFFFFFFF00000000FFFFFFFFFFD1
