:020000040800F2
:10000000900F0020DD010008CB0D0008C901000899
:100010005D0E0008770E0008910E00080000000039
:10002000000000000000000000000000AB0E00080F
:10003000ED01000800000000EF010008334C00084B
:10004000F3010008F3010008F30100085309000858
:10005000F3010008F3010008F3010008F3010008B0
:10006000F3010008F3010008F3010008F3010008A0
:10007000F3010008F30100082F110008F301000844
:10008000F3010008F3010008F3010008F301000880
:10009000F3010008F3010008F3010008F301000870
:1000A000F3010008F3010008F3010008F301000860
:1000B000F3010008F3010008F3010008F301000850
:1000C000F3010008F3010008F3010008F301000840
:1000D0008F0C00089F100008F3010008F3010008CE
:1000E000F3010008F3010008F301000800F002F832
:1000F00000F05AF80AA090E8000C82448344AAF168
:100100000107DA4501D100F04FF8AFF2090EBAE865
:100110000F0013F0010F18BFFB1A43F0010318473B
:10012000D05F0000F05F00000A444FF0000C10F8B0
:10013000013B13F0070408BF10F8014B1D1108BF65
:1001400010F8015B641E05D010F8016B641E01F805
:10015000016BF9D113F0080F1EBF10F8014BAD1C55
:100160000C1B09D16D1E58BF01F801CBFAD505E073
:1001700014F8016B01F8016B6D1EF9D59142D6D3CD
:10018000704700000023002400250026103A28BFF5
:1001900078C1FBD8520728BF30C148BF0B607047F9
:1001A0001FB51FBD10B510BD04F035FF1146FFF798
:1001B000F7FF04F025FD04F053FF03B4FFF7F2FF4F
:1001C00003BC04F05BFF00001EF0040F0CBFEFF354
:1001D0000880EFF3098000F005BE000008480047E2
:1001E000FEE7FEE7FEE7FEE7FEE7FEE7FEE7FEE7E7
:1001F000FEE7FEE703480449044A054B7047000048
:10020000ED00000890090020900F0020900B0020C6
:10021000900B0020704770B50024AFF2070572B64E
:1002200059480568280C0004B0F1006F07D0AFF200
:100230001B005549086062B6FFF7ECFF18E0AFF20B
:100240002B00854203D162B6FFF7E4FF10E00024E3
:1002500006E04D49601C51F8200041F82400641C60
:10026000142CF6D9AFF253004749086562B6A84787
:1002700070BD0146002072B604E0401C142801D96C
:1002800062B67047404A52F82020AFF277039A4294
:10029000F3D13D4A42F8201062B600BFF1E710B535
:1002A00000243A480068401C3849086000BF23E039
:1002B000374850F83400AFF2A301884200D11AE069
:1002C000334800EBC4008088012809D0304800EB97
:1002D000C4008088401E2E4901EBC401888009E0DB
:1002E0002B4951F83400FFF7C4FFAFF2D70028497B
:1002F00041F8340000BF641C142CD9D310BD23482E
:100300000068704730B502460B4672B6002016E012
:100310001F4C54F83040944205D11D4C04EBC004EE
:10032000A38062B630BD1A4C54F83040AFF21B15B2
:10033000AC4203D111B981B241F40041401C1428F0
:10034000E6D321F40041124C44F8312004EBC104FF
:10035000A38062B600BFE5E7002000BF0CE0AFF26B
:100360004B11094A42F82010094A42F83010002186
:1003700002EBC0029180401C1428F0D9704710B5E0
:1003800000F0E2FD10BD000080020020000000200F
:10039000D402002008B502464FF6FF7000900DE031
:1003A00012F8010BBDF80030DBB25840074B33F8B0
:1003B0001000BDF8003080EA23200090081EA1F153
:1003C0000103D9B2ECD1BDF8000008BD8A55000880
:1003D0005848806940F01D00564988615648406879
:1003E00040F00070544948605448006820F4404090
:1003F000524908600846006840F440500860704761
:10040000B0F5C05F05D100214D4A118001214D4A50
:100410001180B0F5807F05D10021494A1180022169
:10042000484A118046490988491C89B2444A1180CA
:1004300021290BDBB0F5C85F02D10321414A1180AD
:10044000B0F5885F02D104213E4A1180704700B5A3
:100450003D480078032819DA3848806848F20301DB
:1004600008403A49384A127821F8120038480068A2
:1004700000F4C8503749344A127821F81200324843
:100480000078401C30490870002000BD00202E4933
:1004900008702E4800882D49498808402B49498812
:1004A0002A4A92881140084328490988274A928895
:1004B00011400843C0432849088026480088254940
:1004C0004988084023494988224A928811400843B4
:1004D000204909881F4A9288114040EA01031846C2
:1004E000FFF78EFF0120D0E71B49098801F00201C8
:1004F00019B10021194A118002201749098801F019
:10050000010119B10021154A1180032013490988FE
:10051000491C89B2114A1180642905DB0E490988FA
:1005200001F0030101B90120704706480088C0B2FC
:100530007047000000100240000001400010014020
:100540001C0000200A0000200C0000200E000020EB
:100550000808014014000020080000201A000020B4
:1005600001B500BFBDF80000401E80B20090002819
:10057000F8D108BDAC48006800F03330AA490860E3
:100580000846006840F0333008607047A6480068AD
:1005900000F0CC30A44908600846006800F0333011
:1005A00008600846006840F04430086070479F4883
:1005B000806940F01C009D4988619D48006820F4D6
:1005C0004C009B4908609B48006840F6CC4188433A
:1005D00098490860081D006820F44C40091D086017
:1005E0009348006840F408109149086091480068F9
:1005F00040F2222108438F490860081D006840F43A
:100600000850091D0860704710B54FF48060894993
:10061000103108601420FFF7A3FF4FF08060854978
:10062000103108601420FFF79BFF10BD10B510209B
:100630007F49086180037F4910310860022008600B
:10064000FFF7A4FFFFF7E0FF774808300068C4B267
:100650004FF48010764908618010764910310860A7
:1006600040100860FFF786FF204610BD70B50446B5
:100670000D4625B104206F491031086004E04FF4A5
:1006800080206C491031086067480C30006800F425
:100690007F40204364490C3108601420FFF760FF5D
:1006A000FFF7B2FF70BD28B14FF40061614A10320C
:1006B000116004E04FF000615E4A10321160704733
:1006C00010B5FFF774FF01205A491031086000BFD0
:1006D000FFF7ACFF00F010000028F9D110205449BA
:1006E0000861202008610021B820FFF7BFFF00212A
:1006F0004020FFF7BBFF0021C020FFF7B7FF00211C
:100700003F20FFF7B3FF00BFFFF790FF00F020008E
:100710000028F9D14FF4006046491031086010BD3F
:100720004548704710B500244448007810B10128AE
:100730006FD136E04FF400103D4908611020086188
:100740003F490978B831C8B20021FFF78FFF002177
:100750004020FFF78BFF00240CE03A490A88098803
:10076000491C384B19803449885C0121FFF77EFF12
:10077000601CC4B2402CF0DB324800884030314964
:1007800008802F480078401CC0B22D490870082806
:1007900006DB002008702B490880012027490870DB
:1007A00037E04FF480102249086120200861244975
:1007B0000978B831C8B20021FFF758FF0021402066
:1007C000FFF754FF1F48008840301E49088000246E
:1007D0000CE01C490A880988491C1A4B19801649E3
:1007E000885C0121FFF742FF601CC4B2402CF0DBA3
:1007F00013480078401CC0B211490870082807DB74
:10080000002008700F4908800C490870012010BDB5
:1008100000BF00BF0020FAE710B500BFFFF782FF5E
:100820000028FBD010BD000000080140001002406D
:1008300000100140000C01407C0300201F0000203C
:100840001E000020200000205348C06940F0C05026
:100850005149C8615148006840F480704F490860B0
:100860004D48006A00F40040B0F5004F3BD04A48C4
:10087000006A40F48030484908620846006A20F463
:10088000803008620846006A40F40140086244482B
:10089000008840F010004249088047F6FF70404948
:1008A000083108803E48008820F010003C4908804C
:1008B0003948006A40F001003749086200BF3648F5
:1008C000006A00F001000028F9D0354800884FF692
:1008D000F77108403249088000BF3148008800F0B5
:1008E00008000828F9D12E48008840F010002C4953
:1008F00008800120091F0880081D008820F01000D2
:10090000091D08800320012181404209920002F163
:10091000E022C2F8001100BF70472148183000885B
:100920001F491431098840EA014070471C49098871
:1009300041F010011A4A1180010C194A1432118039
:10094000121D10801649098821F01001144A1180E7
:1009500070471348008800F0010028B11048008853
:1009600020F001000E4908800D48008800F00200C8
:1009700028B10B48008820F0020009490880084887
:10098000008800F0040028B10548008820F0040029
:1009900003490880704700000010024000700040CA
:1009A0000428004000BF011EA0F1010290B2FAD15C
:1009B000704710B50446204600F014F910BD10B57C
:1009C00004464FF080505A4908600A20FFF7EAFFBA
:1009D0002046FFF7EEFF4FF480505549086010BDE8
:1009E00070B505464020FFF7EAFF4FF080505049B0
:1009F0000860C020FFF7DDFF002404E0285DFFF75A
:100A0000D8FF601CC4B2092CF8D34FF48050484979
:100A100008600320FFF7D3FF8A20FFF7D0FF70BDE7
:100A200070B5054600244FF08050414908604220CF
:100A3000FFF7BFFF002000F0BAF800BF04E000F0AD
:100A4000F9F82855601CC4B2052CF8DB012000F031
:100A5000AEF84FF480503649086070BD10B50024E0
:100A60003449097801EB8101334A8818FFF7D8FF30
:100A70003048007800EB80002F49085C00F024002B
:100A800018BB2C48007800EB80000844407800F048
:100A90002400D0B92748007800EB80000844807813
:100AA00000F0240088B92348007800EB8000084457
:100AB000C07800F0240040B91E48007800EB8000A8
:100AC0000844007900F0240018B10020194908708A
:100AD00004E018480078401C164908701548007852
:100AE000032820D1002013490870002417E0124881
:100AF000005D1149491D095D08400F49491D095D07
:100B00000D4A0A32125D114008430B490A5D0A3151
:100B1000095D0A40104309490855601CC4B2052C00
:100B2000E5DB012010BD0020FCE704487047000011
:100B3000100C0140270000207C070020220000202C
:100B400059480068594908405749086008460068F4
:100B500040F4403008600846006840F40000086037
:100B60000846006840F4401008600846006840F0FD
:100B7000806008600846006840F000400860084651
:100B8000006840F0405008604948C06940F4804027
:100B90004749C861002047490880091D0880081F8F
:100BA000008848F2E73108434249088070474149CC
:100BB000098821F040013F4A1180012805D11146E2
:100BC000098841F48041118005E03A49098821F4FF
:100BD0008041384A11803749098841F04001354A3F
:100BE0001180704708B50021009106E00099491C6A
:100BF0000091B1F5A04F00D908BD2E4908310988F0
:100C000001F002010029F1D00021009129490C31A5
:100C1000088006E00099491C0091B1F5A04F00D969
:100C2000EAE724490831098801F080010029F1D15F
:100C300000BFE1E708B50020009007E00098401CE5
:100C40000090B0F5A04F01D9002008BD1948083028
:100C5000008800F080000028F0D10090FF201549A6
:100C60000C31088007E00098401C0090B0F5A04FC0
:100C700001D90020E9E70F480830008800F00100A2
:100C80000028F0D00B480C300088C0B2DDE70948DE
:100C90000830008807480830008806480830008877
:100CA0000448083000887047040C0140FFFF3333CC
:100CB000001002400038004000210020814A1268E4
:100CC00042F480327F4B1A6000BF7E4A126802F401
:100CD0000030491C10B9B1F5A06FF6D1794A1268FD
:100CE00002F400320AB1012000E00020012843D1C3
:100CF000754A126842F01002734B1A601A46126865
:100D000022F003021A601A46126842F002021A60C8
:100D10006C4A526842F480626A4B5A601A465268C2
:100D200022F47C125A601A46526842F4E8125A6061
:100D30001A46126842F080721A6000BF614A126857
:100D400002F00072002AF9D05E4A526822F00302D3
:100D50005C4B5A601A46526842F002025A6000BF69
:100D6000584A526802F00C02082AF9D1554A126812
:100D700042F40022534B1A60704700B55148006896
:100D800040F001004F490860084640684F4908405C
:100D90004C494860084600684D4908404949086088
:100DA0000846006820F4802008600846406820F467
:100DB000FE0048604FF41F008860FFF77DFF454844
:100DC000414948604448486000BD10B501F07AF8D8
:100DD00042A001F040FB0121084601F0F5F901F0C5
:100DE00063F810BD2DE9F04104466569A669E7691D
:100DF00001F068F80121084601F0E6F938A001F099
:100E00002AFB0221012001F0DFF938A001F023FBC9
:100E1000304601F08EFC0321012001F0D5F936A007
:100E200001F019FB384601F084FC0421012001F097
:100E3000CBF934A001F00FFB284601F07AFC052124
:100E4000012001F0C1F932A001F005FB3348006830
:100E500001F06FFC01F02CF8BDE8F08110B501F055
:100E600031F80121084601F0AFF92DA001F0F3FAA5
:100E700001F01AF810BD10B501F024F80121084660
:100E800001F0A2F929A001F0E6FA01F00DF810BD79
:100E900010B501F017F80121084601F095F926A0D8
:100EA00001F0D9FA01F000F810BD10B501F00AF810
:100EB0000121084601F088F922A001F0CCFA00F0E7
:100EC000F3FF10BD00100240002002400000FFF0C0
:100ED000FFFFF6FE23016745AB89EFCD4E4D49007C
:100EE000486172644661756C7400000050432020B4
:100EF0002020203D00000000505352202020203DA3
:100F0000000000004C5220202020203D0000000066
:100F10005461736B4164723D0000000004000020C6
:100F20004D656D4D616E61676500000042757346E9
:100F300061756C74000000005573616765466175EA
:100F40006C7400005356430003484FF0E0214861A1
:100F500088610720086170473F19010010B50446F9
:100F6000201D8549C8640846406C40F01000486464
:100F70000846406C40F0800048640846406C40F0F1
:100F8000020048640E2000F0EBF810BD70B5044676
:100F90007A48006820F44C60784908600846006888
:100FA00040F0B00008600846006840F480600860C7
:100FB0007348806940F480407149886171480480B9
:100FC000001D008820F480506E49091D0880081D0E
:100FD000008820F44050091D088042F22C00091FAF
:100FE000088068480C30008840F0800065490C316A
:100FF000088025200F21002807DA0A07150E624A0B
:1010000000F00F031B1FD55403E00A07130E5F4ABD
:10101000135400BF252000F0A3F85948406940F060
:1010200001005749486157480838FFF797FF70BDDE
:1010300040B15449091D098841F00401514A121D6B
:10104000118007E04F49091D098821F004014D4A2C
:10105000121D1180704700224D4B1A801A46917064
:101060005060484A121D128822F00402454B1B1D95
:101070001A800278434B1B1F1A80424A121D1288A5
:1010800042F048023F4B1B1D1A8070474148704791
:101090003C48083800883B48001F0088704710B55E
:1010A00038480838008800F0200090B135480838EA
:1010B000008800F00F0038B9324A121F1288D0B2EF
:1010C000344A1168884704E0FFF7E2FF3149486875
:1010D00080472C480838008800F0080020B1FFF74E
:1010E000D7FF2C494868804726480838008800F018
:1010F000400050B12749886880472248001D008879
:1011000020F040001F49091D08801E48083800884B
:1011100010BD194A526C22F00102174B5A641A464C
:1011200010659164526C42F001025A647047124893
:10113000006800F4005090B10F48406840F400503F
:101140000D4948600846406C20F0010048640D4895
:10115000001D008840F040000A49091D08807047C2
:1011600000F01F02012191404209920002F1E022A9
:10117000C2F800117047000000000240040801405E
:10118000001002400838014018ED00E000E400E0E3
:10119000280000208C0700202E480088401C2D4984
:1011A000088008460088322190FBF1F201FB120012
:1011B00028B92948007880F001002749087025489F
:1011C0000088642190FBF1F201FB120028B922484B
:1011D000007880F00200204908701E480088FA213B
:1011E00090FBF1F201FB120028B91B48007880F057
:1011F000040019490870174800884FF4FA7190FBF1
:10120000F1F201FB120028B91348007880F00800C1
:10121000114908700F4800884FF47A7190FBF1F281
:1012200001FB120040B90C48007880F010000A4918
:101230000870002007490880704701460120884057
:10124000054A1278104010B14FF6FF707047002029
:10125000FCE70000320000203000002070B50020C4
:10126000854908704870002428E0FFF75EFC005DA7
:1012700000F002008501FFF758FC005D00F010004F
:1012800045EA8000610008417B49097808437A49B2
:101290000870FFF74AFC005DC007050EFFF745FC2C
:1012A000005D00F0080045EAC00061000841724995
:1012B0004978084370494870601CC4B2042CD4DBE0
:1012C0006D4800786C49497840EA01206A494880B5
:1012D00070BD6A48704710B50024FFF7BFFBD8B156
:1012E000FFF7BCFF644844886448046064480068B1
:1012F000604020406149486061480068A0438860C0
:101300000846C068496848405C49C86001200861D7
:101310005B480460012010BD0020FCE756480078BF
:10132000704755484078704701465448006801228C
:101330008A401040704701465048406801228A4068
:101340001040704701464D48806801228A40104095
:10135000704701464948C06801228A4010407047E2
:101360004649C968012282409143444AD16070478E
:1013700030B503460D4614461888A84200DA1D8091
:101380001888A04200DD1C800B20FFF7CDFFE0B1E4
:101390001888A84200D130BD3A4800880B2806D0F2
:1013A0000B20384908801888401E188033E03648E2
:1013B0000088401C80B23449088032282BDB188812
:1013C000401E18802D20088025E00C20FFF7ACFF80
:1013D000E0B11888A04200D1DDE72A4800880C2837
:1013E00006D00C20274908801888401C188012E07D
:1013F00025480088401C80B22349088032280ADB37
:101400001888401C18802D20088004E000201D4909
:1014100008801D49088000BFBDE730B503460C4673
:1014200015460D20FFF780FF70B11888A04200D14B
:1014300030BD164800880D281CD00D2013490880A7
:101440001888401E188015E00E20FFF76DFF70B160
:101450001888A84200D1EBE70C4800880E2809D074
:101460000E200A4908801888401C188002E00020DD
:101470000649088000BFDBE73900002098070020FC
:1014800040000020460000204400002048000020CA
:1014900010B50024FFF749F8032803D0FFF745F8FB
:1014A000042801D144F4805403F04FFD807800F00B
:1014B0000300022801D144F4807403F046FD8078D3
:1014C000C0F38100022801D144F4007403F03DFD13
:1014D00080780421B1EB101F01DC44F4806403F038
:1014E00039FD032801D144F40064002003F0E8FB37
:1014F000032801DB44F01004012003F0E1FB032882
:1015000001DB44F02004022003F0DAFB032801DBB6
:1015100044F04004032003F0D3FB032801DB44F034
:101520008004002003F039FC042801D344F00104B6
:10153000012003F032FC042801D344F0020402200D
:1015400003F02BFC042801D344F00404032003F02F
:1015500024FC042801D344F0080403F055FD8078EE
:101560000221B1EB101F01DC44F4804403F04CFD78
:10157000C0780221B1EB101F01DC44F4004403F0F9
:1015800043FD00790221B1EB101F01DC44F48034EB
:1015900009480460094800686040204006494860E6
:1015A00006480068A04388600448046010BD00201D
:1015B0007047014870470000AC0700204C00002035
:1015C00010B5F148FFF70CFA10BD0146EE4A0020B5
:1015D00002E01154431CD8B20928FAD3704770B501
:1015E00002460C46E849082A05DB1546D61702EBE9
:1015F0005676C6F3C700A2EBC005EBB2302A0CD07A
:10160000312A0AD0322A08D0332A06D0342A04D00C
:101610000D5C03269E40B5430D54012C05D10D5C95
:1016200001269E4035430D5414E0022C05D10D5C7B
:1016300002269E4035430D540CE0032C05D10D5C71
:1016400003269E4035430D5404E00D5C03269E4066
:10165000B5430D5470BD012807D1CB49897921F0DC
:1016600008010831C84A917105E0C749897921F01C
:101670000801C54A91717047012807D1C24989798B
:1016800021F010011031C04A917105E0BE498979FD
:1016900021F01001BC4A91717047012807D1BA4965
:1016A000897921F00401091DB74A917105E0B64915
:1016B000897921F00401B44A91717047012807D15A
:1016C000B149897921F00201891CAF4A917105E085
:1016D000AD49897921F00201AB4A91717047AA495D
:1016E000897821F00101A84A91701146897821F08A
:1016F00002019170012806D11146897821F001017B
:10170000491C917018E0022807D19F49897821F07F
:101710000201891C9C4A91700EE003280CD19A4961
:10172000897821F00101491C974A91701146897806
:1017300021F00201891C917070479349897821F04A
:101740004001914A91701146897821F08001917091
:10175000012806D11146897821F04001403191706D
:1017600018E0022807D18849897821F0800180316A
:10177000854A91700EE003280CD18349897821F0C5
:1017800040014031804A91701146897821F08001F2
:1017900080319170704770B50446E07800F0030026
:1017A000012802D1FFF7C9FF13E0E07800F0030041
:1017B000022802D1FFF7C1FF0BE0E078C0F38100FF
:1017C000022806D1FFF739FD00F003052846FFF790
:1017D000B4FF70BD6C49897821F010016A4A91709C
:1017E0001146897821F020019170012806D1114617
:1017F000897821F010011031917018E0022807D18A
:101800006149897821F0200120315F4A91700EE012
:1018100003280CD15C49897821F0100110315A4A13
:1018200091701146897821F0200120319170704724
:1018300070B5044614B90020FFF7CCFF032C02D189
:101840000120FFF7C7FF022C07D10220FFF7F5FCAC
:1018500000F001052846FFF7BDFF042C07D1022048
:10186000FFF7EBFC00F003052846FFF7B3FF052C5C
:1018700002DB0220FFF7AEFF70BD4349897821F0FB
:101880000401414A91701146897821F00801917054
:10189000012806D11146897821F00401091D9170B3
:1018A00018E0022807D13849897821F00801083169
:1018B000354A91700EE003280CD13349897821F024
:1018C0000401091D304A91701146897821F0080100
:1018D00008319170704770B50446032C08D102207E
:1018E000FFF7ABFC00F003052846FFF7C6FF02E058
:1018F0000120FFF7C2FF70BD2DE9F04781460E467B
:1019000017469846384603F0F1F904464046FFF77B
:1019100094FCC5B2304603F0D3F9032819DB032C3D
:1019200007DB05F0030040F002014846FFF757FED1
:1019300022E0012C07D105F0030040F001014846E8
:10194000FFF74DFE18E005F003014846FFF747FE9C
:1019500012E024B900214846FFF741FE0CE0012CBB
:1019600004D101214846FFF73AFE05E0032C03DBD2
:1019700002214846FFF733FE042C02D10120FFF775
:101980006AFEBDE8F0870000B80700204FF08040F5
:10199000C9490861C948008820F00100C74908808A
:1019A000704710B5C648C078801EC4B22146C448EE
:1019B000FEF7F0FCC249085310BD70B504460D4651
:1019C000BE48007800F0010000B170BD4FF48040C7
:1019D000B949086129462046FFF79BFBB7480088B4
:1019E00020F00100401CB549088000BFEDE7002051
:1019F000B449087048708870C870704731B5B14CF0
:101A0000B1480078401CB0490870E07800283FD009
:101A10009DF8002008460078801F611D0A54E07878
:101A2000A9490978884276DC0020A7490870E07847
:101A3000801EC1B22046FEF7ADFCE178214431F8AA
:101A4000021C884221D1A078012802D0022810D19E
:101A500007E09A48008820F00400001D974908809C
:101A60000BE09648008820F00400001D9349088090
:101A700003E0FFF7BCFF002038BD00BFFFF7B7FF52
:101A80000020924908800120F6E7FFF7B0FF42E00E
:101A9000207872280CD06078A52809D0A07838B9B1
:101AA0009DF80000722803D19DF80000207032E0FC
:101AB000207872280CD16078A52809D0A07838B990
:101AC0009DF80000A52803D19DF80000607022E079
:101AD000207872280BD16078A52808D1A07830B979
:101AE0009DF8000018B19DF80000A07013E0207868
:101AF00072280BD16078A52808D1A07830B19DF864
:101B0000000018B19DF80000E07004E000206E496C
:101B10000870FFF76CFF0020AEE710B56C488069D5
:101B200040F010006A4988616348406820F04060D6
:101B3000614948600846406840F0407048604FF492
:101B40009070FFF723FAFFF7A1FA62490160FFF7EF
:101B50009DFA61494160FFF799FA6049816010BDC3
:101B60005A480088B0F57A7F0BD858480088401C46
:101B7000564908805148008820F002004F490880EB
:101B800006E04E48008820F00200801C4B49088087
:101B900070474A487047524870474A48704748481B
:101BA000704710B5464C72202070A520607002204E
:101BB000A0701120E070FFF7F4FEE1782046FFF7F7
:101BC000FCFE10BD70B5FFF7EAFF441DFFF7E3FF11
:101BD0000078123810285CD2DFE800F008111A1FD4
:101BE00024293F485B5B5B5B5B5B4D52FFF7D7FF94
:101BF0001221017103F046F80079A07154E0FFF75B
:101C0000CEFF1321017103F03DF88079E0714BE0C4
:101C1000FFF7C5FF1421017146E0FFF7C0FF152152
:101C2000017141E0FFF7BBFF162101713CE0FFF7B6
:101C3000B6FF1721017103F0AEF84078207103F070
:101C4000AAF80078A07103F0A6F84088206003F09D
:101C5000A2F8051D0020287026E0FFF7A0FF18213C
:101C6000017103F085F9808920601DE0FFF797FF7F
:101C70001921017118E0FFF792FF2021017113E093
:101C8000FFF78DFF2121017103F05FF9807820714A
:101C90000AE0FFF784FF11210171FEF746FC207175
:101CA000FEF722FC607100BF00BFFFF774FF002148
:101CB0000170FFF776FF70BD00100140500000205A
:101CC00021080020C10700205400002052000020FD
:101CD00000100240FD190008EF1900088D190008D6
:101CE000550000204CF6BB40654908804AF6992013
:101CF000488048F67700888046F25560088144F2B3
:101D00003340488142F21120888170475D49086064
:101D100070475C480068704759487047F0B5014605
:101D20004AF6C0050D444AF6C006B5FBF6F5564E18
:101D3000354468080725B0FBF5F605FB1605504E3F
:101D4000F58047F62C5528448500ED1C4F4EB5FB19
:101D5000F6F5ECB235466543A0EBA5008500ED1C19
:101D600040F2B556B5FBF6F5EBB235465D43A0EB58
:101D7000A50000EB8005AD1C9926B5FBF6F5EAB28F
:101D800002EB021505EBC505AD1C052695FBF6F526
:101D9000451B6D1C3A4EB5800A2592FBF5F6D51C05
:101DA0000C2707FB1655364E75800A2592FBF5F673
:101DB000642505FB0435A5F596553544304E358030
:101DC0004FF46165B1FBF5F51826B5FBF6F706FB98
:101DD00017552B4E35813C25B1FBF5F53C26B5FB5F
:101DE000F6F706FB1755264E75813C25B1FBF5F637
:101DF00005FB1615224EB581F0BD70B501464D8824
:101E0000C5F10E050C2695FBF6F5EBB20D8805F530
:101E10009655ED1AAAB24D8806FB0355ED1EECB29D
:101E20008D88681E04EB041505EBC505AD1C052661
:101E300095FBF6F5284440F26D1505FB020000EB1A
:101E4000A200642592FBF5F5401B4FF4C87592FB88
:101E5000F5F52844A0F5FA402D380D4D401B0D4DE9
:101E600068430D89C5EB4516C6EB052500EB05104B
:101E70004D89C5EB051500EB85008D89284470BDA3
:101E80008108002058000020177B4A00B13A020068
:101E90008B3D25008051010010B5FEF711FCFEF7C7
:101EA0003FFCFE49086010BD10B5FEF73BFC10BDBD
:101EB00010B5FEF7B1FC10BD10B504462046FEF784
:101EC000F2FB10BD002005E00021F44A1268115415
:101ED000411C88B2B0F5806FF6DB7047002005E04A
:101EE000FF21EE4A12681154411C88B2B0F5806F90
:101EF000F6DB7047F0B50446802C01DC402900DD9C
:101F0000F0BD0E46CF1701EB5777FF1004EBC71754
:101F1000BDB2CF1701EB5777FF10A1EBC707BBB2DC
:101F2000DE4E3668705D1AB901269E40B0430CE063
:101F3000012A04D101269E400643B0B205E0022AE0
:101F400003D101269E404640B0B2D44F3F68785539
:101F500000BFD5E72DE9F84F04460D4691469A4655
:101F600000260027B346002000908046802C07DC26
:101F7000B9F1800F04DC402D02DCBAF1400F01DD25
:101F8000BDE8F88FAAEB0506A9EB0407002E04DADA
:101F900076424FF0FF30009001E001200090002FCA
:101FA00003DA7F424FF0FF3B01E04FF0010B760078
:101FB0007F00E9B2E0B20A9AFFF79CFFB74213DD57
:101FC000A6EB67080DE0B8F1000F03DB00980544AD
:101FD000A8EB07085C44B044E9B2E0B20A9AFFF704
:101FE00089FF4C45EFD112E0A7EB66080DE0B8F190
:101FF000000F02DB5C44A8EB060800980544B844D7
:10200000E9B2E0B20A9AFFF775FF5545EFD100BF7C
:10201000B6E72DE9F04705460E4690469A4600245D
:102020000027A146802D03DD402E01DDBDE8F087AD
:102030004FFA88F70320A0EB48004FFA80F951E0EF
:10204000F219D1B22A19D0B25246FFF753FFF21B50
:10205000D1B22A19D0B25246FFF74CFFF219D1B2D1
:102060002A1BD0B25246FFF745FFF21BD1B22A1B02
:10207000D0B25246FFF73EFF3219D1B2EA19D0B2C0
:102080005246FFF737FF321BD1B2EA19D0B252469F
:10209000FFF730FF3219D1B2EA1BD0B25246FFF738
:1020A00029FF321BD1B2EA1BD0B25246FFF722FF02
:1020B000B9F1000F09DA2046611C4CB2062101EB90
:1020C000800048444FFA80F90CE02046611C4CB275
:1020D00039467A1E57B2401A0A2101EB8000484463
:1020E0004FFA80F9BC42ABDD00BF9FE72DE9F84F06
:1020F00007460D4690461E46DDF828A0BAF1640F4B
:1021000001DDBDE8F88F012033464246314600909C
:102110003846FFF71FFF012033464246294600900C
:102120004046FFF717FF012033463A462946009004
:102130003846FFF70FFF01202B4642462946009004
:102140003846FFF707FF01206B1EA8F10702691E42
:102150000090F81DFFF7FEFE0120AB1EA8F107025C
:10216000A91E0090F81DFFF7F5FE701BC01E00FBB6
:102170000AF0642190FBF1F000F0FF0900240BE06D
:1021800001200090B01E031BA8F10202011BB81C25
:10219000FFF7E0FE601CC4B24C45F1DB701BC01EB3
:1021A00000F0FF0B5C460BE000200090B01E031B0C
:1021B000A8F10202011BB81CFFF7CCFE601EC4B2DE
:1021C0004C45F1DC00BF9CE718280ADC082908DC34
:1021D0004A1ED301421E02EB420203EB4202304B85
:1021E0001A807047002004E000212E4A1154411C3F
:1021F000C8B22028F8DB704730B5014600200FE058
:1022000001EB81020244284B9B5C254A148812880A
:10221000521C234D2A80214A12681355421CD0B209
:102220000528EDDB00241E4A13881288521C1C4D21
:102230002A801A4A1268D45430BDF0B504460021F1
:102240000022002000235AE004EB84051D44164EB2
:10225000705D00F0010505EB450200F0020505EB9D
:10226000450542EA450200F0040505EB450542EA52
:10227000850200F0080505EB450542EAC505EAB20E
:10228000001100F0010505EB450100F0020505EB2A
:10229000450541EA450100F0040507E05C00002027
:1022A00060000020900800208A50000805EB4505DA
:1022B00041EA850100F0080505EB450541EAC50541
:1022C000E9B2FE4D2D68FE4E3688AA55FB4D2E68AC
:1022D000FB4D2D886D1C7255F84D2E68F84D2D88DC
:1022E00080357155F54D2E68F54D2D888135715528
:1022F000F34D2D88AD1CF24E35805D1CEBB2052BE5
:10230000A2DB0026EE4D2F882D886D1CDFF8B0C3B0
:10231000ACF80050E94D2D68EE5565462F882D88A4
:102320006D1CACF80050E54D2D68EE55F0BD70B554
:1023300005460E4631462846FFF746FF002408E0D2
:10234000E048005D18B1DF49085DFFF776FF601CCB
:10235000C4B2C5F10C00A042F2DCFFF743FF70BD30
:10236000F0B50446002100220020002345E004EBE4
:1023700084051D44D44E705D00F0010505EB450257
:1023800000F0020505EB450542EA450200F00405B0
:1023900005EB450542EA850200F0080505EB450519
:1023A00042EAC505EAB2001100F0010505EB45015E
:1023B00000F0020505EB450541EA450100F0040582
:1023C00005EB450541EA850100F0080505EB4505EB
:1023D00041EAC505E9B2B94D2D68B94E3688AA550E
:1023E000B64D2E68B64D2D8880357155B44D2D886B
:1023F0006D1CB34E35805D1CEBB2052BB7DB0026A0
:10240000AF4D2F882D886D1CDFF8B4C2ACF800509A
:10241000AA4D2D68EE55F0BD70B505460E46162D39
:1024200002DD052E00DD70BD31462846FFF7CCFEEB
:10243000002408E0A348005D18B1A249085DFFF739
:102440008FFF601CC4B2C5F11600A042F2DCFFF79A
:10245000C9FE00BFE7E730B504460025FFF7C2FE1E
:1024600005E014F8010BFFF7C7FE681CC5B2207821
:102470000028F6D1284630BD70B505460021B820A9
:10248000FEF7F4F800214020FEF7F0F8002405E004
:10249000285D8A4909680855601C84B2B4F5806FCC
:1024A000F6DB70BD3FB504460025E4B10EE00A201E
:1024B000B4FBF0F100FB1140303029466A1CD5B264
:1024C00001AA50540A20B4FBF0F40095002CEED180
:1024D00006E0691EC9B20D4601AA505CFFF78CFEEA
:1024E000002DF6D107E03020FFF786FE9DF80000B2
:1024F000401CC0B200909DF8000004B030BD7CB517
:1025000004460D46B4F5803F45DA052D43DA42F224
:10251000107094FBF0F0C0B28DF8040042F210701D
:1025200094FBF0F100FB114084B24FF47A7094FBFD
:10253000F0F0C0B28DF803004FF47A7094FBF0F124
:1025400000FB114084B2642094FBF0F0C0B28DF81F
:102550000200642094FBF0F100FB114084B20A20D9
:1025600094FBF0F0C0B28DF801000A2094FBF0F16A
:1025700000FB1140C0B28DF80000002609E0691E82
:10258000891B1DF8011001F13000FFF735FE701CAA
:10259000C6B2AE42F3DB681CC0B27CBDFCB50446DB
:1025A0000E46174642F2107094FBF0F0C0B28DF860
:1025B000040042F2107094FBF0F100FB114084B271
:1025C0004FF47A7094FBF0F0C0B28DF803004FF432
:1025D0007A7094FBF0F100FB114084B2642094FB0C
:1025E000F0F0C0B28DF80200642094FBF0F100FB23
:1025F000114084B20A2094FBF0F0C0B28DF80100C3
:102600000A2094FBF0F100FB1140C0B28DF80000ED
:10261000002511E0C5F103011DF8011001F13000A2
:10262000FFF7EAFD002E05DD701EA84202D12C2026
:10263000FFF7E2FD681CC5B2042DEBDB3846FFF75F
:102640000AFF0720FCBD7CB504460D46B4F5803F6B
:102650004FDA052D4DDA42F2107094FBF0F0C0B263
:102660008DF8040042F2107094FBF0F100FB114071
:1026700084B24FF47A7094FBF0F0C0B28DF803008E
:102680004FF47A7094FBF0F100FB114084B26420A7
:1026900094FBF0F0C0B28DF80200642094FBF0F1DE
:1026A00000FB114084B20A2094FBF0F0C0B28DF818
:1026B00001000A2094FBF0F108E000005C0000201B
:1026C00060000020900800208A50000800FB1140A4
:1026D000C0B28DF80000002609E0691E891B1DF8B4
:1026E000011001F13000FFF7A8FD701CC6B2AE4228
:1026F000F3DB7CBD70B506460C461546601CC1B2C6
:102700003046FFF761FD2846FFF7A5FE70BD10B506
:102710000446092C03DC04F13000FFF76DFD0A2CA0
:1027200006DB0F2C04DC04F1570188B2FFF764FDCF
:1027300010BD30B5044615A0FFF78DFE250F2846C5
:10274000FFF7E5FFC4F303652846FFF7E0FFC4F396
:1027500003552846FFF7DBFFC4F303452846FFF780
:10276000D6FFC4F303352846FFF7D1FFC4F3032592
:102770002846FFF7CCFFC4F303152846FFF7C7FF31
:1027800004F00F052846FFF7C2FF30BD3078000087
:1027900038B5044601210846FFF716FD2046FFF72D
:1027A0005AFE01211120FFF70FFDFFF7B5FA058949
:1027B00002212846FFF7A3FEFFF7AEFA007B00F0E8
:1027C000010018B13A20FFF717FD02E02020FFF7C3
:1027D00013FDFFF7A1FA458902212846FFF78FFE76
:1027E00001200A237F22194600900020FFF7B2FB48
:1027F00001200B237F22194600900020FFF7AAFB3F
:1028000001200C237F22194600900020FFF7A2FB35
:1028100038BD7047014601EB410000EB0112FE4854
:1028200000EB82007047FC48001F70470020FA4907
:10283000091F08804880704710B5FFF743FBF74831
:10284000FFF71AFEFFF734FB10BD08B501203F2348
:102850000022082100901046FFF77CFB012008238E
:102860007F22194600900020FFF774FB01203F23D0
:102870007F22082100901046FFF76CFB01203F23C8
:102880000022194600907F20FFF764FBE44800888F
:10289000401C80B2E2490880052818DB002008802F
:1028A000E0480088401CDF490880DF480088401C61
:1028B000DD490880084600887F2801DB0020088069
:1028C000D84800881C2802DB0020D6490880D5485B
:1028D0000078401EC2B2012324213F20FFF799FB5C
:1028E000D0480278012324213F20FFF792FB0120EA
:1028F00023230090CC4802883F210846FFF72AFB9B
:1029000001200090C8480088421E23233F213E201A
:10291000FFF720FB01200090C3480088821E23237C
:102920003F213D20FFF716FB01200090BE480088A4
:10293000C0F17F0223233F210846FFF70BFB012054
:102940000090B9480088C0F17E0223233F213E2039
:10295000FFF700FB01200090B3480088C0F17D0222
:1029600023233F213D20FFF7F5FA01200090AE48D8
:102970000088C0F17F02232309213F20FFF7EAFAF4
:1029800001200090A8480088C0F17E02232309217D
:102990003E20FFF7DFFA01200090A3480088C0F135
:1029A0007D02232309213D20FFF7D4FA01202323B0
:1029B00000909D48028809213F20FFF7CBFA0120B3
:1029C000009099480088421E232309213E20FFF7EA
:1029D000C1FA0120009094480088821E2323092117
:1029E0003D20FFF7B7FA08BD10B50446242C51D29C
:1029F000DFE804F0501216141A181E1C2220262498
:102A00002A282E2C323036343A383E3C4240464456
:102A10004A48505050504E4C844810BD8448FCE702
:102A20008448FAE78448F8E78448F6E78448F4E7FE
:102A30008448F2E78448F0E78448EEE78448ECE70E
:102A40008448EAE78448E8E78448E6E78448E4E71E
:102A50008448E2E78448E0E78448DEE78448DCE72E
:102A60008448DAE78448D8E78448D6E78448D4E73E
:102A70008448D2E78448D0E78448CEE78448CCE74E
:102A80008448CAE78448C8E78448C6E78448C4E75E
:102A90008448C2E78448FFF7DEFC04212046FFF7A4
:102AA0002EFD0020B9E72DE9F04104460D461646FB
:102AB000ACB903210820FFF787FB0020FFF7AAFE2F
:102AC000858146B10020FFF7A5FE8789022138469F
:102AD000FFF715FD0FE075A0FFF7BDFC0BE003212C
:102AE0000820FFF771FB0020FFF794FE8789022181
:102AF0003846FFF704FDBDE8F0812DE9F0410446BA
:102B00000D461646ACB904210820FFF75DFB0020F6
:102B1000FFF780FE058346B10020FFF77BFE078BA1
:102B200002213846FFF7EBFC0FE060A0FFF793FCB3
:102B30000BE004210820FFF747FB0020FFF76AFEA7
:102B4000078B02213846FFF7DAFCBDE8F0812DE95A
:102B5000F04104460D4616463046FFF7DFF8681C84
:102B6000C5B229462046FFF72FFBFFF7D5F8878827
:102B700002213846FFF7C3FC2E20FFF73DFBFFF78D
:102B8000CBF8478802213846FFF7B9FC2E20FFF723
:102B900033FBFFF7C1F8078804213846FFF7AFFC85
:102BA0002F20FFF729FB04F10B00C4B2A11CC8B20F
:102BB0002946FFF709FB3A20FFF71EFB611DC8B24B
:102BC0002946FFF701FB3A20FFF716FB204629466E
:102BD000FFF7FAFAFFF7A0F8078902213846FFF756
:102BE0008EFCE11CC8B22946FFF7EEFAFFF794F815
:102BF000478902213846FFF782FCA11DC8B2294649
:102C0000FFF7E2FAFFF788F8878902213846FFF7D5
:102C100076FCBDE8F0810000680000208E570008B7
:102C20003002002032020020340200208D5E0008B5
:102C30009D5E0008AB5E0008B95E0008C75E000834
:102C4000D85E0008E65E0008F75E0008085F00082E
:102C50001C5F00082D5F0008415F0008525F0008FC
:102C6000665F0008745F0008855F0008955F0008D4
:102C7000A85F0008B85F0008CB5F0008DB5F0008B2
:102C8000EE5F0008FE5F0008116000082060000889
:102C9000326000084160000853600008626000086C
:102CA0007460000888600008805E00082020000032
:102CB0002DE9F04105460E4617461C4605210A201F
:102CC000FFF782FA3A20FFF797FA05210D20FFF768
:102CD0007BFA3A20FFF790FA7DB905210820FFF72B
:102CE00073FA268127B120890221FFF708FC0CE046
:102CF000AFF24800FFF7AFFB07E005210820FFF720
:102D000063FA20890221FFF7FAFB012D0FD105217B
:102D10000B20FFF759FA668127B160890221FFF77E
:102D2000EEFB0CE0AFF27C00FFF795FB07E005211E
:102D30000B20FFF749FA60890221FFF7E0FB022D23
:102D40000FD105210E20FFF73FFAA68127B1A089F8
:102D50000221FFF7D4FB0CE0AFF2B000FFF77BFBE2
:102D600007E005210E20FFF72FFAA0890221FFF7C7
:102D7000C6FBBDE8F0812DE9F04105460E46174639
:102D80001C4606210A20FFF71FFA2E20FFF734FA0F
:102D900006210D20FFF718FA2E20FFF72DFA7DB936
:102DA00006210820FFF710FAA68027B1A08802218B
:102DB000FFF7A5FB0CE0AFF20C10FFF74CFB07E0B0
:102DC00006210820FFF700FAA0880221FFF797FBF1
:102DD000012D0FD106210B20FFF7F6F9668027B1F0
:102DE00060880221FFF78BFB0CE0AFF24010FFF789
:102DF00032FB07E006210B20FFF7E6F9608802218D
:102E0000FFF77DFB022D0ED106210E20FFF7DCF926
:102E1000268027B120880421FFF771FB0BE0FEA07C
:102E2000FFF719FB07E006210E20FFF7CDF92088F8
:102E30000421FFF764FBBDE8F08170B505460E463E
:102E40001446E81CC1B21220FFF7BEF9012E0CD1C6
:102E50000220FEF7F2F920B1E0880121FFF74FFBD5
:102E600007E0EFA0FFF7F7FA03E0E0880121FFF7A2
:102E700046FBE81CC1B20D20FFF7A6F96EB902208F
:102E8000FEF7DBF920B120890221FFF738FB08E0CB
:102E9000AFF2E810FFF7DFFA03E020890221FFF725
:102EA0002EFB70BD10B50446012C03D1DD48FFF7A1
:102EB000D2FA0EE0022C03D1DB48FFF7CCFA08E08F
:102EC000032C03D1D948FFF7C6FA02E0D848FFF730
:102ED000C2FA10BD0146012901D1D6487047022926
:102EE00001D1D548FAE7032901D1D448F6E70020FB
:102EF000F4E770B50546284601F04FFF0446284622
:102F000001F065FF18B9CB48FFF7A5FA20E0012CC6
:102F100003D1C748FFF79FFA1AE0022C03D1C84833
:102F2000FFF799FA14E0032C03D1C648FFF793FA90
:102F30000EE0042C03D1BD48FFF78DFA08E0052C04
:102F400003D1B948FFF787FA02E0B848FFF783FAE0
:102F500070BD2DE9F04104460D461646FEF7B2FF5E
:102F60002068FFF715FC3DB1F01CC1B21420FFF73B
:102F70002BF9B5A0FFF76FFA0020FFF74BFCA0423A
:102F800052D103210120FFF71FF96068FFF763FAB0
:102F900003210720FFF718F92D20FFF72DF9002254
:102FA00011460320FFF77FFD04210120FFF70CF9F4
:102FB0002069FFF750FA002211460320FFF79DFD1C
:102FC00005210120FFF700F9E069FFF744FAFEF759
:102FD000A3FE07463B46002211460320FFF768FE8A
:102FE00006210120FFF7F0F8A06AFFF734FAFEF798
:102FF00093FE878802213846FFF781FA2E20FFF7DB
:10300000FBF8FEF789FE478802213846FFF777FA7A
:103010002E20FFF7F1F8FEF77FFE078804213846DF
:10302000FFF76DFABDE8F0810120FFF7F3FBA04246
:103030007ED103210120FFF7C7F88448FFF70BFA80
:1030400004210120FFF7C0F88148FFF704FA81A0AE
:10305000FFF701FA0020FFF74CFF04210B20FFF7D8
:10306000B3F87DA0FFF7F7F9002001F0A5FF07896D
:1030700002213846FFF743FA78A0FFF7ECF9002069
:1030800001F09AFFC78801213846FFF738FA052179
:103090000120FFF799F87248FFF7DDF96DA0FFF7FF
:1030A000DAF90120FFF725FF05210B20FFF78CF847
:1030B00069A0FFF7D0F9012001F07EFF0789022106
:1030C0003846FFF71CFA65A0FFF7C5F9012001F0AB
:1030D00073FFC78801213846FFF711FA0621012046
:1030E000FFF772F85F48FFF7B6F95AA0FFF7B3F998
:1030F0000220FFF7FEFE06210B20FFF765F856A021
:10310000FFF7A9F9022001F057FF0789022138468D
:10311000FFF7F5F951A0FFF79EF9022001F04CFFEF
:10312000C78801213846FFF7EAF90721012000E0AE
:1031300025E0FFF749F84C48FFF78DF945A0FFF768
:103140008AF90320FFF7D5FE07210B20FFF73CF893
:1031500041A0FFF780F9032001F02EFF078902212B
:103160003846FFF7CCF93DA0FFF775F9032001F0D1
:1031700023FFC78801213846FFF7C1F952E7022033
:10318000FFF748FBA04234D103210120FFF71CF8D0
:103190006068FFF760F9A068FFF75DF9042101207E
:1031A000FFF712F82069FFF756F96069FFF753F946
:1031B00005210120FFF708F8E069FFF74CF9206AC4
:1031C000FFF749F906210120FEF7FEFFA06AFFF78D
:1031D00042F9E06AFFF73FF907210120FEF7F4FF0B
:1031E000606BFFF738F9A08F20A20021FFF7D6F916
:1031F00018E70320FFF70EFBA04266D10321012050
:10320000FEF7E2FF6068FFF726F9A068FFF723F9F1
:10321000042101202CE000002020202000000000DC
:1032200020000000F35D00080F5E0008155E000836
:103230001E5E0008ED5D0008D65D00083B5E0008DC
:10324000D05D0008CA5D00083C3D0000E65B000858
:10325000FB5B00082D0000002D200000202D200029
:10326000005C0008055C00080A5C00086D42000074
:10327000FEF7AAFF2069FFF7EEF86069FFF7EBF8A9
:1032800005210120FEF7A0FFE069FFF7E4F801F057
:103290005CFE8078000928B1A08CF9A20221FFF71A
:1032A0007DF902E0F748FFF7D6F806210120FEF786
:1032B0008BFFA06AFFF7CFF801F04CFE8046FFF7C6
:1032C00009FE0746FFF7C7F8ACE60420FFF7A2FAAD
:1032D000A04251D101F098FE00884FF6FF7188425C
:1032E00007D103210120FEF76FFFE748FFF7B3F88E
:1032F00041E003210120FEF767FFE448FFF7ABF848
:1033000001F082FE0788DEA202213846FFF746F967
:1033100004210120FEF758FFDD48FFF79CF82D201F
:10332000FEF76AFF01F070FE807807093846FFF764
:10333000B9FD05210120FEF747FFD648FFF78BF8BE
:103340002D20FEF759FF01F05FFEC07807093846CF
:10335000FFF7A8FD06210120FEF736FFCE48FFF754
:103360007AF82D20FEF748FF01F04EFE007907099C
:103370003846FFF797FD55E60520FFF74BFAA042C8
:1033800046D103210120FEF71FFF0520FFF742FA77
:10339000878904213846FFF7B2F8C0A0FFF75BF831
:1033A0000520FFF737FA078B04213846FFF7A7F807
:1033B00001F0DEFD408910B1B948FFF74CF801F08B
:1033C000D7FD808800B92DE605210120FEF7FCFE1F
:1033D000B448FFF740F8A08C0421FFF790F801F003
:1033E000C7FD07683A4605210120FFF7B0FB07211A
:1033F0000120FEF7E9FE3021085DFFF7F5FA30B154
:103400003021085DFFF7F0FA0746FFF724F809E6D8
:103410000620FFF7FFF9A04206D101210846FEF77A
:10342000D3FEA1A0FFF717F800BFFBE510B5FEF72C
:1034300049FD04210320FEF7C7FE9F48FFF70BF864
:1034400010BD10B504210120FEF7BEFEFDF76DF89A
:10345000012806D002281CD003280AD0042820D135
:103460000FE09648FEF7F7FF01213520FEF7B7F889
:1034700017E09348FEF7EFFF03213520FEF7AFF882
:103480000FE09048FEF7E7FF03213520FEF7A7F88D
:1034900007E08D48FEF7DFFF02213520FEF79FF899
:1034A00000BF00BF10BD014609B988487047012917
:1034B00001D18748FAE7022901D18648F6E70329B6
:1034C00001D18548F2E7042901D18448EEE70529B6
:1034D00001D18348EAE78348E8E7014609B97B4818
:1034E0007047012901D17A48FAE7022901D17E48C3
:1034F000F6E70020F4E710B501F027FDC07800F0F2
:10350000030028B90320FFF785F9784981600CE0B2
:1035100001F01BFDC07800F003042046FFF7DDFF3B
:1035200003460320FFF776F9836001F00EFDC078B3
:10353000000928B90320FFF76DF96C4941610BE0E0
:1035400001F003FDC07804092046FFF7ACFF0346F5
:103550000320FFF75FF9436110BD10B501F0F5FCE2
:10356000807800F0030028B90320FFF753F95F4982
:1035700081600CE001F0E9FCC07800F00304204613
:10358000FFF7ABFF03460320FFF744F9836001F028
:10359000DCFC8078000928B90320FFF73BF9534988
:1035A00041610BE001F0D1FCC07804092046FFF72F
:1035B0007AFF03460320FFF72DF9436110BD70B574
:1035C0000546284601F062FB04460CB93F4870BD31
:1035D000012C01D13E48FAE7022C01D14448F6E71C
:1035E000032C01D14348F2E7042C01D14248EEE715
:1035F000052C01D13948EAE74048E8E710B5044610
:1036000004F0010040B10020FFF7D9FF034602207B
:10361000FFF700F9836004E00220FFF7FBF833496D
:10362000816004F0020040B10120FFF7C8FF0346AB
:103630000220FFF7EFF8436104E00220FFF7EAF809
:103640002A49416104F0040040B10220FFF7B7FFAE
:1036500003460220FFF7DEF8036204E00220FFF7D2
:10366000D9F82249016204F0080040B10320FFF7B5
:10367000A6FF03460220FFF7CDF8C36245E03FE016
:1036800042000000185E00082A5D0008D55C0008B2
:10369000E05C0008E75C0008EE5C00082F0000001A
:1036A0000D5D0008045D0008454550524F4D20490E
:1036B0006E666F3A00000000185D0008565D000855
:1036C000405D00086A5D00087F5D0008245E000818
:1036D000F35D00085A5E0008605E0008045E0008A2
:1036E0006E5E0008785E0008435E00082F5E0008EA
:1036F0001E5E00080F5E0008F95D0008155E0008F8
:103700000220FFF787F8B849C16210BD014609B928
:10371000B6487047012901D1B548FAE7022901D11D
:10372000B448F6E70020F4E710B50446601CC1B2C7
:103730000120FEF749FDB048FEF78DFEAF48FEF7C9
:103740008AFE10BD10B50446601CC1B20120FEF710
:103750003BFDAB48FEF77FFE10BD10B5044620468A
:10376000FFF716F810BD10B503210120FEF72CFD60
:10377000A448FEF770FE04210120FEF725FD9E48B7
:10378000FEF769FE9E48FEF766FE9FA0FEF763FE09
:10379000022001F0ABFA03280CD105210120FEF72D
:1037A00013FD9548FEF757FE9548FEF754FE97A087
:1037B000FEF751FE10BD10B503210120FEF704FDF8
:1037C0009348FEF748FE04210120FEF7FDFC8A48DD
:1037D000FEF741FE8A48FEF73EFE8BA0FEF73BFE59
:1037E00005210120FEF7F0FC8348FEF734FE8448F3
:1037F000FEF731FE85A0FEF72EFE10BD10B50321A9
:103800000120FEF7E1FC8348FEF725FE002001F0D1
:10381000DEFA032804D1FFF787FF7F48FEF71BFE7F
:10382000012001F0D4FA032805D10420FFF77CFF22
:103830007A48FEF710FE022001F0C9FA032805D1EC
:103840000520FFF771FF7648FEF705FE10BD10B5A5
:10385000044603210120FEF7B7FC7248FEF7FBFD8A
:1038600004F0010030B104210120FEF7ADFC6A48EC
:10387000FEF7F1FD04F0020030B105210120FEF752
:10388000A3FC6648FEF7E7FD04F0040030B1062112
:103890000120FEF799FC6248FEF7DDFD04F0080008
:1038A00030B107210120FEF78FFC5F48FEF7D3FD02
:1038B00004F0100028B10420FFF744FF52A0FEF7E7
:1038C000CAFD04F0200028B10520FFF73BFF4FA000
:1038D000FEF7C1FD04F0400028B10620FFF732FFDB
:1038E00052A0FEF7B8FD04F0800028B10720FFF7D2
:1038F00029FF4FA0FEF7AFFD04F4804030B1042152
:103900000120FEF761FC4B48FEF7A5FD04F40040E2
:1039100030B105210120FEF757FC4748FEF79BFD1B
:1039200004F4803030B106210120FEF74DFC4348FD
:10393000FEF791FD10BD10B503210120FEF744FCF8
:103940003F48FEF788FD002001F0D0F901280BD197
:103950000421FEF739FC2848FEF77DFD2848FEF7D4
:103960007AFD29A0FEF777FD022001F0BFF90128BA
:103970000BD10521FEF728FC1F48FEF76CFD2048FF
:10398000FEF769FD21A0FEF766FD10BD10B503210D
:103990000120FEF719FC2B48FEF75DFD2D20FEF7F8
:1039A0002BFC01F0D0FA447F02212046FEF7A7FD50
:1039B00003210D20FEF708FC2348FEF74CFD01F023
:1039C000C2FA847F02212046FEF799FDFFF739FDF8
:1039D00010BD10B5FEF776FA04210320FEF71CFD9A
:1039E0001A48FEF738FD10BD2F5E0008245E00085F
:1039F000F35D00084B5E0008DB5D0008C65D000853
:103A0000195C00087F5D00083100000032000000F2
:103A10009C600008AA600008FB5B0008005C0008CE
:103A2000055C0008BA6000080A5C0008330000006A
:103A300034000000E05C0008E75C0008EE5C000871
:103A4000C8600008B95B0008BF5B0008D9600008C7
:103A5000002006E0002100EB80022C4B9954411C11
:103A6000C8B20428F6DB7047002017E000EB8001A5
:103A7000264A515C012904D1022100EB8002234B2C
:103A8000995400EB8001214A515C022904D10021A4
:103A900000EB80021D4B9954411CC8B20428E5DBA1
:103AA000704710B500EB8002184B9A5C52B90122A6
:103AB00000EB8003154CE25400EB800223461A44CD
:103AC000C2F8011010BD00EB8001104A515C21B911
:103AD000012100EB80020D4B99547047014601EB28
:103AE00081000A4A105C30B1002001EB8102074BD3
:103AF0009854012070470020FCE7014601EB81004B
:103B0000024A1044D0F8010070470000B0080020BD
:103B1000002013E02A4931F81010491C284A22F8E5
:103B200010102849095C012906D1274931F81010E5
:103B3000491C254A22F81010411CC8B20428E9DBB0
:103B4000704700200AE000211D4A22F810101E4A8A
:103B500022F810101B4A1154411CC8B20428F2DB91
:103B600070470146164830F8110070470021144A8A
:103B700022F8101070470146134830F811007047C2
:103B80000021104A115470470E49095C31B90021D7
:103B90000D4A22F8101001210A4A115470470949B0
:103BA000095C012902D10221064A115470470549D6
:103BB000095C022902D10121024A11547047000018
:103BC00036020020460200203E02002001B508E037
:103BD0004FF0E020006900F4803010B10098401EE2
:103BE000009000980028F3D108BD10B5044634B900
:103BF0000020FDF763FD0020FE49086016E0FD4847
:103C000000686040204040B10D20FDF7A9FB002076
:103C1000FDF754FDF748046008E00D20FDF799FB1F
:103C200020B10120FDF74AFDF248046010BD10B537
:103C3000F1480078052870D2DFE800F0030B71BD71
:103C4000BE000B20FDF77EFB10B10120EA49087091
:103C5000B4E00220FDF7F1FA00F001042046FDF780
:103C60001CFD0020FDF775FB78B10220FDF7E5FA99
:103C700000F0010421462620FDF7B1FCDF48007862
:103C800040F00100DD49087009E000212620FDF721
:103C9000A6FCDA48007820F00100D849087001201D
:103CA000FDF757FB78B10220FDF7C7FA00F00104D9
:103CB00021462420FDF793FCD048007840F0020014
:103CC000CE49087009E000212420FDF788FCCB488C
:103CD000007820F00200C94908700B20FDF72BFB8B
:103CE00010B10220C44908700C20FDF724FBA8B1D4
:103CF0000B20FDF735FB0C20FDF732FB0020FDF714
:103D00002FFB0120FDF72CFB0020BD490870BA49AC
:103D10000870BA490870012010BD4EE04EE0012045
:103D2000FDF7BBFC0120FDF796FCB448007800F0DD
:103D3000010078B10220FDF780FA00F0020421466C
:103D40002620FDF74CFCAE48007840F00100AC495D
:103D5000087003E000212620FDF741FCA748007809
:103D600000F0020078B10220FDF767FA00F00204CB
:103D700021462420FDF733FCA148007840F00200E2
:103D80009F49087003E000212420FDF728FC0C2047
:103D9000FDF7D1FA70B10020FDF7E2FA0120FDF73E
:103DA000DFFA00209649087093490870934908701B
:103DB0000120B1E702E001E000E000BF00BF002009
:103DC000AAE710B58F480078072848D2DFE800F04E
:103DD00004333B4344454600FCF7A7FB022803D1CC
:103DE00001208849087025E00920FDF7A4FA18B1E0
:103DF0000220844908701DE0002000F0E8FF02283E
:103E000004D0012000F0E3FF022803D103207D4904
:103E100008700FE0032000F0DAFF032803D104202C
:103E20007849087006E00B20FDF785FA10B10520EF
:103E30007449087014E0FCF778FB022802D00020D7
:103E4000704908700CE00920FDF77CFA10B10020E1
:103E50006C49087004E003E002E001E000E000BF0C
:103E600000BFAFF2A100FCF704FA10BD10B5FDF7DA
:103E70000FFBAFF20700FCF7FCF910BD10B5FEF721
:103E800013F8AFF20700FCF7F4F910BD10B501F01C
:103E90005AF8C07F012804D15B490870FDF790FBF8
:103EA00010BD5948007820B1002057490870FDF72F
:103EB0008CFB01F04AF80446FDF76DFC01F045F873
:103EC000C07804092046FDF7B3FC01F043F804462E
:103ED000FDF701FD0220FDF7B0F900F001042046D6
:103EE000FDF7FDFBFDF765FB00684849084020B180
:103EF00001213720FDF773FB03E000213720FDF798
:103F00006EFB002000F0DCFE03280EDA012000F03A
:103F1000D7FE032809DA022000F0D2FE032804DAD3
:103F2000032000F0CDFE032804DB01213820FDF73B
:103F300056FB03E000213820FDF751FB002000F084
:103F40002CFF04280ED2012000F027FF042809D2FC
:103F5000022000F022FF042804D2032000F01DFFFD
:103F6000042804D301213920FDF739FB03E00021A7
:103F70003920FDF734FBFDF71CFB04682046FFF7F2
:103F800034FE00F0E0FFC07F012803D1FDF703FEFF
:103F900016210170FCF7A8FA032806D10220FDF7CC
:103FA0004CF9C4B22046FDF710FBFDF709FB00BF3A
:103FB00076E72DE9F041FDF7F0FD441DFDF7EFFD3B
:103FC000471DFDF7ECFD451DFDF7E3FD06460088A6
:103FD00020F004003080FDF7E0FD0079A02853D1E7
:103FE000FDF7DBFD461D304600F026FFFDF7D5FD51
:103FF000461D0DE050020020540200205502002012
:104000004C0200204D02002056020020FFC001009B
:10401000304600F0EDFF94F8210000F098FF00F02A
:1040200094FF94F82010C1702068FDF76FFE002007
:10403000FEF7F0FB617F81810020FEF7EBFBA17FA3
:1040400001830320FEF7E6FBB4F80D10818400F035
:1040500081FF0646FEF73EFF80460320FEF7DAFBAF
:10406000C0F82C8000F084FFA188018100F080FF5F
:10407000E18841810520FEF7CDFBA18881810520E3
:10408000FEF7C8FBE1880183FDF787FD007918285A
:104090001AD1FDF782FD461D304600F05EFF00F0AC
:1040A00067FF86880520FEF7B5FB868400F060FF79
:1040B00086790520FEF7AEFB068600F059FFC6792B
:1040C0000520FEF7A7FB8687FEF7ADFB00880128D9
:1040D00043D1FDF762FD0079192806D1FDF75DFD9A
:1040E000461D304600F046FF3AE0FE4800780328BF
:1040F0000CDCFDF750FD19210170FA48007828808A
:10410000F8480078401CF749087029E0FDF743FDA6
:104110000078202824D1FEF786FB4088461E3046D2
:1041200000F04AFF00882880FEF77DFB4088461E8D
:10413000304600F041FFC088E880FEF774FB4088FD
:10414000461E304600F038FF008928810020E549EE
:1041500008700A20FDF704F902E00020E149087028
:10416000FDF730FDBDE8F08110B50020FDF72DFA18
:104170000220FDF762F800F003042046FDF7AFFAD5
:1041800001213720FDF72BFAFDF71AFAFFF74EF958
:1041900010BD10B5FDF7FDFC0078C0F3800018B12C
:1041A000AFF2F110FCF765F8AFF21900FCF761F817
:1041B00010BD2DE9F041FDF7F2FC441D0A20FDF78A
:1041C000C8F800287ED0FEF72EFB008807287AD298
:1041D000DFE800F004FDFCFBFAF9F800C2480088B3
:1041E00038B9FEF720FB851C032200212846FDF785
:1041F000BFF8FEF718FB4088002839D101220021C2
:10420000BA48FDF70AF9B948008801282ADA0120DE
:10421000B549088000F036FD051D402200212846E2
:10422000FDF7A6F80220FDF708F8C5B200F02AFD58
:104230000679AE4908782A463146FEF734FC092053
:10424000FDF779F860B10A20FDF78AF80020A64949
:1042500008800120A5490880FDF79DFC122101700E
:10426000BDE8F0810020A049088001209F49088016
:10427000FEF7D9FA408801283BD1012200219B4852
:10428000FDF7CBF89948008801282CDA01209649DF
:10429000088000F0F7FC851D402200212846FDF72C
:1042A00067F80220FCF7C9FFC5B200F0EBFC867985
:1042B0008E4908782A463146FEF71FFC0920FDF793
:1042C0003AF801E0C4E2ADE260B10A20FDF748F837
:1042D000002085490880012084490880FDF75BFCA7
:1042E00013210170BCE700207F49088001207F492D
:1042F0000880FEF798FA4088022869D1032200213D
:104300007B48FDF78AF87A48008803287CDA012088
:104310007549088076480088C8B9FDF7FDFC00F1B2
:104320000805172200212846FDF722F8FDF7F4FCC6
:1043300007460220FCF781FFC5B2FDF7EDFC0689B8
:104340006B4908783B462A463146FEF7B1FC68487F
:104350000088012819D1FDF7DFFC00F10A053B2296
:1043600000212846FDF704F8FDF7D6FC0746022099
:10437000FCF763FFC5B2FDF7CFFC46895C490878BE
:104380003B462A463146FEF793FC594800880228EE
:1043900021D1FDF7C1FC00F10C053B22002128468C
:1043A000FCF7E6FFFDF7B8FC07460220FCF745FFE7
:1043B000C6B2FDF7B1FC85894D4908783B463246C7
:1043C000294606E02AE2E2E1DDE18FE131E1B5E0F4
:1043D00020E0FEF76DFC0920FCF7ADFF90B10A204C
:1043E000FCF7BEFF002040490880032040490880B8
:1043F000FDF792FC0546FDF700FD2060FDF7CBFBC5
:10440000142101702CE7FFE70020374908800320C2
:1044100037490880FEF707FA4088032861D1032254
:1044200000213448FCF7F9FF3248008803287EDA7F
:1044300001202D4908802F480088C0B9FDF76CFC89
:10444000051D1F2201212846FCF792FFFDF764FCA1
:1044500007460220FCF7F1FEC5B2FDF75DFC868839
:10446000244908783B462A463146FEF784FC214819
:104470000088012818D1FDF74FFC851C0C22012172
:104480002846FCF775FFFDF747FC07460220FCF7BE
:10449000D4FEC5B2FDF740FC4688164908783B4675
:1044A0002A463146FEF767FC12480088022825D1CB
:1044B000FDF732FC054640F6020240F2B271FCF70D
:1044C00057FFFDF729FC07460220FCF7B6FEC5B2F0
:1044D000FDF722FC0688074908783B462A46314604
:1044E0000AE02AE0570200205A0200206002002061
:1044F0005C0200205E020020FEF73DFC0920FCF774
:104500001AFF90B10A20FCF72BFF0020FE4908801B
:104510000320FE490880FDF7FFFB0546FDF76DFC13
:104520002060FDF738FB1521017099E6FFE70020B8
:10453000F54908800320F549088074E1F2480088B5
:1045400038B9FEF770F9851C042201212846FCF7D2
:104550000FFF02220021EE48FCF75FFFEC480088C5
:1045600002285FDA0120E8490880FEF75CF94088FC
:10457000401E86B2FEF757F94088451E284600F0D7
:104580001BFD0680E248008801281DD1FEF74BF98B
:104590004088461E304600F00FFD851D0222002196
:1045A0002846FCF7E5FEFEF73EF94088471E3846F0
:1045B00000F002FD0546FEF736F98678D44801780A
:1045C0002A463046FEF739FCD1480088F0B9FEF79C
:1045D0002AF94088461E304600F0EEFC00F108053E
:1045E000632200212846FCF7C3FEFEF71CF9408831
:1045F000471E384600F0E0FC0546FEF714F98678C1
:10460000C34801782A463046FEF717FC0920FCF71C
:1046100092FE30B10020BC490880FDF7BCFA202191
:1046200001701DE60020B84908800220B8490880C2
:10463000F9E0FEF7F8F8851C042200212846FCF773
:1046400097FE00F0A8FB45782846FEF7D7FF00F05C
:10465000A2FB45880220FEF7DDF8858700F09BFB72
:10466000051D01202870FEF7DEF8408803281DDCB8
:104670000D20FCF760FE50B100F08DFB451CFEF7ED
:10468000D2F88178012088402978084328700E20CC
:10469000FCF751FE50B100F07EFB451CFEF7C3F85D
:1046A000817801208840297881432970FEF7BBF882
:1046B0004088042808D100F06EFB851C4FF4FA7284
:1046C00001212846FCF7A9FE0920FCF734FE60B161
:1046D0000A20FCF745FEFEF7A6F8857800F05BFBA4
:1046E0000570FDF758FA172101709CE0FEF79BF862
:1046F000851C012200212846FCF73AFEFEF72DFF1B
:10470000FEF791F84088B0B90D20FCF714FE38B1DF
:1047100000F01BFC851C807820F00300401C2870F2
:104720000E20FCF708FE30B100F00FFC851C8078ED
:1047300020F003002870FEF776F84088012816D193
:104740000D20FCF7F8FD38B100F0FFFB851C8078E8
:1047500020F0F000103028700E20FCF7ECFD30B196
:1047600000F0F3FB851C807820F0F0002870092011
:10477000FCF7E1FD30B10A20FCF7F2FDFDF70BFA82
:10478000212101704FE00A20FCF7EAFD4BE000F028
:10479000EFFB058900F0ECFB00F10C062A46012135
:1047A0003046FCF7E5FD0D20FCF7C5FD18B100F023
:1047B000DFFB012181810E20FCF7BDFD28B100F057
:1047C000D7FB058900F0D4FB85810920FCF7B3FDF8
:1047D00020B100F0CDFB4FF6FF71818100F0C8FBE6
:1047E000C58900F0C5FB8089854216D000F0C0FB6A
:1047F000858900F0BDFBC58100F0BAFB80894FF6CA
:10480000FF71884205D100F0B3FB058900F0B0FBD1
:104810008581FDF7C0F91821017004E00A20FCF73A
:104820009FFD00E000BF00BFFDF773FA0546FDF7EE
:1048300075FAFDF7F8FF8578FDF7F5FF077838463C
:10484000FDF7E8FF06462A460121FEF782FB70E0ED
:1048500000202D49088003202E4908802B4908801C
:1048600001202D490880022029490880FDF7DBFF3F
:1048700000214180FEF73FFE00F07AFB058900F041
:1048800077FB85810020FDF7C5FF858900F0FAF9E7
:1048900085800020FDF7BEFF058B00F0F3F9C58091
:1048A000FDF737FA0546FDF739FA00F074FA457856
:1048B0002846FEF7A3FE00F06EFA45880220FDF7B9
:1048C000A9FF8587FDF767F90078172804D000F065
:1048D00062FA051D002028700E20FCF72CFD18B18F
:1048E000FDF7A1FF052101800D20FCF724FD18B183
:1048F000FDF799FF00210180FDF795FF0546052290
:104900000021FCF735FD09E05A0200205E0200207C
:10491000620200205C02002060020020FDF783FF9D
:1049200006783046FDF776FF054600221146FEF771
:1049300010FB00BF94E470B5FDF731F9441D00F0A1
:1049400002FBC07F012802D1FFF743F870BD0E20A3
:10495000FCF7F1FC18B1FDF71EF916210170FDF707
:10496000D8F90546FDF7DAF9FDF760FF0920FCF7F5
:10497000F7FC0A20FCF7F4FCFDF7A4FABD48FEF7AB
:10498000ECFEFBF7D2FD022802D1FEF7ECFE24E09C
:10499000002000F0ABF9042802D1FEF70CFF1CE068
:1049A000032000F032FA10B1FEF728FF15E00120D5
:1049B00000F0C8F910B1FEF7BEFF0EE0FCF7F9FDFC
:1049C0000068AD49084030B1FCF7F3FD05682846A2
:1049D000FEF73DFF01E0FEF7D9FF0223002211465A
:1049E0002620FCF789FF02231A4619462420FCF7EB
:1049F00083FF002000F07AF9042804D0012000F0A1
:104A000075F9042803D10120FCF725FE02E00020FF
:104A1000FCF721FE032000F0F8F918B10120FCF7A3
:104A20002BFE02E00020FCF727FEFCF77AFC207248
:104A3000FCF774FC607200BF88E770B5FDF7AFF853
:104A4000441D00F080FAC07F012802D1FEF7C1FFAB
:104A500070BD0E20FCF76FFC18B1FDF79CF8162115
:104A60000170FDF756F90546FDF758F9FDF7DEFE32
:104A70000920FCF775FC0A20FCF772FCFDF722FA0E
:104A80007E48FEF76AFEFBF750FD022802D1FEF7D2
:104A90006AFE24E0002000F029F9042802D1FEF784
:104AA0008AFE1CE0032000F0B0F910B1FEF7A6FE6C
:104AB00015E0FCF77EFD00686F49084030B1FCF757
:104AC00078FD05682846FEF7C2FE08E0012000F0E8
:104AD00039F910B1FEF72FFF01E0FEF757FF02236F
:104AE000002211462620FCF707FF02231A4619462A
:104AF0002420FCF701FF002000F0F8F801280ADC70
:104B0000012000F0F3F8012805DC0020FCF7A3FDEC
:104B10000020FCF7B1FDFCF704FC00F060002072FF
:104B200000BF95E710B556480078032806D1FBF77B
:104B3000DBFC032802D00020FCF747FDFBF7D4FC88
:104B40004F49087008460078012803D1AFF21510CC
:104B5000FBF78FFB4A480078022803D1AFF22920E7
:104B6000FBF787FB46480078032803D1AFF6BD105A
:104B7000FBF77FFBFFF78AF910BD10B5FDF709F8C9
:104B80000078C0F3400020B1AFF62320FBF771FBA3
:104B900009E0FCF7A0FB10B9FBF759FC18B1AFF224
:104BA0007B00FBF766FB0A21AFF23100FBF7AAFBA3
:104BB00010BD10B5FDF740FE4FF4FA60FFF706F8A0
:104BC00000BFFBF744FC0028FBD0FDF722FEFCF7FA
:104BD000A4FFFDF787F8AFF65B50FBF74AFBAFF693
:104BE0001D60FBF746FBAFF67B50FBF742FBAFF2D5
:104BF0007500FBF73EFBAFF66520FBF73AFB10BDF7
:104C0000FCF7BBF8FBF7E4FBFBF79AFFFDF744F971
:104C1000FEF797FFFEF71CFFFBF79EFBAFF26D0060
:104C2000FBF727FBFCF790F962B601E0FBF7F3FA1C
:104C3000FCE710B50220FCF700FBC4B2FBF72FFB2A
:104C4000FEF766FFFCF7A8FAFCF78AFF00F07BF995
:104C5000C07F01280AD12046FCF7B7FC2046FDF7AB
:104C60002BF901213020FCF7BAFC02E00120FDF70E
:104C700023F910BD9E5B0008FFC001008E5B000899
:104C8000580200200048704764020020014619B90C
:104C9000CD48C07C00097047012903D1CA48007D76
:104CA0000009F8E7022903D1C748407D0009F2E76F
:104CB000032903D1C448807D0009ECE70220EAE71C
:104CC000014611B9C14800787047012902D1C04896
:104CD0000078F9E7022902D1BE480078F4E70329F9
:104CE00002D1BD480078EFE70220EDE7014621B987
:104CF000B548C07C00F00F007047012904D1B248CC
:104D0000007D00F00F00F7E7022904D1AE48407D96
:104D100000F00F00F0E7032904D1AB48807D00F0DC
:104D20000F00E9E7042904D1A748C07D00F00F0077
:104D3000E2E7052904D1A448007E00F00F00DBE77C
:104D40000C20D9E70146A048C07C00F00F00884243
:104D50001DD09D48007D00F00F00884217D09A4872
:104D6000407D00F00F00884211D09748807D00F010
:104D70000F0088420BD09448C07D00F00F0088429D
:104D800005D09148007E00F00F00884201D101203B
:104D900070470020FCE791487047014619B98A48DE
:104DA000407E00097047012903D18748807E0009B1
:104DB000F8E7022903D18448C07E0009F2E70329FD
:104DC00003D18148007F0009ECE70520EAE70146AE
:104DD00021B97D48407E00F00F007047012904D1C1
:104DE0007948807E00F00F00F7E7022904D1764869
:104DF000C07E00F00F00F0E7032904D17248007F65
:104E000000F00F00E9E70520E7E701466E48407E25
:104E100000F00F0088420BD06B48807E00F00F003E
:104E2000884205D06848C07E00F00F00884201D15A
:104E3000012070470020FCE710B50146624A0020BF
:104E400002E00B5C1354401C2228FAD3634B1B79FD
:104E500003F0010303B110BD5B4BDB7C0224B4EB18
:104E6000131F04D0584BDB7C1B09584C2370564B46
:104E70001B7D0224B4EB131F04D0534B1B7D1B0975
:104E8000534C2370504B5B7D0224B4EB131F04D0B2
:104E90004D4B5B7D1B094F4C23704B4B9B7D02247C
:104EA000B4EB131F04D0484B9B7D1B094A4C237065
:104EB000454BDB7C1B0933B1484B5B7843F0010366
:104EC000464C637005E0454B5B7823F00103434C8F
:104ED00063703D4B1B7D1B0933B1404B5B7843F046
:104EE00002033E4C637005E03C4B5B7823F0020309
:104EF0003A4C6370344B5B7D1B0933B1374B5B78A5
:104F000043F00403354C637005E0344B5B7823F0C9
:104F10000403324C63702C4B9B7D1B0933B12F4B28
:104F20005B7843F008032D4C637005E02B4B5B78F6
:104F300023F00803294C6370234BB3F81130274C3E
:104F4000638000BF87E720487047254870472549A0
:104F50000870704723480078704701460A68224B62
:104F60001A608A889A808A799A71CA79DA71704748
:104F70001D48704730B501460A880B88C2EBC20451
:104F80001A4D25F81430CB88C2EBC20405EB44045B
:104F9000E3800B89C2EBC20405EB440423814B89F7
:104FA000C2EBC20405EB440463818B89C2EBC204EB
:104FB00005EB4404A38130BD0146C1EBC1000B4A9F
:104FC00002EB400070470000C40800206C02002083
:104FD0006D0200206E0200206F020020700200208F
:104FE000760200207A020020E6080020F608002061
:104FF00001460A89054B1A801A468B7A9370CB7A40
:10500000D3700B7B13717047004870477B02002000
:10501000704770477047754600F02CF8AE460500A3
:105020006946534620F00700854618B020B5FBF7C7
:10503000E1F8BDE820404FF000064FF000074FF0C8
:1050400000084FF0000B21F00701AC46ACE8C009A6
:10505000ACE8C009ACE8C009ACE8C0098D467047AF
:1050600010B50446AFF300802046BDE81040FBF7C2
:10507000A4B80000004870473009002001491820FA
:10508000ABBEFEE7260002007047000000000000F3
:10509000005F00000007000700147F147F14242A1B
:1050A0007F2A1223130864623649552250000503F3
:1050B0000000001C2241000041221C0014083E0890
:1050C0001408083E080800503000000808080808C6
:1050D00000606000002010080402000000000000D2
:1050E000005F00000007000700147F147F14242ACB
:1050F0007F2A1223130864623649552250000503A3
:105100000000001C2241000041221C0014083E083F
:105110001408083E08080050300000080808080875
:105120000060600000201008040200000000000081
:10513000005F00000007000700147F147F14242A7A
:105140007F2A122313086462364955225000050352
:105150000000001C2241000041221C0014083E08EF
:105160001408083E08080050300000080808080825
:10517000006060000020100804023E5149453E00D6
:10518000427F400042615149462141454B3118144C
:10519000127F1027454545393C4A4949300171097C
:1051A00005033649494936064949291E0036360065
:1051B0000000563600000008142241141414141480
:1051C00000412214080201510906324979413E7E0C
:1051D0001111117E7F494949363E414141227F41AB
:1051E00041221C7F494949417F090909013E414942
:1051F000497A7F0808087F00417F41002040413FF5
:10520000017F081422417F404040407F020C027F12
:105210007F0408107F3E4141413E7F090909063E57
:105220004151215E7F091929464649494931010109
:105230007F01013F4040403F1F2040201F3F40383A
:10524000403F63140814630708700807615149451B
:1052500043007F41410002040810200041417F00CB
:1052600004020102044040404040000102040020CA
:10527000545454787F484444383844444420384493
:1052800044487F3854545418087E0901020C525285
:10529000523E7F0804047800447D40002040443D95
:1052A000007F1028440000417F40007C04180478EF
:1052B0007C0804047838444444387C1414140808E6
:1052C0001414187C7C080404084854545420043FE7
:1052D0004440203C4040207C1C2040201C3C40306E
:1052E000403C44281028440C5050503C4464544CDA
:1052F00044000836410000007F00000041360800ED
:1053000010080810087846414678000000000000A8
:10531000005F00000007000700147F147F14242A98
:105320007F2A122313086462364955225000050370
:105330000000001C2241000041221C0014083E080D
:105340001408083E08080050300000080808080843
:10535000006060000020100804020000000000004F
:10536000005F00000007000700147F147F14242A48
:105370007F2A122313086462364955225000050320
:105380000000001C2241000041221C0014083E08BD
:105390001408083E080800503000000808080808F3
:1053A00000606000002010080402000000000000FF
:1053B000005F00000007000700147F147F14242AF8
:1053C0007F2A1223130864623649552250000503D0
:1053D0000000001C2241000041221C0014083E086D
:1053E0001408083E080800503000000808080808A3
:1053F000006060000020100804023E5149453E0054
:10540000427F400042615149462141454B311814C9
:10541000127F1027454545393C4A494930017109F9
:1054200005033649494936064949291E00363600E2
:1054300000005636000008142241001414141414FD
:10544000004122140802015109067E1111117E7FCC
:10545000494949317F494949367F01010103702992
:1054600027217F7F4949494177087F08774149498A
:1054700049367F1008047F7F1009047F7F081422BB
:105480004120413F017F7F020C027F7F0808087F97
:105490003E4141413E7F0101017F7F090909063EEE
:1054A0004141412201017F010147281008071E21C7
:1054B0007F211E63140814633F2020205F07080823
:1054C000087F7F407F407F3F203F205F017F48482B
:1054D000307F4830007F007F484830414141493E9D
:1054E0007F083E413E462919097F20545454783C98
:1054F0004A4A49317C545428007C0404040CC07886
:10550000447CC038545454186C107C106C4444547F
:1055100054287C2010087C7C2112097C7C102844B3
:105520000020443C047C7C0810087C7C1010107C1B
:1055300038444444387C0404047C7C141414083833
:105540004444440004047C04040C5050503C102893
:105550007C281044281028443C40407C400C10100B
:10556000107C7C407C407C7C407C40FC047C505027
:10557000207C5020007C007C50502028444454382B
:105580007C10384438085434147C0000C1C081C1F8
:10559000400101C3C003800241C201C6C0068007AA
:1055A00041C70005C1C581C4400401CCC00C800DB9
:1055B00041CD000FC1CF81CE400E000AC1CA81CBC0
:1055C000400B01C9C009800841C801D8C018801922
:1055D00041D9001BC1DB81DA401A001EC1DE81DF28
:1055E000401F01DDC01D801C41DC0014C1D481D5E9
:1055F000401501D7C017801641D601D2C0128013C2
:1056000041D30011C1D181D0401001F0C0308031B0
:1056100041F10033C1F381F240320036C1F681F727
:10562000403701F5C035803441F4003CC1FC81FDB8
:10563000403D01FFC03F803E41FE01FAC03A803B41
:1056400041FB0039C1F981F840380028C1E881E9FF
:10565000402901EBC02B802A41EA01EEC02E802FA9
:1056600041EF002DC1ED81EC402C01E4C0248025E8
:1056700041E50027C1E781E640260022C1E281E33F
:10568000402301E1C021802041E001A0C060806191
:1056900041A10063C1A381A240620066C1A681A7A7
:1056A000406701A5C065806441A4006CC1AC81ADB8
:1056B000406D01AFC06F806E41AE01AAC06A806BC1
:1056C00041AB0069C1A981A840680078C1B881B91F
:1056D000407901BBC07B807A41BA01BEC07E807F29
:1056E00041BF007DC1BD81BC407C01B4C0748075E8
:1056F00041B50077C1B781B640760072C1B281B3BF
:10570000407301B1C071807041B00050C19081916F
:1057100040510193C053805241920196C056805728
:1057200041970055C19581944054019CC05C805DB7
:10573000419D005FC19F819E405E005AC19A819B3E
:10574000405B0199C059805841980188C048804900
:105750004189004BC18B818A404A004EC18E818FA6
:10576000404F018DC04D804C418C0044C1848185E7
:1057700040450187C047804641860182C042804340
:1057800041830041C181818040401C1C3E7F00005C
:105790000000000000000000000000000080C0E0E9
:1057A000F0F8F8FCFCFEFEFEFE0000000000000029
:1057B0000000FEFEFEFEFEFEFEFEFEFCF8F0E0C077
:1057C0000080F0F8FCFEFEFEFEFEFEFCF8F080001D
:1057D000001EFEFEFEFEFC000000F8FEFEFEFE1EA9
:1057E0000000FEFEFEFEFEFEFEFEFEFEFEFE008051
:1057F000F0F8FCFEFEFEFEFEFEFCF8F0800000FE6F
:10580000FEFEFEFEFEF8000000FEFEFEFE000000B2
:105810000000000000000000C0F0F8FEFFFFFFFFE6
:10582000FFFFFFFFFFFFFFFFFF0000000000000081
:105830000000FFFFFFFFFFFF0101FFFFFFFFFFFF72
:1058400000FFFFFFFFFFFF0101FFFFFFFFFFFF0062
:1058500000007FFFFFFFFFF800F8FFFFFFFF0700DA
:105860000000010101FFFFFFFFFFFF01010100FF39
:10587000FFFFFFFFFF0101FFFFFFFFFFFF0000FF32
:10588000FFFFFFFFFFFFF00000FFFFFFFF00000032
:105890000000000080F0FCFFFFFFFFFFFFFF7F3FE5
:1058A0001F0F0703030101010100000000000000B9
:1058B0000000FFFFFFFFFFFF0000FFFFFFFFFFFFF4
:1058C00000FFFFFFFFFFFF0000FFFFFFFFFFFF00E4
:1058D0000000003FFFFFFFFFFCFFFFFFFF0700008E
:1058E0000000000000FFFFFFFFFFFF00000000FFBF
:1058F000FFFFFFFFFF0000FFFFFFFFFFFF0000FFB4
:10590000FFFFFFFFFFFFFFF000FFFFFFFF000000B2
:105910000000E0FCFFFFFFFFFFFF7F1F070100000B
:105920000000000000000000000000000000000077
:105930000000FFFFFFFFFFFFFEFEFFFFCF87030119
:1059400000FFFFFFFFFFFF0000FFFFFFFFFFFF0063
:1059500000000000FFFFFFFFFFFFFFFF030000004C
:105960000000000000FFFFFFFFFFFF00000000FF3E
:10597000FFFFFFFFFF0000FFFFFFFFFFFF0000FF33
:10598000FFFFFF3FFFFFFFFFF0FFFFFFFF000000F3
:10599000C0FEFFFFFFFFFFFF1F010000000000002F
:1059A00080E0F0F8FCFEFEFFFF00000000000000B9
:1059B0000000FFFFFFFFFFFF0303FFFFFFFFFFFEEE
:1059C00000FFFFFFFFFFFF0000FFFFFFFFFFFF00E3
:1059D000000000FEFFFFFFFFFFFFFFFFFE000000D3
:1059E0000000000000FFFFFFFFFFFF00000000FFBE
:1059F000FFFFFFFFFF0000FFFFFFFFFFFF0000FFB3
:105A0000FFFFFF003FFFFFFFFFFFFFFFFF0000F072
:105A1000FFFFFFFFFFFF1F00000000000080F0FEFF
:105A2000FFFFFFFFFFFFFFFFFF000000000000007F
:105A30000000FFFFFFFFFFFF0000FFFFFFFFFFFF72
:105A400000FFFFFFFFFFFF0000FFFFFFFFFFFF0062
:105A50000000FFFFFFFFFF0FFFFFFFFFFFFF000042
:105A60000000000000FFFFFFFFFFFF00000000FF3D
:105A7000FFFFFFFFFF0000FFFFFFFFFFFF0000FF32
:105A8000FFFFFF00003FFFFFFFFFFFFFFF00E0FF02
:105A9000FFFFFFFFFF0F000000000000F0FFFFFF0F
:105AA000FFFFFFFFFFFFFFFFFF00000000000000FF
:105AB0000000FFFFFFFFFFFF0000FFFFFFFFFFFFF2
:105AC00000FFFFFFFFFFFF8080FFFFFFFFFFFF00E2
:105AD00000FFFFFFFFFF0F0001FFFFFFFFFFFF8041
