:020000040800F2
:10000000900F0020DD010008CB0D0008C901000899
:100010005D0E0008770E0008910E00080000000039
:10002000000000000000000000000000AB0E00080F
:10003000ED01000800000000EF010008634C00081B
:10004000F3010008F3010008F30100085309000858
:10005000F3010008F3010008F3010008F3010008B0
:10006000F3010008F3010008F3010008F3010008A0
:10007000F3010008F30100082F110008F301000844
:10008000F3010008F3010008F3010008F301000880
:10009000F3010008F3010008F3010008F301000870
:1000A000F3010008F3010008F3010008F301000860
:1000B000F3010008F3010008F3010008F301000850
:1000C000F3010008F3010008F3010008F301000840
:1000D0008F0C00089F100008F3010008F3010008CE
:1000E000F3010008F3010008F301000800F002F832
:1000F00000F05AF80AA090E8000C82448344AAF168
:100100000107DA4501D100F04FF8AFF2090EBAE865
:100110000F0013F0010F18BFFB1A43F0010318473B
:1001200000600000206000000A444FF0000C10F84E
:10013000013B13F0070408BF10F8014B1D1108BF65
:1001400010F8015B641E05D010F8016B641E01F805
:10015000016BF9D113F0080F1EBF10F8014BAD1C55
:100160000C1B09D16D1E58BF01F801CBFAD505E073
:1001700014F8016B01F8016B6D1EF9D59142D6D3CD
:10018000704700000023002400250026103A28BFF5
:1001900078C1FBD8520728BF30C148BF0B607047F9
:1001A0001FB51FBD10B510BD04F04DFF1146FFF780
:1001B000F7FF04F03DFD04F06BFF03B4FFF7F2FF1F
:1001C00003BC04F073FF00001EF0040F0CBFEFF33C
:1001D0000880EFF3098000F005BE000008480047E2
:1001E000FEE7FEE7FEE7FEE7FEE7FEE7FEE7FEE7E7
:1001F000FEE7FEE703480449044A054B7047000048
:10020000ED00000890090020900F0020900B0020C6
:10021000900B0020704770B50024AFF2070572B64E
:1002200059480568280C0004B0F1006F07D0AFF200
:100230001B005549086062B6FFF7ECFF18E0AFF20B
:100240002B00854203D162B6FFF7E4FF10E00024E3
:1002500006E04D49601C51F8200041F82400641C60
:10026000142CF6D9AFF253004749086562B6A84787
:1002700070BD0146002072B604E0401C142801D96C
:1002800062B67047404A52F82020AFF277039A4294
:10029000F3D13D4A42F8201062B600BFF1E710B535
:1002A00000243A480068401C3849086000BF23E039
:1002B000374850F83400AFF2A301884200D11AE069
:1002C000334800EBC4008088012809D0304800EB97
:1002D000C4008088401E2E4901EBC401888009E0DB
:1002E0002B4951F83400FFF7C4FFAFF2D70028497B
:1002F00041F8340000BF641C142CD9D310BD23482E
:100300000068704730B502460B4672B6002016E012
:100310001F4C54F83040944205D11D4C04EBC004EE
:10032000A38062B630BD1A4C54F83040AFF21B15B2
:10033000AC4203D111B981B241F40041401C1428F0
:10034000E6D321F40041124C44F8312004EBC104FF
:10035000A38062B600BFE5E7002000BF0CE0AFF26B
:100360004B11094A42F82010094A42F83010002186
:1003700002EBC0029180401C1428F0D9704710B5E0
:1003800000F0E2FD10BD000080020020000000200F
:10039000D402002008B502464FF6FF7000900DE031
:1003A00012F8010BBDF80030DBB25840074B33F8B0
:1003B0001000BDF8003080EA23200090081EA1F153
:1003C0000103D9B2ECD1BDF8000008BDBA55000850
:1003D0005848806940F01D00564988615648406879
:1003E00040F00070544948605448006820F4404090
:1003F000524908600846006840F440500860704761
:10040000B0F5C05F05D100214D4A118001214D4A50
:100410001180B0F5807F05D10021494A1180022169
:10042000484A118046490988491C89B2444A1180CA
:1004300021290BDBB0F5C85F02D10321414A1180AD
:10044000B0F5885F02D104213E4A1180704700B5A3
:100450003D480078032819DA3848806848F20301DB
:1004600008403A49384A127821F8120038480068A2
:1004700000F4C8503749344A127821F81200324843
:100480000078401C30490870002000BD00202E4933
:1004900008702E4800882D49498808402B49498812
:1004A0002A4A92881140084328490988274A928895
:1004B00011400843C0432849088026480088254940
:1004C0004988084023494988224A928811400843B4
:1004D000204909881F4A9288114040EA01031846C2
:1004E000FFF78EFF0120D0E71B49098801F00201C8
:1004F00019B10021194A118002201749098801F019
:10050000010119B10021154A1180032013490988FE
:10051000491C89B2114A1180642905DB0E490988FA
:1005200001F0030101B90120704706480088C0B2FC
:100530007047000000100240000001400010014020
:100540001C0000200A0000200C0000200E000020EB
:100550000808014014000020080000201A000020B4
:1005600001B500BFBDF80000401E80B20090002819
:10057000F8D108BDAC48006800F03330AA490860E3
:100580000846006840F0333008607047A6480068AD
:1005900000F0CC30A44908600846006800F0333011
:1005A00008600846006840F04430086070479F4883
:1005B000806940F01C009D4988619D48006820F4D6
:1005C0004C009B4908609B48006840F6CC4188433A
:1005D00098490860081D006820F44C40091D086017
:1005E0009348006840F408109149086091480068F9
:1005F00040F2222108438F490860081D006840F43A
:100600000850091D0860704710B54FF48060894993
:10061000103108601420FFF7A3FF4FF08060854978
:10062000103108601420FFF79BFF10BD10B510209B
:100630007F49086180037F4910310860022008600B
:10064000FFF7A4FFFFF7E0FF774808300068C4B267
:100650004FF48010764908618010764910310860A7
:1006600040100860FFF786FF204610BD70B50446B5
:100670000D4625B104206F491031086004E04FF4A5
:1006800080206C491031086067480C30006800F425
:100690007F40204364490C3108601420FFF760FF5D
:1006A000FFF7B2FF70BD28B14FF40061614A10320C
:1006B000116004E04FF000615E4A10321160704733
:1006C00010B5FFF774FF01205A491031086000BFD0
:1006D000FFF7ACFF00F010000028F9D110205449BA
:1006E0000861202008610021B820FFF7BFFF00212A
:1006F0004020FFF7BBFF0021C020FFF7B7FF00211C
:100700003F20FFF7B3FF00BFFFF790FF00F020008E
:100710000028F9D14FF4006046491031086010BD3F
:100720004548704710B500244448007810B10128AE
:100730006FD136E04FF400103D4908611020086188
:100740003F490978B831C8B20021FFF78FFF002177
:100750004020FFF78BFF00240CE03A490A88098803
:10076000491C384B19803449885C0121FFF77EFF12
:10077000601CC4B2402CF0DB324800884030314964
:1007800008802F480078401CC0B22D490870082806
:1007900006DB002008702B490880012027490870DB
:1007A00037E04FF480102249086120200861244975
:1007B0000978B831C8B20021FFF758FF0021402066
:1007C000FFF754FF1F48008840301E49088000246E
:1007D0000CE01C490A880988491C1A4B19801649E3
:1007E000885C0121FFF742FF601CC4B2402CF0DBA3
:1007F00013480078401CC0B211490870082807DB74
:10080000002008700F4908800C490870012010BDB5
:1008100000BF00BF0020FAE710B500BFFFF782FF5E
:100820000028FBD010BD000000080140001002406D
:1008300000100140000C01407C0300201F0000203C
:100840001E000020200000205348C06940F0C05026
:100850005149C8615148006840F480704F490860B0
:100860004D48006A00F40040B0F5004F3BD04A48C4
:10087000006A40F48030484908620846006A20F463
:10088000803008620846006A40F40140086244482B
:10089000008840F010004249088047F6FF70404948
:1008A000083108803E48008820F010003C4908804C
:1008B0003948006A40F001003749086200BF3648F5
:1008C000006A00F001000028F9D0354800884FF692
:1008D000F77108403249088000BF3148008800F0B5
:1008E00008000828F9D12E48008840F010002C4953
:1008F00008800120091F0880081D008820F01000D2
:10090000091D08800320012181404209920002F163
:10091000E022C2F8001100BF70472148183000885B
:100920001F491431098840EA014070471C49098871
:1009300041F010011A4A1180010C194A1432118039
:10094000121D10801649098821F01001144A1180E7
:1009500070471348008800F0010028B11048008853
:1009600020F001000E4908800D48008800F00200C8
:1009700028B10B48008820F0020009490880084887
:10098000008800F0040028B10548008820F0040029
:1009900003490880704700000010024000700040CA
:1009A0000428004000BF011EA0F1010290B2FAD15C
:1009B000704710B50446204600F014F910BD10B57C
:1009C00004464FF080505A4908600A20FFF7EAFFBA
:1009D0002046FFF7EEFF4FF480505549086010BDE8
:1009E00070B505464020FFF7EAFF4FF080505049B0
:1009F0000860C020FFF7DDFF002404E0285DFFF75A
:100A0000D8FF601CC4B2092CF8D34FF48050484979
:100A100008600320FFF7D3FF8A20FFF7D0FF70BDE7
:100A200070B5054600244FF08050414908604220CF
:100A3000FFF7BFFF002000F0BAF800BF04E000F0AD
:100A4000F9F82855601CC4B2052CF8DB012000F031
:100A5000AEF84FF480503649086070BD10B50024E0
:100A60003449097801EB8101334A8818FFF7D8FF30
:100A70003048007800EB80002F49085C00F024002B
:100A800018BB2C48007800EB80000844407800F048
:100A90002400D0B92748007800EB80000844807813
:100AA00000F0240088B92348007800EB8000084457
:100AB000C07800F0240040B91E48007800EB8000A8
:100AC0000844007900F0240018B10020194908708A
:100AD00004E018480078401C164908701548007852
:100AE000032820D1002013490870002417E0124881
:100AF000005D1149491D095D08400F49491D095D07
:100B00000D4A0A32125D114008430B490A5D0A3151
:100B1000095D0A40104309490855601CC4B2052C00
:100B2000E5DB012010BD0020FCE704487047000011
:100B3000100C0140270000207C070020220000202C
:100B400059480068594908405749086008460068F4
:100B500040F4403008600846006840F40000086037
:100B60000846006840F4401008600846006840F0FD
:100B7000806008600846006840F000400860084651
:100B8000006840F0405008604948C06940F4804027
:100B90004749C861002047490880091D0880081F8F
:100BA000008848F2E73108434249088070474149CC
:100BB000098821F040013F4A1180012805D11146E2
:100BC000098841F48041118005E03A49098821F4FF
:100BD0008041384A11803749098841F04001354A3F
:100BE0001180704708B50021009106E00099491C6A
:100BF0000091B1F5A04F00D908BD2E4908310988F0
:100C000001F002010029F1D00021009129490C31A5
:100C1000088006E00099491C0091B1F5A04F00D969
:100C2000EAE724490831098801F080010029F1D15F
:100C300000BFE1E708B50020009007E00098401CE5
:100C40000090B0F5A04F01D9002008BD1948083028
:100C5000008800F080000028F0D10090FF201549A6
:100C60000C31088007E00098401C0090B0F5A04FC0
:100C700001D90020E9E70F480830008800F00100A2
:100C80000028F0D00B480C300088C0B2DDE70948DE
:100C90000830008807480830008806480830008877
:100CA0000448083000887047040C0140FFFF3333CC
:100CB000001002400038004000210020814A1268E4
:100CC00042F480327F4B1A6000BF7E4A126802F401
:100CD0000030491C10B9B1F5A06FF6D1794A1268FD
:100CE00002F400320AB1012000E00020012843D1C3
:100CF000754A126842F01002734B1A601A46126865
:100D000022F003021A601A46126842F002021A60C8
:100D10006C4A526842F480626A4B5A601A465268C2
:100D200022F47C125A601A46526842F4E8125A6061
:100D30001A46126842F080721A6000BF614A126857
:100D400002F00072002AF9D05E4A526822F00302D3
:100D50005C4B5A601A46526842F002025A6000BF69
:100D6000584A526802F00C02082AF9D1554A126812
:100D700042F40022534B1A60704700B55148006896
:100D800040F001004F490860084640684F4908405C
:100D90004C494860084600684D4908404949086088
:100DA0000846006820F4802008600846406820F467
:100DB000FE0048604FF41F008860FFF77DFF454844
:100DC000414948604448486000BD10B501F09AF8B8
:100DD00042A001F060FB0121084601F015FA01F084
:100DE00083F810BD2DE9F04104466569A669E769FD
:100DF00001F088F80121084601F006FA38A001F058
:100E00004AFB0221012001F0FFF938A001F043FB69
:100E1000304601F0AEFC0321012001F0F5F936A0C7
:100E200001F039FB384601F0A4FC0421012001F057
:100E3000EBF934A001F02FFB284601F09AFC0521C4
:100E4000012001F0E1F932A001F025FB33480068F0
:100E500001F08FFC01F04CF8BDE8F08110B501F015
:100E600051F80121084601F0CFF92DA001F013FB44
:100E700001F03AF810BD10B501F044F80121084620
:100E800001F0C2F929A001F006FB01F02DF810BD18
:100E900010B501F037F80121084601F0B5F926A098
:100EA00001F0F9FA01F020F810BD10B501F02AF8B0
:100EB0000121084601F0A8F922A001F0ECFA01F0A6
:100EC00013F810BD00100240002002400000FFF0A7
:100ED000FFFFF6FE23016745AB89EFCD4E4D49007C
:100EE000486172644661756C7400000050432020B4
:100EF0002020203D00000000505352202020203DA3
:100F0000000000004C5220202020203D0000000066
:100F10005461736B4164723D0000000004000020C6
:100F20004D656D4D616E61676500000042757346E9
:100F300061756C74000000005573616765466175EA
:100F40006C7400005356430003484FF0E0214861A1
:100F500088610720086170473F19010010B50446F9
:100F6000201D8549C8640846406C40F01000486464
:100F70000846406C40F0800048640846406C40F0F1
:100F8000020048640E2000F0EBF810BD70B5044676
:100F90007A48006820F44C60784908600846006888
:100FA00040F0B00008600846006840F480600860C7
:100FB0007348806940F480407149886171480480B9
:100FC000001D008820F480506E49091D0880081D0E
:100FD000008820F44050091D088042F22C00091FAF
:100FE000088068480C30008840F0800065490C316A
:100FF000088025200F21002807DA0A07150E624A0B
:1010000000F00F031B1FD55403E00A07130E5F4ABD
:10101000135400BF252000F0A3F85948406940F060
:1010200001005749486157480838FFF797FF70BDDE
:1010300040B15449091D098841F00401514A121D6B
:10104000118007E04F49091D098821F004014D4A2C
:10105000121D1180704700224D4B1A801A46917064
:101060005060484A121D128822F00402454B1B1D95
:101070001A800278434B1B1F1A80424A121D1288A5
:1010800042F048023F4B1B1D1A8070474148704791
:101090003C48083800883B48001F0088704710B55E
:1010A00038480838008800F0200090B135480838EA
:1010B000008800F00F0038B9324A121F1288D0B2EF
:1010C000344A1168884704E0FFF7E2FF3149486875
:1010D00080472C480838008800F0080020B1FFF74E
:1010E000D7FF2C494868804726480838008800F018
:1010F000400050B12749886880472248001D008879
:1011000020F040001F49091D08801E48083800884B
:1011100010BD194A526C22F00102174B5A641A464C
:1011200010659164526C42F001025A647047124893
:10113000006800F4005090B10F48406840F400503F
:101140000D4948600846406C20F0010048640D4895
:10115000001D008840F040000A49091D08807047C2
:1011600000F01F02012191404209920002F1E022A9
:10117000C2F800117047000000000240040801405E
:10118000001002400838014018ED00E000E400E0E3
:10119000280000208C0700202E480088401C2D4984
:1011A000088008460088322190FBF1F201FB120012
:1011B00028B92948007880F001002749087025489F
:1011C0000088642190FBF1F201FB120028B922484B
:1011D000007880F00200204908701E480088FA213B
:1011E00090FBF1F201FB120028B91B48007880F057
:1011F000040019490870174800884FF4FA7190FBF1
:10120000F1F201FB120028B91348007880F00800C1
:10121000114908700F4800884FF47A7190FBF1F281
:1012200001FB120040B90C48007880F010000A4918
:101230000870002007490880704701460120884057
:10124000054A1278104010B14FF6FF707047002029
:10125000FCE70000320000203000002070B50020C4
:10126000854908704870002428E0FFF75EFC005DA7
:1012700000F002008501FFF758FC005D00F010004F
:1012800045EA8000610008417B49097808437A49B2
:101290000870FFF74AFC005DC007050EFFF745FC2C
:1012A000005D00F0080045EAC00061000841724995
:1012B0004978084370494870601CC4B2042CD4DBE0
:1012C0006D4800786C49497840EA01206A494880B5
:1012D00070BD6A48704710B50024FFF7BFFBD8B156
:1012E000FFF7BCFF644844886448046064480068B1
:1012F000604020406149486061480068A0438860C0
:101300000846C068496848405C49C86001200861D7
:101310005B480460012010BD0020FCE756480078BF
:10132000704755484078704701465448006801228C
:101330008A401040704701465048406801228A4068
:101340001040704701464D48806801228A40104095
:10135000704701464948C06801228A4010407047E2
:101360004649C968012282409143444AD16070478E
:1013700030B503460D4614461888A84200DA1D8091
:101380001888A04200DD1C800B20FFF7CDFFE0B1E4
:101390001888A84200D130BD3A4800880B2806D0F2
:1013A0000B20384908801888401E188033E03648E2
:1013B0000088401C80B23449088032282BDB188812
:1013C000401E18802D20088025E00C20FFF7ACFF80
:1013D000E0B11888A04200D1DDE72A4800880C2837
:1013E00006D00C20274908801888401C188012E07D
:1013F00025480088401C80B22349088032280ADB37
:101400001888401C18802D20088004E000201D4909
:1014100008801D49088000BFBDE730B503460C4673
:1014200015460D20FFF780FF70B11888A04200D14B
:1014300030BD164800880D281CD00D2013490880A7
:101440001888401E188015E00E20FFF76DFF70B160
:101450001888A84200D1EBE70C4800880E2809D074
:101460000E200A4908801888401C188002E00020DD
:101470000649088000BFDBE73900002098070020FC
:1014800040000020460000204400002048000020CA
:1014900010B50024FFF749F8032803D0FFF745F8FB
:1014A000042801D144F4805403F067FD807800F0F3
:1014B0000300022801D144F4807403F05EFD8078BB
:1014C000C0F38100022801D144F4007403F055FDFB
:1014D00080780421B1EB101F01DC44F4806403F038
:1014E00051FD032801D144F40064002003F000FC06
:1014F000032801DB44F01004012003F0F9FB03286A
:1015000001DB44F02004022003F0F2FB032801DB9E
:1015100044F04004032003F0EBFB032801DB44F01C
:101520008004002003F051FC042801D344F001049E
:10153000012003F04AFC042801D344F002040220F5
:1015400003F043FC042801D344F00404032003F017
:101550003CFC042801D344F0080403F06DFD8078BE
:101560000221B1EB101F01DC44F4804403F064FD60
:10157000C0780221B1EB101F01DC44F4004403F0F9
:101580005BFD00790221B1EB101F01DC44F48034D3
:1015900009480460094800686040204006494860E6
:1015A00006480068A04388600448046010BD00201D
:1015B0007047014870470000AC0700204C00002035
:1015C00010B5F748FFF70CFA10BD0146F44A0020A9
:1015D00002E01154431CD8B20928FAD3704770B501
:1015E00002460C46EE49082A05DB1546D61702EBE3
:1015F0005676C6F3C700A2EBC005EBB2302A0CD07A
:10160000312A0AD0322A08D0332A06D0342A04D00C
:101610000D5C03269E40B5430D54012C05D10D5C95
:1016200001269E4035430D5414E0022C05D10D5C7B
:1016300002269E4035430D540CE0032C05D10D5C71
:1016400003269E4035430D5404E00D5C03269E4066
:10165000B5430D5470BD10B50446012C06D0022CC4
:1016600013D0032C07D0042C14D109E0012135201C
:10167000FFF7B5FF0EE003213520FFF7B0FF09E0CB
:1016800003213520FFF7ABFF04E002213520FFF7EF
:10169000A6FF00BF00BF10BD012807D1C04989794E
:1016A00021F008010831BE4A917105E0BC498979F1
:1016B00021F00801BA4A91717047012807D1B84951
:1016C000897921F010011031B54A917105E0B449D2
:1016D000897921F01001B24A91717047012807D130
:1016E000AF49897921F00401091DAD4A917105E0E6
:1016F000AB49897921F00401A94A91717047012809
:1017000007D1A749897921F00201891CA44A917166
:1017100005E0A349897921F00201A14A917170473E
:101720009F49897821F001019D4A9170114689787D
:1017300021F002019170012806D11146897821F02B
:101740000101491C917018E0022807D19449897859
:1017500021F00201891C924A91700EE003280CD1FD
:101760008F49897821F00101491C8D4A91701146F9
:10177000897821F00201891C917070478849897825
:1017800021F04001864A91701146897821F080014C
:101790009170012806D11146897821F0400140312D
:1017A000917018E0022807D17D49897821F08001E5
:1017B00080317B4A91700EE003280CD178498978FA
:1017C00021F040014031764A91701146897821F02C
:1017D000800180319170704770B50446E07800F068
:1017E0000300012802D1FFF7C9FF13E0E07800F001
:1017F0000300022802D1FFF7C1FF0BE0E078C0F33D
:101800008100022806D1FFF718FD00F003052846E5
:10181000FFF7B4FF70BD6249897821F01001604A7A
:1018200091701146897821F020019170012806D12C
:101830001146897821F010011031917018E00228CA
:1018400007D15749897821F020012031544A9170FD
:101850000EE003280CD15249897821F01001103193
:101860004F4A91701146897821F020012031917002
:10187000704770B5044614B90020FFF7CCFF032C65
:1018800002D10120FFF7C7FF022C07D10220FFF78A
:10189000D4FC00F001052846FFF7BDFF042C07D15A
:1018A0000220FFF7CAFC00F003052846FFF7B3FF4C
:1018B000052C02DB0220FFF7AEFF70BD38498978A6
:1018C00021F00401364A91701146897821F008010F
:1018D0009170012806D11146897821F00401091D73
:1018E000917018E0022807D12D49897821F008016C
:1018F00008312B4A91700EE003280CD128498978D1
:1019000021F00401091D264A91701146897821F0C1
:10191000080108319170704770B50446032C08D156
:101920000220FFF78AFC00F003052846FFF7C6FFF8
:1019300002E00120FFF7C2FF70BD2DE9F0478146AC
:101940000E4617469846384603F0E8F904464046E6
:10195000FFF773FCC5B2304603F0CAF9032819DB60
:10196000032C07DB05F0030040F002014846FFF7B7
:1019700036FE24E0012C07D105F0030040F0010100
:101980004846FFF72CFE1AE005F003014846FFF732
:1019900026FE14E034B900214846FFF720FE0EE091
:1019A000B8070020012C04D101214846FFF717FE9B
:1019B00005E0032C03DB02214846FFF710FE042C50
:1019C00002D10120FFF768FEBDE8F0874FF08040AC
:1019D000C9490861C948008820F00100C74908804A
:1019E000704710B5C648C078801EC4B22146C448AE
:1019F000FEF7D0FCC249085310BD70B504460D4631
:101A0000BE48007800F0010000B170BD4FF4804086
:101A1000B949086129462046FFF77BFBB748008893
:101A200020F00100401CB549088000BFEDE7002010
:101A3000B449087048708870C870704731B5B14CAF
:101A4000B1480078401CB0490870E07800283FD0C9
:101A50009DF8002008460078801F611D0A54E07838
:101A6000A9490978884276DC0020A7490870E07807
:101A7000801EC1B22046FEF78DFCE178214431F88A
:101A8000021C884221D1A078012802D0022810D15E
:101A900007E09A48008820F00400001D974908805C
:101AA0000BE09648008820F00400001D9349088050
:101AB00003E0FFF7BCFF002038BD00BFFFF7B7FF12
:101AC0000020924908800120F6E7FFF7B0FF42E0CE
:101AD000207872280CD06078A52809D0A07838B971
:101AE0009DF80000722803D19DF80000207032E0BC
:101AF000207872280CD16078A52809D0A07838B950
:101B00009DF80000A52803D19DF80000607022E038
:101B1000207872280BD16078A52808D1A07830B938
:101B20009DF8000018B19DF80000A07013E0207827
:101B300072280BD16078A52808D1A07830B19DF823
:101B4000000018B19DF80000E07004E000206E492C
:101B50000870FFF76CFF0020AEE710B56C48806995
:101B600040F010006A4988616348406820F0406096
:101B7000614948600846406840F0407048604FF452
:101B80009070FFF703FAFFF781FA62490160FFF7EF
:101B90007DFA61494160FFF779FA6049816010BDC3
:101BA0005A480088B0F57A7F0BD858480088401C06
:101BB000564908805148008820F002004F490880AB
:101BC00006E04E48008820F00200801C4B49088047
:101BD00070474A487047524870474A4870474848DB
:101BE000704710B5464C72202070A520607002200E
:101BF000A0701120E070FFF7F4FEE1782046FFF7B7
:101C0000FCFE10BD70B5FFF7EAFF441DFFF7E3FFD0
:101C10000078123810285CD2DFE800F008111A1F93
:101C200024293F485B5B5B5B5B5B4D52FFF7D7FF53
:101C30001221017103F03EF80079A07154E0FFF722
:101C4000CEFF1321017103F035F88079E0714BE08C
:101C5000FFF7C5FF1421017146E0FFF7C0FF152112
:101C6000017141E0FFF7BBFF162101713CE0FFF776
:101C7000B6FF1721017103F0A6F84078207103F038
:101C8000A2F80078A07103F09EF84088206003F06D
:101C90009AF8051D0020287026E0FFF7A0FF182104
:101CA000017103F07DF9808920601DE0FFF797FF47
:101CB0001921017118E0FFF792FF2021017113E053
:101CC000FFF78DFF2121017103F057F98078207112
:101CD0000AE0FFF784FF11210171FEF726FC207155
:101CE000FEF702FC607100BF00BFFFF774FF002128
:101CF0000170FFF776FF70BD00100140500000201A
:101D000021080020C10700205400002052000020BC
:101D1000001002403D1A00082F1A0008CD190008D3
:101D2000550000204CF6BB40654908804AF69920D2
:101D3000488048F67700888046F25560088144F272
:101D40003340488142F21120888170475D49086024
:101D500070475C480068704759487047F0B50146C5
:101D60004AF6C0050D444AF6C006B5FBF6F5564ED8
:101D7000354468080725B0FBF5F605FB1605504EFF
:101D8000F58047F62C5528448500ED1C4F4EB5FBD9
:101D9000F6F5ECB235466543A0EBA5008500ED1CD9
:101DA00040F2B556B5FBF6F5EBB235465D43A0EB18
:101DB000A50000EB8005AD1C9926B5FBF6F5EAB24F
:101DC00002EB021505EBC505AD1C052695FBF6F5E6
:101DD000451B6D1C3A4EB5800A2592FBF5F6D51CC5
:101DE0000C2707FB1655364E75800A2592FBF5F633
:101DF000642505FB0435A5F596553544304E3580F0
:101E00004FF46165B1FBF5F51826B5FBF6F706FB57
:101E100017552B4E35813C25B1FBF5F53C26B5FB1E
:101E2000F6F706FB1755264E75813C25B1FBF5F6F6
:101E300005FB1615224EB581F0BD70B501464D88E3
:101E4000C5F10E050C2695FBF6F5EBB20D8805F5F0
:101E50009655ED1AAAB24D8806FB0355ED1EECB25D
:101E60008D88681E04EB041505EBC505AD1C052621
:101E700095FBF6F5284440F26D1505FB020000EBDA
:101E8000A200642592FBF5F5401B4FF4C87592FB48
:101E9000F5F52844A0F5FA402D380D4D401B0D4DA9
:101EA00068430D89C5EB4516C6EB052500EB05100B
:101EB0004D89C5EB051500EB85008D89284470BD63
:101EC0008108002058000020177B4A00B13A020028
:101ED0008B3D25008051010010B5FEF7F1FBFEF7A8
:101EE0001FFCFE49086010BD10B5FEF71BFC10BDBD
:101EF00010B5FEF791FC10BD10B504462046FEF764
:101F0000D2FB10BD002005E00021F44A12681154F4
:101F1000411C88B2B0F5806FF6DB7047002005E009
:101F2000FF21EE4A12681154411C88B2B0F5806F4F
:101F3000F6DB7047F0B50446802C01DC402900DD5B
:101F4000F0BD0E46CF1701EB5777FF1004EBC71714
:101F5000BDB2CF1701EB5777FF10A1EBC707BBB29C
:101F6000DE4E3668705D1AB901269E40B0430CE023
:101F7000012A04D101269E400643B0B205E0022AA0
:101F800003D101269E404640B0B2D44F3F687855F9
:101F900000BFD5E72DE9F84F04460D4691469A4615
:101FA00000260027B346002000908046802C07DCE6
:101FB000B9F1800F04DC402D02DCBAF1400F01DDE5
:101FC000BDE8F88FAAEB0506A9EB0407002E04DA9A
:101FD00076424FF0FF30009001E001200090002F8A
:101FE00003DA7F424FF0FF3B01E04FF0010B760038
:101FF0007F00E9B2E0B20A9AFFF79CFFB74213DD17
:10200000A6EB67080DE0B8F1000F03DB009805446C
:10201000A8EB07085C44B044E9B2E0B20A9AFFF7C3
:1020200089FF4C45EFD112E0A7EB66080DE0B8F14F
:10203000000F02DB5C44A8EB060800980544B84496
:10204000E9B2E0B20A9AFFF775FF5545EFD100BF3C
:10205000B6E72DE9F04705460E4690469A4600241D
:102060000027A146802D03DD402E01DDBDE8F0876D
:102070004FFA88F70320A0EB48004FFA80F951E0AF
:10208000F219D1B22A19D0B25246FFF753FFF21B10
:10209000D1B22A19D0B25246FFF74CFFF219D1B291
:1020A0002A1BD0B25246FFF745FFF21BD1B22A1BC2
:1020B000D0B25246FFF73EFF3219D1B2EA19D0B280
:1020C0005246FFF737FF321BD1B2EA19D0B252465F
:1020D000FFF730FF3219D1B2EA1BD0B25246FFF7F8
:1020E00029FF321BD1B2EA1BD0B25246FFF722FFC2
:1020F000B9F1000F09DA2046611C4CB2062101EB50
:10210000800048444FFA80F90CE02046611C4CB234
:1021100039467A1E57B2401A0A2101EB8000484422
:102120004FFA80F9BC42ABDD00BF9FE72DE9F84FC5
:1021300007460D4690461E46DDF828A0BAF1640F0A
:1021400001DDBDE8F88F012033464246314600905C
:102150003846FFF71FFF01203346424629460090CC
:102160004046FFF717FF012033463A4629460090C4
:102170003846FFF70FFF01202B46424629460090C4
:102180003846FFF707FF01206B1EA8F10702691E02
:102190000090F81DFFF7FEFE0120AB1EA8F107021C
:1021A000A91E0090F81DFFF7F5FE701BC01E00FB76
:1021B0000AF0642190FBF1F000F0FF0900240BE02D
:1021C00001200090B01E031BA8F10202011BB81CE5
:1021D000FFF7E0FE601CC4B24C45F1DB701BC01E73
:1021E00000F0FF0B5C460BE000200090B01E031BCC
:1021F000A8F10202011BB81CFFF7CCFE601EC4B29E
:102200004C45F1DC00BF9CE718280ADC082908DCF3
:102210004A1ED301421E02EB420203EB4202304B44
:102220001A807047002004E000212E4A1154411CFE
:10223000C8B22028F8DB704730B5014600200FE017
:1022400001EB81020244284B9B5C254A14881288CA
:10225000521C234D2A80214A12681355421CD0B2C9
:102260000528EDDB00241E4A13881288521C1C4DE1
:102270002A801A4A1268D45430BDF0B504460021B1
:102280000022002000235AE004EB84051D44164E72
:10229000705D00F0010505EB450200F0020505EB5D
:1022A000450542EA450200F0040505EB450542EA12
:1022B000850200F0080505EB450542EAC505EAB2CE
:1022C000001100F0010505EB450100F0020505EBEA
:1022D000450541EA450100F0040507E05C000020E7
:1022E0006000002090080020BA50000805EB45056A
:1022F00041EA850100F0080505EB450541EAC50501
:10230000E9B2FE4D2D68FE4E3688AA55FB4D2E686B
:10231000FB4D2D886D1C7255F84D2E68F84D2D889B
:1023200080357155F54D2E68F54D2D8881357155E7
:10233000F34D2D88AD1CF24E35805D1CEBB2052BA4
:10234000A2DB0026EE4D2F882D886D1CDFF8B0C370
:10235000ACF80050E94D2D68EE5565462F882D8864
:102360006D1CACF80050E54D2D68EE55F0BD70B514
:1023700005460E4631462846FFF746FF002408E092
:10238000E048005D18B1DF49085DFFF776FF601C8B
:10239000C4B2C5F10C00A042F2DCFFF743FF70BDF0
:1023A000F0B50446002100220020002345E004EBA4
:1023B00084051D44D44E705D00F0010505EB450217
:1023C00000F0020505EB450542EA450200F0040570
:1023D00005EB450542EA850200F0080505EB4505D9
:1023E00042EAC505EAB2001100F0010505EB45011E
:1023F00000F0020505EB450541EA450100F0040542
:1024000005EB450541EA850100F0080505EB4505AA
:1024100041EAC505E9B2B94D2D68B94E3688AA55CD
:10242000B64D2E68B64D2D8880357155B44D2D882A
:102430006D1CB34E35805D1CEBB2052BB7DB00265F
:10244000AF4D2F882D886D1CDFF8B4C2ACF800505A
:10245000AA4D2D68EE55F0BD70B505460E46162DF9
:1024600002DD052E00DD70BD31462846FFF7CCFEAB
:10247000002408E0A348005D18B1A249085DFFF7F9
:102480008FFF601CC4B2C5F11600A042F2DCFFF75A
:10249000C9FE00BFE7E730B504460025FFF7C2FEDE
:1024A00005E014F8010BFFF7C7FE681CC5B22078E1
:1024B0000028F6D1284630BD70B505460021B82069
:1024C000FEF7D4F800214020FEF7D0F8002405E004
:1024D000285D8A4909680855601C84B2B4F5806F8C
:1024E000F6DB70BD3FB504460025E4B10EE00A20DE
:1024F000B4FBF0F100FB1140303029466A1CD5B224
:1025000001AA50540A20B4FBF0F40095002CEED13F
:1025100006E0691EC9B20D4601AA505CFFF78CFEA9
:10252000002DF6D107E03020FFF786FE9DF8000071
:10253000401CC0B200909DF8000004B030BD7CB5D6
:1025400004460D46B4F5803F45DA052D43DA42F2E4
:10255000107094FBF0F0C0B28DF8040042F21070DD
:1025600094FBF0F100FB114084B24FF47A7094FBBD
:10257000F0F0C0B28DF803004FF47A7094FBF0F1E4
:1025800000FB114084B2642094FBF0F0C0B28DF8DF
:102590000200642094FBF0F100FB114084B20A2099
:1025A00094FBF0F0C0B28DF801000A2094FBF0F12A
:1025B00000FB1140C0B28DF80000002609E0691E42
:1025C000891B1DF8011001F13000FFF735FE701C6A
:1025D000C6B2AE42F3DB681CC0B27CBDFCB504469B
:1025E0000E46174642F2107094FBF0F0C0B28DF820
:1025F000040042F2107094FBF0F100FB114084B231
:102600004FF47A7094FBF0F0C0B28DF803004FF4F1
:102610007A7094FBF0F100FB114084B2642094FBCB
:10262000F0F0C0B28DF80200642094FBF0F100FBE2
:10263000114084B20A2094FBF0F0C0B28DF8010082
:102640000A2094FBF0F100FB1140C0B28DF80000AD
:10265000002511E0C5F103011DF8011001F1300062
:10266000FFF7EAFD002E05DD701EA84202D12C20E6
:10267000FFF7E2FD681CC5B2042DEBDB3846FFF71F
:102680000AFF0720FCBD7CB504460D46B4F5803F2B
:102690004FDA052D4DDA42F2107094FBF0F0C0B223
:1026A0008DF8040042F2107094FBF0F100FB114031
:1026B00084B24FF47A7094FBF0F0C0B28DF803004E
:1026C0004FF47A7094FBF0F100FB114084B2642067
:1026D00094FBF0F0C0B28DF80200642094FBF0F19E
:1026E00000FB114084B20A2094FBF0F0C0B28DF8D8
:1026F00001000A2094FBF0F108E000005C000020DB
:102700006000002090080020BA50000800FB114033
:10271000C0B28DF80000002609E0691E891B1DF873
:10272000011001F13000FFF7A8FD701CC6B2AE42E7
:10273000F3DB7CBD70B506460C461546601CC1B285
:102740003046FFF761FD2846FFF7A5FE70BD10B5C6
:102750000446092C03DC04F13000FFF76DFD0A2C60
:1027600006DB0F2C04DC04F1570188B2FFF764FD8F
:1027700010BD30B5044615A0FFF78DFE250F284685
:10278000FFF7E5FFC4F303652846FFF7E0FFC4F356
:1027900003552846FFF7DBFFC4F303452846FFF740
:1027A000D6FFC4F303352846FFF7D1FFC4F3032552
:1027B0002846FFF7CCFFC4F303152846FFF7C7FFF1
:1027C00004F00F052846FFF7C2FF30BD3078000047
:1027D00038B5044601210846FFF716FD2046FFF7ED
:1027E0005AFE01211120FFF70FFDFFF7B5FA058909
:1027F00002212846FFF7A3FEFFF7AEFA007B00F0A8
:10280000010018B13A20FFF717FD02E02020FFF782
:1028100013FDFFF7A1FA458902212846FFF78FFE35
:1028200001200A237F22194600900020FFF7B2FB07
:1028300001200B237F22194600900020FFF7AAFBFE
:1028400001200C237F22194600900020FFF7A2FBF5
:1028500038BD7047014601EB410000EB0112FE4814
:1028600000EB82007047FC48001F70470020FA49C7
:10287000091F08804880704710B5FFF743FBF748F1
:10288000FFF71AFEFFF734FB10BD08B501203F2308
:102890000022082100901046FFF77CFB012008234E
:1028A0007F22194600900020FFF774FB01203F2390
:1028B0007F22082100901046FFF76CFB01203F2388
:1028C0000022194600907F20FFF764FBE44800884F
:1028D000401C80B2E2490880052818DB00200880EF
:1028E000E0480088401CDF490880DF480088401C21
:1028F000DD490880084600887F2801DB0020088029
:10290000D84800881C2802DB0020D6490880D5481A
:102910000078401EC2B2012324213F20FFF799FB1B
:10292000D0480278012324213F20FFF792FB0120A9
:1029300023230090CC4802883F210846FFF72AFB5A
:1029400001200090C8480088421E23233F213E20DA
:10295000FFF720FB01200090C3480088821E23233C
:102960003F213D20FFF716FB01200090BE48008864
:10297000C0F17F0223233F210846FFF70BFB012014
:102980000090B9480088C0F17E0223233F213E20F9
:10299000FFF700FB01200090B3480088C0F17D02E2
:1029A00023233F213D20FFF7F5FA01200090AE4898
:1029B0000088C0F17F02232309213F20FFF7EAFAB4
:1029C00001200090A8480088C0F17E02232309213D
:1029D0003E20FFF7DFFA01200090A3480088C0F1F5
:1029E0007D02232309213D20FFF7D4FA0120232370
:1029F00000909D48028809213F20FFF7CBFA012073
:102A0000009099480088421E232309213E20FFF7A9
:102A1000C1FA0120009094480088821E23230921D6
:102A20003D20FFF7B7FA08BD10B50446242C51D25B
:102A3000DFE804F0501216141A181E1C2220262457
:102A40002A282E2C323036343A383E3C4240464416
:102A50004A48505050504E4C844810BD8448FCE7C2
:102A60008448FAE78448F8E78448F6E78448F4E7BE
:102A70008448F2E78448F0E78448EEE78448ECE7CE
:102A80008448EAE78448E8E78448E6E78448E4E7DE
:102A90008448E2E78448E0E78448DEE78448DCE7EE
:102AA0008448DAE78448D8E78448D6E78448D4E7FE
:102AB0008448D2E78448D0E78448CEE78448CCE70E
:102AC0008448CAE78448C8E78448C6E78448C4E71E
:102AD0008448C2E78448FFF7DEFC04212046FFF764
:102AE0002EFD0020B9E72DE9F04104460D461646BB
:102AF000ACB903210820FFF787FB0020FFF7AAFEEF
:102B0000858146B10020FFF7A5FE8789022138465E
:102B1000FFF715FD0FE075A0FFF7BDFC0BE00321EB
:102B20000820FFF771FB0020FFF794FE8789022140
:102B30003846FFF704FDBDE8F0812DE9F041044679
:102B40000D461646ACB904210820FFF75DFB0020B6
:102B5000FFF780FE058346B10020FFF77BFE078B61
:102B600002213846FFF7EBFC0FE060A0FFF793FC73
:102B70000BE004210820FFF747FB0020FFF76AFE67
:102B8000078B02213846FFF7DAFCBDE8F0812DE91A
:102B9000F04104460D4616463046FFF7DFF8681C44
:102BA000C5B229462046FFF72FFBFFF7D5F88788E7
:102BB00002213846FFF7C3FC2E20FFF73DFBFFF74D
:102BC000CBF8478802213846FFF7B9FC2E20FFF7E3
:102BD00033FBFFF7C1F8078804213846FFF7AFFC45
:102BE0002F20FFF729FB04F10B00C4B2A11CC8B2CF
:102BF0002946FFF709FB3A20FFF71EFB611DC8B20B
:102C00002946FFF701FB3A20FFF716FB204629462D
:102C1000FFF7FAFAFFF7A0F8078902213846FFF715
:102C20008EFCE11CC8B22946FFF7EEFAFFF794F8D4
:102C3000478902213846FFF782FCA11DC8B2294608
:102C4000FFF7E2FAFFF788F8878902213846FFF795
:102C500076FCBDE8F081000068000020BE57000847
:102C6000300200203202002034020020BD5E000845
:102C7000CD5E0008DB5E0008E95E0008F75E000834
:102C8000085F0008165F0008275F0008385F00082B
:102C90004C5F00085D5F0008715F0008825F0008FC
:102CA000965F0008A45F0008B55F0008C55F0008D4
:102CB000D85F0008E85F0008FB5F00080B600008B1
:102CC0001E6000082E600008416000085060000887
:102CD000626000087160000883600008926000086C
:102CE000A4600008B8600008B05E00082020000062
:102CF0002DE9F04105460E4617461C4605210A20DF
:102D0000FFF782FA3A20FFF797FA05210D20FFF727
:102D10007BFA3A20FFF790FA7DB905210820FFF7EA
:102D200073FA268127B120890221FFF708FC0CE005
:102D3000AFF24800FFF7AFFB07E005210820FFF7DF
:102D400063FA20890221FFF7FAFB012D0FD105213B
:102D50000B20FFF759FA668127B160890221FFF73E
:102D6000EEFB0CE0AFF27C00FFF795FB07E00521DE
:102D70000B20FFF749FA60890221FFF7E0FB022DE3
:102D80000FD105210E20FFF73FFAA68127B1A089B8
:102D90000221FFF7D4FB0CE0AFF2B000FFF77BFBA2
:102DA00007E005210E20FFF72FFAA0890221FFF787
:102DB000C6FBBDE8F0812DE9F04105460E461746F9
:102DC0001C4606210A20FFF71FFA2E20FFF734FACF
:102DD00006210D20FFF718FA2E20FFF72DFA7DB9F6
:102DE00006210820FFF710FAA68027B1A08802214B
:102DF000FFF7A5FB0CE0AFF20C10FFF74CFB07E070
:102E000006210820FFF700FAA0880221FFF797FBB0
:102E1000012D0FD106210B20FFF7F6F9668027B1AF
:102E200060880221FFF78BFB0CE0AFF24010FFF748
:102E300032FB07E006210B20FFF7E6F9608802214C
:102E4000FFF77DFB022D0ED106210E20FFF7DCF9E6
:102E5000268027B120880421FFF771FB0BE0FEA03C
:102E6000FFF719FB07E006210E20FFF7CDF92088B8
:102E70000421FFF764FBBDE8F08170B505460E46FE
:102E80001446E81CC1B21220FFF7BEF9012E0CD186
:102E90000220FEF7D2F920B1E0880121FFF74FFBB5
:102EA00007E0EFA0FFF7F7FA03E0E0880121FFF762
:102EB00046FBE81CC1B20D20FFF7A6F96EB902204F
:102EC000FEF7BBF920B120890221FFF738FB08E0AB
:102ED000AFF2E810FFF7DFFA03E020890221FFF7E5
:102EE0002EFB70BD10B50446012C03D1DD48FFF761
:102EF000D2FA0EE0022C03D1DB48FFF7CCFA08E04F
:102F0000032C03D1D948FFF7C6FA02E0D848FFF7EF
:102F1000C2FA10BD0146012901D1D64870470229E5
:102F200001D1D548FAE7032901D1D448F6E70020BA
:102F3000F4E770B50546284601F047FF04462846E9
:102F400001F05DFF18B9CB48FFF7A5FA20E0012C8E
:102F500003D1C748FFF79FFA1AE0022C03D1C848F3
:102F6000FFF799FA14E0032C03D1C648FFF793FA50
:102F70000EE0042C03D1BD48FFF78DFA08E0052CC4
:102F800003D1B948FFF787FA02E0B848FFF783FAA0
:102F900070BD2DE9F04104460D461646FEF7B2FF1E
:102FA0002068FFF715FC3DB1F01CC1B21420FFF7FB
:102FB0002BF9B5A0FFF76FFA0020FFF74BFCA042FA
:102FC00052D103210120FFF71FF96068FFF763FA70
:102FD00003210720FFF718F92D20FFF72DF9002214
:102FE00011460320FFF77FFD04210120FFF70CF9B4
:102FF0002069FFF750FA002211460320FFF79DFDDC
:1030000005210120FFF700F9E069FFF744FAFEF718
:10301000A3FE07463B46002211460320FFF768FE49
:1030200006210120FFF7F0F8A06AFFF734FAFEF757
:1030300093FE878802213846FFF781FA2E20FFF79A
:10304000FBF8FEF789FE478802213846FFF777FA3A
:103050002E20FFF7F1F8FEF77FFE0788042138469F
:10306000FFF76DFABDE8F0810120FFF7F3FBA04206
:103070007ED103210120FFF7C7F88448FFF70BFA40
:1030800004210120FFF7C0F88148FFF704FA81A06E
:10309000FFF701FA0020FFF74CFF04210B20FFF798
:1030A000B3F87DA0FFF7F7F9002001F09DFF078935
:1030B00002213846FFF743FA78A0FFF7ECF9002029
:1030C00001F092FFC78801213846FFF738FA052141
:1030D0000120FFF799F87248FFF7DDF96DA0FFF7BF
:1030E000DAF90120FFF725FF05210B20FFF78CF807
:1030F00069A0FFF7D0F9012001F076FF07890221CE
:103100003846FFF71CFA65A0FFF7C5F9012001F06A
:103110006BFFC78801213846FFF711FA062101200D
:10312000FFF772F85F48FFF7B6F95AA0FFF7B3F957
:103130000220FFF7FEFE06210B20FFF765F856A0E0
:10314000FFF7A9F9022001F04FFF07890221384655
:10315000FFF7F5F951A0FFF79EF9022001F044FFB7
:10316000C78801213846FFF7EAF90721012000E06E
:1031700025E0FFF749F84C48FFF78DF945A0FFF728
:103180008AF90320FFF7D5FE07210B20FFF73CF853
:1031900041A0FFF780F9032001F026FF07890221F3
:1031A0003846FFF7CCF93DA0FFF775F9032001F091
:1031B0001BFFC78801213846FFF7C1F952E70220FB
:1031C000FFF748FBA04234D103210120FFF71CF890
:1031D0006068FFF760F9A068FFF75DF9042101203E
:1031E000FFF712F82069FFF756F96069FFF753F906
:1031F00005210120FFF708F8E069FFF74CF9206A84
:10320000FFF749F906210120FEF7FEFFA06AFFF74C
:1032100042F9E06AFFF73FF907210120FEF7F4FFCA
:10322000606BFFF738F9A08F20A20021FFF7D6F9D5
:1032300018E70320FFF70EFBA04266D1032101200F
:10324000FEF7E2FF6068FFF726F9A068FFF723F9B1
:10325000042101202CE0000020202020000000009C
:1032600020000000235E00083F5E0008455E000865
:103270004E5E00081D5E0008065E00086B5E0008DA
:10328000005E0008FA5D00083C3D0000165C000886
:103290002B5C00082D0000002D200000202D2000B8
:1032A000305C0008355C00083A5C00086D420000A4
:1032B000FEF7AAFF2069FFF7EEF86069FFF7EBF869
:1032C00005210120FEF7A0FFE069FFF7E4F801F017
:1032D00054FE8078000928B1A08CF6A20221FFF7E5
:1032E0007DF902E0F448FFF7D6F806210120FEF749
:1032F0008BFFA06AFFF7CFF801F044FE8046FFF78E
:1033000009FE0746FFF7C7F8ACE60420FFF7A2FA6C
:10331000A04251D101F090FE00884FF6FF71884223
:1033200007D103210120FEF76FFFE448FFF7B3F850
:1033300041E003210120FEF767FFE148FFF7ABF80A
:1033400001F07AFE0788DBA202213846FFF746F932
:1033500004210120FEF758FFDA48FFF79CF82D20E2
:10336000FEF76AFF01F068FE807807093846FFF72C
:10337000B9FD05210120FEF747FFD348FFF78BF881
:103380002D20FEF759FF01F057FEC0780709384697
:10339000FFF7A8FD06210120FEF736FFCB48FFF717
:1033A0007AF82D20FEF748FF01F046FE0079070964
:1033B0003846FFF797FD55E60520FFF74BFAA04288
:1033C00046D103210120FEF71FFF0520FFF742FA37
:1033D000878904213846FFF7B2F8BDA0FFF75BF8F4
:1033E0000520FFF737FA078B04213846FFF7A7F8C7
:1033F00001F0D6FD408910B1B648FFF74CF801F056
:10340000CFFD808800B92DE605210120FEF7FCFEE6
:10341000B148FFF740F8A08C0421FFF790F801F0C5
:10342000BFFD07683A4605210120FFF7B0FB0721E1
:103430000120FEF7E9FE3021085DFFF7F5FA30B113
:103440003021085DFFF7F0FA0746FFF724F809E698
:103450000620FFF7FFF9A04206D101210846FEF73A
:10346000D3FE9EA0FFF717F800BFFBE510B5FEF7EF
:1034700049FD04210320FEF7C7FE9C48FFF70BF827
:1034800010BD10B504210120FEF7BEFEFDF74DF87A
:10349000012806D0022810D0032806D0042810D115
:1034A00007E09348FEF7F7FF0BE09248FEF7F3FFC3
:1034B00007E09148FEF7EFFF03E09048FEF7EBFFCF
:1034C00000BF00BF10BD014609B98D4870470129F2
:1034D00001D18C48FAE7022901D18B48F6E703298C
:1034E00001D18A48F2E7042901D18948EEE705298C
:1034F00001D18848EAE78848E8E7014609B98048E9
:103500007047012901D17F48FAE7022901D1834898
:10351000F6E70020F4E710B501F02FFDC07800F0C9
:10352000030028B90320FFF795F97D4981600CE07D
:1035300001F023FDC07800F003042046FFF7DDFF13
:1035400003460320FFF786F9836001F016FDC0787B
:10355000000928B90320FFF77DF9714941610BE0AB
:1035600001F00BFDC07804092046FFF7ACFF0346CD
:103570000320FFF76FF9436110BD10B501F0FDFCAA
:10358000807800F0030028B90320FFF763F964494D
:1035900081600CE001F0F1FCC07800F003042046EB
:1035A000FFF7ABFF03460320FFF754F9836001F0F8
:1035B000E4FC8078000928B90320FFF74BF958494B
:1035C00041610BE001F0D9FCC07804092046FFF707
:1035D0007AFF03460320FFF73DF9436110BD70B544
:1035E0000546284601F06AFB04460CB9444870BD04
:1035F000012C01D14348FAE7022C01D14948F6E7F2
:10360000032C01D14848F2E7042C01D14748EEE7EA
:10361000052C01D13E48EAE74548E8E710B50446E5
:1036200004F0010040B10020FFF7D9FF034602205B
:10363000FFF710F9836004E00220FFF70BF9384927
:10364000816004F0020040B10120FFF7C8FF03468B
:103650000220FFF7FFF8436104E00220FFF7FAF8C9
:103660002F49416104F0040040B10220FFF7B7FF89
:1036700003460220FFF7EEF8036204E00220FFF7A2
:10368000E9F82749016204F0080040B10320FFF780
:10369000A6FF03460220FFF7DDF8C36204E0022024
:1036A000FFF7D8F81E49C16210BD014609B9144898
:1036B00070473FE042000000485E00085A5D000885
:1036C000055D0008105D0008175D00081E5D00081C
:1036D0002F0000003D5D0008345D00084545505254
:1036E0004F4D20496E666F3A00000000485D0008AB
:1036F000865D0008705D00089A5D0008AF5D0008F7
:10370000545E0008235E00088A5E0008905E000890
:10371000345E00089E5E0008A85E0008735E000824
:103720005F5E00084E5E00083F5E0008295E0008EC
:10373000455E0008012901D1B3487047022901D133
:10374000B248FAE70020F8E710B50446601CC1B2A1
:103750000120FEF759FDAE48FEF79DFEAD48FEF78D
:103760009AFE10BD10B50446601CC1B20120FEF7E0
:103770004BFDA948FEF78FFE10BD10B5044620464C
:10378000FFF726F810BD10B503210120FEF73CFD20
:10379000A248FEF780FE04210120FEF735FD9C487B
:1037A000FEF779FE9C48FEF776FE9DA0FEF773FEBD
:1037B000022001F0B3FA03280CD105210120FEF705
:1037C00023FD9348FEF767FE9348FEF764FE95A03D
:1037D000FEF761FE10BD10B503210120FEF714FDB8
:1037E0009148FEF758FE04210120FEF70DFD8848A0
:1037F000FEF751FE8848FEF74EFE89A0FEF74BFE0D
:1038000005210120FEF700FD8148FEF744FE8248B5
:10381000FEF741FE83A0FEF73EFE10BD10B503216A
:103820000120FEF7F1FC8148FEF735FE002001F093
:10383000E6FA032804D1FFF787FF7D48FEF72BFE49
:10384000012001F0DCFA032805D10420FFF77CFFFA
:103850007848FEF720FE022001F0D1FA032805D1B6
:103860000520FFF771FF7448FEF715FE10BD10B577
:10387000044603210120FEF7C7FC7048FEF70BFE4B
:1038800004F0010030B104210120FEF7BDFC6848BE
:10389000FEF701FE04F0020030B105210120FEF721
:1038A000B3FC6448FEF7F7FD04F0040030B10621D4
:1038B0000120FEF7A9FC6048FEF7EDFD04F00800CA
:1038C00030B107210120FEF79FFC5D48FEF7E3FDC4
:1038D00004F0100028B10420FFF744FF50A0FEF7C9
:1038E000DAFD04F0200028B10520FFF73BFF4DA0D2
:1038F000FEF7D1FD04F0400028B10620FFF732FFAB
:1039000050A0FEF7C8FD04F0800028B10720FFF7A3
:1039100029FF4DA0FEF7BFFD04F4804030B1042123
:103920000120FEF771FC4948FEF7B5FD04F40040A4
:1039300030B105210120FEF767FC4548FEF7ABFDDD
:1039400004F4803030B106210120FEF75DFC4148CF
:10395000FEF7A1FD10BD10B503210120FEF754FCB8
:103960003D48FEF798FD002001F0D8F901280BD161
:103970000421FEF749FC2648FEF78DFD2648FEF798
:103980008AFD27A0FEF787FD022001F0C7F9012874
:103990000BD10521FEF738FC1D48FEF77CFD1E48C3
:1039A000FEF779FD1FA0FEF776FD10BD10B50321CF
:1039B0000120FEF729FC2948FEF76DFD2D20FEF7BA
:1039C0003BFC01F0D8FA447F02212046FEF7B7FD08
:1039D00003210D20FEF718FC2148FEF75CFD01F0E5
:1039E000CAFA847F02212046FEF7A9FDFFF749FDB0
:1039F00010BD10B5FEF786FA04210320FEF72CFD5A
:103A00001848FEF748FD10BD235E00087B5E0008E5
:103A10000B5E0008F65D0008495C0008AF5D000819
:103A20003100000032000000CC600008DA600008BD
:103A30002B5C0008305C0008355C0008EA60000878
:103A40003A5C00083300000034000000105D0008FC
:103A5000175D00081E5D0008F8600008E95B0008BB
:103A6000EF5B000809610008002006E0002100EB80
:103A700080022C4B9954411CC8B20428F6DB7047D5
:103A8000002017E000EB8001264A515C012904D197
:103A9000022100EB8002234B995400EB8001214A64
:103AA000515C022904D1002100EB80021D4B995486
:103AB000411CC8B20428E5DB704710B500EB80025A
:103AC000184B9A5C52B9012200EB8003154CE2546A
:103AD00000EB800223461A44C2F8011010BD00EB2F
:103AE0008001104A515C21B9012100EB80020D4B8D
:103AF00099547047014601EB81000A4A105C30B1CD
:103B0000002001EB8102074B9854012070470020F0
:103B1000FCE7014601EB8100024A1044D0F80100A5
:103B200070470000B0080020002013E02A4931F857
:103B30001010491C284A22F810102849095C012954
:103B400006D1274931F81010491C254A22F81010D7
:103B5000411CC8B20428E9DB704700200AE00021BC
:103B60001D4A22F810101E4A22F810101B4A115448
:103B7000411CC8B20428F2DB70470146164830F8F1
:103B8000110070470021144A22F8101070470146B6
:103B9000134830F8110070470021104A1154704743
:103BA0000E49095C31B900210D4A22F8101001219B
:103BB0000A4A115470470949095C012902D10221BE
:103BC000064A115470470549095C022902D10121B6
:103BD000024A1154704700003602002046020020BD
:103BE0003E02002001B508E04FF0E020006900F43B
:103BF000803010B10098401E009000980028F3D14A
:103C000008BD10B5044634B90020FDF778FD00204A
:103C1000FE49086016E0FD4800686040204040B161
:103C20000D20FDF79DFB0020FDF769FDF7480460BE
:103C300008E00D20FDF78DFB20B10120FDF75FFDB1
:103C4000F248046010BD10B5F1480078052870D224
:103C5000DFE800F0030B71BDBE000B20FDF772FB27
:103C600010B10120EA490870B4E00220FDF7E5FA3E
:103C700000F001042046FDF731FD0020FDF769FB4F
:103C800078B10220FDF7D9FA00F001042146262080
:103C9000FDF7A5FCDF48007840F00100DD49087021
:103CA00009E000212620FDF79AFCDA48007820F090
:103CB0000100D84908700120FDF74BFB78B10220C4
:103CC000FDF7BBFA00F0010421462420FDF787FC34
:103CD000D048007840F00200CE49087009E0002189
:103CE0002420FDF77CFCCB48007820F00200C94975
:103CF00008700B20FDF71FFB10B10220C4490870AB
:103D00000C20FDF718FBA8B10B20FDF729FB0C20B8
:103D1000FDF726FB0020FDF723FB0120FDF720FB2C
:103D20000020BD490870BA490870BA4908700120DE
:103D300010BD4EE04EE00120FDF7D0FC0120FDF764
:103D4000ABFCB448007800F0010078B10220FDF728
:103D500074FA00F0020421462620FDF740FCAE482C
:103D6000007840F00100AC49087003E000212620F3
:103D7000FDF735FCA748007800F0020078B102207A
:103D8000FDF75BFA00F0020421462420FDF727FC32
:103D9000A148007840F002009F49087003E000212C
:103DA0002420FDF71CFC0C20FDF7C5FA70B10020A3
:103DB000FDF7D6FA0120FDF7D3FA002096490870E6
:103DC00093490870934908700120B1E702E001E0CF
:103DD00000E000BF00BF0020AAE710B58F480078C0
:103DE000072848D2DFE800F004333B43444546004F
:103DF000FCF79BFB022803D101208849087025E0CD
:103E00000920FDF798FA18B10220844908701DE0D6
:103E1000002000F0F4FF022804D0012000F0EFFFA2
:103E2000022803D103207D4908700FE0032000F031
:103E3000E6FF032803D104207849087006E00B2030
:103E4000FDF779FA10B105207449087014E0FCF709
:103E50006CFB022802D00020704908700CE0092099
:103E6000FDF770FA10B100206C49087004E003E01F
:103E700002E001E000E000BF00BFAFF2A100FCF7EC
:103E8000F8F910BD10B5FDF703FBAFF20700FCF722
:103E9000F0F910BD10B5FEF727F8AFF20700FCF7F8
:103EA000E8F910BD10B501F066F8C07F012804D113
:103EB0005B490870FDF784FB10BD5948007820B1BC
:103EC000002057490870FDF780FB01F056F80446C2
:103ED000FDF782FC01F051F8C07804092046FDF797
:103EE000C8FC01F04FF80446FDF716FD0220FDF76F
:103EF000A4F900F001042046FDF712FCFDF759FB80
:103F000000684849084020B101213720FDF767FBD0
:103F100003E000213720FDF762FB002000F0E8FEFF
:103F200003280EDA012000F0E3FE032809DA02205C
:103F300000F0DEFE032804DA032000F0D9FE032897
:103F400004DB01213820FDF74AFB03E00021382083
:103F5000FDF745FB002000F038FF04280ED20120B9
:103F600000F033FF042809D2022000F02EFF0428BD
:103F700004D2032000F029FF042804D301213920B2
:103F8000FDF72DFB03E000213920FDF728FBFDF7AD
:103F900010FB04682046FFF734FE00F0ECFFC07F02
:103FA000012803D1FDF717FE16210170FCF79CFADA
:103FB000032806D10220FDF740F9C4B22046FDF7E0
:103FC00004FBFDF7FDFA00BF76E72DE9F041FDF7B0
:103FD00004FE441DFDF703FE471DFDF700FE451DD1
:103FE000FDF7F7FD0646008820F004003080FDF75D
:103FF000F4FD0079A02853D1FDF7EFFD461D3046B2
:1040000000F032FFFDF7E9FD461D0DE050020020F3
:1040100054020020550200204C0200204D020020D6
:1040200056020020FFC00100304600F0F9FF94F86E
:10403000210000F0A4FF00F0A0FF94F82010C17050
:104040002068FDF783FE0020FEF704FC617F81817C
:104050000020FEF7FFFBA17F01830320FEF7FAFBA0
:10406000B4F80D10818400F08DFF0646FEF752FF74
:1040700080460320FEF7EEFBC0F82C8000F090FF96
:10408000A188018100F08CFFE18841810520FEF7C5
:10409000E1FBA18881810520FEF7DCFBE18801833B
:1040A000FDF79BFD007918281AD1FDF796FD461DF6
:1040B000304600F06AFF00F073FF86880520FEF7A7
:1040C000C9FB868400F06CFF86790520FEF7C2FBF1
:1040D000068600F065FFC6790520FEF7BBFB8687E4
:1040E000FEF7C1FB0088012843D1FDF776FD00797A
:1040F000192806D1FDF771FD461D304600F052FF2C
:104100003AE0FE48007803280CDCFDF764FD192135
:104110000170FA4800782880F8480078401CF74978
:10412000087029E0FDF757FD0078202824D1FEF71C
:104130009AFB4088461E304600F056FF00882880D3
:10414000FEF791FB4088461E304600F04DFFC088C8
:10415000E880FEF788FB4088461E304600F044FFAA
:10416000008928810020E54908700A20FDF7F8F849
:1041700002E00020E1490870FDF744FDBDE8F08150
:1041800010B50020FDF721FA0220FDF756F800F0E7
:1041900003042046FDF7C4FA01213720FDF71FFA7A
:1041A000FDF70EFAFFF762F910BD10B5FDF711FD2E
:1041B0000078C0F3800018B1AFF2F110FCF759F8A5
:1041C000AFF21900FCF755F810BD2DE9F041FDF7ED
:1041D00006FD441D0A20FDF7BCF800287ED0FEF73E
:1041E00042FB008806287AD2DFE800F003FEFDFCDF
:1041F000FBFAC348008838B9FEF735FB851C03225B
:1042000000212846FDF7B4F8FEF72DFB4088002872
:1042100039D101220021BB48FDF7FFF8B9480088D9
:1042200001282ADA0120B649088000F043FD051D67
:10423000402200212846FDF79BF80220FCF7FDFFF5
:10424000C5B200F037FD0679AE4908782A463146F6
:10425000FEF749FC0920FDF76EF860B10A20FDF772
:104260007FF80020A64908800120A6490880FDF7B4
:10427000B2FC12210170BDE8F0810020A049088045
:104280000120A0490880FEF7EEFA408801283BD1C2
:10429000012200219B48FDF7C0F89A4800880128B8
:1042A0002CDA01209649088000F004FD851D40228B
:1042B00000212846FDF75CF80220FCF7BEFFC5B2DE
:1042C00000F0F8FC86798F4908782A463146FEF7D7
:1042D00034FC0920FDF72FF878B101E0BEE2A7E237
:1042E0000A20FDF73DF80020854908800120854916
:1042F0000880FDF770FC13210170BCE700208049A5
:10430000088001207F490880FEF7ADFA4088022826
:104310006BD1032200217C48FDF77FF87A480088A2
:1043200003287BDA01207649088077480088C8B9DD
:10433000FDF712FD00F10805172200212846FDF7C0
:1043400017F8FDF709FD07460220FCF776FFC5B216
:10435000FDF702FD06896C4908783B462A4631463E
:10436000FEF7C6FC68480088012819D1FDF7F4FC67
:1043700000F10A053B2200212846FCF7F9FFFDF772
:10438000EBFC07460220FCF758FFC5B2FDF7E4FC42
:1043900046895D4908783B462A463146FEF7A8FC27
:1043A00059480088022819D1FDF7D6FC00F10C0508
:1043B0003B2200212846FCF7DBFFFDF7CDFC07463A
:1043C0000220FCF73AFFC6B2FDF7C6FC85894E49CC
:1043D00008783B4632462946FEF78AFC092005E06C
:1043E000DFE1DAE18CE12EE1B2E01DE0FCF7A3FFB2
:1043F00090B10A20FCF7B4FF002041490880032057
:1044000041490880FDF7A8FC0546FDF716FD206030
:10441000FDF7E1FB142101702DE7FFE7002038498B
:104420000880032038490880FEF71DFA40880328D9
:104430006ED1032200213548FCF7EFFF3348008896
:1044400003287EDA01202E49088030480088C0B950
:10445000FDF782FC051D1F2201212846FCF788FF7D
:10446000FDF77AFC07460220FCF7E7FEC5B2FDF730
:1044700073FC8688254908783B462A463146FEF774
:104480009AFC22480088012818D1FDF765FC851C9C
:104490000C2201212846FCF76BFFFDF75DFC074667
:1044A0000220FCF7CAFEC5B2FDF756FC4688174944
:1044B00008783B462A463146FEF77DFC13480088C3
:1044C000022819D1FDF748FC054640F6020240F2E9
:1044D000B271FCF74DFFFDF73FFC07460220FCF7E9
:1044E000ACFEC5B2FDF738FC0688084908783B46A3
:1044F0002A463146FEF75FFC09200BE057020020F8
:104500005A020020600200205C0200205E020020AF
:104510001DE016E0FCF70FFF90B10A20FCF720FF2A
:104520000020FE4908800320FD490880FDF714FCA7
:104530000546FDF782FC2060FDF74DFB152101705B
:1045400099E60020F54908800320F549088070E1CC
:10455000F248008838B9FEF786F9851C042201214B
:104560002846FCF705FF02220021EE48FCF755FF24
:10457000EC48008802285FDA0120E8490880FEF74D
:1045800072F94088401E86B2FEF76DF94088451EDC
:10459000284600F029FD0680E248008801281DD148
:1045A000FEF761F94088461E304600F01DFD851D6E
:1045B000022200212846FCF7DBFEFEF754F9408872
:1045C000471E384600F010FD0546FEF74CF9867888
:1045D000D44801782A463046FEF74FFCD14800887F
:1045E000F0B9FEF740F94088461E304600F0FCFC6A
:1045F00000F10805632200212846FCF7B9FEFEF70A
:1046000032F94088471E384600F0EEFC0546FEF7BA
:104610002AF98678C34801782A463046FEF72DFCF1
:104620000920FCF788FE30B10020BC490880FDF766
:10463000D2FA202101701EE60020B849088002202D
:10464000B8490880F5E0FEF70EF9851C0422002128
:104650002846FCF78DFE00F0B6FB45782846FEF7AD
:10466000DDFF00F0B0FB45880220FEF7F3F88587F8
:1046700000F0A9FB051D01202870FEF7F4F8408822
:1046800003281DDC0D20FCF756FE50B100F09BFB0B
:10469000451CFEF7E8F88178012088402978084316
:1046A00028700E20FCF747FE50B100F08CFB451C33
:1046B000FEF7D9F881780120884029788143297054
:1046C000FEF7D1F84088042808D100F07CFB851C57
:1046D0004FF4FA7201212846FCF79FFE0920FCF7EF
:1046E0002AFE60B10A20FCF73BFEFEF7BCF8857895
:1046F00000F069FB0570FDF76EFA1721017098E074
:10470000FEF7B1F8851C012200212846FCF730FE97
:10471000FEF733FFFEF7A7F84088B0B90D20FCF78D
:104720000AFE38B100F029FC851C807820F00300D7
:10473000401C28700E20FCF7FEFD30B100F01DFC7F
:10474000851C807820F003002870FEF78CF84088E4
:10475000012816D10D20FCF7EEFD38B100F00DFC5C
:10476000851C807820F0F000103028700E20FCF7B7
:10477000E2FD30B100F001FC851C807820F0F000F3
:1047800028700920FCF7D7FD30B10A20FCF7E8FDBE
:10479000FDF721FA212101704BE00A20FCF7E0FD32
:1047A00047E000F0FDFB058900F0FAFB00F10C0684
:1047B0002A4601213046FCF7DBFD0D20FCF7BBFD4E
:1047C00018B100F0EDFB012181810E20FCF7B3FD53
:1047D00028B100F0E5FB058900F0E2FB85810920A6
:1047E000FCF7A9FD20B100F0DBFB4FF6FF718181E2
:1047F00000F0D6FBC58900F0D3FB8089854216D036
:1048000000F0CEFB858900F0CBFBC58100F0C8FB32
:1048100080894FF6FF71884205D100F0C1FB058900
:1048200000F0BEFB8581FDF7D6F91821017000E08C
:1048300000BF00BFFDF78DFA0546FDF78FFAFEF7C2
:1048400012F88578FEF70FF807783846FEF702F879
:1048500006462A460121FEF79CFB70E000202F4906
:1048600008800320304908802D49088001202F4905
:10487000088002202B490880FDF7F5FF00214180C8
:10488000FEF749FE00F08CFB058900F089FB85816D
:104890000020FDF7DFFF858900F00CFA85800020FD
:1048A000FDF7D8FF058B00F005FAC580FDF751FA3A
:1048B0000546FDF753FA00F086FA45782846FEF7DC
:1048C000ADFE00F080FA45880220FDF7C3FF858722
:1048D000FDF781F90078172804D000F074FA051D5F
:1048E000002028700E20FCF726FD18B1FDF7BBFF55
:1048F000052101800D20FCF71EFD18B1FDF7B3FF67
:1049000000210180FDF7AFFF054605220021FCF7DD
:104910002FFDFDF7A8FF0678304609E05A02002077
:104920005E020020620200205C0200206002002083
:10493000FDF790FF054600221146FEF72AFB00BF57
:1049400099E470B5FDF74BF9441D00F014FBC07FEE
:10495000012802D1FFF74DF870BD0E20FCF7EBFCEB
:1049600018B1FDF738F916210170FDF7F2F9054687
:10497000FDF7F4F9FDF77AFF0920FCF7F1FC0A20B6
:10498000FCF7EEFCFDF7BEFAC648FEF7F6FEFBF7B5
:10499000CCFD022802D1FEF7F6FE24E0002000F054
:1049A000BDF9042802D1FEF716FF1CE0032000F039
:1049B00044FA10B1FEF732FF15E0012000F0DAF9F9
:1049C00010B1FEF7C8FF0EE0FCF7F3FD0068B64932
:1049D000084030B1FCF7EDFD05682846FEF747FFBB
:1049E00001E0FEF7E3FF0223002211462620FCF738
:1049F000A4FF02231A4619462420FCF79EFF00203C
:104A000000F08CF9032804D0012000F087F9032876
:104A100008D10320FCF711FC00F001052846FCF743
:104A20003BFE10E0002000F079F9042804D00120BA
:104A300000F074F9042803D10120FCF72DFE02E0F8
:104A40000020FCF729FE032000F0F7F918B101203F
:104A5000FCF733FE02E00020FCF72FFEFBF765FDBC
:104A60000546FCF7F8FDFCF75CFC2072FCF756FCF1
:104A7000607200BF70E770B5FDF7B1F8441D00F03B
:104A80007AFAC07F012802D1FEF7B3FF70BD0E2075
:104A9000FCF751FC18B1FDF79EF816210170FDF7E7
:104AA00058F90546FDF75AF9FDF7E0FE0920FCF735
:104AB00057FC0A20FCF754FCFDF724FA7B48FEF76C
:104AC0005CFEFBF732FD022802D1FEF75CFE24E01B
:104AD000002000F023F9042802D1FEF77CFE1CE040
:104AE000032000F0AAF910B1FEF798FE15E0FCF7DC
:104AF00060FD00686C49084030B1FCF75AFD05685C
:104B00002846FEF7B4FE08E0012000F033F910B1AA
:104B1000FEF721FF01E0FEF749FF022300221146C4
:104B20002620FCF70AFF02231A4619462420FCF728
:104B300004FF002000F0F2F801280ADC012000F058
:104B4000EDF8012805DC0020FCF7A6FD0020FCF7AD
:104B5000B4FDFCF7E6FB00F06000207200BF95E7B3
:104B600010B553480078032806D1FBF7BDFC032895
:104B700002D00020FCF729FDFBF7B6FC4C49087079
:104B800008460078012803D1AFF21510FBF771FB3E
:104B900047480078022803D1AFF25920FBF769FBA0
:104BA00043480078032803D1AFF6E110FBF761FB1F
:104BB000FFF778F910BD10B5FDF70BF80078C0F3DA
:104BC000400020B1AFF64720FBF753FB09E0FCF7AC
:104BD00082FB10B9FBF73BFC18B1AFF27B00FBF78F
:104BE00048FB0A21AFF23100FBF78CFB10BD10B57A
:104BF00000BFFBF72CFC0028FBD0FDF72AFEFCF7DA
:104C0000ACFFFDF78FF8AFF67350FBF732FBAFF652
:104C10003560FBF72EFBAFF69350FBF72AFBAFF2A4
:104C20006900FBF726FBAFF67D20FBF722FB10BDEA
:104C3000FCF7A3F8FBF7CCFBFBF782FFFDF74CF981
:104C4000FEF78BFFFEF710FFFBF786FBAFF261006C
:104C5000FBF70FFBFCF778F962B601E0FBF7DBFA34
:104C6000FCE710B50220FCF7E8FAC4B2FBF717FB2B
:104C7000FEF75AFFFCF790FAFCF792FF00F07BF981
:104C8000C07F01280AD12046FCF79FFC2046FDF793
:104C900033F901213020FCF7A2FC02E00120FDF7EE
:104CA0002BF910BDCE5B0008FFC00100BE5B000801
:104CB000580200200048704764020020014619B9DC
:104CC000CD48C07C00097047012903D1CA48007D46
:104CD0000009F8E7022903D1C748407D0009F2E73F
:104CE000032903D1C448807D0009ECE70220EAE7EC
:104CF000014611B9C14800787047012902D1C04866
:104D00000078F9E7022902D1BE480078F4E70329C8
:104D100002D1BD480078EFE70220EDE7014621B956
:104D2000B548C07C00F00F007047012904D1B2489B
:104D3000007D00F00F00F7E7022904D1AE48407D66
:104D400000F00F00F0E7032904D1AB48807D00F0AC
:104D50000F00E9E7042904D1A748C07D00F00F0047
:104D6000E2E7052904D1A448007E00F00F00DBE74C
:104D70000C20D9E70146A048C07C00F00F00884213
:104D80001DD09D48007D00F00F00884217D09A4842
:104D9000407D00F00F00884211D09748807D00F0E0
:104DA0000F0088420BD09448C07D00F00F0088426D
:104DB00005D09148007E00F00F00884201D101200B
:104DC00070470020FCE791487047014619B98A48AE
:104DD000407E00097047012903D18748807E000981
:104DE000F8E7022903D18448C07E0009F2E70329CD
:104DF00003D18148007F0009ECE70520EAE701467E
:104E000021B97D48407E00F00F007047012904D190
:104E10007948807E00F00F00F7E7022904D1764838
:104E2000C07E00F00F00F0E7032904D17248007F34
:104E300000F00F00E9E70520E7E701466E48407EF5
:104E400000F00F0088420BD06B48807E00F00F000E
:104E5000884205D06848C07E00F00F00884201D12A
:104E6000012070470020FCE710B50146624A00208F
:104E700002E00B5C1354401C2228FAD3634B1B79CD
:104E800003F0010303B110BD5B4BDB7C0224B4EBE8
:104E9000131F04D0584BDB7C1B09584C2370564B16
:104EA0001B7D0224B4EB131F04D0534B1B7D1B0945
:104EB000534C2370504B5B7D0224B4EB131F04D082
:104EC0004D4B5B7D1B094F4C23704B4B9B7D02244C
:104ED000B4EB131F04D0484B9B7D1B094A4C237035
:104EE000454BDB7C1B0933B1484B5B7843F0010336
:104EF000464C637005E0454B5B7823F00103434C5F
:104F000063703D4B1B7D1B0933B1404B5B7843F015
:104F100002033E4C637005E03C4B5B7823F00203D8
:104F20003A4C6370344B5B7D1B0933B1374B5B7874
:104F300043F00403354C637005E0344B5B7823F099
:104F40000403324C63702C4B9B7D1B0933B12F4BF8
:104F50005B7843F008032D4C637005E02B4B5B78C6
:104F600023F00803294C6370234BB3F81130274C0E
:104F7000638000BF87E72048704725487047254970
:104F80000870704723480078704701460A68224B32
:104F90001A608A889A808A799A71CA79DA71704718
:104FA0001D48704730B501460A880B88C2EBC20421
:104FB0001A4D25F81430CB88C2EBC20405EB44042B
:104FC000E3800B89C2EBC20405EB440423814B89C7
:104FD000C2EBC20405EB440463818B89C2EBC204BB
:104FE00005EB4404A38130BD0146C1EBC1000B4A6F
:104FF00002EB400070470000C40800206C02002053
:105000006D0200206E0200206F020020700200205E
:10501000760200207A020020E6080020F608002030
:1050200001460A89054B1A801A468B7A9370CB7A0F
:10503000D3700B7B13717047004870477B020020D0
:10504000704770477047754600F02CF8AE46050073
:105050006946534620F00700854618B020B5FBF797
:10506000C9F8BDE820404FF000064FF000074FF0B0
:1050700000084FF0000B21F00701AC46ACE8C00976
:10508000ACE8C009ACE8C009ACE8C0098D4670477F
:1050900010B50446AFF300802046BDE81040FBF792
:1050A0008CB80000004870473009002001491820E2
:1050B000ABBEFEE7260002007047000000000000C3
:1050C000005F00000007000700147F147F14242AEB
:1050D0007F2A1223130864623649552250000503C3
:1050E0000000001C2241000041221C0014083E0860
:1050F0001408083E08080050300000080808080896
:1051000000606000002010080402000000000000A1
:10511000005F00000007000700147F147F14242A9A
:105120007F2A122313086462364955225000050372
:105130000000001C2241000041221C0014083E080F
:105140001408083E08080050300000080808080845
:105150000060600000201008040200000000000051
:10516000005F00000007000700147F147F14242A4A
:105170007F2A122313086462364955225000050322
:105180000000001C2241000041221C0014083E08BF
:105190001408083E080800503000000808080808F5
:1051A000006060000020100804023E5149453E00A6
:1051B000427F400042615149462141454B3118141C
:1051C000127F1027454545393C4A4949300171094C
:1051D00005033649494936064949291E0036360035
:1051E0000000563600000008142241141414141450
:1051F00000412214080201510906324979413E7EDC
:105200001111117E7F494949363E414141227F417A
:1052100041221C7F494949417F090909013E414911
:10522000497A7F0808087F00417F41002040413FC4
:10523000017F081422417F404040407F020C027FE2
:105240007F0408107F3E4141413E7F090909063E27
:105250004151215E7F0919294646494949310101D9
:105260007F01013F4040403F1F2040201F3F40380A
:10527000403F6314081463070870080761514945EB
:1052800043007F41410002040810200041417F009B
:10529000040201020440404040400001020400209A
:1052A000545454787F484444383844444420384463
:1052B00044487F3854545418087E0901020C525255
:1052C000523E7F0804047800447D40002040443D65
:1052D000007F1028440000417F40007C04180478BF
:1052E0007C0804047838444444387C1414140808B6
:1052F0001414187C7C080404084854545420043FB7
:105300004440203C4040207C1C2040201C3C40303D
:10531000403C44281028440C5050503C4464544CA9
:1053200044000836410000007F00000041360800BC
:105330001008081008784641467800000000000078
:10534000005F00000007000700147F147F14242A68
:105350007F2A122313086462364955225000050340
:105360000000001C2241000041221C0014083E08DD
:105370001408083E08080050300000080808080813
:10538000006060000020100804020000000000001F
:10539000005F00000007000700147F147F14242A18
:1053A0007F2A1223130864623649552250000503F0
:1053B0000000001C2241000041221C0014083E088D
:1053C0001408083E080800503000000808080808C3
:1053D00000606000002010080402000000000000CF
:1053E000005F00000007000700147F147F14242AC8
:1053F0007F2A1223130864623649552250000503A0
:105400000000001C2241000041221C0014083E083C
:105410001408083E08080050300000080808080872
:10542000006060000020100804023E5149453E0023
:10543000427F400042615149462141454B31181499
:10544000127F1027454545393C4A494930017109C9
:1054500005033649494936064949291E00363600B2
:1054600000005636000008142241001414141414CD
:10547000004122140802015109067E1111117E7F9C
:10548000494949317F494949367F01010103702962
:1054900027217F7F4949494177087F08774149495A
:1054A00049367F1008047F7F1009047F7F0814228B
:1054B0004120413F017F7F020C027F7F0808087F67
:1054C0003E4141413E7F0101017F7F090909063EBE
:1054D0004141412201017F010147281008071E2197
:1054E0007F211E63140814633F2020205F070808F3
:1054F000087F7F407F407F3F203F205F017F4848FB
:10550000307F4830007F007F484830414141493E6C
:105510007F083E413E462919097F20545454783C67
:105520004A4A49317C545428007C0404040CC07855
:10553000447CC038545454186C107C106C4444544F
:1055400054287C2010087C7C2112097C7C10284483
:105550000020443C047C7C0810087C7C1010107CEB
:1055600038444444387C0404047C7C141414083803
:105570004444440004047C04040C5050503C102863
:105580007C281044281028443C40407C400C1010DB
:10559000107C7C407C407C7C407C40FC047C5050F7
:1055A000207C5020007C007C5050202844445438FB
:1055B0007C10384438085434147C0000C1C081C1C8
:1055C000400101C3C003800241C201C6C00680077A
:1055D00041C70005C1C581C4400401CCC00C800D89
:1055E00041CD000FC1CF81CE400E000AC1CA81CB90
:1055F000400B01C9C009800841C801D8C0188019F2
:1056000041D9001BC1DB81DA401A001EC1DE81DFF7
:10561000401F01DDC01D801C41DC0014C1D481D5B8
:10562000401501D7C017801641D601D2C012801391
:1056300041D30011C1D181D0401001F0C030803180
:1056400041F10033C1F381F240320036C1F681F7F7
:10565000403701F5C035803441F4003CC1FC81FD88
:10566000403D01FFC03F803E41FE01FAC03A803B11
:1056700041FB0039C1F981F840380028C1E881E9CF
:10568000402901EBC02B802A41EA01EEC02E802F79
:1056900041EF002DC1ED81EC402C01E4C0248025B8
:1056A00041E50027C1E781E640260022C1E281E30F
:1056B000402301E1C021802041E001A0C060806161
:1056C00041A10063C1A381A240620066C1A681A777
:1056D000406701A5C065806441A4006CC1AC81AD88
:1056E000406D01AFC06F806E41AE01AAC06A806B91
:1056F00041AB0069C1A981A840680078C1B881B9EF
:10570000407901BBC07B807A41BA01BEC07E807FF8
:1057100041BF007DC1BD81BC407C01B4C0748075B7
:1057200041B50077C1B781B640760072C1B281B38E
:10573000407301B1C071807041B00050C19081913F
:1057400040510193C053805241920196C0568057F8
:1057500041970055C19581944054019CC05C805D87
:10576000419D005FC19F819E405E005AC19A819B0E
:10577000405B0199C059805841980188C0488049D0
:105780004189004BC18B818A404A004EC18E818F76
:10579000404F018DC04D804C418C0044C1848185B7
:1057A00040450187C047804641860182C042804310
:1057B00041830041C181818040401C1C3E7F00002C
:1057C0000000000000000000000000000080C0E0B9
:1057D000F0F8F8FCFCFEFEFEFE00000000000000F9
:1057E0000000FEFEFEFEFEFEFEFEFEFCF8F0E0C047
:1057F0000080F0F8FCFEFEFEFEFEFEFCF8F08000ED
:10580000001EFEFEFEFEFC000000F8FEFEFEFE1E78
:105810000000FEFEFEFEFEFEFEFEFEFEFEFE008020
:10582000F0F8FCFEFEFEFEFEFEFCF8F0800000FE3E
:10583000FEFEFEFEFEF8000000FEFEFEFE00000082
:105840000000000000000000C0F0F8FEFFFFFFFFB6
:10585000FFFFFFFFFFFFFFFFFF0000000000000051
:105860000000FFFFFFFFFFFF0101FFFFFFFFFFFF42
:1058700000FFFFFFFFFFFF0101FFFFFFFFFFFF0032
:1058800000007FFFFFFFFFF800F8FFFFFFFF0700AA
:105890000000010101FFFFFFFFFFFF01010100FF09
:1058A000FFFFFFFFFF0101FFFFFFFFFFFF0000FF02
:1058B000FFFFFFFFFFFFF00000FFFFFFFF00000002
:1058C0000000000080F0FCFFFFFFFFFFFFFF7F3FB5
:1058D0001F0F070303010101010000000000000089
:1058E0000000FFFFFFFFFFFF0000FFFFFFFFFFFFC4
:1058F00000FFFFFFFFFFFF0000FFFFFFFFFFFF00B4
:105900000000003FFFFFFFFFFCFFFFFFFF0700005D
:105910000000000000FFFFFFFFFFFF00000000FF8E
:10592000FFFFFFFFFF0000FFFFFFFFFFFF0000FF83
:10593000FFFFFFFFFFFFFFF000FFFFFFFF00000082
:105940000000E0FCFFFFFFFFFFFF7F1F07010000DB
:105950000000000000000000000000000000000047
:105960000000FFFFFFFFFFFFFEFEFFFFCF870301E9
:1059700000FFFFFFFFFFFF0000FFFFFFFFFFFF0033
:1059800000000000FFFFFFFFFFFFFFFF030000001C
:105990000000000000FFFFFFFFFFFF00000000FF0E
:1059A000FFFFFFFFFF0000FFFFFFFFFFFF0000FF03
:1059B000FFFFFF3FFFFFFFFFF0FFFFFFFF000000C3
:1059C000C0FEFFFFFFFFFFFF1F01000000000000FF
:1059D00080E0F0F8FCFEFEFFFF0000000000000089
:1059E0000000FFFFFFFFFFFF0303FFFFFFFFFFFEBE
:1059F00000FFFFFFFFFFFF0000FFFFFFFFFFFF00B3
:105A0000000000FEFFFFFFFFFFFFFFFFFE000000A2
:105A10000000000000FFFFFFFFFFFF00000000FF8D
:105A2000FFFFFFFFFF0000FFFFFFFFFFFF0000FF82
:105A3000FFFFFF003FFFFFFFFFFFFFFFFF0000F042
:105A4000FFFFFFFFFFFF1F00000000000080F0FECF
:105A5000FFFFFFFFFFFFFFFFFF000000000000004F
:105A60000000FFFFFFFFFFFF0000FFFFFFFFFFFF42
:105A700000FFFFFFFFFFFF0000FFFFFFFFFFFF0032
:105A80000000FFFFFFFFFF0FFFFFFFFFFFFF000012
:105A90000000000000FFFFFFFFFFFF00000000FF0D
:105AA000FFFFFFFFFF0000FFFFFFFFFFFF0000FF02
:105AB000FFFFFF00003FFFFFFFFFFFFFFF00E0FFD2
:105AC000FFFFFFFFFF0F000000000000F0FFFFFFDF
:105AD000FFFFFFFFFFFFFFFFFF00000000000000CF
